{
  "contractName": "BuildOrganization",
  "abi": [
    {
      "anonymous": false,
      "inputs": [
        {
          "indexed": false,
          "internalType": "uint256",
          "name": "fileId",
          "type": "uint256"
        },
        {
          "indexed": false,
          "internalType": "string",
          "name": "fileHash",
          "type": "string"
        },
        {
          "indexed": false,
          "internalType": "uint256",
          "name": "fileSize",
          "type": "uint256"
        },
        {
          "indexed": false,
          "internalType": "string",
          "name": "fileType",
          "type": "string"
        },
        {
          "indexed": false,
          "internalType": "string",
          "name": "fileName",
          "type": "string"
        },
        {
          "indexed": false,
          "internalType": "string",
          "name": "fileDescription",
          "type": "string"
        },
        {
          "indexed": false,
          "internalType": "uint256",
          "name": "uploadTime",
          "type": "uint256"
        },
        {
          "indexed": false,
          "internalType": "address payable",
          "name": "uploader",
          "type": "address"
        }
      ],
      "name": "FileUploaded",
      "type": "event"
    },
    {
      "constant": true,
      "inputs": [],
      "name": "fileCount",
      "outputs": [
        {
          "internalType": "uint256",
          "name": "",
          "type": "uint256"
        }
      ],
      "payable": false,
      "stateMutability": "view",
      "type": "function"
    },
    {
      "constant": true,
      "inputs": [
        {
          "internalType": "uint256",
          "name": "",
          "type": "uint256"
        }
      ],
      "name": "files",
      "outputs": [
        {
          "internalType": "uint256",
          "name": "fileId",
          "type": "uint256"
        },
        {
          "internalType": "string",
          "name": "fileHash",
          "type": "string"
        },
        {
          "internalType": "uint256",
          "name": "fileSize",
          "type": "uint256"
        },
        {
          "internalType": "string",
          "name": "fileType",
          "type": "string"
        },
        {
          "internalType": "string",
          "name": "fileName",
          "type": "string"
        },
        {
          "internalType": "string",
          "name": "fileDescription",
          "type": "string"
        },
        {
          "internalType": "uint256",
          "name": "uploadTime",
          "type": "uint256"
        },
        {
          "internalType": "address payable",
          "name": "uploader",
          "type": "address"
        }
      ],
      "payable": false,
      "stateMutability": "view",
      "type": "function"
    },
    {
      "constant": true,
      "inputs": [],
      "name": "name",
      "outputs": [
        {
          "internalType": "string",
          "name": "",
          "type": "string"
        }
      ],
      "payable": false,
      "stateMutability": "view",
      "type": "function"
    },
    {
      "constant": true,
      "inputs": [
        {
          "internalType": "uint256",
          "name": "",
          "type": "uint256"
        }
      ],
      "name": "organizations",
      "outputs": [
        {
          "internalType": "uint256",
          "name": "Id",
          "type": "uint256"
        },
        {
          "internalType": "string",
          "name": "Name",
          "type": "string"
        },
        {
          "internalType": "string",
          "name": "Description",
          "type": "string"
        },
        {
          "internalType": "address",
          "name": "Owner",
          "type": "address"
        },
        {
          "internalType": "bool",
          "name": "Private",
          "type": "bool"
        },
        {
          "internalType": "uint256",
          "name": "MemberLimit",
          "type": "uint256"
        },
        {
          "internalType": "string",
          "name": "Passcode",
          "type": "string"
        },
        {
          "internalType": "uint256",
          "name": "createdAt",
          "type": "uint256"
        }
      ],
      "payable": false,
      "stateMutability": "view",
      "type": "function"
    },
    {
      "constant": false,
      "inputs": [
        {
          "internalType": "string",
          "name": "_fileHash",
          "type": "string"
        },
        {
          "internalType": "uint256",
          "name": "_fileSize",
          "type": "uint256"
        },
        {
          "internalType": "string",
          "name": "_fileType",
          "type": "string"
        },
        {
          "internalType": "string",
          "name": "_fileName",
          "type": "string"
        },
        {
          "internalType": "string",
          "name": "_fileDescription",
          "type": "string"
        }
      ],
      "name": "uploadFile",
      "outputs": [],
      "payable": false,
      "stateMutability": "nonpayable",
      "type": "function"
    },
    {
      "constant": false,
      "inputs": [
        {
          "internalType": "string",
          "name": "name",
          "type": "string"
        },
        {
          "internalType": "string",
          "name": "description",
          "type": "string"
        },
        {
          "internalType": "bool",
          "name": "privateBool",
          "type": "bool"
        },
        {
          "internalType": "uint256",
          "name": "memberLimit",
          "type": "uint256"
        },
        {
          "internalType": "string",
          "name": "passcode",
          "type": "string"
        }
      ],
      "name": "createOrganization",
      "outputs": [],
      "payable": false,
      "stateMutability": "nonpayable",
      "type": "function"
    },
    {
      "constant": false,
      "inputs": [
        {
          "internalType": "uint256",
          "name": "id",
          "type": "uint256"
        },
        {
          "internalType": "string",
          "name": "name",
          "type": "string"
        },
        {
          "internalType": "string",
          "name": "description",
          "type": "string"
        },
        {
          "internalType": "bool",
          "name": "privateBool",
          "type": "bool"
        },
        {
          "internalType": "uint256",
          "name": "memberLimit",
          "type": "uint256"
        },
        {
          "internalType": "string",
          "name": "passcode",
          "type": "string"
        }
      ],
      "name": "editOrganization",
      "outputs": [],
      "payable": false,
      "stateMutability": "nonpayable",
      "type": "function"
    },
    {
      "constant": false,
      "inputs": [
        {
          "internalType": "uint256",
          "name": "id",
          "type": "uint256"
        }
      ],
      "name": "deleteOrganization",
      "outputs": [],
      "payable": false,
      "stateMutability": "nonpayable",
      "type": "function"
    },
    {
      "constant": true,
      "inputs": [],
      "name": "getOrganizations",
      "outputs": [
        {
          "components": [
            {
              "internalType": "uint256",
              "name": "Id",
              "type": "uint256"
            },
            {
              "internalType": "string",
              "name": "Name",
              "type": "string"
            },
            {
              "internalType": "string",
              "name": "Description",
              "type": "string"
            },
            {
              "internalType": "address",
              "name": "Owner",
              "type": "address"
            },
            {
              "internalType": "bool",
              "name": "Private",
              "type": "bool"
            },
            {
              "internalType": "uint256",
              "name": "MemberLimit",
              "type": "uint256"
            },
            {
              "internalType": "string",
              "name": "Passcode",
              "type": "string"
            },
            {
              "internalType": "uint256",
              "name": "createdAt",
              "type": "uint256"
            }
          ],
          "internalType": "struct BuildOrganization.Organization[]",
          "name": "",
          "type": "tuple[]"
        }
      ],
      "payable": false,
      "stateMutability": "view",
      "type": "function"
    },
    {
      "constant": true,
      "inputs": [],
      "name": "getMemberships",
      "outputs": [
        {
          "internalType": "uint256[]",
          "name": "",
          "type": "uint256[]"
        }
      ],
      "payable": false,
      "stateMutability": "view",
      "type": "function"
    }
  ],
  "bytecode": "0x60806040526040518060400160405280600981526020017f444353746f726167650000000000000000000000000000000000000000000000815250600090805190602001906200005192919062000062565b506000600155600060035562000111565b828054600181600116156101000203166002900490600052602060002090601f016020900481019282601f10620000a557805160ff1916838001178555620000d6565b82800160010185558215620000d6579182015b82811115620000d5578251825591602001919060010190620000b8565b5b509050620000e59190620000e9565b5090565b6200010e91905b808211156200010a576000816000905550600101620000f0565b5090565b90565b6122bf80620001216000396000f3fe608060405234801561001057600080fd5b506004361061009e5760003560e01c80639754a3a8116100665780639754a3a814610135578063dc1301af14610153578063e792dd8a1461016f578063e82d9d33146101a6578063f4c714b4146101c25761009e565b806306fdde03146100a357806329ab4bf3146100c157806343953519146100dd578063481c1093146100fb5780637840c6a414610117575b600080fd5b6100ab6101f9565b6040516100b89190611e9a565b60405180910390f35b6100db60048036036100d69190810190611ab4565b610297565b005b6100e56103fc565b6040516100f29190611ebc565b60405180910390f35b610115600480360361011091908101906118f5565b610402565b005b61011f610749565b60405161012c9190611e78565b60405180910390f35b61013d6107de565b60405161014a9190611e56565b60405180910390f35b61016d60048036036101689190810190611a8b565b610ab3565b005b61018960048036036101849190810190611a8b565b610e48565b60405161019d989796959493929190611f71565b60405180910390f35b6101c060048036036101bb91908101906119b4565b611092565b005b6101dc60048036036101d79190810190611a8b565b6112b4565b6040516101f0989796959493929190612004565b60405180910390f35b60008054600181600116156101000203166002900480601f01602080910402602001604051908101604052809291908181526020018280546001816001161561010002031660029004801561028f5780601f106102645761010080835404028352916020019161028f565b820191906000526020600020905b81548152906001019060200180831161027257829003601f168201915b505050505081565b3373ffffffffffffffffffffffffffffffffffffffff166005600088815260200190815260200160002060009054906101000a900473ffffffffffffffffffffffffffffffffffffffff1673ffffffffffffffffffffffffffffffffffffffff161461030257600080fd5b846004878154811061031057fe5b906000526020600020906007020160010190805190602001906103349291906115af565b50836004878154811061034357fe5b906000526020600020906007020160020190805190602001906103679291906115af565b50826004878154811061037657fe5b906000526020600020906007020160030160146101000a81548160ff02191690831515021790555081600487815481106103ac57fe5b90600052602060002090600702016004018190555080600487815481106103cf57fe5b906000526020600020906007020160050190805190602001906103f39291906115af565b50505050505050565b60015481565b6000600354905060046040518061010001604052808381526020018881526020018781526020013373ffffffffffffffffffffffffffffffffffffffff168152602001861515815260200185815260200184815260200142815250908060018154018082558091505090600182039060005260206000209060070201600090919290919091506000820151816000015560208201518160010190805190602001906104ae92919061162f565b5060408201518160020190805190602001906104cb92919061162f565b5060608201518160030160006101000a81548173ffffffffffffffffffffffffffffffffffffffff021916908373ffffffffffffffffffffffffffffffffffffffff16021790555060808201518160030160146101000a81548160ff02191690831515021790555060a0820151816004015560c082015181600501908051906020019061055992919061162f565b5060e08201518160060155505050336005600083815260200190815260200160002060006101000a81548173ffffffffffffffffffffffffffffffffffffffff021916908373ffffffffffffffffffffffffffffffffffffffff16021790555061060c6001600660003373ffffffffffffffffffffffffffffffffffffffff1673ffffffffffffffffffffffffffffffffffffffff1681526020019081526020016000205461157c90919063ffffffff16565b600660003373ffffffffffffffffffffffffffffffffffffffff1673ffffffffffffffffffffffffffffffffffffffff16815260200190815260200160002081905550600760003373ffffffffffffffffffffffffffffffffffffffff1673ffffffffffffffffffffffffffffffffffffffff168152602001908152602001600020819080600181540180825580915050906001820390600052602060002001600090919290919091505550600860008281526020019081526020016000203390806001815401808255809150509060018203906000526020600020016000909192909190916101000a81548173ffffffffffffffffffffffffffffffffffffffff021916908373ffffffffffffffffffffffffffffffffffffffff16021790555050600360008154809291906001019190505550505050505050565b6060600760003373ffffffffffffffffffffffffffffffffffffffff1673ffffffffffffffffffffffffffffffffffffffff1681526020019081526020016000208054806020026020016040519081016040528092919081815260200182805480156107d457602002820191906000526020600020905b8154815260200190600101908083116107c0575b5050505050905090565b60606004805480602002602001604051908101604052809291908181526020016000905b82821015610aaa57838290600052602060002090600702016040518061010001604052908160008201548152602001600182018054600181600116156101000203166002900480601f0160208091040260200160405190810160405280929190818152602001828054600181600116156101000203166002900480156108c95780601f1061089e576101008083540402835291602001916108c9565b820191906000526020600020905b8154815290600101906020018083116108ac57829003601f168201915b50505050508152602001600282018054600181600116156101000203166002900480601f01602080910402602001604051908101604052809291908181526020018280546001816001161561010002031660029004801561096b5780601f106109405761010080835404028352916020019161096b565b820191906000526020600020905b81548152906001019060200180831161094e57829003601f168201915b505050505081526020016003820160009054906101000a900473ffffffffffffffffffffffffffffffffffffffff1673ffffffffffffffffffffffffffffffffffffffff1673ffffffffffffffffffffffffffffffffffffffff1681526020016003820160149054906101000a900460ff1615151515815260200160048201548152602001600582018054600181600116156101000203166002900480601f016020809104026020016040519081016040528092919081815260200182805460018160011615610100020316600290048015610a885780601f10610a5d57610100808354040283529160200191610a88565b820191906000526020600020905b815481529060010190602001808311610a6b57829003601f168201915b5050505050815260200160068201548152505081526020019060010190610802565b50505050905090565b3373ffffffffffffffffffffffffffffffffffffffff166005600083815260200190815260200160002060009054906101000a900473ffffffffffffffffffffffffffffffffffffffff1673ffffffffffffffffffffffffffffffffffffffff1614610b1e57600080fd5b6004805490508110610b2f57610e45565b60008190505b600160048054905003811015610cb85760046001820181548110610b5557fe5b906000526020600020906007020160048281548110610b7057fe5b90600052602060002090600702016000820154816000015560018201816001019080546001816001161561010002031660029004610baf9291906116af565b5060028201816002019080546001816001161561010002031660029004610bd79291906116af565b506003820160009054906101000a900473ffffffffffffffffffffffffffffffffffffffff168160030160006101000a81548173ffffffffffffffffffffffffffffffffffffffff021916908373ffffffffffffffffffffffffffffffffffffffff1602179055506003820160149054906101000a900460ff168160030160146101000a81548160ff0219169083151502179055506004820154816004015560058201816005019080546001816001161561010002031660029004610c9d9291906116af565b50600682015481600601559050508080600101915050610b35565b50600460016004805490500381548110610cce57fe5b9060005260206000209060070201600080820160009055600182016000610cf59190611736565b600282016000610d059190611736565b6003820160006101000a81549073ffffffffffffffffffffffffffffffffffffffff02191690556003820160146101000a81549060ff02191690556004820160009055600582016000610d589190611736565b600682016000905550506004805480919060019003610d77919061177e565b506005600082815260200190815260200160002060006101000a81549073ffffffffffffffffffffffffffffffffffffffff0219169055610e016001600660003373ffffffffffffffffffffffffffffffffffffffff1673ffffffffffffffffffffffffffffffffffffffff1681526020019081526020016000205461159890919063ffffffff16565b600660003373ffffffffffffffffffffffffffffffffffffffff1673ffffffffffffffffffffffffffffffffffffffff168152602001908152602001600020819055505b50565b60048181548110610e5557fe5b9060005260206000209060070201600091509050806000015490806001018054600181600116156101000203166002900480601f016020809104026020016040519081016040528092919081815260200182805460018160011615610100020316600290048015610f075780601f10610edc57610100808354040283529160200191610f07565b820191906000526020600020905b815481529060010190602001808311610eea57829003601f168201915b505050505090806002018054600181600116156101000203166002900480601f016020809104026020016040519081016040528092919081815260200182805460018160011615610100020316600290048015610fa55780601f10610f7a57610100808354040283529160200191610fa5565b820191906000526020600020905b815481529060010190602001808311610f8857829003601f168201915b5050505050908060030160009054906101000a900473ffffffffffffffffffffffffffffffffffffffff16908060030160149054906101000a900460ff1690806004015490806005018054600181600116156101000203166002900480601f0160208091040260200160405190810160405280929190818152602001828054600181600116156101000203166002900480156110825780601f1061105757610100808354040283529160200191611082565b820191906000526020600020905b81548152906001019060200180831161106557829003601f168201915b5050505050908060060154905088565b60008551116110a057600080fd5b60008351116110ae57600080fd5b60008251116110bc57600080fd5b60008151116110ca57600080fd5b600073ffffffffffffffffffffffffffffffffffffffff163373ffffffffffffffffffffffffffffffffffffffff16141561110457600080fd5b6000841161111157600080fd5b60405180610100016040528060015481526020018681526020018581526020018481526020018381526020018281526020014281526020013373ffffffffffffffffffffffffffffffffffffffff1681525060026000600154815260200190815260200160002060008201518160000155602082015181600101908051906020019061119e92919061162f565b506040820151816002015560608201518160030190805190602001906111c592919061162f565b5060808201518160040190805190602001906111e292919061162f565b5060a08201518160050190805190602001906111ff92919061162f565b5060c0820151816006015560e08201518160070160006101000a81548173ffffffffffffffffffffffffffffffffffffffff021916908373ffffffffffffffffffffffffffffffffffffffff1602179055509050506001600081548092919060010191905055507f6e95bbaa37a5fdec42a312e049dea2fe6160ebe659214d3409b4f91f164c2f52600154868686868642336040516112a5989796959493929190611ed7565b60405180910390a15050505050565b6002602052806000526040600020600091509050806000015490806001018054600181600116156101000203166002900480601f0160208091040260200160405190810160405280929190818152602001828054600181600116156101000203166002900480156113665780601f1061133b57610100808354040283529160200191611366565b820191906000526020600020905b81548152906001019060200180831161134957829003601f168201915b505050505090806002015490806003018054600181600116156101000203166002900480601f01602080910402602001604051908101604052809291908181526020018280546001816001161561010002031660029004801561140a5780601f106113df5761010080835404028352916020019161140a565b820191906000526020600020905b8154815290600101906020018083116113ed57829003601f168201915b505050505090806004018054600181600116156101000203166002900480601f0160208091040260200160405190810160405280929190818152602001828054600181600116156101000203166002900480156114a85780601f1061147d576101008083540402835291602001916114a8565b820191906000526020600020905b81548152906001019060200180831161148b57829003601f168201915b505050505090806005018054600181600116156101000203166002900480601f0160208091040260200160405190810160405280929190818152602001828054600181600116156101000203166002900480156115465780601f1061151b57610100808354040283529160200191611546565b820191906000526020600020905b81548152906001019060200180831161152957829003601f168201915b5050505050908060060154908060070160009054906101000a900473ffffffffffffffffffffffffffffffffffffffff16905088565b60008082840190508381101561158e57fe5b8091505092915050565b6000828211156115a457fe5b818303905092915050565b828054600181600116156101000203166002900490600052602060002090601f016020900481019282601f106115f057805160ff191683800117855561161e565b8280016001018555821561161e579182015b8281111561161d578251825591602001919060010190611602565b5b50905061162b91906117b0565b5090565b828054600181600116156101000203166002900490600052602060002090601f016020900481019282601f1061167057805160ff191683800117855561169e565b8280016001018555821561169e579182015b8281111561169d578251825591602001919060010190611682565b5b5090506116ab91906117b0565b5090565b828054600181600116156101000203166002900490600052602060002090601f016020900481019282601f106116e85780548555611725565b8280016001018555821561172557600052602060002091601f016020900482015b82811115611724578254825591600101919060010190611709565b5b50905061173291906117b0565b5090565b50805460018160011615610100020316600290046000825580601f1061175c575061177b565b601f01602090049060005260206000209081019061177a91906117b0565b5b50565b8154818355818111156117ab576007028160070283600052602060002091820191016117aa91906117d5565b5b505050565b6117d291905b808211156117ce5760008160009055506001016117b6565b5090565b90565b61187491905b80821115611870576000808201600090556001820160006117fc9190611736565b60028201600061180c9190611736565b6003820160006101000a81549073ffffffffffffffffffffffffffffffffffffffff02191690556003820160146101000a81549060ff0219169055600482016000905560058201600061185f9190611736565b6006820160009055506007016117db565b5090565b90565b6000813590506118868161224e565b92915050565b600082601f83011261189d57600080fd5b81356118b06118ab826120cb565b61209e565b915080825260208301602083018583830111156118cc57600080fd5b6118d78382846121fb565b50505092915050565b6000813590506118ef81612265565b92915050565b600080600080600060a0868803121561190d57600080fd5b600086013567ffffffffffffffff81111561192757600080fd5b6119338882890161188c565b955050602086013567ffffffffffffffff81111561195057600080fd5b61195c8882890161188c565b945050604061196d88828901611877565b935050606061197e888289016118e0565b925050608086013567ffffffffffffffff81111561199b57600080fd5b6119a78882890161188c565b9150509295509295909350565b600080600080600060a086880312156119cc57600080fd5b600086013567ffffffffffffffff8111156119e657600080fd5b6119f28882890161188c565b9550506020611a03888289016118e0565b945050604086013567ffffffffffffffff811115611a2057600080fd5b611a2c8882890161188c565b935050606086013567ffffffffffffffff811115611a4957600080fd5b611a558882890161188c565b925050608086013567ffffffffffffffff811115611a7257600080fd5b611a7e8882890161188c565b9150509295509295909350565b600060208284031215611a9d57600080fd5b6000611aab848285016118e0565b91505092915050565b60008060008060008060c08789031215611acd57600080fd5b6000611adb89828a016118e0565b965050602087013567ffffffffffffffff811115611af857600080fd5b611b0489828a0161188c565b955050604087013567ffffffffffffffff811115611b2157600080fd5b611b2d89828a0161188c565b9450506060611b3e89828a01611877565b9350506080611b4f89828a016118e0565b92505060a087013567ffffffffffffffff811115611b6c57600080fd5b611b7889828a0161188c565b9150509295509295509295565b6000611b918383611d7a565b905092915050565b6000611ba58383611e38565b60208301905092915050565b611bba816121b3565b82525050565b611bc9816121a1565b82525050565b611bd8816121a1565b82525050565b6000611be982612117565b611bf3818561215d565b935083602082028501611c05856120f7565b8060005b85811015611c415784840389528151611c228582611b85565b9450611c2d83612143565b925060208a01995050600181019050611c09565b50829750879550505050505092915050565b6000611c5e82612122565b611c68818561216e565b9350611c7383612107565b8060005b83811015611ca4578151611c8b8882611b99565b9750611c9683612150565b925050600181019050611c77565b5085935050505092915050565b611cba816121c5565b82525050565b611cc9816121c5565b82525050565b6000611cda82612138565b611ce48185612190565b9350611cf481856020860161220a565b611cfd8161223d565b840191505092915050565b6000611d138261212d565b611d1d818561217f565b9350611d2d81856020860161220a565b611d368161223d565b840191505092915050565b6000611d4c8261212d565b611d568185612190565b9350611d6681856020860161220a565b611d6f8161223d565b840191505092915050565b600061010083016000830151611d936000860182611e38565b5060208301518482036020860152611dab8282611d08565b91505060408301518482036040860152611dc58282611d08565b9150506060830151611dda6060860182611bc0565b506080830151611ded6080860182611cb1565b5060a0830151611e0060a0860182611e38565b5060c083015184820360c0860152611e188282611d08565b91505060e0830151611e2d60e0860182611e38565b508091505092915050565b611e41816121f1565b82525050565b611e50816121f1565b82525050565b60006020820190508181036000830152611e708184611bde565b905092915050565b60006020820190508181036000830152611e928184611c53565b905092915050565b60006020820190508181036000830152611eb48184611d41565b905092915050565b6000602082019050611ed16000830184611e47565b92915050565b600061010082019050611eed600083018b611e47565b8181036020830152611eff818a611ccf565b9050611f0e6040830189611e47565b8181036060830152611f208188611ccf565b90508181036080830152611f348187611ccf565b905081810360a0830152611f488186611ccf565b9050611f5760c0830185611e47565b611f6460e0830184611bb1565b9998505050505050505050565b600061010082019050611f87600083018b611e47565b8181036020830152611f99818a611d41565b90508181036040830152611fad8189611d41565b9050611fbc6060830188611bcf565b611fc96080830187611cc0565b611fd660a0830186611e47565b81810360c0830152611fe88185611d41565b9050611ff760e0830184611e47565b9998505050505050505050565b60006101008201905061201a600083018b611e47565b818103602083015261202c818a611d41565b905061203b6040830189611e47565b818103606083015261204d8188611d41565b905081810360808301526120618187611d41565b905081810360a08301526120758186611d41565b905061208460c0830185611e47565b61209160e0830184611bb1565b9998505050505050505050565b6000604051905081810181811067ffffffffffffffff821117156120c157600080fd5b8060405250919050565b600067ffffffffffffffff8211156120e257600080fd5b601f19601f8301169050602081019050919050565b6000819050602082019050919050565b6000819050602082019050919050565b600081519050919050565b600081519050919050565b600081519050919050565b600081519050919050565b6000602082019050919050565b6000602082019050919050565b600082825260208201905092915050565b600082825260208201905092915050565b600082825260208201905092915050565b600082825260208201905092915050565b60006121ac826121d1565b9050919050565b60006121be826121d1565b9050919050565b60008115159050919050565b600073ffffffffffffffffffffffffffffffffffffffff82169050919050565b6000819050919050565b82818337600083830152505050565b60005b8381101561222857808201518184015260208101905061220d565b83811115612237576000848401525b50505050565b6000601f19601f8301169050919050565b612257816121c5565b811461226257600080fd5b50565b61226e816121f1565b811461227957600080fd5b5056fea365627a7a72315820af796c0ea4b23e322567ee2d25f3d4e285980238265a1af3eebfc20e63d59b526c6578706572696d656e74616cf564736f6c63430005100040",
  "source": "// SPDX-License-Identifier: UNLICENSED\npragma solidity ^0.5.0;\npragma experimental ABIEncoderV2;\n\nimport \"./DCStorage.sol\";\nimport \"./safemath.sol\";\n\ncontract BuildOrganization is DCStorage{\n\n    using SafeMath for uint256;\n    using SafeMath32 for uint32;\n    using SafeMath16 for uint16;\n\n    uint setId = 0;\n\n    struct Organization {\n        uint Id;\n        string Name;\n        string Description;\n        address Owner;\n        bool Private;\n        uint MemberLimit;\n        string Passcode;\n        uint createdAt;\n    }\n\n    Organization[] public organizations;\n\n    mapping(uint => address) organizationToOwner;\n\n    mapping(address => uint) ownerOrganizationCount;\n\n    mapping(address => uint[]) addressToOrganizations;\n\n    mapping(uint => address[]) organizationToAddresses;\n\n    function createOrganization(string memory name, string memory description, bool privateBool, uint memberLimit, string memory passcode) public {\n        uint id = setId;\n        organizations.push(Organization(id, name, description, msg.sender, privateBool, memberLimit, passcode, now));\n        organizationToOwner[id] = msg.sender;\n        ownerOrganizationCount[msg.sender] = ownerOrganizationCount[msg.sender].add(1);\n        addressToOrganizations[msg.sender].push(id);\n        organizationToAddresses[id].push(msg.sender);\n        setId++;\n    }\n\n    function editOrganization(uint id, string memory name, string memory description, bool privateBool, uint memberLimit, string memory passcode) public {\n        require(organizationToOwner[id] == msg.sender);\n        organizations[id].Name = name;\n        organizations[id].Description = description;\n        organizations[id].Private = privateBool;\n        organizations[id].MemberLimit = memberLimit;\n        organizations[id].Passcode = passcode;\n    }\n\n    function deleteOrganization(uint id) public {\n        require(organizationToOwner[id] == msg.sender);\n        if(id >= organizations.length) return;\n        for (uint i = id; i < organizations.length - 1; i++){\n            organizations[i] = organizations[i + 1];\n        }\n        delete organizations[organizations.length - 1];\n        organizations.length--;\n        delete organizationToOwner[id];\n        ownerOrganizationCount[msg.sender] = ownerOrganizationCount[msg.sender].sub(1);\n    }\n\n    function getOrganizations() external view returns(Organization[] memory) {\n        return organizations;\n    }\n\n    function getMemberships() external view returns(uint[] memory){\n        return addressToOrganizations[msg.sender];\n    }\n\n}\n\n",
  "sourcePath": "/Users/csuftitan/Desktop/Meet Turakhia/Advanced Blockchain (CPSC 559)/Projects/Final Project(4 Dec 2022)/src/contracts/Organization.sol",
  "compiler": {
    "name": "solc",
    "version": "0.5.16+commit.9c3226ce.Emscripten.clang"
  },
  "schemaVersion": "3.4.9",
  "updatedAt": "2022-12-04T07:21:37.820Z",
  "networkType": "ethereum",
  "devdoc": {
    "methods": {}
  },
  "userdoc": {
    "methods": {}
  }
}