{
  "contractName": "BuildOrganization",
  "abi": [
    {
      "anonymous": false,
      "inputs": [
        {
          "indexed": false,
          "internalType": "uint256",
          "name": "fileId",
          "type": "uint256"
        },
        {
          "indexed": false,
          "internalType": "string",
          "name": "fileHash",
          "type": "string"
        },
        {
          "indexed": false,
          "internalType": "uint256",
          "name": "fileSize",
          "type": "uint256"
        },
        {
          "indexed": false,
          "internalType": "string",
          "name": "fileType",
          "type": "string"
        },
        {
          "indexed": false,
          "internalType": "string",
          "name": "fileName",
          "type": "string"
        },
        {
          "indexed": false,
          "internalType": "string",
          "name": "fileDescription",
          "type": "string"
        },
        {
          "indexed": false,
          "internalType": "uint256",
          "name": "uploadTime",
          "type": "uint256"
        },
        {
          "indexed": false,
          "internalType": "address payable",
          "name": "uploader",
          "type": "address"
        }
      ],
      "name": "FileUploaded",
      "type": "event"
    },
    {
      "constant": true,
      "inputs": [],
      "name": "fileCount",
      "outputs": [
        {
          "internalType": "uint256",
          "name": "",
          "type": "uint256"
        }
      ],
      "payable": false,
      "stateMutability": "view",
      "type": "function"
    },
    {
      "constant": true,
      "inputs": [
        {
          "internalType": "uint256",
          "name": "",
          "type": "uint256"
        }
      ],
      "name": "files",
      "outputs": [
        {
          "internalType": "uint256",
          "name": "fileId",
          "type": "uint256"
        },
        {
          "internalType": "string",
          "name": "fileHash",
          "type": "string"
        },
        {
          "internalType": "uint256",
          "name": "fileSize",
          "type": "uint256"
        },
        {
          "internalType": "string",
          "name": "fileType",
          "type": "string"
        },
        {
          "internalType": "string",
          "name": "fileName",
          "type": "string"
        },
        {
          "internalType": "string",
          "name": "fileDescription",
          "type": "string"
        },
        {
          "internalType": "uint256",
          "name": "uploadTime",
          "type": "uint256"
        },
        {
          "internalType": "address payable",
          "name": "uploader",
          "type": "address"
        }
      ],
      "payable": false,
      "stateMutability": "view",
      "type": "function"
    },
    {
      "constant": true,
      "inputs": [],
      "name": "name",
      "outputs": [
        {
          "internalType": "string",
          "name": "",
          "type": "string"
        }
      ],
      "payable": false,
      "stateMutability": "view",
      "type": "function"
    },
    {
      "constant": true,
      "inputs": [
        {
          "internalType": "uint256",
          "name": "",
          "type": "uint256"
        }
      ],
      "name": "organizations",
      "outputs": [
        {
          "internalType": "uint256",
          "name": "Id",
          "type": "uint256"
        },
        {
          "internalType": "string",
          "name": "Name",
          "type": "string"
        },
        {
          "internalType": "string",
          "name": "Description",
          "type": "string"
        },
        {
          "internalType": "address",
          "name": "Owner",
          "type": "address"
        },
        {
          "internalType": "bool",
          "name": "Private",
          "type": "bool"
        },
        {
          "internalType": "uint256",
          "name": "MemberLimit",
          "type": "uint256"
        },
        {
          "internalType": "string",
          "name": "Passcode",
          "type": "string"
        },
        {
          "internalType": "uint256",
          "name": "createdAt",
          "type": "uint256"
        }
      ],
      "payable": false,
      "stateMutability": "view",
      "type": "function"
    },
    {
      "constant": false,
      "inputs": [
        {
          "internalType": "string",
          "name": "_fileHash",
          "type": "string"
        },
        {
          "internalType": "uint256",
          "name": "_fileSize",
          "type": "uint256"
        },
        {
          "internalType": "string",
          "name": "_fileType",
          "type": "string"
        },
        {
          "internalType": "string",
          "name": "_fileName",
          "type": "string"
        },
        {
          "internalType": "string",
          "name": "_fileDescription",
          "type": "string"
        }
      ],
      "name": "uploadFile",
      "outputs": [],
      "payable": false,
      "stateMutability": "nonpayable",
      "type": "function"
    },
    {
      "constant": false,
      "inputs": [
        {
          "internalType": "string",
          "name": "name",
          "type": "string"
        },
        {
          "internalType": "string",
          "name": "description",
          "type": "string"
        },
        {
          "internalType": "bool",
          "name": "privateBool",
          "type": "bool"
        },
        {
          "internalType": "uint256",
          "name": "memberLimit",
          "type": "uint256"
        },
        {
          "internalType": "string",
          "name": "passcode",
          "type": "string"
        }
      ],
      "name": "createOrganization",
      "outputs": [],
      "payable": false,
      "stateMutability": "nonpayable",
      "type": "function"
    },
    {
      "constant": false,
      "inputs": [
        {
          "internalType": "uint256",
          "name": "id",
          "type": "uint256"
        },
        {
          "internalType": "string",
          "name": "name",
          "type": "string"
        },
        {
          "internalType": "string",
          "name": "description",
          "type": "string"
        },
        {
          "internalType": "bool",
          "name": "privateBool",
          "type": "bool"
        },
        {
          "internalType": "uint256",
          "name": "memberLimit",
          "type": "uint256"
        },
        {
          "internalType": "string",
          "name": "passcode",
          "type": "string"
        }
      ],
      "name": "editOrganization",
      "outputs": [],
      "payable": false,
      "stateMutability": "nonpayable",
      "type": "function"
    },
    {
      "constant": false,
      "inputs": [
        {
          "internalType": "uint256",
          "name": "id",
          "type": "uint256"
        }
      ],
      "name": "deleteOrganization",
      "outputs": [],
      "payable": false,
      "stateMutability": "nonpayable",
      "type": "function"
    },
    {
      "constant": true,
      "inputs": [],
      "name": "getOrganizations",
      "outputs": [
        {
          "components": [
            {
              "internalType": "uint256",
              "name": "Id",
              "type": "uint256"
            },
            {
              "internalType": "string",
              "name": "Name",
              "type": "string"
            },
            {
              "internalType": "string",
              "name": "Description",
              "type": "string"
            },
            {
              "internalType": "address",
              "name": "Owner",
              "type": "address"
            },
            {
              "internalType": "bool",
              "name": "Private",
              "type": "bool"
            },
            {
              "internalType": "uint256",
              "name": "MemberLimit",
              "type": "uint256"
            },
            {
              "internalType": "string",
              "name": "Passcode",
              "type": "string"
            },
            {
              "internalType": "uint256",
              "name": "createdAt",
              "type": "uint256"
            }
          ],
          "internalType": "struct BuildOrganization.Organization[]",
          "name": "",
          "type": "tuple[]"
        }
      ],
      "payable": false,
      "stateMutability": "view",
      "type": "function"
    },
    {
      "constant": true,
      "inputs": [],
      "name": "getMemberships",
      "outputs": [
        {
          "internalType": "uint256[]",
          "name": "",
          "type": "uint256[]"
        }
      ],
      "payable": false,
      "stateMutability": "view",
      "type": "function"
    }
  ],
  "bytecode": "0x60806040526040518060400160405280600981526020017f444353746f726167650000000000000000000000000000000000000000000000815250600090805190602001906200005192919062000062565b506000600155600060035562000111565b828054600181600116156101000203166002900490600052602060002090601f016020900481019282601f10620000a557805160ff1916838001178555620000d6565b82800160010185558215620000d6579182015b82811115620000d5578251825591602001919060010190620000b8565b5b509050620000e59190620000e9565b5090565b6200010e91905b808211156200010a576000816000905550600101620000f0565b5090565b90565b61237780620001216000396000f3fe608060405234801561001057600080fd5b506004361061009e5760003560e01c80639754a3a8116100665780639754a3a814610135578063dc1301af14610153578063e792dd8a1461016f578063e82d9d33146101a6578063f4c714b4146101c25761009e565b806306fdde03146100a357806329ab4bf3146100c157806343953519146100dd578063481c1093146100fb5780637840c6a414610117575b600080fd5b6100ab6101f9565b6040516100b89190611f52565b60405180910390f35b6100db60048036036100d69190810190611b6c565b610297565b005b6100e5610458565b6040516100f29190611f74565b60405180910390f35b610115600480360361011091908101906119ad565b61045e565b005b61011f610801565b60405161012c9190611f30565b60405180910390f35b61013d610896565b60405161014a9190611f0e565b60405180910390f35b61016d60048036036101689190810190611b43565b610b6b565b005b61018960048036036101849190810190611b43565b610f00565b60405161019d989796959493929190612029565b60405180910390f35b6101c060048036036101bb9190810190611a6c565b61114a565b005b6101dc60048036036101d79190810190611b43565b61136c565b6040516101f09897969594939291906120bc565b60405180910390f35b60008054600181600116156101000203166002900480601f01602080910402602001604051908101604052809291908181526020018280546001816001161561010002031660029004801561028f5780601f106102645761010080835404028352916020019161028f565b820191906000526020600020905b81548152906001019060200180831161027257829003601f168201915b505050505081565b60008551116102a557600080fd5b60008451116102b357600080fd5b600082116102c057600080fd5b6000151583151514156102e4576040518060200160405280600081525090506102f3565b60008151116102f257600080fd5b5b3373ffffffffffffffffffffffffffffffffffffffff166005600088815260200190815260200160002060009054906101000a900473ffffffffffffffffffffffffffffffffffffffff1673ffffffffffffffffffffffffffffffffffffffff161461035e57600080fd5b846004878154811061036c57fe5b90600052602060002090600702016001019080519060200190610390929190611667565b50836004878154811061039f57fe5b906000526020600020906007020160020190805190602001906103c3929190611667565b5082600487815481106103d257fe5b906000526020600020906007020160030160146101000a81548160ff021916908315150217905550816004878154811061040857fe5b906000526020600020906007020160040181905550806004878154811061042b57fe5b9060005260206000209060070201600501908051906020019061044f929190611667565b50505050505050565b60015481565b600085511161046c57600080fd5b600084511161047a57600080fd5b6000821161048757600080fd5b6000151583151514156104ab576040518060200160405280600081525090506104ba565b60008151116104b957600080fd5b5b6000600354905060046040518061010001604052808381526020018881526020018781526020013373ffffffffffffffffffffffffffffffffffffffff168152602001861515815260200185815260200184815260200142815250908060018154018082558091505090600182039060005260206000209060070201600090919290919091506000820151816000015560208201518160010190805190602001906105669291906116e7565b5060408201518160020190805190602001906105839291906116e7565b5060608201518160030160006101000a81548173ffffffffffffffffffffffffffffffffffffffff021916908373ffffffffffffffffffffffffffffffffffffffff16021790555060808201518160030160146101000a81548160ff02191690831515021790555060a0820151816004015560c08201518160050190805190602001906106119291906116e7565b5060e08201518160060155505050336005600083815260200190815260200160002060006101000a81548173ffffffffffffffffffffffffffffffffffffffff021916908373ffffffffffffffffffffffffffffffffffffffff1602179055506106c46001600660003373ffffffffffffffffffffffffffffffffffffffff1673ffffffffffffffffffffffffffffffffffffffff1681526020019081526020016000205461163490919063ffffffff16565b600660003373ffffffffffffffffffffffffffffffffffffffff1673ffffffffffffffffffffffffffffffffffffffff16815260200190815260200160002081905550600760003373ffffffffffffffffffffffffffffffffffffffff1673ffffffffffffffffffffffffffffffffffffffff168152602001908152602001600020819080600181540180825580915050906001820390600052602060002001600090919290919091505550600860008281526020019081526020016000203390806001815401808255809150509060018203906000526020600020016000909192909190916101000a81548173ffffffffffffffffffffffffffffffffffffffff021916908373ffffffffffffffffffffffffffffffffffffffff16021790555050600360008154809291906001019190505550505050505050565b6060600760003373ffffffffffffffffffffffffffffffffffffffff1673ffffffffffffffffffffffffffffffffffffffff16815260200190815260200160002080548060200260200160405190810160405280929190818152602001828054801561088c57602002820191906000526020600020905b815481526020019060010190808311610878575b5050505050905090565b60606004805480602002602001604051908101604052809291908181526020016000905b82821015610b6257838290600052602060002090600702016040518061010001604052908160008201548152602001600182018054600181600116156101000203166002900480601f0160208091040260200160405190810160405280929190818152602001828054600181600116156101000203166002900480156109815780601f1061095657610100808354040283529160200191610981565b820191906000526020600020905b81548152906001019060200180831161096457829003601f168201915b50505050508152602001600282018054600181600116156101000203166002900480601f016020809104026020016040519081016040528092919081815260200182805460018160011615610100020316600290048015610a235780601f106109f857610100808354040283529160200191610a23565b820191906000526020600020905b815481529060010190602001808311610a0657829003601f168201915b505050505081526020016003820160009054906101000a900473ffffffffffffffffffffffffffffffffffffffff1673ffffffffffffffffffffffffffffffffffffffff1673ffffffffffffffffffffffffffffffffffffffff1681526020016003820160149054906101000a900460ff1615151515815260200160048201548152602001600582018054600181600116156101000203166002900480601f016020809104026020016040519081016040528092919081815260200182805460018160011615610100020316600290048015610b405780601f10610b1557610100808354040283529160200191610b40565b820191906000526020600020905b815481529060010190602001808311610b2357829003601f168201915b50505050508152602001600682015481525050815260200190600101906108ba565b50505050905090565b3373ffffffffffffffffffffffffffffffffffffffff166005600083815260200190815260200160002060009054906101000a900473ffffffffffffffffffffffffffffffffffffffff1673ffffffffffffffffffffffffffffffffffffffff1614610bd657600080fd5b6004805490508110610be757610efd565b60008190505b600160048054905003811015610d705760046001820181548110610c0d57fe5b906000526020600020906007020160048281548110610c2857fe5b90600052602060002090600702016000820154816000015560018201816001019080546001816001161561010002031660029004610c67929190611767565b5060028201816002019080546001816001161561010002031660029004610c8f929190611767565b506003820160009054906101000a900473ffffffffffffffffffffffffffffffffffffffff168160030160006101000a81548173ffffffffffffffffffffffffffffffffffffffff021916908373ffffffffffffffffffffffffffffffffffffffff1602179055506003820160149054906101000a900460ff168160030160146101000a81548160ff0219169083151502179055506004820154816004015560058201816005019080546001816001161561010002031660029004610d55929190611767565b50600682015481600601559050508080600101915050610bed565b50600460016004805490500381548110610d8657fe5b9060005260206000209060070201600080820160009055600182016000610dad91906117ee565b600282016000610dbd91906117ee565b6003820160006101000a81549073ffffffffffffffffffffffffffffffffffffffff02191690556003820160146101000a81549060ff02191690556004820160009055600582016000610e1091906117ee565b600682016000905550506004805480919060019003610e2f9190611836565b506005600082815260200190815260200160002060006101000a81549073ffffffffffffffffffffffffffffffffffffffff0219169055610eb96001600660003373ffffffffffffffffffffffffffffffffffffffff1673ffffffffffffffffffffffffffffffffffffffff1681526020019081526020016000205461165090919063ffffffff16565b600660003373ffffffffffffffffffffffffffffffffffffffff1673ffffffffffffffffffffffffffffffffffffffff168152602001908152602001600020819055505b50565b60048181548110610f0d57fe5b9060005260206000209060070201600091509050806000015490806001018054600181600116156101000203166002900480601f016020809104026020016040519081016040528092919081815260200182805460018160011615610100020316600290048015610fbf5780601f10610f9457610100808354040283529160200191610fbf565b820191906000526020600020905b815481529060010190602001808311610fa257829003601f168201915b505050505090806002018054600181600116156101000203166002900480601f01602080910402602001604051908101604052809291908181526020018280546001816001161561010002031660029004801561105d5780601f106110325761010080835404028352916020019161105d565b820191906000526020600020905b81548152906001019060200180831161104057829003601f168201915b5050505050908060030160009054906101000a900473ffffffffffffffffffffffffffffffffffffffff16908060030160149054906101000a900460ff1690806004015490806005018054600181600116156101000203166002900480601f01602080910402602001604051908101604052809291908181526020018280546001816001161561010002031660029004801561113a5780601f1061110f5761010080835404028352916020019161113a565b820191906000526020600020905b81548152906001019060200180831161111d57829003601f168201915b5050505050908060060154905088565b600085511161115857600080fd5b600083511161116657600080fd5b600082511161117457600080fd5b600081511161118257600080fd5b600073ffffffffffffffffffffffffffffffffffffffff163373ffffffffffffffffffffffffffffffffffffffff1614156111bc57600080fd5b600084116111c957600080fd5b60405180610100016040528060015481526020018681526020018581526020018481526020018381526020018281526020014281526020013373ffffffffffffffffffffffffffffffffffffffff168152506002600060015481526020019081526020016000206000820151816000015560208201518160010190805190602001906112569291906116e7565b5060408201518160020155606082015181600301908051906020019061127d9291906116e7565b50608082015181600401908051906020019061129a9291906116e7565b5060a08201518160050190805190602001906112b79291906116e7565b5060c0820151816006015560e08201518160070160006101000a81548173ffffffffffffffffffffffffffffffffffffffff021916908373ffffffffffffffffffffffffffffffffffffffff1602179055509050506001600081548092919060010191905055507f6e95bbaa37a5fdec42a312e049dea2fe6160ebe659214d3409b4f91f164c2f526001548686868686423360405161135d989796959493929190611f8f565b60405180910390a15050505050565b6002602052806000526040600020600091509050806000015490806001018054600181600116156101000203166002900480601f01602080910402602001604051908101604052809291908181526020018280546001816001161561010002031660029004801561141e5780601f106113f35761010080835404028352916020019161141e565b820191906000526020600020905b81548152906001019060200180831161140157829003601f168201915b505050505090806002015490806003018054600181600116156101000203166002900480601f0160208091040260200160405190810160405280929190818152602001828054600181600116156101000203166002900480156114c25780601f10611497576101008083540402835291602001916114c2565b820191906000526020600020905b8154815290600101906020018083116114a557829003601f168201915b505050505090806004018054600181600116156101000203166002900480601f0160208091040260200160405190810160405280929190818152602001828054600181600116156101000203166002900480156115605780601f1061153557610100808354040283529160200191611560565b820191906000526020600020905b81548152906001019060200180831161154357829003601f168201915b505050505090806005018054600181600116156101000203166002900480601f0160208091040260200160405190810160405280929190818152602001828054600181600116156101000203166002900480156115fe5780601f106115d3576101008083540402835291602001916115fe565b820191906000526020600020905b8154815290600101906020018083116115e157829003601f168201915b5050505050908060060154908060070160009054906101000a900473ffffffffffffffffffffffffffffffffffffffff16905088565b60008082840190508381101561164657fe5b8091505092915050565b60008282111561165c57fe5b818303905092915050565b828054600181600116156101000203166002900490600052602060002090601f016020900481019282601f106116a857805160ff19168380011785556116d6565b828001600101855582156116d6579182015b828111156116d55782518255916020019190600101906116ba565b5b5090506116e39190611868565b5090565b828054600181600116156101000203166002900490600052602060002090601f016020900481019282601f1061172857805160ff1916838001178555611756565b82800160010185558215611756579182015b8281111561175557825182559160200191906001019061173a565b5b5090506117639190611868565b5090565b828054600181600116156101000203166002900490600052602060002090601f016020900481019282601f106117a057805485556117dd565b828001600101855582156117dd57600052602060002091601f016020900482015b828111156117dc5782548255916001019190600101906117c1565b5b5090506117ea9190611868565b5090565b50805460018160011615610100020316600290046000825580601f106118145750611833565b601f0160209004906000526020600020908101906118329190611868565b5b50565b81548183558181111561186357600702816007028360005260206000209182019101611862919061188d565b5b505050565b61188a91905b8082111561188657600081600090555060010161186e565b5090565b90565b61192c91905b80821115611928576000808201600090556001820160006118b491906117ee565b6002820160006118c491906117ee565b6003820160006101000a81549073ffffffffffffffffffffffffffffffffffffffff02191690556003820160146101000a81549060ff0219169055600482016000905560058201600061191791906117ee565b600682016000905550600701611893565b5090565b90565b60008135905061193e81612306565b92915050565b600082601f83011261195557600080fd5b813561196861196382612183565b612156565b9150808252602083016020830185838301111561198457600080fd5b61198f8382846122b3565b50505092915050565b6000813590506119a78161231d565b92915050565b600080600080600060a086880312156119c557600080fd5b600086013567ffffffffffffffff8111156119df57600080fd5b6119eb88828901611944565b955050602086013567ffffffffffffffff811115611a0857600080fd5b611a1488828901611944565b9450506040611a258882890161192f565b9350506060611a3688828901611998565b925050608086013567ffffffffffffffff811115611a5357600080fd5b611a5f88828901611944565b9150509295509295909350565b600080600080600060a08688031215611a8457600080fd5b600086013567ffffffffffffffff811115611a9e57600080fd5b611aaa88828901611944565b9550506020611abb88828901611998565b945050604086013567ffffffffffffffff811115611ad857600080fd5b611ae488828901611944565b935050606086013567ffffffffffffffff811115611b0157600080fd5b611b0d88828901611944565b925050608086013567ffffffffffffffff811115611b2a57600080fd5b611b3688828901611944565b9150509295509295909350565b600060208284031215611b5557600080fd5b6000611b6384828501611998565b91505092915050565b60008060008060008060c08789031215611b8557600080fd5b6000611b9389828a01611998565b965050602087013567ffffffffffffffff811115611bb057600080fd5b611bbc89828a01611944565b955050604087013567ffffffffffffffff811115611bd957600080fd5b611be589828a01611944565b9450506060611bf689828a0161192f565b9350506080611c0789828a01611998565b92505060a087013567ffffffffffffffff811115611c2457600080fd5b611c3089828a01611944565b9150509295509295509295565b6000611c498383611e32565b905092915050565b6000611c5d8383611ef0565b60208301905092915050565b611c728161226b565b82525050565b611c8181612259565b82525050565b611c9081612259565b82525050565b6000611ca1826121cf565b611cab8185612215565b935083602082028501611cbd856121af565b8060005b85811015611cf95784840389528151611cda8582611c3d565b9450611ce5836121fb565b925060208a01995050600181019050611cc1565b50829750879550505050505092915050565b6000611d16826121da565b611d208185612226565b9350611d2b836121bf565b8060005b83811015611d5c578151611d438882611c51565b9750611d4e83612208565b925050600181019050611d2f565b5085935050505092915050565b611d728161227d565b82525050565b611d818161227d565b82525050565b6000611d92826121f0565b611d9c8185612248565b9350611dac8185602086016122c2565b611db5816122f5565b840191505092915050565b6000611dcb826121e5565b611dd58185612237565b9350611de58185602086016122c2565b611dee816122f5565b840191505092915050565b6000611e04826121e5565b611e0e8185612248565b9350611e1e8185602086016122c2565b611e27816122f5565b840191505092915050565b600061010083016000830151611e4b6000860182611ef0565b5060208301518482036020860152611e638282611dc0565b91505060408301518482036040860152611e7d8282611dc0565b9150506060830151611e926060860182611c78565b506080830151611ea56080860182611d69565b5060a0830151611eb860a0860182611ef0565b5060c083015184820360c0860152611ed08282611dc0565b91505060e0830151611ee560e0860182611ef0565b508091505092915050565b611ef9816122a9565b82525050565b611f08816122a9565b82525050565b60006020820190508181036000830152611f288184611c96565b905092915050565b60006020820190508181036000830152611f4a8184611d0b565b905092915050565b60006020820190508181036000830152611f6c8184611df9565b905092915050565b6000602082019050611f896000830184611eff565b92915050565b600061010082019050611fa5600083018b611eff565b8181036020830152611fb7818a611d87565b9050611fc66040830189611eff565b8181036060830152611fd88188611d87565b90508181036080830152611fec8187611d87565b905081810360a08301526120008186611d87565b905061200f60c0830185611eff565b61201c60e0830184611c69565b9998505050505050505050565b60006101008201905061203f600083018b611eff565b8181036020830152612051818a611df9565b905081810360408301526120658189611df9565b90506120746060830188611c87565b6120816080830187611d78565b61208e60a0830186611eff565b81810360c08301526120a08185611df9565b90506120af60e0830184611eff565b9998505050505050505050565b6000610100820190506120d2600083018b611eff565b81810360208301526120e4818a611df9565b90506120f36040830189611eff565b81810360608301526121058188611df9565b905081810360808301526121198187611df9565b905081810360a083015261212d8186611df9565b905061213c60c0830185611eff565b61214960e0830184611c69565b9998505050505050505050565b6000604051905081810181811067ffffffffffffffff8211171561217957600080fd5b8060405250919050565b600067ffffffffffffffff82111561219a57600080fd5b601f19601f8301169050602081019050919050565b6000819050602082019050919050565b6000819050602082019050919050565b600081519050919050565b600081519050919050565b600081519050919050565b600081519050919050565b6000602082019050919050565b6000602082019050919050565b600082825260208201905092915050565b600082825260208201905092915050565b600082825260208201905092915050565b600082825260208201905092915050565b600061226482612289565b9050919050565b600061227682612289565b9050919050565b60008115159050919050565b600073ffffffffffffffffffffffffffffffffffffffff82169050919050565b6000819050919050565b82818337600083830152505050565b60005b838110156122e05780820151818401526020810190506122c5565b838111156122ef576000848401525b50505050565b6000601f19601f8301169050919050565b61230f8161227d565b811461231a57600080fd5b50565b612326816122a9565b811461233157600080fd5b5056fea365627a7a72315820c94eea073a608b681e0bbd71e41087066d0ae60e1a72e39fcb73b85e0597ce706c6578706572696d656e74616cf564736f6c63430005100040",
  "source": "// SPDX-License-Identifier: UNLICENSED\npragma solidity ^0.5.0;\npragma experimental ABIEncoderV2;\n\nimport \"./DCStorage.sol\";\nimport \"./safemath.sol\";\n\ncontract BuildOrganization is DCStorage{\n\n    using SafeMath for uint256;\n    using SafeMath32 for uint32;\n    using SafeMath16 for uint16;\n\n    uint setId = 0;\n\n    struct Organization {\n        uint Id;\n        string Name;\n        string Description;\n        address Owner;\n        bool Private;\n        uint MemberLimit;\n        string Passcode;\n        uint createdAt;\n    }\n\n    Organization[] public organizations;\n\n    mapping(uint => address) organizationToOwner;\n\n    mapping(address => uint) ownerOrganizationCount;\n\n    mapping(address => uint[]) addressToOrganizations;\n\n    mapping(uint => address[]) organizationToAddresses;\n\n    function createOrganization(string memory name, string memory description, bool privateBool, uint memberLimit, string memory passcode) public {\n        require(bytes(name).length > 0);\n        require(bytes(description).length > 0);\n        require(memberLimit > 0);\n        if(privateBool == false){\n            passcode = \"\";\n        }else{\n            require(bytes(passcode).length > 0);\n        }\n\n        uint id = setId;\n        organizations.push(Organization(id, name, description, msg.sender, privateBool, memberLimit, passcode, now));\n        organizationToOwner[id] = msg.sender;\n        ownerOrganizationCount[msg.sender] = ownerOrganizationCount[msg.sender].add(1);\n        addressToOrganizations[msg.sender].push(id);\n        organizationToAddresses[id].push(msg.sender);\n        setId++;\n    }\n\n    function editOrganization(uint id, string memory name, string memory description, bool privateBool, uint memberLimit, string memory passcode) public {\n        require(bytes(name).length > 0);\n        require(bytes(description).length > 0);\n        require(memberLimit > 0);\n        if(privateBool == false){\n            passcode = \"\";\n        }else{\n            require(bytes(passcode).length > 0);\n        }\n\n        require(organizationToOwner[id] == msg.sender);\n        organizations[id].Name = name;\n        organizations[id].Description = description;\n        organizations[id].Private = privateBool;\n        organizations[id].MemberLimit = memberLimit;\n        organizations[id].Passcode = passcode;\n    }\n\n    function deleteOrganization(uint id) public {\n        require(organizationToOwner[id] == msg.sender);\n        if(id >= organizations.length) return;\n        for (uint i = id; i < organizations.length - 1; i++){\n            organizations[i] = organizations[i + 1];\n        }\n        delete organizations[organizations.length - 1];\n        organizations.length--;\n        delete organizationToOwner[id];\n        ownerOrganizationCount[msg.sender] = ownerOrganizationCount[msg.sender].sub(1);\n    }\n\n    function getOrganizations() external view returns(Organization[] memory) {\n        return organizations;\n    }\n\n    function getMemberships() external view returns(uint[] memory){\n        return addressToOrganizations[msg.sender];\n    }\n\n}\n\n",
  "sourcePath": "/Users/csuftitan/Desktop/Meet Turakhia/Advanced Blockchain (CPSC 559)/Projects/Final Project(4 Dec 2022)/src/contracts/Organization.sol",
  "compiler": {
    "name": "solc",
    "version": "0.5.16+commit.9c3226ce.Emscripten.clang"
  },
  "schemaVersion": "3.4.9",
  "updatedAt": "2022-12-04T19:29:04.617Z",
  "devdoc": {
    "methods": {}
  },
  "userdoc": {
    "methods": {}
  }
}