{
  "contractName": "Direct",
  "abi": [
    {
      "inputs": [],
      "payable": false,
      "stateMutability": "nonpayable",
      "type": "constructor"
    },
    {
      "anonymous": false,
      "inputs": [
        {
          "indexed": false,
          "internalType": "uint256",
          "name": "fileId",
          "type": "uint256"
        },
        {
          "indexed": false,
          "internalType": "string",
          "name": "fileHash",
          "type": "string"
        },
        {
          "indexed": false,
          "internalType": "uint256",
          "name": "fileSize",
          "type": "uint256"
        },
        {
          "indexed": false,
          "internalType": "string",
          "name": "fileType",
          "type": "string"
        },
        {
          "indexed": false,
          "internalType": "string",
          "name": "fileName",
          "type": "string"
        },
        {
          "indexed": false,
          "internalType": "string",
          "name": "fileDescription",
          "type": "string"
        },
        {
          "indexed": false,
          "internalType": "uint256",
          "name": "uploadTime",
          "type": "uint256"
        },
        {
          "indexed": false,
          "internalType": "address payable",
          "name": "uploader",
          "type": "address"
        },
        {
          "indexed": false,
          "internalType": "address",
          "name": "reciever",
          "type": "address"
        },
        {
          "indexed": false,
          "internalType": "bool",
          "name": "isOneTimeLink",
          "type": "bool"
        }
      ],
      "name": "DirectFileUploaded",
      "type": "event"
    },
    {
      "anonymous": false,
      "inputs": [
        {
          "indexed": false,
          "internalType": "uint256",
          "name": "fileId",
          "type": "uint256"
        },
        {
          "indexed": false,
          "internalType": "string",
          "name": "fileHash",
          "type": "string"
        },
        {
          "indexed": false,
          "internalType": "uint256",
          "name": "fileSize",
          "type": "uint256"
        },
        {
          "indexed": false,
          "internalType": "string",
          "name": "fileType",
          "type": "string"
        },
        {
          "indexed": false,
          "internalType": "string",
          "name": "fileName",
          "type": "string"
        },
        {
          "indexed": false,
          "internalType": "string",
          "name": "fileDescription",
          "type": "string"
        },
        {
          "indexed": false,
          "internalType": "uint256",
          "name": "uploadTime",
          "type": "uint256"
        },
        {
          "indexed": false,
          "internalType": "address payable",
          "name": "uploader",
          "type": "address"
        }
      ],
      "name": "FileUploaded",
      "type": "event"
    },
    {
      "constant": true,
      "inputs": [
        {
          "internalType": "address",
          "name": "",
          "type": "address"
        },
        {
          "internalType": "uint256",
          "name": "",
          "type": "uint256"
        }
      ],
      "name": "addressToFileIds",
      "outputs": [
        {
          "internalType": "uint256",
          "name": "",
          "type": "uint256"
        }
      ],
      "payable": false,
      "stateMutability": "view",
      "type": "function"
    },
    {
      "constant": false,
      "inputs": [
        {
          "internalType": "string",
          "name": "name",
          "type": "string"
        },
        {
          "internalType": "string",
          "name": "description",
          "type": "string"
        },
        {
          "internalType": "bool",
          "name": "privateBool",
          "type": "bool"
        },
        {
          "internalType": "uint256",
          "name": "memberLimit",
          "type": "uint256"
        },
        {
          "internalType": "string",
          "name": "passcode",
          "type": "string"
        }
      ],
      "name": "createOrganization",
      "outputs": [],
      "payable": false,
      "stateMutability": "nonpayable",
      "type": "function"
    },
    {
      "constant": false,
      "inputs": [
        {
          "internalType": "uint256",
          "name": "id",
          "type": "uint256"
        }
      ],
      "name": "deleteOrganization",
      "outputs": [],
      "payable": false,
      "stateMutability": "nonpayable",
      "type": "function"
    },
    {
      "constant": true,
      "inputs": [],
      "name": "directFileCount",
      "outputs": [
        {
          "internalType": "uint256",
          "name": "",
          "type": "uint256"
        }
      ],
      "payable": false,
      "stateMutability": "view",
      "type": "function"
    },
    {
      "constant": true,
      "inputs": [
        {
          "internalType": "uint256",
          "name": "",
          "type": "uint256"
        }
      ],
      "name": "directfiles",
      "outputs": [
        {
          "internalType": "uint256",
          "name": "fileId",
          "type": "uint256"
        },
        {
          "internalType": "string",
          "name": "fileHash",
          "type": "string"
        },
        {
          "internalType": "uint256",
          "name": "fileSize",
          "type": "uint256"
        },
        {
          "internalType": "string",
          "name": "fileType",
          "type": "string"
        },
        {
          "internalType": "string",
          "name": "fileName",
          "type": "string"
        },
        {
          "internalType": "string",
          "name": "fileDescription",
          "type": "string"
        },
        {
          "internalType": "uint256",
          "name": "uploadTime",
          "type": "uint256"
        },
        {
          "internalType": "address payable",
          "name": "uploader",
          "type": "address"
        },
        {
          "internalType": "address",
          "name": "reciever",
          "type": "address"
        },
        {
          "internalType": "bool",
          "name": "isOneTimeLink",
          "type": "bool"
        }
      ],
      "payable": false,
      "stateMutability": "view",
      "type": "function"
    },
    {
      "constant": false,
      "inputs": [
        {
          "internalType": "uint256",
          "name": "id",
          "type": "uint256"
        },
        {
          "internalType": "string",
          "name": "name",
          "type": "string"
        },
        {
          "internalType": "string",
          "name": "description",
          "type": "string"
        },
        {
          "internalType": "bool",
          "name": "privateBool",
          "type": "bool"
        },
        {
          "internalType": "uint256",
          "name": "memberLimit",
          "type": "uint256"
        },
        {
          "internalType": "string",
          "name": "passcode",
          "type": "string"
        }
      ],
      "name": "editOrganization",
      "outputs": [],
      "payable": false,
      "stateMutability": "nonpayable",
      "type": "function"
    },
    {
      "constant": false,
      "inputs": [
        {
          "internalType": "uint256",
          "name": "id",
          "type": "uint256"
        }
      ],
      "name": "exitOrganization",
      "outputs": [],
      "payable": false,
      "stateMutability": "nonpayable",
      "type": "function"
    },
    {
      "constant": true,
      "inputs": [],
      "name": "fileCount",
      "outputs": [
        {
          "internalType": "uint256",
          "name": "",
          "type": "uint256"
        }
      ],
      "payable": false,
      "stateMutability": "view",
      "type": "function"
    },
    {
      "constant": true,
      "inputs": [
        {
          "internalType": "uint256",
          "name": "",
          "type": "uint256"
        }
      ],
      "name": "files",
      "outputs": [
        {
          "internalType": "uint256",
          "name": "fileId",
          "type": "uint256"
        },
        {
          "internalType": "string",
          "name": "fileHash",
          "type": "string"
        },
        {
          "internalType": "uint256",
          "name": "fileSize",
          "type": "uint256"
        },
        {
          "internalType": "string",
          "name": "fileType",
          "type": "string"
        },
        {
          "internalType": "string",
          "name": "fileName",
          "type": "string"
        },
        {
          "internalType": "string",
          "name": "fileDescription",
          "type": "string"
        },
        {
          "internalType": "uint256",
          "name": "uploadTime",
          "type": "uint256"
        },
        {
          "internalType": "address payable",
          "name": "uploader",
          "type": "address"
        }
      ],
      "payable": false,
      "stateMutability": "view",
      "type": "function"
    },
    {
      "constant": true,
      "inputs": [],
      "name": "getMemberships",
      "outputs": [
        {
          "internalType": "uint256[]",
          "name": "",
          "type": "uint256[]"
        }
      ],
      "payable": false,
      "stateMutability": "view",
      "type": "function"
    },
    {
      "constant": true,
      "inputs": [],
      "name": "getOrganizations",
      "outputs": [
        {
          "components": [
            {
              "internalType": "uint256",
              "name": "Id",
              "type": "uint256"
            },
            {
              "internalType": "string",
              "name": "Name",
              "type": "string"
            },
            {
              "internalType": "string",
              "name": "Description",
              "type": "string"
            },
            {
              "internalType": "address",
              "name": "Owner",
              "type": "address"
            },
            {
              "internalType": "bool",
              "name": "Private",
              "type": "bool"
            },
            {
              "internalType": "uint256",
              "name": "MemberLimit",
              "type": "uint256"
            },
            {
              "internalType": "bytes32",
              "name": "Passcode",
              "type": "bytes32"
            },
            {
              "internalType": "uint256",
              "name": "createdAt",
              "type": "uint256"
            }
          ],
          "internalType": "struct BuildOrganization.Organization[]",
          "name": "",
          "type": "tuple[]"
        }
      ],
      "payable": false,
      "stateMutability": "view",
      "type": "function"
    },
    {
      "constant": false,
      "inputs": [
        {
          "internalType": "uint256",
          "name": "id",
          "type": "uint256"
        },
        {
          "internalType": "string",
          "name": "passcode",
          "type": "string"
        }
      ],
      "name": "joinOrganization",
      "outputs": [],
      "payable": false,
      "stateMutability": "nonpayable",
      "type": "function"
    },
    {
      "constant": true,
      "inputs": [],
      "name": "name",
      "outputs": [
        {
          "internalType": "string",
          "name": "",
          "type": "string"
        }
      ],
      "payable": false,
      "stateMutability": "view",
      "type": "function"
    },
    {
      "constant": true,
      "inputs": [
        {
          "internalType": "uint256",
          "name": "",
          "type": "uint256"
        }
      ],
      "name": "organizations",
      "outputs": [
        {
          "internalType": "uint256",
          "name": "Id",
          "type": "uint256"
        },
        {
          "internalType": "string",
          "name": "Name",
          "type": "string"
        },
        {
          "internalType": "string",
          "name": "Description",
          "type": "string"
        },
        {
          "internalType": "address",
          "name": "Owner",
          "type": "address"
        },
        {
          "internalType": "bool",
          "name": "Private",
          "type": "bool"
        },
        {
          "internalType": "uint256",
          "name": "MemberLimit",
          "type": "uint256"
        },
        {
          "internalType": "bytes32",
          "name": "Passcode",
          "type": "bytes32"
        },
        {
          "internalType": "uint256",
          "name": "createdAt",
          "type": "uint256"
        }
      ],
      "payable": false,
      "stateMutability": "view",
      "type": "function"
    },
    {
      "constant": false,
      "inputs": [
        {
          "internalType": "uint256",
          "name": "id",
          "type": "uint256"
        },
        {
          "internalType": "address",
          "name": "userAddress",
          "type": "address"
        }
      ],
      "name": "removeMembership",
      "outputs": [],
      "payable": false,
      "stateMutability": "nonpayable",
      "type": "function"
    },
    {
      "constant": false,
      "inputs": [
        {
          "internalType": "string",
          "name": "_fileHash",
          "type": "string"
        },
        {
          "internalType": "uint256",
          "name": "_fileSize",
          "type": "uint256"
        },
        {
          "internalType": "string",
          "name": "_fileType",
          "type": "string"
        },
        {
          "internalType": "string",
          "name": "_fileName",
          "type": "string"
        },
        {
          "internalType": "string",
          "name": "_fileDescription",
          "type": "string"
        }
      ],
      "name": "uploadFile",
      "outputs": [],
      "payable": false,
      "stateMutability": "nonpayable",
      "type": "function"
    },
    {
      "constant": true,
      "inputs": [
        {
          "internalType": "address",
          "name": "",
          "type": "address"
        },
        {
          "internalType": "uint256",
          "name": "",
          "type": "uint256"
        }
      ],
      "name": "uploaderToFileIds",
      "outputs": [
        {
          "internalType": "uint256",
          "name": "",
          "type": "uint256"
        }
      ],
      "payable": false,
      "stateMutability": "view",
      "type": "function"
    },
    {
      "constant": false,
      "inputs": [
        {
          "internalType": "string",
          "name": "_fileHash",
          "type": "string"
        },
        {
          "internalType": "uint256",
          "name": "_fileSize",
          "type": "uint256"
        },
        {
          "internalType": "string",
          "name": "_fileType",
          "type": "string"
        },
        {
          "internalType": "string",
          "name": "_fileName",
          "type": "string"
        },
        {
          "internalType": "string",
          "name": "_fileDescription",
          "type": "string"
        },
        {
          "internalType": "address",
          "name": "_reciever",
          "type": "address"
        },
        {
          "internalType": "bool",
          "name": "_isOneTimeLink",
          "type": "bool"
        }
      ],
      "name": "uploadDirectFile",
      "outputs": [],
      "payable": false,
      "stateMutability": "nonpayable",
      "type": "function"
    },
    {
      "constant": true,
      "inputs": [],
      "name": "currentUserFileIds",
      "outputs": [
        {
          "internalType": "uint256[]",
          "name": "",
          "type": "uint256[]"
        }
      ],
      "payable": false,
      "stateMutability": "view",
      "type": "function"
    },
    {
      "constant": true,
      "inputs": [],
      "name": "uploaderFileIds",
      "outputs": [
        {
          "internalType": "uint256[]",
          "name": "",
          "type": "uint256[]"
        }
      ],
      "payable": false,
      "stateMutability": "view",
      "type": "function"
    },
    {
      "constant": false,
      "inputs": [
        {
          "internalType": "uint256",
          "name": "id",
          "type": "uint256"
        }
      ],
      "name": "fileDelete",
      "outputs": [],
      "payable": false,
      "stateMutability": "nonpayable",
      "type": "function"
    }
  ],
  "bytecode": "0x60806040526040518060400160405280600981526020017f444353746f7261676500000000000000000000000000000000000000000000008152506000908051906020019062000051929190620000c3565b50600060015560006003556040518060400160405280601181526020017f43727970746f20426f782044697265637400000000000000000000000000000081525060099080519060200190620000a9929190620000c3565b506000600a55348015620000bc57600080fd5b5062000172565b828054600181600116156101000203166002900490600052602060002090601f016020900481019282601f106200010657805160ff191683800117855562000137565b8280016001018555821562000137579182015b828111156200013657825182559160200191906001019062000119565b5b5090506200014691906200014a565b5090565b6200016f91905b808211156200016b57600081600090555060010162000151565b5090565b90565b61415080620001826000396000f3fe608060405234801561001057600080fd5b50600436106101365760003560e01c8063942b7c7f116100b8578063b8f871a11161007c578063b8f871a114610332578063cdc303531461034e578063dc1301af1461036a578063e792dd8a14610386578063e82d9d33146103bd578063f4c714b4146103d957610136565b8063942b7c7f1461026f5780639754a3a8146102a8578063a1df63df146102c6578063a89b01a8146102f6578063adfa95091461031457610136565b8063481c1093116100ff578063481c1093146101e15780634db20ee9146101fd57806363336311146102195780637840c6a41461023557806392515b281461025357610136565b8062d5f22b1461013b57806306fdde031461015957806329ab4bf314610177578063339d4ad71461019357806343953519146101c3575b600080fd5b610143610410565b6040516101509190613bb8565b60405180910390f35b610161610416565b60405161016e9190613b96565b60405180910390f35b610191600480360361018c9190810190613751565b6104b4565b005b6101ad60048036036101a891908101906133c8565b610691565b6040516101ba9190613bb8565b60405180910390f35b6101cb6106bf565b6040516101d89190613bb8565b60405180910390f35b6101fb60048036036101f69190810190613404565b6106c5565b005b6102176004803603610212919081019061359a565b610a81565b005b610233600480360361022e91908101906136c1565b610e44565b005b61023d6113d2565b60405161024a9190613b74565b60405180910390f35b61026d60048036036102689190810190613698565b611467565b005b61028960048036036102849190810190613698565b61197e565b60405161029f9a99989796959493929190613e4b565b60405180910390f35b6102b0611c7f565b6040516102bd9190613b52565b60405180910390f35b6102e060048036036102db91908101906133c8565b611ebc565b6040516102ed9190613bb8565b60405180910390f35b6102fe611eea565b60405161030b9190613b74565b60405180910390f35b61031c611f7f565b6040516103299190613b74565b60405180910390f35b61034c60048036036103479190810190613698565b612014565b005b610368600480360361036391908101906136fd565b612356565b005b610384600480360361037f9190810190613698565b6125df565b005b6103a0600480360361039b9190810190613698565b61294e565b6040516103b4989796959493929190613d25565b60405180910390f35b6103d760048036036103d291908101906134c3565b612b00565b005b6103f360048036036103ee9190810190613698565b612d22565b604051610407989796959493929190613db1565b60405180910390f35b600a5481565b60098054600181600116156101000203166002900480601f0160208091040260200160405190810160405280929190818152602001828054600181600116156101000203166002900480156104ac5780601f10610481576101008083540402835291602001916104ac565b820191906000526020600020905b81548152906001019060200180831161048f57829003601f168201915b505050505081565b60008551116104c257600080fd5b60008451116104d057600080fd5b600082116104dd57600080fd5b60001515831515141561050157604051806020016040528060008152509050610510565b600081511161050f57600080fd5b5b3373ffffffffffffffffffffffffffffffffffffffff166005600088815260200190815260200160002060009054906101000a900473ffffffffffffffffffffffffffffffffffffffff1673ffffffffffffffffffffffffffffffffffffffff161461057b57600080fd5b60008160405160200161058e9190613b3b565b60405160208183030381529060405280519060200120905085600488815481106105b457fe5b906000526020600020906007020160010190805190602001906105d892919061301d565b5084600488815481106105e757fe5b9060005260206000209060070201600201908051906020019061060b92919061301d565b50836004888154811061061a57fe5b906000526020600020906007020160030160146101000a81548160ff021916908315150217905550826004888154811061065057fe5b906000526020600020906007020160040181905550806004888154811061067357fe5b90600052602060002090600702016005018190555050505050505050565b600c60205281600052604060002081815481106106aa57fe5b90600052602060002001600091509150505481565b60015481565b60008551116106d357600080fd5b60008451116106e157600080fd5b600082116106ee57600080fd5b60001515831515141561071257604051806020016040528060008152509050610721565b600081511161072057600080fd5b5b6000600354905060008260405160200161073b9190613b3b565b60405160208183030381529060405280519060200120905060046040518061010001604052808481526020018981526020018881526020013373ffffffffffffffffffffffffffffffffffffffff168152602001871515815260200186815260200183815260200142815250908060018154018082558091505090600182039060005260206000209060070201600090919290919091506000820151816000015560208201518160010190805190602001906107f892919061309d565b50604082015181600201908051906020019061081592919061309d565b5060608201518160030160006101000a81548173ffffffffffffffffffffffffffffffffffffffff021916908373ffffffffffffffffffffffffffffffffffffffff16021790555060808201518160030160146101000a81548160ff02191690831515021790555060a0820151816004015560c0820151816005015560e08201518160060155505050336005600084815260200190815260200160002060006101000a81548173ffffffffffffffffffffffffffffffffffffffff021916908373ffffffffffffffffffffffffffffffffffffffff1602179055506109436001600660003373ffffffffffffffffffffffffffffffffffffffff1673ffffffffffffffffffffffffffffffffffffffff16815260200190815260200160002054612fea90919063ffffffff16565b600660003373ffffffffffffffffffffffffffffffffffffffff1673ffffffffffffffffffffffffffffffffffffffff16815260200190815260200160002081905550600760003373ffffffffffffffffffffffffffffffffffffffff1673ffffffffffffffffffffffffffffffffffffffff168152602001908152602001600020829080600181540180825580915050906001820390600052602060002001600090919290919091505550600860008381526020019081526020016000203390806001815401808255809150509060018203906000526020600020016000909192909190916101000a81548173ffffffffffffffffffffffffffffffffffffffff021916908373ffffffffffffffffffffffffffffffffffffffff1602179055505060036000815480929190600101919050555050505050505050565b6000875111610a8f57600080fd5b6000855111610a9d57600080fd5b6000845111610aab57600080fd5b6000835111610ab957600080fd5b600073ffffffffffffffffffffffffffffffffffffffff163373ffffffffffffffffffffffffffffffffffffffff161415610af357600080fd5b60008611610b0057600080fd5b8173ffffffffffffffffffffffffffffffffffffffff168273ffffffffffffffffffffffffffffffffffffffff1614610b3857600080fd5b604051806101400160405280600a5481526020018881526020018781526020018681526020018581526020018481526020014281526020013373ffffffffffffffffffffffffffffffffffffffff1681526020018373ffffffffffffffffffffffffffffffffffffffff168152602001821515815250600b6000600a548152602001908152602001600020600082015181600001556020820151816001019080519060200190610be992919061309d565b50604082015181600201556060820151816003019080519060200190610c1092919061309d565b506080820151816004019080519060200190610c2d92919061309d565b5060a0820151816005019080519060200190610c4a92919061309d565b5060c0820151816006015560e08201518160070160006101000a81548173ffffffffffffffffffffffffffffffffffffffff021916908373ffffffffffffffffffffffffffffffffffffffff1602179055506101008201518160080160006101000a81548173ffffffffffffffffffffffffffffffffffffffff021916908373ffffffffffffffffffffffffffffffffffffffff1602179055506101208201518160080160146101000a81548160ff021916908315150217905550905050600c60008373ffffffffffffffffffffffffffffffffffffffff1673ffffffffffffffffffffffffffffffffffffffff168152602001908152602001600020600a549080600181540180825580915050906001820390600052602060002001600090919290919091505550600d60003373ffffffffffffffffffffffffffffffffffffffff1673ffffffffffffffffffffffffffffffffffffffff168152602001908152602001600020600a549080600181540180825580915050906001820390600052602060002001600090919290919091505550600a600081548092919060010191905055507feeeed15c975fd3e736c550958913fd5541d9193b09fb3c3b98cadc46aed5533a600a54888888888842338a8a604051610e339a99989796959493929190613c6d565b60405180910390a150505050505050565b60048281548110610e5157fe5b906000526020600020906007020160030160009054906101000a900473ffffffffffffffffffffffffffffffffffffffff1673ffffffffffffffffffffffffffffffffffffffff163373ffffffffffffffffffffffffffffffffffffffff1614610eba57600080fd5b600080600080905060008090506060600760008773ffffffffffffffffffffffffffffffffffffffff1673ffffffffffffffffffffffffffffffffffffffff168152602001908152602001600020805480602002602001604051908101604052809291908181526020018280548015610f5257602002820191906000526020600020905b815481526020019060010190808311610f3e575b50505050509050606060086000898152602001908152602001600020805480602002602001604051908101604052809291908181526020018280548015610fee57602002820191906000526020600020905b8160009054906101000a900473ffffffffffffffffffffffffffffffffffffffff1673ffffffffffffffffffffffffffffffffffffffff1681526020019060010190808311610fa4575b5050505050905060005b82518110156110315782818151811061100d57fe5b602002602001015189141561102457809650600194505b8080600101915050610ff8565b5060005b815181101561109a5781818151811061104a57fe5b602002602001015173ffffffffffffffffffffffffffffffffffffffff168873ffffffffffffffffffffffffffffffffffffffff16141561108d57809550600193505b8080600101915050611035565b508380156110a55750825b156113c85760008690505b600183510381101561117957600760008973ffffffffffffffffffffffffffffffffffffffff1673ffffffffffffffffffffffffffffffffffffffff168152602001908152602001600020600182018154811061110957fe5b9060005260206000200154600760008a73ffffffffffffffffffffffffffffffffffffffff1673ffffffffffffffffffffffffffffffffffffffff168152602001908152602001600020828154811061115e57fe5b906000526020600020018190555080806001019150506110b0565b50600760008873ffffffffffffffffffffffffffffffffffffffff1673ffffffffffffffffffffffffffffffffffffffff1681526020019081526020016000206001600760008a73ffffffffffffffffffffffffffffffffffffffff1673ffffffffffffffffffffffffffffffffffffffff16815260200190815260200160002080549050038154811061120957fe5b9060005260206000200160009055600760008873ffffffffffffffffffffffffffffffffffffffff1673ffffffffffffffffffffffffffffffffffffffff168152602001908152602001600020805480919060019003611269919061311d565b5060008590505b600182510381101561133b57600860008a8152602001908152602001600020600182018154811061129d57fe5b9060005260206000200160009054906101000a900473ffffffffffffffffffffffffffffffffffffffff16600860008b815260200190815260200160002082815481106112e657fe5b9060005260206000200160006101000a81548173ffffffffffffffffffffffffffffffffffffffff021916908373ffffffffffffffffffffffffffffffffffffffff1602179055508080600101915050611270565b50600860008981526020019081526020016000206001600860008b815260200190815260200160002080549050038154811061137357fe5b9060005260206000200160006101000a81549073ffffffffffffffffffffffffffffffffffffffff0219169055600860008981526020019081526020016000208054809190600190036113c69190613149565b505b5050505050505050565b6060600760003373ffffffffffffffffffffffffffffffffffffffff1673ffffffffffffffffffffffffffffffffffffffff16815260200190815260200160002080548060200260200160405190810160405280929190818152602001828054801561145d57602002820191906000526020600020905b815481526020019060010190808311611449575b5050505050905090565b600080600080905060008090506060600760003373ffffffffffffffffffffffffffffffffffffffff1673ffffffffffffffffffffffffffffffffffffffff1681526020019081526020016000208054806020026020016040519081016040528092919081815260200182805480156114ff57602002820191906000526020600020905b8154815260200190600101908083116114eb575b5050505050905060606008600088815260200190815260200160002080548060200260200160405190810160405280929190818152602001828054801561159b57602002820191906000526020600020905b8160009054906101000a900473ffffffffffffffffffffffffffffffffffffffff1673ffffffffffffffffffffffffffffffffffffffff1681526020019060010190808311611551575b5050505050905060005b82518110156115de578281815181106115ba57fe5b60200260200101518814156115d157809650600194505b80806001019150506115a5565b5060005b8151811015611647578181815181106115f757fe5b602002602001015173ffffffffffffffffffffffffffffffffffffffff163373ffffffffffffffffffffffffffffffffffffffff16141561163a57809550600193505b80806001019150506115e2565b508380156116525750825b156119755760008690505b600183510381101561172657600760003373ffffffffffffffffffffffffffffffffffffffff1673ffffffffffffffffffffffffffffffffffffffff16815260200190815260200160002060018201815481106116b657fe5b9060005260206000200154600760003373ffffffffffffffffffffffffffffffffffffffff1673ffffffffffffffffffffffffffffffffffffffff168152602001908152602001600020828154811061170b57fe5b9060005260206000200181905550808060010191505061165d565b50600760003373ffffffffffffffffffffffffffffffffffffffff1673ffffffffffffffffffffffffffffffffffffffff1681526020019081526020016000206001600760003373ffffffffffffffffffffffffffffffffffffffff1673ffffffffffffffffffffffffffffffffffffffff1681526020019081526020016000208054905003815481106117b657fe5b9060005260206000200160009055600760003373ffffffffffffffffffffffffffffffffffffffff1673ffffffffffffffffffffffffffffffffffffffff168152602001908152602001600020805480919060019003611816919061311d565b5060008590505b60018251038110156118e85760086000898152602001908152602001600020600182018154811061184a57fe5b9060005260206000200160009054906101000a900473ffffffffffffffffffffffffffffffffffffffff16600860008a8152602001908152602001600020828154811061189357fe5b9060005260206000200160006101000a81548173ffffffffffffffffffffffffffffffffffffffff021916908373ffffffffffffffffffffffffffffffffffffffff160217905550808060010191505061181d565b50600860008881526020019081526020016000206001600860008a815260200190815260200160002080549050038154811061192057fe5b9060005260206000200160006101000a81549073ffffffffffffffffffffffffffffffffffffffff0219169055600860008881526020019081526020016000208054809190600190036119739190613149565b505b50505050505050565b600b602052806000526040600020600091509050806000015490806001018054600181600116156101000203166002900480601f016020809104026020016040519081016040528092919081815260200182805460018160011615610100020316600290048015611a305780601f10611a0557610100808354040283529160200191611a30565b820191906000526020600020905b815481529060010190602001808311611a1357829003601f168201915b505050505090806002015490806003018054600181600116156101000203166002900480601f016020809104026020016040519081016040528092919081815260200182805460018160011615610100020316600290048015611ad45780601f10611aa957610100808354040283529160200191611ad4565b820191906000526020600020905b815481529060010190602001808311611ab757829003601f168201915b505050505090806004018054600181600116156101000203166002900480601f016020809104026020016040519081016040528092919081815260200182805460018160011615610100020316600290048015611b725780601f10611b4757610100808354040283529160200191611b72565b820191906000526020600020905b815481529060010190602001808311611b5557829003601f168201915b505050505090806005018054600181600116156101000203166002900480601f016020809104026020016040519081016040528092919081815260200182805460018160011615610100020316600290048015611c105780601f10611be557610100808354040283529160200191611c10565b820191906000526020600020905b815481529060010190602001808311611bf357829003601f168201915b5050505050908060060154908060070160009054906101000a900473ffffffffffffffffffffffffffffffffffffffff16908060080160009054906101000a900473ffffffffffffffffffffffffffffffffffffffff16908060080160149054906101000a900460ff1690508a565b60606004805480602002602001604051908101604052809291908181526020016000905b82821015611eb357838290600052602060002090600702016040518061010001604052908160008201548152602001600182018054600181600116156101000203166002900480601f016020809104026020016040519081016040528092919081815260200182805460018160011615610100020316600290048015611d6a5780601f10611d3f57610100808354040283529160200191611d6a565b820191906000526020600020905b815481529060010190602001808311611d4d57829003601f168201915b50505050508152602001600282018054600181600116156101000203166002900480601f016020809104026020016040519081016040528092919081815260200182805460018160011615610100020316600290048015611e0c5780601f10611de157610100808354040283529160200191611e0c565b820191906000526020600020905b815481529060010190602001808311611def57829003601f168201915b505050505081526020016003820160009054906101000a900473ffffffffffffffffffffffffffffffffffffffff1673ffffffffffffffffffffffffffffffffffffffff1673ffffffffffffffffffffffffffffffffffffffff1681526020016003820160149054906101000a900460ff16151515158152602001600482015481526020016005820154815260200160068201548152505081526020019060010190611ca3565b50505050905090565b600d6020528160005260406000208181548110611ed557fe5b90600052602060002001600091509150505481565b6060600c60003373ffffffffffffffffffffffffffffffffffffffff1673ffffffffffffffffffffffffffffffffffffffff168152602001908152602001600020805480602002602001604051908101604052809291908181526020018280548015611f7557602002820191906000526020600020905b815481526020019060010190808311611f61575b5050505050905090565b6060600d60003373ffffffffffffffffffffffffffffffffffffffff1673ffffffffffffffffffffffffffffffffffffffff16815260200190815260200160002080548060200260200160405190810160405280929190818152602001828054801561200a57602002820191906000526020600020905b815481526020019060010190808311611ff6575b5050505050905090565b600080905060008090505b6001600c60003373ffffffffffffffffffffffffffffffffffffffff1673ffffffffffffffffffffffffffffffffffffffff16815260200190815260200160002080549050038110156121915782600c60003373ffffffffffffffffffffffffffffffffffffffff1673ffffffffffffffffffffffffffffffffffffffff16815260200190815260200160002082815481106120b757fe5b906000526020600020015414156120cd57600191505b811561218457600c60003373ffffffffffffffffffffffffffffffffffffffff1673ffffffffffffffffffffffffffffffffffffffff168152602001908152602001600020600182018154811061212057fe5b9060005260206000200154600c60003373ffffffffffffffffffffffffffffffffffffffff1673ffffffffffffffffffffffffffffffffffffffff168152602001908152602001600020828154811061217557fe5b90600052602060002001819055505b808060010191505061201f565b50600c60003373ffffffffffffffffffffffffffffffffffffffff1673ffffffffffffffffffffffffffffffffffffffff1681526020019081526020016000206001600c60003373ffffffffffffffffffffffffffffffffffffffff1673ffffffffffffffffffffffffffffffffffffffff16815260200190815260200160002080549050038154811061222157fe5b9060005260206000200160009055600c60003373ffffffffffffffffffffffffffffffffffffffff1673ffffffffffffffffffffffffffffffffffffffff168152602001908152602001600020805480919060019003612281919061311d565b50600b60008381526020019081526020016000206000808201600090556001820160006122ae9190613175565b60028201600090556003820160006122c69190613175565b6004820160006122d69190613175565b6005820160006122e69190613175565b60068201600090556007820160006101000a81549073ffffffffffffffffffffffffffffffffffffffff02191690556008820160006101000a81549073ffffffffffffffffffffffffffffffffffffffff02191690556008820160146101000a81549060ff021916905550505050565b600115156004838154811061236757fe5b906000526020600020906007020160030160149054906101000a900460ff1615151480156123d957506004828154811061239d57fe5b906000526020600020906007020160050154816040516020016123c09190613b3b565b6040516020818303038152906040528051906020012014155b156123e3576125db565b6000600483815481106123f257fe5b90600052602060002090600702016004015490508060086000858152602001908152602001600020805490501061242957506125db565b6060600760003373ffffffffffffffffffffffffffffffffffffffff1673ffffffffffffffffffffffffffffffffffffffff1681526020019081526020016000208054806020026020016040519081016040528092919081815260200182805480156124b457602002820191906000526020600020905b8154815260200190600101908083116124a0575b5050505050905060005b81518110156124f7578181815181106124d357fe5b60200260200101518514156124ea575050506125db565b80806001019150506124be565b50600760003373ffffffffffffffffffffffffffffffffffffffff1673ffffffffffffffffffffffffffffffffffffffff168152602001908152602001600020849080600181540180825580915050906001820390600052602060002001600090919290919091505550600860008581526020019081526020016000203390806001815401808255809150509060018203906000526020600020016000909192909190916101000a81548173ffffffffffffffffffffffffffffffffffffffff021916908373ffffffffffffffffffffffffffffffffffffffff1602179055505050505b5050565b3373ffffffffffffffffffffffffffffffffffffffff166005600083815260200190815260200160002060009054906101000a900473ffffffffffffffffffffffffffffffffffffffff1673ffffffffffffffffffffffffffffffffffffffff161461264a57600080fd5b600480549050811061265b5761294b565b60008190505b6001600480549050038110156127c6576004600182018154811061268157fe5b90600052602060002090600702016004828154811061269c57fe5b906000526020600020906007020160008201548160000155600182018160010190805460018160011615610100020316600290046126db9291906131bd565b50600282018160020190805460018160011615610100020316600290046127039291906131bd565b506003820160009054906101000a900473ffffffffffffffffffffffffffffffffffffffff168160030160006101000a81548173ffffffffffffffffffffffffffffffffffffffff021916908373ffffffffffffffffffffffffffffffffffffffff1602179055506003820160149054906101000a900460ff168160030160146101000a81548160ff0219169083151502179055506004820154816004015560058201548160050155600682015481600601559050508080600101915050612661565b506004600160048054905003815481106127dc57fe5b90600052602060002090600702016000808201600090556001820160006128039190613175565b6002820160006128139190613175565b6003820160006101000a81549073ffffffffffffffffffffffffffffffffffffffff02191690556003820160146101000a81549060ff02191690556004820160009055600582016000905560068201600090555050600480548091906001900361287d9190613244565b506005600082815260200190815260200160002060006101000a81549073ffffffffffffffffffffffffffffffffffffffff02191690556129076001600660003373ffffffffffffffffffffffffffffffffffffffff1673ffffffffffffffffffffffffffffffffffffffff1681526020019081526020016000205461300690919063ffffffff16565b600660003373ffffffffffffffffffffffffffffffffffffffff1673ffffffffffffffffffffffffffffffffffffffff168152602001908152602001600020819055505b50565b6004818154811061295b57fe5b9060005260206000209060070201600091509050806000015490806001018054600181600116156101000203166002900480601f016020809104026020016040519081016040528092919081815260200182805460018160011615610100020316600290048015612a0d5780601f106129e257610100808354040283529160200191612a0d565b820191906000526020600020905b8154815290600101906020018083116129f057829003601f168201915b505050505090806002018054600181600116156101000203166002900480601f016020809104026020016040519081016040528092919081815260200182805460018160011615610100020316600290048015612aab5780601f10612a8057610100808354040283529160200191612aab565b820191906000526020600020905b815481529060010190602001808311612a8e57829003601f168201915b5050505050908060030160009054906101000a900473ffffffffffffffffffffffffffffffffffffffff16908060030160149054906101000a900460ff16908060040154908060050154908060060154905088565b6000855111612b0e57600080fd5b6000835111612b1c57600080fd5b6000825111612b2a57600080fd5b6000815111612b3857600080fd5b600073ffffffffffffffffffffffffffffffffffffffff163373ffffffffffffffffffffffffffffffffffffffff161415612b7257600080fd5b60008411612b7f57600080fd5b60405180610100016040528060015481526020018681526020018581526020018481526020018381526020018281526020014281526020013373ffffffffffffffffffffffffffffffffffffffff16815250600260006001548152602001908152602001600020600082015181600001556020820151816001019080519060200190612c0c92919061309d565b50604082015181600201556060820151816003019080519060200190612c3392919061309d565b506080820151816004019080519060200190612c5092919061309d565b5060a0820151816005019080519060200190612c6d92919061309d565b5060c0820151816006015560e08201518160070160006101000a81548173ffffffffffffffffffffffffffffffffffffffff021916908373ffffffffffffffffffffffffffffffffffffffff1602179055509050506001600081548092919060010191905055507f6e95bbaa37a5fdec42a312e049dea2fe6160ebe659214d3409b4f91f164c2f5260015486868686864233604051612d13989796959493929190613bd3565b60405180910390a15050505050565b6002602052806000526040600020600091509050806000015490806001018054600181600116156101000203166002900480601f016020809104026020016040519081016040528092919081815260200182805460018160011615610100020316600290048015612dd45780601f10612da957610100808354040283529160200191612dd4565b820191906000526020600020905b815481529060010190602001808311612db757829003601f168201915b505050505090806002015490806003018054600181600116156101000203166002900480601f016020809104026020016040519081016040528092919081815260200182805460018160011615610100020316600290048015612e785780601f10612e4d57610100808354040283529160200191612e78565b820191906000526020600020905b815481529060010190602001808311612e5b57829003601f168201915b505050505090806004018054600181600116156101000203166002900480601f016020809104026020016040519081016040528092919081815260200182805460018160011615610100020316600290048015612f165780601f10612eeb57610100808354040283529160200191612f16565b820191906000526020600020905b815481529060010190602001808311612ef957829003601f168201915b505050505090806005018054600181600116156101000203166002900480601f016020809104026020016040519081016040528092919081815260200182805460018160011615610100020316600290048015612fb45780601f10612f8957610100808354040283529160200191612fb4565b820191906000526020600020905b815481529060010190602001808311612f9757829003601f168201915b5050505050908060060154908060070160009054906101000a900473ffffffffffffffffffffffffffffffffffffffff16905088565b600080828401905083811015612ffc57fe5b8091505092915050565b60008282111561301257fe5b818303905092915050565b828054600181600116156101000203166002900490600052602060002090601f016020900481019282601f1061305e57805160ff191683800117855561308c565b8280016001018555821561308c579182015b8281111561308b578251825591602001919060010190613070565b5b5090506130999190613276565b5090565b828054600181600116156101000203166002900490600052602060002090601f016020900481019282601f106130de57805160ff191683800117855561310c565b8280016001018555821561310c579182015b8281111561310b5782518255916020019190600101906130f0565b5b5090506131199190613276565b5090565b815481835581811115613144578183600052602060002091820191016131439190613276565b5b505050565b8154818355818111156131705781836000526020600020918201910161316f9190613276565b5b505050565b50805460018160011615610100020316600290046000825580601f1061319b57506131ba565b601f0160209004906000526020600020908101906131b99190613276565b5b50565b828054600181600116156101000203166002900490600052602060002090601f016020900481019282601f106131f65780548555613233565b8280016001018555821561323357600052602060002091601f016020900482015b82811115613232578254825591600101919060010190613217565b5b5090506132409190613276565b5090565b81548183558181111561327157600702816007028360005260206000209182019101613270919061329b565b5b505050565b61329891905b8082111561329457600081600090555060010161327c565b5090565b90565b61333291905b8082111561332e576000808201600090556001820160006132c29190613175565b6002820160006132d29190613175565b6003820160006101000a81549073ffffffffffffffffffffffffffffffffffffffff02191690556003820160146101000a81549060ff0219169055600482016000905560058201600090556006820160009055506007016132a1565b5090565b90565b600081359050613344816140c8565b92915050565b600081359050613359816140df565b92915050565b600082601f83011261337057600080fd5b813561338361337e82613f30565b613f03565b9150808252602083016020830185838301111561339f57600080fd5b6133aa838284614075565b50505092915050565b6000813590506133c2816140f6565b92915050565b600080604083850312156133db57600080fd5b60006133e985828601613335565b92505060206133fa858286016133b3565b9150509250929050565b600080600080600060a0868803121561341c57600080fd5b600086013567ffffffffffffffff81111561343657600080fd5b6134428882890161335f565b955050602086013567ffffffffffffffff81111561345f57600080fd5b61346b8882890161335f565b945050604061347c8882890161334a565b935050606061348d888289016133b3565b925050608086013567ffffffffffffffff8111156134aa57600080fd5b6134b68882890161335f565b9150509295509295909350565b600080600080600060a086880312156134db57600080fd5b600086013567ffffffffffffffff8111156134f557600080fd5b6135018882890161335f565b9550506020613512888289016133b3565b945050604086013567ffffffffffffffff81111561352f57600080fd5b61353b8882890161335f565b935050606086013567ffffffffffffffff81111561355857600080fd5b6135648882890161335f565b925050608086013567ffffffffffffffff81111561358157600080fd5b61358d8882890161335f565b9150509295509295909350565b600080600080600080600060e0888a0312156135b557600080fd5b600088013567ffffffffffffffff8111156135cf57600080fd5b6135db8a828b0161335f565b97505060206135ec8a828b016133b3565b965050604088013567ffffffffffffffff81111561360957600080fd5b6136158a828b0161335f565b955050606088013567ffffffffffffffff81111561363257600080fd5b61363e8a828b0161335f565b945050608088013567ffffffffffffffff81111561365b57600080fd5b6136678a828b0161335f565b93505060a06136788a828b01613335565b92505060c06136898a828b0161334a565b91505092959891949750929550565b6000602082840312156136aa57600080fd5b60006136b8848285016133b3565b91505092915050565b600080604083850312156136d457600080fd5b60006136e2858286016133b3565b92505060206136f385828601613335565b9150509250929050565b6000806040838503121561371057600080fd5b600061371e858286016133b3565b925050602083013567ffffffffffffffff81111561373b57600080fd5b6137478582860161335f565b9150509250929050565b60008060008060008060c0878903121561376a57600080fd5b600061377889828a016133b3565b965050602087013567ffffffffffffffff81111561379557600080fd5b6137a189828a0161335f565b955050604087013567ffffffffffffffff8111156137be57600080fd5b6137ca89828a0161335f565b94505060606137db89828a0161334a565b93505060806137ec89828a016133b3565b92505060a087013567ffffffffffffffff81111561380957600080fd5b61381589828a0161335f565b9150509295509295509295565b600061382e8383613a66565b905092915050565b60006138428383613b1d565b60208301905092915050565b61385781614023565b82525050565b61386681614011565b82525050565b61387581614011565b82525050565b600061388682613f7c565b6138908185613fc2565b9350836020820285016138a285613f5c565b8060005b858110156138de57848403895281516138bf8582613822565b94506138ca83613fa8565b925060208a019950506001810190506138a6565b50829750879550505050505092915050565b60006138fb82613f87565b6139058185613fd3565b935061391083613f6c565b8060005b838110156139415781516139288882613836565b975061393383613fb5565b925050600181019050613914565b5085935050505092915050565b61395781614035565b82525050565b61396681614035565b82525050565b61397581614041565b82525050565b61398481614041565b82525050565b600061399582613f9d565b61399f8185613ff5565b93506139af818560208601614084565b6139b8816140b7565b840191505092915050565b60006139ce82613f9d565b6139d88185614006565b93506139e8818560208601614084565b80840191505092915050565b60006139ff82613f92565b613a098185613fe4565b9350613a19818560208601614084565b613a22816140b7565b840191505092915050565b6000613a3882613f92565b613a428185613ff5565b9350613a52818560208601614084565b613a5b816140b7565b840191505092915050565b600061010083016000830151613a7f6000860182613b1d565b5060208301518482036020860152613a9782826139f4565b91505060408301518482036040860152613ab182826139f4565b9150506060830151613ac6606086018261385d565b506080830151613ad9608086018261394e565b5060a0830151613aec60a0860182613b1d565b5060c0830151613aff60c086018261396c565b5060e0830151613b1260e0860182613b1d565b508091505092915050565b613b268161406b565b82525050565b613b358161406b565b82525050565b6000613b4782846139c3565b915081905092915050565b60006020820190508181036000830152613b6c818461387b565b905092915050565b60006020820190508181036000830152613b8e81846138f0565b905092915050565b60006020820190508181036000830152613bb08184613a2d565b905092915050565b6000602082019050613bcd6000830184613b2c565b92915050565b600061010082019050613be9600083018b613b2c565b8181036020830152613bfb818a61398a565b9050613c0a6040830189613b2c565b8181036060830152613c1c818861398a565b90508181036080830152613c30818761398a565b905081810360a0830152613c44818661398a565b9050613c5360c0830185613b2c565b613c6060e083018461384e565b9998505050505050505050565b600061014082019050613c83600083018d613b2c565b8181036020830152613c95818c61398a565b9050613ca4604083018b613b2c565b8181036060830152613cb6818a61398a565b90508181036080830152613cca818961398a565b905081810360a0830152613cde818861398a565b9050613ced60c0830187613b2c565b613cfa60e083018661384e565b613d0861010083018561386c565b613d1661012083018461395d565b9b9a5050505050505050505050565b600061010082019050613d3b600083018b613b2c565b8181036020830152613d4d818a613a2d565b90508181036040830152613d618189613a2d565b9050613d70606083018861386c565b613d7d608083018761395d565b613d8a60a0830186613b2c565b613d9760c083018561397b565b613da460e0830184613b2c565b9998505050505050505050565b600061010082019050613dc7600083018b613b2c565b8181036020830152613dd9818a613a2d565b9050613de86040830189613b2c565b8181036060830152613dfa8188613a2d565b90508181036080830152613e0e8187613a2d565b905081810360a0830152613e228186613a2d565b9050613e3160c0830185613b2c565b613e3e60e083018461384e565b9998505050505050505050565b600061014082019050613e61600083018d613b2c565b8181036020830152613e73818c613a2d565b9050613e82604083018b613b2c565b8181036060830152613e94818a613a2d565b90508181036080830152613ea88189613a2d565b905081810360a0830152613ebc8188613a2d565b9050613ecb60c0830187613b2c565b613ed860e083018661384e565b613ee661010083018561386c565b613ef461012083018461395d565b9b9a5050505050505050505050565b6000604051905081810181811067ffffffffffffffff82111715613f2657600080fd5b8060405250919050565b600067ffffffffffffffff821115613f4757600080fd5b601f19601f8301169050602081019050919050565b6000819050602082019050919050565b6000819050602082019050919050565b600081519050919050565b600081519050919050565b600081519050919050565b600081519050919050565b6000602082019050919050565b6000602082019050919050565b600082825260208201905092915050565b600082825260208201905092915050565b600082825260208201905092915050565b600082825260208201905092915050565b600081905092915050565b600061401c8261404b565b9050919050565b600061402e8261404b565b9050919050565b60008115159050919050565b6000819050919050565b600073ffffffffffffffffffffffffffffffffffffffff82169050919050565b6000819050919050565b82818337600083830152505050565b60005b838110156140a2578082015181840152602081019050614087565b838111156140b1576000848401525b50505050565b6000601f19601f8301169050919050565b6140d181614011565b81146140dc57600080fd5b50565b6140e881614035565b81146140f357600080fd5b50565b6140ff8161406b565b811461410a57600080fd5b5056fea365627a7a72315820d74566d2d7de5f0feb5175881da224a2e27cc85539bc20036c90702b8e75ea3e6c6578706572696d656e74616cf564736f6c63430005100040",
  "source": "// SPDX-License-Identifier: UNLICENSED\npragma solidity ^0.5.0;\npragma experimental ABIEncoderV2;\n\nimport \"./DCStorage.sol\";\nimport \"./safemath.sol\";\nimport \"./Organization.sol\";\nimport \"./Membership.sol\";\n\ncontract Direct is Membership{\n\n  string public name = \"Crypto Box Direct\";\n  uint public directFileCount = 0;\n\n  mapping(uint => DirectFile) public directfiles;\n\n  mapping(address => uint[]) public addressToFileIds;\n\n  mapping(address => uint[]) public uploaderToFileIds;\n  \n  struct DirectFile{\n    uint fileId;\n    string fileHash;\n    uint fileSize;\n    string fileType;\n    string fileName;\n    string fileDescription;\n    uint uploadTime;\n    address payable uploader;\n    address reciever;\n    bool isOneTimeLink;\n  }\n\n  event DirectFileUploaded(\n    uint fileId,\n    string fileHash,\n    uint fileSize,\n    string fileType,\n    string fileName,\n    string fileDescription,\n    uint uploadTime,\n    address payable uploader,\n    address reciever,\n    bool isOneTimeLink\n  );\n\n  constructor() public {\n  }\n\n  function uploadDirectFile(string memory _fileHash, uint _fileSize, string memory _fileType, string memory _fileName, string memory _fileDescription, address _reciever, bool _isOneTimeLink) public {\n    require(bytes(_fileHash).length > 0);\n    require(bytes(_fileType).length > 0);\n    require(bytes(_fileName).length > 0);\n    require(bytes(_fileDescription).length > 0);\n    require(msg.sender != address(0));\n    require(_fileSize > 0);\n    require(_reciever == address(_reciever));\n    directfiles[directFileCount] = DirectFile(directFileCount, _fileHash, _fileSize, _fileType, _fileName, _fileDescription, now, msg.sender, _reciever, _isOneTimeLink);\n    addressToFileIds[_reciever].push(directFileCount);\n    uploaderToFileIds[msg.sender].push(directFileCount);\n    directFileCount++;\n    emit DirectFileUploaded(directFileCount, _fileHash, _fileSize, _fileType, _fileName, _fileDescription, now, msg.sender, _reciever, _isOneTimeLink);\n  }\n\n  function currentUserFileIds() external view returns(uint [] memory) {\n    return addressToFileIds[msg.sender];\n  }\n\n  function uploaderFileIds() external view returns(uint [] memory) {\n    return uploaderToFileIds[msg.sender];\n  }\n\n  function fileDelete(uint id) public {\n    bool startDelete = false;\n    for(uint i = 0; i < addressToFileIds[msg.sender].length - 1; i++){\n        if(addressToFileIds[msg.sender][i] == id){\n            startDelete = true;\n        }\n        if(startDelete){\n            addressToFileIds[msg.sender][i] = addressToFileIds[msg.sender][i + 1];\n        }\n    }\n    delete addressToFileIds[msg.sender][addressToFileIds[msg.sender].length - 1];\n    addressToFileIds[msg.sender].length--;\n    delete directfiles[id];\n  }\n  \n}\n\n\n",
  "sourcePath": "/Users/csuftitan/Desktop/Meet Turakhia/Advanced Blockchain (CPSC 559)/Projects/Final Project(4 Dec 2022)/src/contracts/Direct.sol",
  "compiler": {
    "name": "solc",
    "version": "0.5.16+commit.9c3226ce.Emscripten.clang"
  },
  "schemaVersion": "3.4.9",
  "updatedAt": "2022-12-07T08:35:34.920Z",
  "networkType": "ethereum",
  "devdoc": {
    "methods": {}
  },
  "userdoc": {
    "methods": {}
  }
}