{
  "contractName": "Direct",
  "abi": [
    {
      "inputs": [],
      "payable": false,
      "stateMutability": "nonpayable",
      "type": "constructor"
    },
    {
      "anonymous": false,
      "inputs": [
        {
          "indexed": false,
          "internalType": "uint256",
          "name": "fileId",
          "type": "uint256"
        },
        {
          "indexed": false,
          "internalType": "string",
          "name": "fileHash",
          "type": "string"
        },
        {
          "indexed": false,
          "internalType": "uint256",
          "name": "fileSize",
          "type": "uint256"
        },
        {
          "indexed": false,
          "internalType": "string",
          "name": "fileType",
          "type": "string"
        },
        {
          "indexed": false,
          "internalType": "string",
          "name": "fileName",
          "type": "string"
        },
        {
          "indexed": false,
          "internalType": "string",
          "name": "fileDescription",
          "type": "string"
        },
        {
          "indexed": false,
          "internalType": "uint256",
          "name": "uploadTime",
          "type": "uint256"
        },
        {
          "indexed": false,
          "internalType": "address payable",
          "name": "uploader",
          "type": "address"
        },
        {
          "indexed": false,
          "internalType": "address",
          "name": "reciever",
          "type": "address"
        },
        {
          "indexed": false,
          "internalType": "bool",
          "name": "isOneTimeLink",
          "type": "bool"
        }
      ],
      "name": "DirectFileUploaded",
      "type": "event"
    },
    {
      "anonymous": false,
      "inputs": [
        {
          "indexed": false,
          "internalType": "uint256",
          "name": "fileId",
          "type": "uint256"
        },
        {
          "indexed": false,
          "internalType": "string",
          "name": "fileHash",
          "type": "string"
        },
        {
          "indexed": false,
          "internalType": "uint256",
          "name": "fileSize",
          "type": "uint256"
        },
        {
          "indexed": false,
          "internalType": "string",
          "name": "fileType",
          "type": "string"
        },
        {
          "indexed": false,
          "internalType": "string",
          "name": "fileName",
          "type": "string"
        },
        {
          "indexed": false,
          "internalType": "string",
          "name": "fileDescription",
          "type": "string"
        },
        {
          "indexed": false,
          "internalType": "uint256",
          "name": "uploadTime",
          "type": "uint256"
        },
        {
          "indexed": false,
          "internalType": "address payable",
          "name": "uploader",
          "type": "address"
        }
      ],
      "name": "FileUploaded",
      "type": "event"
    },
    {
      "constant": true,
      "inputs": [
        {
          "internalType": "address",
          "name": "",
          "type": "address"
        },
        {
          "internalType": "uint256",
          "name": "",
          "type": "uint256"
        }
      ],
      "name": "addressToFileIds",
      "outputs": [
        {
          "internalType": "uint256",
          "name": "",
          "type": "uint256"
        }
      ],
      "payable": false,
      "stateMutability": "view",
      "type": "function"
    },
    {
      "constant": false,
      "inputs": [
        {
          "internalType": "string",
          "name": "name",
          "type": "string"
        },
        {
          "internalType": "string",
          "name": "description",
          "type": "string"
        },
        {
          "internalType": "bool",
          "name": "privateBool",
          "type": "bool"
        },
        {
          "internalType": "uint256",
          "name": "memberLimit",
          "type": "uint256"
        },
        {
          "internalType": "string",
          "name": "passcode",
          "type": "string"
        }
      ],
      "name": "createOrganization",
      "outputs": [],
      "payable": false,
      "stateMutability": "nonpayable",
      "type": "function"
    },
    {
      "constant": false,
      "inputs": [
        {
          "internalType": "uint256",
          "name": "id",
          "type": "uint256"
        }
      ],
      "name": "deleteOrganization",
      "outputs": [],
      "payable": false,
      "stateMutability": "nonpayable",
      "type": "function"
    },
    {
      "constant": true,
      "inputs": [],
      "name": "directFileCount",
      "outputs": [
        {
          "internalType": "uint256",
          "name": "",
          "type": "uint256"
        }
      ],
      "payable": false,
      "stateMutability": "view",
      "type": "function"
    },
    {
      "constant": true,
      "inputs": [
        {
          "internalType": "uint256",
          "name": "",
          "type": "uint256"
        }
      ],
      "name": "directfiles",
      "outputs": [
        {
          "internalType": "uint256",
          "name": "fileId",
          "type": "uint256"
        },
        {
          "internalType": "string",
          "name": "fileHash",
          "type": "string"
        },
        {
          "internalType": "uint256",
          "name": "fileSize",
          "type": "uint256"
        },
        {
          "internalType": "string",
          "name": "fileType",
          "type": "string"
        },
        {
          "internalType": "string",
          "name": "fileName",
          "type": "string"
        },
        {
          "internalType": "string",
          "name": "fileDescription",
          "type": "string"
        },
        {
          "internalType": "uint256",
          "name": "uploadTime",
          "type": "uint256"
        },
        {
          "internalType": "address payable",
          "name": "uploader",
          "type": "address"
        },
        {
          "internalType": "address",
          "name": "reciever",
          "type": "address"
        },
        {
          "internalType": "bool",
          "name": "isOneTimeLink",
          "type": "bool"
        }
      ],
      "payable": false,
      "stateMutability": "view",
      "type": "function"
    },
    {
      "constant": false,
      "inputs": [
        {
          "internalType": "uint256",
          "name": "id",
          "type": "uint256"
        },
        {
          "internalType": "string",
          "name": "name",
          "type": "string"
        },
        {
          "internalType": "string",
          "name": "description",
          "type": "string"
        },
        {
          "internalType": "bool",
          "name": "privateBool",
          "type": "bool"
        },
        {
          "internalType": "uint256",
          "name": "memberLimit",
          "type": "uint256"
        },
        {
          "internalType": "string",
          "name": "passcode",
          "type": "string"
        }
      ],
      "name": "editOrganization",
      "outputs": [],
      "payable": false,
      "stateMutability": "nonpayable",
      "type": "function"
    },
    {
      "constant": false,
      "inputs": [
        {
          "internalType": "uint256",
          "name": "id",
          "type": "uint256"
        }
      ],
      "name": "exitOrganization",
      "outputs": [],
      "payable": false,
      "stateMutability": "nonpayable",
      "type": "function"
    },
    {
      "constant": true,
      "inputs": [],
      "name": "fileCount",
      "outputs": [
        {
          "internalType": "uint256",
          "name": "",
          "type": "uint256"
        }
      ],
      "payable": false,
      "stateMutability": "view",
      "type": "function"
    },
    {
      "constant": true,
      "inputs": [
        {
          "internalType": "uint256",
          "name": "",
          "type": "uint256"
        }
      ],
      "name": "files",
      "outputs": [
        {
          "internalType": "uint256",
          "name": "fileId",
          "type": "uint256"
        },
        {
          "internalType": "string",
          "name": "fileHash",
          "type": "string"
        },
        {
          "internalType": "uint256",
          "name": "fileSize",
          "type": "uint256"
        },
        {
          "internalType": "string",
          "name": "fileType",
          "type": "string"
        },
        {
          "internalType": "string",
          "name": "fileName",
          "type": "string"
        },
        {
          "internalType": "string",
          "name": "fileDescription",
          "type": "string"
        },
        {
          "internalType": "uint256",
          "name": "uploadTime",
          "type": "uint256"
        },
        {
          "internalType": "address payable",
          "name": "uploader",
          "type": "address"
        }
      ],
      "payable": false,
      "stateMutability": "view",
      "type": "function"
    },
    {
      "constant": true,
      "inputs": [],
      "name": "getMemberships",
      "outputs": [
        {
          "internalType": "uint256[]",
          "name": "",
          "type": "uint256[]"
        }
      ],
      "payable": false,
      "stateMutability": "view",
      "type": "function"
    },
    {
      "constant": true,
      "inputs": [],
      "name": "getOrganizations",
      "outputs": [
        {
          "components": [
            {
              "internalType": "uint256",
              "name": "Id",
              "type": "uint256"
            },
            {
              "internalType": "string",
              "name": "Name",
              "type": "string"
            },
            {
              "internalType": "string",
              "name": "Description",
              "type": "string"
            },
            {
              "internalType": "address",
              "name": "Owner",
              "type": "address"
            },
            {
              "internalType": "bool",
              "name": "Private",
              "type": "bool"
            },
            {
              "internalType": "uint256",
              "name": "MemberLimit",
              "type": "uint256"
            },
            {
              "internalType": "bytes32",
              "name": "Passcode",
              "type": "bytes32"
            },
            {
              "internalType": "uint256",
              "name": "createdAt",
              "type": "uint256"
            }
          ],
          "internalType": "struct BuildOrganization.Organization[]",
          "name": "",
          "type": "tuple[]"
        }
      ],
      "payable": false,
      "stateMutability": "view",
      "type": "function"
    },
    {
      "constant": false,
      "inputs": [
        {
          "internalType": "uint256",
          "name": "id",
          "type": "uint256"
        },
        {
          "internalType": "string",
          "name": "passcode",
          "type": "string"
        }
      ],
      "name": "joinOrganization",
      "outputs": [],
      "payable": false,
      "stateMutability": "nonpayable",
      "type": "function"
    },
    {
      "constant": true,
      "inputs": [],
      "name": "name",
      "outputs": [
        {
          "internalType": "string",
          "name": "",
          "type": "string"
        }
      ],
      "payable": false,
      "stateMutability": "view",
      "type": "function"
    },
    {
      "constant": true,
      "inputs": [
        {
          "internalType": "uint256",
          "name": "",
          "type": "uint256"
        }
      ],
      "name": "organizations",
      "outputs": [
        {
          "internalType": "uint256",
          "name": "Id",
          "type": "uint256"
        },
        {
          "internalType": "string",
          "name": "Name",
          "type": "string"
        },
        {
          "internalType": "string",
          "name": "Description",
          "type": "string"
        },
        {
          "internalType": "address",
          "name": "Owner",
          "type": "address"
        },
        {
          "internalType": "bool",
          "name": "Private",
          "type": "bool"
        },
        {
          "internalType": "uint256",
          "name": "MemberLimit",
          "type": "uint256"
        },
        {
          "internalType": "bytes32",
          "name": "Passcode",
          "type": "bytes32"
        },
        {
          "internalType": "uint256",
          "name": "createdAt",
          "type": "uint256"
        }
      ],
      "payable": false,
      "stateMutability": "view",
      "type": "function"
    },
    {
      "constant": false,
      "inputs": [
        {
          "internalType": "uint256",
          "name": "id",
          "type": "uint256"
        },
        {
          "internalType": "address",
          "name": "userAddress",
          "type": "address"
        }
      ],
      "name": "removeMembership",
      "outputs": [],
      "payable": false,
      "stateMutability": "nonpayable",
      "type": "function"
    },
    {
      "constant": false,
      "inputs": [
        {
          "internalType": "string",
          "name": "_fileHash",
          "type": "string"
        },
        {
          "internalType": "uint256",
          "name": "_fileSize",
          "type": "uint256"
        },
        {
          "internalType": "string",
          "name": "_fileType",
          "type": "string"
        },
        {
          "internalType": "string",
          "name": "_fileName",
          "type": "string"
        },
        {
          "internalType": "string",
          "name": "_fileDescription",
          "type": "string"
        }
      ],
      "name": "uploadFile",
      "outputs": [],
      "payable": false,
      "stateMutability": "nonpayable",
      "type": "function"
    },
    {
      "constant": false,
      "inputs": [
        {
          "internalType": "string",
          "name": "_fileHash",
          "type": "string"
        },
        {
          "internalType": "uint256",
          "name": "_fileSize",
          "type": "uint256"
        },
        {
          "internalType": "string",
          "name": "_fileType",
          "type": "string"
        },
        {
          "internalType": "string",
          "name": "_fileName",
          "type": "string"
        },
        {
          "internalType": "string",
          "name": "_fileDescription",
          "type": "string"
        },
        {
          "internalType": "address",
          "name": "_reciever",
          "type": "address"
        },
        {
          "internalType": "bool",
          "name": "_isOneTimeLink",
          "type": "bool"
        }
      ],
      "name": "uploadDirectFile",
      "outputs": [],
      "payable": false,
      "stateMutability": "nonpayable",
      "type": "function"
    },
    {
      "constant": true,
      "inputs": [],
      "name": "currentUserFileIds",
      "outputs": [
        {
          "internalType": "uint256[]",
          "name": "",
          "type": "uint256[]"
        }
      ],
      "payable": false,
      "stateMutability": "view",
      "type": "function"
    },
    {
      "constant": false,
      "inputs": [
        {
          "internalType": "uint256",
          "name": "id",
          "type": "uint256"
        }
      ],
      "name": "fileDelete",
      "outputs": [],
      "payable": false,
      "stateMutability": "nonpayable",
      "type": "function"
    }
  ],
  "bytecode": "0x60806040526040518060400160405280600981526020017f444353746f7261676500000000000000000000000000000000000000000000008152506000908051906020019062000051929190620000c3565b50600060015560006003556040518060400160405280601181526020017f43727970746f20426f782044697265637400000000000000000000000000000081525060099080519060200190620000a9929190620000c3565b506000600a55348015620000bc57600080fd5b5062000172565b828054600181600116156101000203166002900490600052602060002090601f016020900481019282601f106200010657805160ff191683800117855562000137565b8280016001018555821562000137579182015b828111156200013657825182559160200191906001019062000119565b5b5090506200014691906200014a565b5090565b6200016f91905b808211156200016b57600081600090555060010162000151565b5090565b90565b613fbe80620001826000396000f3fe608060405234801561001057600080fd5b50600436106101205760003560e01c806392515b28116100ad578063cdc3035311610071578063cdc30353146102ea578063dc1301af14610306578063e792dd8a14610322578063e82d9d3314610359578063f4c714b41461037557610120565b806392515b281461023d578063942b7c7f146102595780639754a3a814610292578063a89b01a8146102b0578063b8f871a1146102ce57610120565b806343953519116100f457806343953519146101ad578063481c1093146101cb5780634db20ee9146101e757806363336311146102035780637840c6a41461021f57610120565b8062d5f22b1461012557806306fdde031461014357806329ab4bf314610161578063339d4ad71461017d575b600080fd5b61012d6103ac565b60405161013a9190613a26565b60405180910390f35b61014b6103b2565b6040516101589190613a04565b60405180910390f35b61017b600480360361017691908101906135bf565b610450565b005b61019760048036036101929190810190613236565b61062d565b6040516101a49190613a26565b60405180910390f35b6101b561065b565b6040516101c29190613a26565b60405180910390f35b6101e560048036036101e09190810190613272565b610661565b005b61020160048036036101fc9190810190613408565b610a1d565b005b61021d6004803603610218919081019061352f565b610d75565b005b610227611303565b60405161023491906139e2565b60405180910390f35b61025760048036036102529190810190613506565b611398565b005b610273600480360361026e9190810190613506565b6118af565b6040516102899a99989796959493929190613cb9565b60405180910390f35b61029a611bb0565b6040516102a791906139c0565b60405180910390f35b6102b8611ded565b6040516102c591906139e2565b60405180910390f35b6102e860048036036102e39190810190613506565b611e82565b005b61030460048036036102ff919081019061356b565b6121c4565b005b610320600480360361031b9190810190613506565b61244d565b005b61033c60048036036103379190810190613506565b6127bc565b604051610350989796959493929190613b93565b60405180910390f35b610373600480360361036e9190810190613331565b61296e565b005b61038f600480360361038a9190810190613506565b612b90565b6040516103a3989796959493929190613c1f565b60405180910390f35b600a5481565b60098054600181600116156101000203166002900480601f0160208091040260200160405190810160405280929190818152602001828054600181600116156101000203166002900480156104485780601f1061041d57610100808354040283529160200191610448565b820191906000526020600020905b81548152906001019060200180831161042b57829003601f168201915b505050505081565b600085511161045e57600080fd5b600084511161046c57600080fd5b6000821161047957600080fd5b60001515831515141561049d576040518060200160405280600081525090506104ac565b60008151116104ab57600080fd5b5b3373ffffffffffffffffffffffffffffffffffffffff166005600088815260200190815260200160002060009054906101000a900473ffffffffffffffffffffffffffffffffffffffff1673ffffffffffffffffffffffffffffffffffffffff161461051757600080fd5b60008160405160200161052a91906139a9565b604051602081830303815290604052805190602001209050856004888154811061055057fe5b90600052602060002090600702016001019080519060200190610574929190612e8b565b50846004888154811061058357fe5b906000526020600020906007020160020190805190602001906105a7929190612e8b565b5083600488815481106105b657fe5b906000526020600020906007020160030160146101000a81548160ff02191690831515021790555082600488815481106105ec57fe5b906000526020600020906007020160040181905550806004888154811061060f57fe5b90600052602060002090600702016005018190555050505050505050565b600c602052816000526040600020818154811061064657fe5b90600052602060002001600091509150505481565b60015481565b600085511161066f57600080fd5b600084511161067d57600080fd5b6000821161068a57600080fd5b6000151583151514156106ae576040518060200160405280600081525090506106bd565b60008151116106bc57600080fd5b5b600060035490506000826040516020016106d791906139a9565b60405160208183030381529060405280519060200120905060046040518061010001604052808481526020018981526020018881526020013373ffffffffffffffffffffffffffffffffffffffff16815260200187151581526020018681526020018381526020014281525090806001815401808255809150509060018203906000526020600020906007020160009091929091909150600082015181600001556020820151816001019080519060200190610794929190612f0b565b5060408201518160020190805190602001906107b1929190612f0b565b5060608201518160030160006101000a81548173ffffffffffffffffffffffffffffffffffffffff021916908373ffffffffffffffffffffffffffffffffffffffff16021790555060808201518160030160146101000a81548160ff02191690831515021790555060a0820151816004015560c0820151816005015560e08201518160060155505050336005600084815260200190815260200160002060006101000a81548173ffffffffffffffffffffffffffffffffffffffff021916908373ffffffffffffffffffffffffffffffffffffffff1602179055506108df6001600660003373ffffffffffffffffffffffffffffffffffffffff1673ffffffffffffffffffffffffffffffffffffffff16815260200190815260200160002054612e5890919063ffffffff16565b600660003373ffffffffffffffffffffffffffffffffffffffff1673ffffffffffffffffffffffffffffffffffffffff16815260200190815260200160002081905550600760003373ffffffffffffffffffffffffffffffffffffffff1673ffffffffffffffffffffffffffffffffffffffff168152602001908152602001600020829080600181540180825580915050906001820390600052602060002001600090919290919091505550600860008381526020019081526020016000203390806001815401808255809150509060018203906000526020600020016000909192909190916101000a81548173ffffffffffffffffffffffffffffffffffffffff021916908373ffffffffffffffffffffffffffffffffffffffff1602179055505060036000815480929190600101919050555050505050505050565b6000875111610a2b57600080fd5b6000855111610a3957600080fd5b6000845111610a4757600080fd5b6000835111610a5557600080fd5b600073ffffffffffffffffffffffffffffffffffffffff163373ffffffffffffffffffffffffffffffffffffffff161415610a8f57600080fd5b60008611610a9c57600080fd5b8173ffffffffffffffffffffffffffffffffffffffff168273ffffffffffffffffffffffffffffffffffffffff1614610ad457600080fd5b604051806101400160405280600a5481526020018881526020018781526020018681526020018581526020018481526020014281526020013373ffffffffffffffffffffffffffffffffffffffff1681526020018373ffffffffffffffffffffffffffffffffffffffff168152602001821515815250600b6000600a548152602001908152602001600020600082015181600001556020820151816001019080519060200190610b85929190612f0b565b50604082015181600201556060820151816003019080519060200190610bac929190612f0b565b506080820151816004019080519060200190610bc9929190612f0b565b5060a0820151816005019080519060200190610be6929190612f0b565b5060c0820151816006015560e08201518160070160006101000a81548173ffffffffffffffffffffffffffffffffffffffff021916908373ffffffffffffffffffffffffffffffffffffffff1602179055506101008201518160080160006101000a81548173ffffffffffffffffffffffffffffffffffffffff021916908373ffffffffffffffffffffffffffffffffffffffff1602179055506101208201518160080160146101000a81548160ff021916908315150217905550905050600c60008373ffffffffffffffffffffffffffffffffffffffff1673ffffffffffffffffffffffffffffffffffffffff168152602001908152602001600020600a549080600181540180825580915050906001820390600052602060002001600090919290919091505550600a600081548092919060010191905055507feeeed15c975fd3e736c550958913fd5541d9193b09fb3c3b98cadc46aed5533a600a54888888888842338a8a604051610d649a99989796959493929190613adb565b60405180910390a150505050505050565b60048281548110610d8257fe5b906000526020600020906007020160030160009054906101000a900473ffffffffffffffffffffffffffffffffffffffff1673ffffffffffffffffffffffffffffffffffffffff163373ffffffffffffffffffffffffffffffffffffffff1614610deb57600080fd5b600080600080905060008090506060600760008773ffffffffffffffffffffffffffffffffffffffff1673ffffffffffffffffffffffffffffffffffffffff168152602001908152602001600020805480602002602001604051908101604052809291908181526020018280548015610e8357602002820191906000526020600020905b815481526020019060010190808311610e6f575b50505050509050606060086000898152602001908152602001600020805480602002602001604051908101604052809291908181526020018280548015610f1f57602002820191906000526020600020905b8160009054906101000a900473ffffffffffffffffffffffffffffffffffffffff1673ffffffffffffffffffffffffffffffffffffffff1681526020019060010190808311610ed5575b5050505050905060005b8251811015610f6257828181518110610f3e57fe5b6020026020010151891415610f5557809650600194505b8080600101915050610f29565b5060005b8151811015610fcb57818181518110610f7b57fe5b602002602001015173ffffffffffffffffffffffffffffffffffffffff168873ffffffffffffffffffffffffffffffffffffffff161415610fbe57809550600193505b8080600101915050610f66565b50838015610fd65750825b156112f95760008690505b60018351038110156110aa57600760008973ffffffffffffffffffffffffffffffffffffffff1673ffffffffffffffffffffffffffffffffffffffff168152602001908152602001600020600182018154811061103a57fe5b9060005260206000200154600760008a73ffffffffffffffffffffffffffffffffffffffff1673ffffffffffffffffffffffffffffffffffffffff168152602001908152602001600020828154811061108f57fe5b90600052602060002001819055508080600101915050610fe1565b50600760008873ffffffffffffffffffffffffffffffffffffffff1673ffffffffffffffffffffffffffffffffffffffff1681526020019081526020016000206001600760008a73ffffffffffffffffffffffffffffffffffffffff1673ffffffffffffffffffffffffffffffffffffffff16815260200190815260200160002080549050038154811061113a57fe5b9060005260206000200160009055600760008873ffffffffffffffffffffffffffffffffffffffff1673ffffffffffffffffffffffffffffffffffffffff16815260200190815260200160002080548091906001900361119a9190612f8b565b5060008590505b600182510381101561126c57600860008a815260200190815260200160002060018201815481106111ce57fe5b9060005260206000200160009054906101000a900473ffffffffffffffffffffffffffffffffffffffff16600860008b8152602001908152602001600020828154811061121757fe5b9060005260206000200160006101000a81548173ffffffffffffffffffffffffffffffffffffffff021916908373ffffffffffffffffffffffffffffffffffffffff16021790555080806001019150506111a1565b50600860008981526020019081526020016000206001600860008b81526020019081526020016000208054905003815481106112a457fe5b9060005260206000200160006101000a81549073ffffffffffffffffffffffffffffffffffffffff0219169055600860008981526020019081526020016000208054809190600190036112f79190612fb7565b505b5050505050505050565b6060600760003373ffffffffffffffffffffffffffffffffffffffff1673ffffffffffffffffffffffffffffffffffffffff16815260200190815260200160002080548060200260200160405190810160405280929190818152602001828054801561138e57602002820191906000526020600020905b81548152602001906001019080831161137a575b5050505050905090565b600080600080905060008090506060600760003373ffffffffffffffffffffffffffffffffffffffff1673ffffffffffffffffffffffffffffffffffffffff16815260200190815260200160002080548060200260200160405190810160405280929190818152602001828054801561143057602002820191906000526020600020905b81548152602001906001019080831161141c575b505050505090506060600860008881526020019081526020016000208054806020026020016040519081016040528092919081815260200182805480156114cc57602002820191906000526020600020905b8160009054906101000a900473ffffffffffffffffffffffffffffffffffffffff1673ffffffffffffffffffffffffffffffffffffffff1681526020019060010190808311611482575b5050505050905060005b825181101561150f578281815181106114eb57fe5b602002602001015188141561150257809650600194505b80806001019150506114d6565b5060005b81518110156115785781818151811061152857fe5b602002602001015173ffffffffffffffffffffffffffffffffffffffff163373ffffffffffffffffffffffffffffffffffffffff16141561156b57809550600193505b8080600101915050611513565b508380156115835750825b156118a65760008690505b600183510381101561165757600760003373ffffffffffffffffffffffffffffffffffffffff1673ffffffffffffffffffffffffffffffffffffffff16815260200190815260200160002060018201815481106115e757fe5b9060005260206000200154600760003373ffffffffffffffffffffffffffffffffffffffff1673ffffffffffffffffffffffffffffffffffffffff168152602001908152602001600020828154811061163c57fe5b9060005260206000200181905550808060010191505061158e565b50600760003373ffffffffffffffffffffffffffffffffffffffff1673ffffffffffffffffffffffffffffffffffffffff1681526020019081526020016000206001600760003373ffffffffffffffffffffffffffffffffffffffff1673ffffffffffffffffffffffffffffffffffffffff1681526020019081526020016000208054905003815481106116e757fe5b9060005260206000200160009055600760003373ffffffffffffffffffffffffffffffffffffffff1673ffffffffffffffffffffffffffffffffffffffff1681526020019081526020016000208054809190600190036117479190612f8b565b5060008590505b60018251038110156118195760086000898152602001908152602001600020600182018154811061177b57fe5b9060005260206000200160009054906101000a900473ffffffffffffffffffffffffffffffffffffffff16600860008a815260200190815260200160002082815481106117c457fe5b9060005260206000200160006101000a81548173ffffffffffffffffffffffffffffffffffffffff021916908373ffffffffffffffffffffffffffffffffffffffff160217905550808060010191505061174e565b50600860008881526020019081526020016000206001600860008a815260200190815260200160002080549050038154811061185157fe5b9060005260206000200160006101000a81549073ffffffffffffffffffffffffffffffffffffffff0219169055600860008881526020019081526020016000208054809190600190036118a49190612fb7565b505b50505050505050565b600b602052806000526040600020600091509050806000015490806001018054600181600116156101000203166002900480601f0160208091040260200160405190810160405280929190818152602001828054600181600116156101000203166002900480156119615780601f1061193657610100808354040283529160200191611961565b820191906000526020600020905b81548152906001019060200180831161194457829003601f168201915b505050505090806002015490806003018054600181600116156101000203166002900480601f016020809104026020016040519081016040528092919081815260200182805460018160011615610100020316600290048015611a055780601f106119da57610100808354040283529160200191611a05565b820191906000526020600020905b8154815290600101906020018083116119e857829003601f168201915b505050505090806004018054600181600116156101000203166002900480601f016020809104026020016040519081016040528092919081815260200182805460018160011615610100020316600290048015611aa35780601f10611a7857610100808354040283529160200191611aa3565b820191906000526020600020905b815481529060010190602001808311611a8657829003601f168201915b505050505090806005018054600181600116156101000203166002900480601f016020809104026020016040519081016040528092919081815260200182805460018160011615610100020316600290048015611b415780601f10611b1657610100808354040283529160200191611b41565b820191906000526020600020905b815481529060010190602001808311611b2457829003601f168201915b5050505050908060060154908060070160009054906101000a900473ffffffffffffffffffffffffffffffffffffffff16908060080160009054906101000a900473ffffffffffffffffffffffffffffffffffffffff16908060080160149054906101000a900460ff1690508a565b60606004805480602002602001604051908101604052809291908181526020016000905b82821015611de457838290600052602060002090600702016040518061010001604052908160008201548152602001600182018054600181600116156101000203166002900480601f016020809104026020016040519081016040528092919081815260200182805460018160011615610100020316600290048015611c9b5780601f10611c7057610100808354040283529160200191611c9b565b820191906000526020600020905b815481529060010190602001808311611c7e57829003601f168201915b50505050508152602001600282018054600181600116156101000203166002900480601f016020809104026020016040519081016040528092919081815260200182805460018160011615610100020316600290048015611d3d5780601f10611d1257610100808354040283529160200191611d3d565b820191906000526020600020905b815481529060010190602001808311611d2057829003601f168201915b505050505081526020016003820160009054906101000a900473ffffffffffffffffffffffffffffffffffffffff1673ffffffffffffffffffffffffffffffffffffffff1673ffffffffffffffffffffffffffffffffffffffff1681526020016003820160149054906101000a900460ff16151515158152602001600482015481526020016005820154815260200160068201548152505081526020019060010190611bd4565b50505050905090565b6060600c60003373ffffffffffffffffffffffffffffffffffffffff1673ffffffffffffffffffffffffffffffffffffffff168152602001908152602001600020805480602002602001604051908101604052809291908181526020018280548015611e7857602002820191906000526020600020905b815481526020019060010190808311611e64575b5050505050905090565b600080905060008090505b6001600c60003373ffffffffffffffffffffffffffffffffffffffff1673ffffffffffffffffffffffffffffffffffffffff1681526020019081526020016000208054905003811015611fff5782600c60003373ffffffffffffffffffffffffffffffffffffffff1673ffffffffffffffffffffffffffffffffffffffff1681526020019081526020016000208281548110611f2557fe5b90600052602060002001541415611f3b57600191505b8115611ff257600c60003373ffffffffffffffffffffffffffffffffffffffff1673ffffffffffffffffffffffffffffffffffffffff1681526020019081526020016000206001820181548110611f8e57fe5b9060005260206000200154600c60003373ffffffffffffffffffffffffffffffffffffffff1673ffffffffffffffffffffffffffffffffffffffff1681526020019081526020016000208281548110611fe357fe5b90600052602060002001819055505b8080600101915050611e8d565b50600c60003373ffffffffffffffffffffffffffffffffffffffff1673ffffffffffffffffffffffffffffffffffffffff1681526020019081526020016000206001600c60003373ffffffffffffffffffffffffffffffffffffffff1673ffffffffffffffffffffffffffffffffffffffff16815260200190815260200160002080549050038154811061208f57fe5b9060005260206000200160009055600c60003373ffffffffffffffffffffffffffffffffffffffff1673ffffffffffffffffffffffffffffffffffffffff1681526020019081526020016000208054809190600190036120ef9190612f8b565b50600b600083815260200190815260200160002060008082016000905560018201600061211c9190612fe3565b60028201600090556003820160006121349190612fe3565b6004820160006121449190612fe3565b6005820160006121549190612fe3565b60068201600090556007820160006101000a81549073ffffffffffffffffffffffffffffffffffffffff02191690556008820160006101000a81549073ffffffffffffffffffffffffffffffffffffffff02191690556008820160146101000a81549060ff021916905550505050565b60011515600483815481106121d557fe5b906000526020600020906007020160030160149054906101000a900460ff16151514801561224757506004828154811061220b57fe5b9060005260206000209060070201600501548160405160200161222e91906139a9565b6040516020818303038152906040528051906020012014155b1561225157612449565b60006004838154811061226057fe5b9060005260206000209060070201600401549050806008600085815260200190815260200160002080549050106122975750612449565b6060600760003373ffffffffffffffffffffffffffffffffffffffff1673ffffffffffffffffffffffffffffffffffffffff16815260200190815260200160002080548060200260200160405190810160405280929190818152602001828054801561232257602002820191906000526020600020905b81548152602001906001019080831161230e575b5050505050905060005b81518110156123655781818151811061234157fe5b602002602001015185141561235857505050612449565b808060010191505061232c565b50600760003373ffffffffffffffffffffffffffffffffffffffff1673ffffffffffffffffffffffffffffffffffffffff168152602001908152602001600020849080600181540180825580915050906001820390600052602060002001600090919290919091505550600860008581526020019081526020016000203390806001815401808255809150509060018203906000526020600020016000909192909190916101000a81548173ffffffffffffffffffffffffffffffffffffffff021916908373ffffffffffffffffffffffffffffffffffffffff1602179055505050505b5050565b3373ffffffffffffffffffffffffffffffffffffffff166005600083815260200190815260200160002060009054906101000a900473ffffffffffffffffffffffffffffffffffffffff1673ffffffffffffffffffffffffffffffffffffffff16146124b857600080fd5b60048054905081106124c9576127b9565b60008190505b60016004805490500381101561263457600460018201815481106124ef57fe5b90600052602060002090600702016004828154811061250a57fe5b9060005260206000209060070201600082015481600001556001820181600101908054600181600116156101000203166002900461254992919061302b565b506002820181600201908054600181600116156101000203166002900461257192919061302b565b506003820160009054906101000a900473ffffffffffffffffffffffffffffffffffffffff168160030160006101000a81548173ffffffffffffffffffffffffffffffffffffffff021916908373ffffffffffffffffffffffffffffffffffffffff1602179055506003820160149054906101000a900460ff168160030160146101000a81548160ff02191690831515021790555060048201548160040155600582015481600501556006820154816006015590505080806001019150506124cf565b5060046001600480549050038154811061264a57fe5b90600052602060002090600702016000808201600090556001820160006126719190612fe3565b6002820160006126819190612fe3565b6003820160006101000a81549073ffffffffffffffffffffffffffffffffffffffff02191690556003820160146101000a81549060ff0219169055600482016000905560058201600090556006820160009055505060048054809190600190036126eb91906130b2565b506005600082815260200190815260200160002060006101000a81549073ffffffffffffffffffffffffffffffffffffffff02191690556127756001600660003373ffffffffffffffffffffffffffffffffffffffff1673ffffffffffffffffffffffffffffffffffffffff16815260200190815260200160002054612e7490919063ffffffff16565b600660003373ffffffffffffffffffffffffffffffffffffffff1673ffffffffffffffffffffffffffffffffffffffff168152602001908152602001600020819055505b50565b600481815481106127c957fe5b9060005260206000209060070201600091509050806000015490806001018054600181600116156101000203166002900480601f01602080910402602001604051908101604052809291908181526020018280546001816001161561010002031660029004801561287b5780601f106128505761010080835404028352916020019161287b565b820191906000526020600020905b81548152906001019060200180831161285e57829003601f168201915b505050505090806002018054600181600116156101000203166002900480601f0160208091040260200160405190810160405280929190818152602001828054600181600116156101000203166002900480156129195780601f106128ee57610100808354040283529160200191612919565b820191906000526020600020905b8154815290600101906020018083116128fc57829003601f168201915b5050505050908060030160009054906101000a900473ffffffffffffffffffffffffffffffffffffffff16908060030160149054906101000a900460ff16908060040154908060050154908060060154905088565b600085511161297c57600080fd5b600083511161298a57600080fd5b600082511161299857600080fd5b60008151116129a657600080fd5b600073ffffffffffffffffffffffffffffffffffffffff163373ffffffffffffffffffffffffffffffffffffffff1614156129e057600080fd5b600084116129ed57600080fd5b60405180610100016040528060015481526020018681526020018581526020018481526020018381526020018281526020014281526020013373ffffffffffffffffffffffffffffffffffffffff16815250600260006001548152602001908152602001600020600082015181600001556020820151816001019080519060200190612a7a929190612f0b565b50604082015181600201556060820151816003019080519060200190612aa1929190612f0b565b506080820151816004019080519060200190612abe929190612f0b565b5060a0820151816005019080519060200190612adb929190612f0b565b5060c0820151816006015560e08201518160070160006101000a81548173ffffffffffffffffffffffffffffffffffffffff021916908373ffffffffffffffffffffffffffffffffffffffff1602179055509050506001600081548092919060010191905055507f6e95bbaa37a5fdec42a312e049dea2fe6160ebe659214d3409b4f91f164c2f5260015486868686864233604051612b81989796959493929190613a41565b60405180910390a15050505050565b6002602052806000526040600020600091509050806000015490806001018054600181600116156101000203166002900480601f016020809104026020016040519081016040528092919081815260200182805460018160011615610100020316600290048015612c425780601f10612c1757610100808354040283529160200191612c42565b820191906000526020600020905b815481529060010190602001808311612c2557829003601f168201915b505050505090806002015490806003018054600181600116156101000203166002900480601f016020809104026020016040519081016040528092919081815260200182805460018160011615610100020316600290048015612ce65780601f10612cbb57610100808354040283529160200191612ce6565b820191906000526020600020905b815481529060010190602001808311612cc957829003601f168201915b505050505090806004018054600181600116156101000203166002900480601f016020809104026020016040519081016040528092919081815260200182805460018160011615610100020316600290048015612d845780601f10612d5957610100808354040283529160200191612d84565b820191906000526020600020905b815481529060010190602001808311612d6757829003601f168201915b505050505090806005018054600181600116156101000203166002900480601f016020809104026020016040519081016040528092919081815260200182805460018160011615610100020316600290048015612e225780601f10612df757610100808354040283529160200191612e22565b820191906000526020600020905b815481529060010190602001808311612e0557829003601f168201915b5050505050908060060154908060070160009054906101000a900473ffffffffffffffffffffffffffffffffffffffff16905088565b600080828401905083811015612e6a57fe5b8091505092915050565b600082821115612e8057fe5b818303905092915050565b828054600181600116156101000203166002900490600052602060002090601f016020900481019282601f10612ecc57805160ff1916838001178555612efa565b82800160010185558215612efa579182015b82811115612ef9578251825591602001919060010190612ede565b5b509050612f0791906130e4565b5090565b828054600181600116156101000203166002900490600052602060002090601f016020900481019282601f10612f4c57805160ff1916838001178555612f7a565b82800160010185558215612f7a579182015b82811115612f79578251825591602001919060010190612f5e565b5b509050612f8791906130e4565b5090565b815481835581811115612fb257818360005260206000209182019101612fb191906130e4565b5b505050565b815481835581811115612fde57818360005260206000209182019101612fdd91906130e4565b5b505050565b50805460018160011615610100020316600290046000825580601f106130095750613028565b601f01602090049060005260206000209081019061302791906130e4565b5b50565b828054600181600116156101000203166002900490600052602060002090601f016020900481019282601f1061306457805485556130a1565b828001600101855582156130a157600052602060002091601f016020900482015b828111156130a0578254825591600101919060010190613085565b5b5090506130ae91906130e4565b5090565b8154818355818111156130df576007028160070283600052602060002091820191016130de9190613109565b5b505050565b61310691905b808211156131025760008160009055506001016130ea565b5090565b90565b6131a091905b8082111561319c576000808201600090556001820160006131309190612fe3565b6002820160006131409190612fe3565b6003820160006101000a81549073ffffffffffffffffffffffffffffffffffffffff02191690556003820160146101000a81549060ff02191690556004820160009055600582016000905560068201600090555060070161310f565b5090565b90565b6000813590506131b281613f36565b92915050565b6000813590506131c781613f4d565b92915050565b600082601f8301126131de57600080fd5b81356131f16131ec82613d9e565b613d71565b9150808252602083016020830185838301111561320d57600080fd5b613218838284613ee3565b50505092915050565b60008135905061323081613f64565b92915050565b6000806040838503121561324957600080fd5b6000613257858286016131a3565b925050602061326885828601613221565b9150509250929050565b600080600080600060a0868803121561328a57600080fd5b600086013567ffffffffffffffff8111156132a457600080fd5b6132b0888289016131cd565b955050602086013567ffffffffffffffff8111156132cd57600080fd5b6132d9888289016131cd565b94505060406132ea888289016131b8565b93505060606132fb88828901613221565b925050608086013567ffffffffffffffff81111561331857600080fd5b613324888289016131cd565b9150509295509295909350565b600080600080600060a0868803121561334957600080fd5b600086013567ffffffffffffffff81111561336357600080fd5b61336f888289016131cd565b955050602061338088828901613221565b945050604086013567ffffffffffffffff81111561339d57600080fd5b6133a9888289016131cd565b935050606086013567ffffffffffffffff8111156133c657600080fd5b6133d2888289016131cd565b925050608086013567ffffffffffffffff8111156133ef57600080fd5b6133fb888289016131cd565b9150509295509295909350565b600080600080600080600060e0888a03121561342357600080fd5b600088013567ffffffffffffffff81111561343d57600080fd5b6134498a828b016131cd565b975050602061345a8a828b01613221565b965050604088013567ffffffffffffffff81111561347757600080fd5b6134838a828b016131cd565b955050606088013567ffffffffffffffff8111156134a057600080fd5b6134ac8a828b016131cd565b945050608088013567ffffffffffffffff8111156134c957600080fd5b6134d58a828b016131cd565b93505060a06134e68a828b016131a3565b92505060c06134f78a828b016131b8565b91505092959891949750929550565b60006020828403121561351857600080fd5b600061352684828501613221565b91505092915050565b6000806040838503121561354257600080fd5b600061355085828601613221565b9250506020613561858286016131a3565b9150509250929050565b6000806040838503121561357e57600080fd5b600061358c85828601613221565b925050602083013567ffffffffffffffff8111156135a957600080fd5b6135b5858286016131cd565b9150509250929050565b60008060008060008060c087890312156135d857600080fd5b60006135e689828a01613221565b965050602087013567ffffffffffffffff81111561360357600080fd5b61360f89828a016131cd565b955050604087013567ffffffffffffffff81111561362c57600080fd5b61363889828a016131cd565b945050606061364989828a016131b8565b935050608061365a89828a01613221565b92505060a087013567ffffffffffffffff81111561367757600080fd5b61368389828a016131cd565b9150509295509295509295565b600061369c83836138d4565b905092915050565b60006136b0838361398b565b60208301905092915050565b6136c581613e91565b82525050565b6136d481613e7f565b82525050565b6136e381613e7f565b82525050565b60006136f482613dea565b6136fe8185613e30565b93508360208202850161371085613dca565b8060005b8581101561374c578484038952815161372d8582613690565b945061373883613e16565b925060208a01995050600181019050613714565b50829750879550505050505092915050565b600061376982613df5565b6137738185613e41565b935061377e83613dda565b8060005b838110156137af57815161379688826136a4565b97506137a183613e23565b925050600181019050613782565b5085935050505092915050565b6137c581613ea3565b82525050565b6137d481613ea3565b82525050565b6137e381613eaf565b82525050565b6137f281613eaf565b82525050565b600061380382613e0b565b61380d8185613e63565b935061381d818560208601613ef2565b61382681613f25565b840191505092915050565b600061383c82613e0b565b6138468185613e74565b9350613856818560208601613ef2565b80840191505092915050565b600061386d82613e00565b6138778185613e52565b9350613887818560208601613ef2565b61389081613f25565b840191505092915050565b60006138a682613e00565b6138b08185613e63565b93506138c0818560208601613ef2565b6138c981613f25565b840191505092915050565b6000610100830160008301516138ed600086018261398b565b50602083015184820360208601526139058282613862565b9150506040830151848203604086015261391f8282613862565b915050606083015161393460608601826136cb565b50608083015161394760808601826137bc565b5060a083015161395a60a086018261398b565b5060c083015161396d60c08601826137da565b5060e083015161398060e086018261398b565b508091505092915050565b61399481613ed9565b82525050565b6139a381613ed9565b82525050565b60006139b58284613831565b915081905092915050565b600060208201905081810360008301526139da81846136e9565b905092915050565b600060208201905081810360008301526139fc818461375e565b905092915050565b60006020820190508181036000830152613a1e818461389b565b905092915050565b6000602082019050613a3b600083018461399a565b92915050565b600061010082019050613a57600083018b61399a565b8181036020830152613a69818a6137f8565b9050613a78604083018961399a565b8181036060830152613a8a81886137f8565b90508181036080830152613a9e81876137f8565b905081810360a0830152613ab281866137f8565b9050613ac160c083018561399a565b613ace60e08301846136bc565b9998505050505050505050565b600061014082019050613af1600083018d61399a565b8181036020830152613b03818c6137f8565b9050613b12604083018b61399a565b8181036060830152613b24818a6137f8565b90508181036080830152613b3881896137f8565b905081810360a0830152613b4c81886137f8565b9050613b5b60c083018761399a565b613b6860e08301866136bc565b613b766101008301856136da565b613b846101208301846137cb565b9b9a5050505050505050505050565b600061010082019050613ba9600083018b61399a565b8181036020830152613bbb818a61389b565b90508181036040830152613bcf818961389b565b9050613bde60608301886136da565b613beb60808301876137cb565b613bf860a083018661399a565b613c0560c08301856137e9565b613c1260e083018461399a565b9998505050505050505050565b600061010082019050613c35600083018b61399a565b8181036020830152613c47818a61389b565b9050613c56604083018961399a565b8181036060830152613c68818861389b565b90508181036080830152613c7c818761389b565b905081810360a0830152613c90818661389b565b9050613c9f60c083018561399a565b613cac60e08301846136bc565b9998505050505050505050565b600061014082019050613ccf600083018d61399a565b8181036020830152613ce1818c61389b565b9050613cf0604083018b61399a565b8181036060830152613d02818a61389b565b90508181036080830152613d16818961389b565b905081810360a0830152613d2a818861389b565b9050613d3960c083018761399a565b613d4660e08301866136bc565b613d546101008301856136da565b613d626101208301846137cb565b9b9a5050505050505050505050565b6000604051905081810181811067ffffffffffffffff82111715613d9457600080fd5b8060405250919050565b600067ffffffffffffffff821115613db557600080fd5b601f19601f8301169050602081019050919050565b6000819050602082019050919050565b6000819050602082019050919050565b600081519050919050565b600081519050919050565b600081519050919050565b600081519050919050565b6000602082019050919050565b6000602082019050919050565b600082825260208201905092915050565b600082825260208201905092915050565b600082825260208201905092915050565b600082825260208201905092915050565b600081905092915050565b6000613e8a82613eb9565b9050919050565b6000613e9c82613eb9565b9050919050565b60008115159050919050565b6000819050919050565b600073ffffffffffffffffffffffffffffffffffffffff82169050919050565b6000819050919050565b82818337600083830152505050565b60005b83811015613f10578082015181840152602081019050613ef5565b83811115613f1f576000848401525b50505050565b6000601f19601f8301169050919050565b613f3f81613e7f565b8114613f4a57600080fd5b50565b613f5681613ea3565b8114613f6157600080fd5b50565b613f6d81613ed9565b8114613f7857600080fd5b5056fea365627a7a72315820087bbffc82582336ca265dfe010f53c8d2632333f89799150355e237fe265a066c6578706572696d656e74616cf564736f6c63430005100040",
  "source": "// SPDX-License-Identifier: UNLICENSED\npragma solidity ^0.5.0;\npragma experimental ABIEncoderV2;\n\nimport \"./DCStorage.sol\";\nimport \"./safemath.sol\";\nimport \"./Organization.sol\";\nimport \"./Membership.sol\";\n\ncontract Direct is Membership{\n\n  string public name = \"Crypto Box Direct\";\n  uint public directFileCount = 0;\n\n  mapping(uint => DirectFile) public directfiles;\n\n  mapping(address => uint[]) public addressToFileIds;\n  \n  struct DirectFile{\n    uint fileId;\n    string fileHash;\n    uint fileSize;\n    string fileType;\n    string fileName;\n    string fileDescription;\n    uint uploadTime;\n    address payable uploader;\n    address reciever;\n    bool isOneTimeLink;\n  }\n\n  event DirectFileUploaded(\n    uint fileId,\n    string fileHash,\n    uint fileSize,\n    string fileType,\n    string fileName,\n    string fileDescription,\n    uint uploadTime,\n    address payable uploader,\n    address reciever,\n    bool isOneTimeLink\n  );\n\n  constructor() public {\n  }\n\n  function uploadDirectFile(string memory _fileHash, uint _fileSize, string memory _fileType, string memory _fileName, string memory _fileDescription, address _reciever, bool _isOneTimeLink) public {\n    require(bytes(_fileHash).length > 0);\n    require(bytes(_fileType).length > 0);\n    require(bytes(_fileName).length > 0);\n    require(bytes(_fileDescription).length > 0);\n    require(msg.sender != address(0));\n    require(_fileSize > 0);\n    require(_reciever == address(_reciever));\n    directfiles[directFileCount] = DirectFile(directFileCount, _fileHash, _fileSize, _fileType, _fileName, _fileDescription, now, msg.sender, _reciever, _isOneTimeLink);\n    addressToFileIds[_reciever].push(directFileCount);\n    directFileCount++;\n    emit DirectFileUploaded(directFileCount, _fileHash, _fileSize, _fileType, _fileName, _fileDescription, now, msg.sender, _reciever, _isOneTimeLink);\n  }\n\n  function currentUserFileIds() external view returns(uint [] memory) {\n    return addressToFileIds[msg.sender];\n  }\n\n  function fileDelete(uint id) public {\n    bool startDelete = false;\n    for(uint i = 0; i < addressToFileIds[msg.sender].length - 1; i++){\n        if(addressToFileIds[msg.sender][i] == id){\n            startDelete = true;\n        }\n        if(startDelete){\n            addressToFileIds[msg.sender][i] = addressToFileIds[msg.sender][i + 1];\n        }\n    }\n    delete addressToFileIds[msg.sender][addressToFileIds[msg.sender].length - 1];\n    addressToFileIds[msg.sender].length--;\n    delete directfiles[id];\n  }\n  \n}\n\n\n",
  "sourcePath": "/Users/csuftitan/Desktop/Meet Turakhia/Advanced Blockchain (CPSC 559)/Projects/Final Project(4 Dec 2022)/src/contracts/Direct.sol",
  "compiler": {
    "name": "solc",
    "version": "0.5.16+commit.9c3226ce.Emscripten.clang"
  },
  "schemaVersion": "3.4.9",
  "updatedAt": "2022-12-06T02:17:43.355Z",
  "networkType": "ethereum",
  "devdoc": {
    "methods": {}
  },
  "userdoc": {
    "methods": {}
  }
}