{
  "contractName": "Direct",
  "abi": [
    {
      "inputs": [],
      "payable": false,
      "stateMutability": "nonpayable",
      "type": "constructor"
    },
    {
      "anonymous": false,
      "inputs": [
        {
          "indexed": false,
          "internalType": "uint256",
          "name": "fileId",
          "type": "uint256"
        },
        {
          "indexed": false,
          "internalType": "string",
          "name": "fileHash",
          "type": "string"
        },
        {
          "indexed": false,
          "internalType": "uint256",
          "name": "fileSize",
          "type": "uint256"
        },
        {
          "indexed": false,
          "internalType": "string",
          "name": "fileType",
          "type": "string"
        },
        {
          "indexed": false,
          "internalType": "string",
          "name": "fileName",
          "type": "string"
        },
        {
          "indexed": false,
          "internalType": "string",
          "name": "fileDescription",
          "type": "string"
        },
        {
          "indexed": false,
          "internalType": "uint256",
          "name": "uploadTime",
          "type": "uint256"
        },
        {
          "indexed": false,
          "internalType": "address payable",
          "name": "uploader",
          "type": "address"
        },
        {
          "indexed": false,
          "internalType": "address",
          "name": "reciever",
          "type": "address"
        },
        {
          "indexed": false,
          "internalType": "bool",
          "name": "isOneTimeLink",
          "type": "bool"
        }
      ],
      "name": "DirectFileUploaded",
      "type": "event"
    },
    {
      "anonymous": false,
      "inputs": [
        {
          "indexed": false,
          "internalType": "uint256",
          "name": "fileId",
          "type": "uint256"
        },
        {
          "indexed": false,
          "internalType": "string",
          "name": "fileHash",
          "type": "string"
        },
        {
          "indexed": false,
          "internalType": "uint256",
          "name": "fileSize",
          "type": "uint256"
        },
        {
          "indexed": false,
          "internalType": "string",
          "name": "fileType",
          "type": "string"
        },
        {
          "indexed": false,
          "internalType": "string",
          "name": "fileName",
          "type": "string"
        },
        {
          "indexed": false,
          "internalType": "string",
          "name": "fileDescription",
          "type": "string"
        },
        {
          "indexed": false,
          "internalType": "uint256",
          "name": "uploadTime",
          "type": "uint256"
        },
        {
          "indexed": false,
          "internalType": "address payable",
          "name": "uploader",
          "type": "address"
        }
      ],
      "name": "FileUploaded",
      "type": "event"
    },
    {
      "constant": true,
      "inputs": [
        {
          "internalType": "address",
          "name": "",
          "type": "address"
        },
        {
          "internalType": "uint256",
          "name": "",
          "type": "uint256"
        }
      ],
      "name": "addressToFileIds",
      "outputs": [
        {
          "internalType": "uint256",
          "name": "",
          "type": "uint256"
        }
      ],
      "payable": false,
      "stateMutability": "view",
      "type": "function"
    },
    {
      "constant": false,
      "inputs": [
        {
          "internalType": "string",
          "name": "name",
          "type": "string"
        },
        {
          "internalType": "string",
          "name": "description",
          "type": "string"
        },
        {
          "internalType": "bool",
          "name": "privateBool",
          "type": "bool"
        },
        {
          "internalType": "uint256",
          "name": "memberLimit",
          "type": "uint256"
        },
        {
          "internalType": "string",
          "name": "passcode",
          "type": "string"
        }
      ],
      "name": "createOrganization",
      "outputs": [],
      "payable": false,
      "stateMutability": "nonpayable",
      "type": "function"
    },
    {
      "constant": false,
      "inputs": [
        {
          "internalType": "uint256",
          "name": "id",
          "type": "uint256"
        }
      ],
      "name": "deleteOrganization",
      "outputs": [],
      "payable": false,
      "stateMutability": "nonpayable",
      "type": "function"
    },
    {
      "constant": true,
      "inputs": [
        {
          "internalType": "uint256",
          "name": "",
          "type": "uint256"
        }
      ],
      "name": "directfiles",
      "outputs": [
        {
          "internalType": "uint256",
          "name": "fileId",
          "type": "uint256"
        },
        {
          "internalType": "string",
          "name": "fileHash",
          "type": "string"
        },
        {
          "internalType": "uint256",
          "name": "fileSize",
          "type": "uint256"
        },
        {
          "internalType": "string",
          "name": "fileType",
          "type": "string"
        },
        {
          "internalType": "string",
          "name": "fileName",
          "type": "string"
        },
        {
          "internalType": "string",
          "name": "fileDescription",
          "type": "string"
        },
        {
          "internalType": "uint256",
          "name": "uploadTime",
          "type": "uint256"
        },
        {
          "internalType": "address payable",
          "name": "uploader",
          "type": "address"
        },
        {
          "internalType": "address",
          "name": "reciever",
          "type": "address"
        },
        {
          "internalType": "bool",
          "name": "isOneTimeLink",
          "type": "bool"
        }
      ],
      "payable": false,
      "stateMutability": "view",
      "type": "function"
    },
    {
      "constant": false,
      "inputs": [
        {
          "internalType": "uint256",
          "name": "id",
          "type": "uint256"
        },
        {
          "internalType": "string",
          "name": "name",
          "type": "string"
        },
        {
          "internalType": "string",
          "name": "description",
          "type": "string"
        },
        {
          "internalType": "bool",
          "name": "privateBool",
          "type": "bool"
        },
        {
          "internalType": "uint256",
          "name": "memberLimit",
          "type": "uint256"
        },
        {
          "internalType": "string",
          "name": "passcode",
          "type": "string"
        }
      ],
      "name": "editOrganization",
      "outputs": [],
      "payable": false,
      "stateMutability": "nonpayable",
      "type": "function"
    },
    {
      "constant": false,
      "inputs": [
        {
          "internalType": "uint256",
          "name": "id",
          "type": "uint256"
        }
      ],
      "name": "exitOrganization",
      "outputs": [],
      "payable": false,
      "stateMutability": "nonpayable",
      "type": "function"
    },
    {
      "constant": true,
      "inputs": [],
      "name": "fileCount",
      "outputs": [
        {
          "internalType": "uint256",
          "name": "",
          "type": "uint256"
        }
      ],
      "payable": false,
      "stateMutability": "view",
      "type": "function"
    },
    {
      "constant": true,
      "inputs": [
        {
          "internalType": "uint256",
          "name": "",
          "type": "uint256"
        }
      ],
      "name": "files",
      "outputs": [
        {
          "internalType": "uint256",
          "name": "fileId",
          "type": "uint256"
        },
        {
          "internalType": "string",
          "name": "fileHash",
          "type": "string"
        },
        {
          "internalType": "uint256",
          "name": "fileSize",
          "type": "uint256"
        },
        {
          "internalType": "string",
          "name": "fileType",
          "type": "string"
        },
        {
          "internalType": "string",
          "name": "fileName",
          "type": "string"
        },
        {
          "internalType": "string",
          "name": "fileDescription",
          "type": "string"
        },
        {
          "internalType": "uint256",
          "name": "uploadTime",
          "type": "uint256"
        },
        {
          "internalType": "address payable",
          "name": "uploader",
          "type": "address"
        }
      ],
      "payable": false,
      "stateMutability": "view",
      "type": "function"
    },
    {
      "constant": true,
      "inputs": [],
      "name": "getMemberships",
      "outputs": [
        {
          "internalType": "uint256[]",
          "name": "",
          "type": "uint256[]"
        }
      ],
      "payable": false,
      "stateMutability": "view",
      "type": "function"
    },
    {
      "constant": true,
      "inputs": [],
      "name": "getOrganizations",
      "outputs": [
        {
          "components": [
            {
              "internalType": "uint256",
              "name": "Id",
              "type": "uint256"
            },
            {
              "internalType": "string",
              "name": "Name",
              "type": "string"
            },
            {
              "internalType": "string",
              "name": "Description",
              "type": "string"
            },
            {
              "internalType": "address",
              "name": "Owner",
              "type": "address"
            },
            {
              "internalType": "bool",
              "name": "Private",
              "type": "bool"
            },
            {
              "internalType": "uint256",
              "name": "MemberLimit",
              "type": "uint256"
            },
            {
              "internalType": "string",
              "name": "Passcode",
              "type": "string"
            },
            {
              "internalType": "uint256",
              "name": "createdAt",
              "type": "uint256"
            }
          ],
          "internalType": "struct BuildOrganization.Organization[]",
          "name": "",
          "type": "tuple[]"
        }
      ],
      "payable": false,
      "stateMutability": "view",
      "type": "function"
    },
    {
      "constant": false,
      "inputs": [
        {
          "internalType": "uint256",
          "name": "id",
          "type": "uint256"
        }
      ],
      "name": "joinOrganization",
      "outputs": [],
      "payable": false,
      "stateMutability": "nonpayable",
      "type": "function"
    },
    {
      "constant": true,
      "inputs": [],
      "name": "name",
      "outputs": [
        {
          "internalType": "string",
          "name": "",
          "type": "string"
        }
      ],
      "payable": false,
      "stateMutability": "view",
      "type": "function"
    },
    {
      "constant": true,
      "inputs": [
        {
          "internalType": "uint256",
          "name": "",
          "type": "uint256"
        }
      ],
      "name": "organizations",
      "outputs": [
        {
          "internalType": "uint256",
          "name": "Id",
          "type": "uint256"
        },
        {
          "internalType": "string",
          "name": "Name",
          "type": "string"
        },
        {
          "internalType": "string",
          "name": "Description",
          "type": "string"
        },
        {
          "internalType": "address",
          "name": "Owner",
          "type": "address"
        },
        {
          "internalType": "bool",
          "name": "Private",
          "type": "bool"
        },
        {
          "internalType": "uint256",
          "name": "MemberLimit",
          "type": "uint256"
        },
        {
          "internalType": "string",
          "name": "Passcode",
          "type": "string"
        },
        {
          "internalType": "uint256",
          "name": "createdAt",
          "type": "uint256"
        }
      ],
      "payable": false,
      "stateMutability": "view",
      "type": "function"
    },
    {
      "constant": false,
      "inputs": [
        {
          "internalType": "string",
          "name": "_fileHash",
          "type": "string"
        },
        {
          "internalType": "uint256",
          "name": "_fileSize",
          "type": "uint256"
        },
        {
          "internalType": "string",
          "name": "_fileType",
          "type": "string"
        },
        {
          "internalType": "string",
          "name": "_fileName",
          "type": "string"
        },
        {
          "internalType": "string",
          "name": "_fileDescription",
          "type": "string"
        },
        {
          "internalType": "address",
          "name": "_reciever",
          "type": "address"
        },
        {
          "internalType": "bool",
          "name": "_isOneTimeLink",
          "type": "bool"
        }
      ],
      "name": "uploadFile",
      "outputs": [],
      "payable": false,
      "stateMutability": "nonpayable",
      "type": "function"
    },
    {
      "constant": false,
      "inputs": [
        {
          "internalType": "string",
          "name": "_fileHash",
          "type": "string"
        },
        {
          "internalType": "uint256",
          "name": "_fileSize",
          "type": "uint256"
        },
        {
          "internalType": "string",
          "name": "_fileType",
          "type": "string"
        },
        {
          "internalType": "string",
          "name": "_fileName",
          "type": "string"
        },
        {
          "internalType": "string",
          "name": "_fileDescription",
          "type": "string"
        }
      ],
      "name": "uploadFile",
      "outputs": [],
      "payable": false,
      "stateMutability": "nonpayable",
      "type": "function"
    }
  ],
  "bytecode": "0x60806040526040518060400160405280600981526020017f444353746f7261676500000000000000000000000000000000000000000000008152506000908051906020019062000051929190620000c3565b50600060015560006003556040518060400160405280601181526020017f43727970746f20426f782044697265637400000000000000000000000000000081525060099080519060200190620000a9929190620000c3565b506000600a55348015620000bc57600080fd5b5062000172565b828054600181600116156101000203166002900490600052602060002090601f016020900481019282601f106200010657805160ff191683800117855562000137565b8280016001018555821562000137579182015b828111156200013657825182559160200191906001019062000119565b5b5090506200014691906200014a565b5090565b6200016f91905b808211156200016b57600081600090555060010162000151565b5090565b90565b61355280620001826000396000f3fe608060405234801561001057600080fd5b50600436106100f55760003560e01c806390a9eb2d11610097578063dc1301af11610066578063dc1301af14610267578063e792dd8a14610283578063e82d9d33146102ba578063f4c714b4146102d6576100f5565b806390a9eb2d146101d857806392515b28146101f4578063942b7c7f146102105780639754a3a814610249576100f5565b8063339d4ad7116100d3578063339d4ad7146101505780634395351914610180578063481c10931461019e5780637840c6a4146101ba576100f5565b806306fdde03146100fa5780630e20f01b1461011857806329ab4bf314610134575b600080fd5b61010261030d565b60405161010f9190612fa6565b60405180910390f35b610132600480360361012d9190810190612b97565b6103ab565b005b61014e60048036036101499190810190612bc0565b6105a6565b005b61016a600480360361016591908101906128c7565b610767565b6040516101779190612fc8565b60405180910390f35b610188610795565b6040516101959190612fc8565b60405180910390f35b6101b860048036036101b39190810190612903565b61079b565b005b6101c2610b3e565b6040516101cf9190612f84565b60405180910390f35b6101f260048036036101ed9190810190612a99565b610bd3565b005b61020e60048036036102099190810190612b97565b610f2b565b005b61022a60048036036102259190810190612b97565b611442565b6040516102409a99989796959493929190613262565b60405180910390f35b610251611743565b60405161025e9190612f62565b60405180910390f35b610281600480360361027c9190810190612b97565b611a18565b005b61029d60048036036102989190810190612b97565b611dad565b6040516102b1989796959493929190613135565b60405180910390f35b6102d460048036036102cf91908101906129c2565b611ff7565b005b6102f060048036036102eb9190810190612b97565b612219565b6040516103049897969594939291906131c8565b60405180910390f35b60098054600181600116156101000203166002900480601f0160208091040260200160405190810160405280929190818152602001828054600181600116156101000203166002900480156103a35780601f10610378576101008083540402835291602001916103a3565b820191906000526020600020905b81548152906001019060200180831161038657829003601f168201915b505050505081565b6000600482815481106103ba57fe5b9060005260206000209060070201600401549050806008600084815260200190815260200160002080549050106103f157506105a3565b6060600760003373ffffffffffffffffffffffffffffffffffffffff1673ffffffffffffffffffffffffffffffffffffffff16815260200190815260200160002080548060200260200160405190810160405280929190818152602001828054801561047c57602002820191906000526020600020905b815481526020019060010190808311610468575b5050505050905060005b81518110156104bf5781818151811061049b57fe5b60200260200101518414156104b2575050506105a3565b8080600101915050610486565b50600760003373ffffffffffffffffffffffffffffffffffffffff1673ffffffffffffffffffffffffffffffffffffffff168152602001908152602001600020839080600181540180825580915050906001820390600052602060002001600090919290919091505550600860008481526020019081526020016000203390806001815401808255809150509060018203906000526020600020016000909192909190916101000a81548173ffffffffffffffffffffffffffffffffffffffff021916908373ffffffffffffffffffffffffffffffffffffffff1602179055505050505b50565b60008551116105b457600080fd5b60008451116105c257600080fd5b600082116105cf57600080fd5b6000151583151514156105f357604051806020016040528060008152509050610602565b600081511161060157600080fd5b5b3373ffffffffffffffffffffffffffffffffffffffff166005600088815260200190815260200160002060009054906101000a900473ffffffffffffffffffffffffffffffffffffffff1673ffffffffffffffffffffffffffffffffffffffff161461066d57600080fd5b846004878154811061067b57fe5b9060005260206000209060070201600101908051906020019061069f929190612514565b5083600487815481106106ae57fe5b906000526020600020906007020160020190805190602001906106d2929190612514565b5082600487815481106106e157fe5b906000526020600020906007020160030160146101000a81548160ff021916908315150217905550816004878154811061071757fe5b906000526020600020906007020160040181905550806004878154811061073a57fe5b9060005260206000209060070201600501908051906020019061075e929190612514565b50505050505050565b600c602052816000526040600020818154811061078057fe5b90600052602060002001600091509150505481565b600a5481565b60008551116107a957600080fd5b60008451116107b757600080fd5b600082116107c457600080fd5b6000151583151514156107e8576040518060200160405280600081525090506107f7565b60008151116107f657600080fd5b5b6000600354905060046040518061010001604052808381526020018881526020018781526020013373ffffffffffffffffffffffffffffffffffffffff168152602001861515815260200185815260200184815260200142815250908060018154018082558091505090600182039060005260206000209060070201600090919290919091506000820151816000015560208201518160010190805190602001906108a3929190612594565b5060408201518160020190805190602001906108c0929190612594565b5060608201518160030160006101000a81548173ffffffffffffffffffffffffffffffffffffffff021916908373ffffffffffffffffffffffffffffffffffffffff16021790555060808201518160030160146101000a81548160ff02191690831515021790555060a0820151816004015560c082015181600501908051906020019061094e929190612594565b5060e08201518160060155505050336005600083815260200190815260200160002060006101000a81548173ffffffffffffffffffffffffffffffffffffffff021916908373ffffffffffffffffffffffffffffffffffffffff160217905550610a016001600660003373ffffffffffffffffffffffffffffffffffffffff1673ffffffffffffffffffffffffffffffffffffffff168152602001908152602001600020546124e190919063ffffffff16565b600660003373ffffffffffffffffffffffffffffffffffffffff1673ffffffffffffffffffffffffffffffffffffffff16815260200190815260200160002081905550600760003373ffffffffffffffffffffffffffffffffffffffff1673ffffffffffffffffffffffffffffffffffffffff168152602001908152602001600020819080600181540180825580915050906001820390600052602060002001600090919290919091505550600860008281526020019081526020016000203390806001815401808255809150509060018203906000526020600020016000909192909190916101000a81548173ffffffffffffffffffffffffffffffffffffffff021916908373ffffffffffffffffffffffffffffffffffffffff16021790555050600360008154809291906001019190505550505050505050565b6060600760003373ffffffffffffffffffffffffffffffffffffffff1673ffffffffffffffffffffffffffffffffffffffff168152602001908152602001600020805480602002602001604051908101604052809291908181526020018280548015610bc957602002820191906000526020600020905b815481526020019060010190808311610bb5575b5050505050905090565b6000875111610be157600080fd5b6000855111610bef57600080fd5b6000845111610bfd57600080fd5b6000835111610c0b57600080fd5b600073ffffffffffffffffffffffffffffffffffffffff163373ffffffffffffffffffffffffffffffffffffffff161415610c4557600080fd5b60008611610c5257600080fd5b8173ffffffffffffffffffffffffffffffffffffffff168273ffffffffffffffffffffffffffffffffffffffff1614610c8a57600080fd5b604051806101400160405280600a5481526020018881526020018781526020018681526020018581526020018481526020014281526020013373ffffffffffffffffffffffffffffffffffffffff1681526020018373ffffffffffffffffffffffffffffffffffffffff168152602001821515815250600b6000600a548152602001908152602001600020600082015181600001556020820151816001019080519060200190610d3b929190612594565b50604082015181600201556060820151816003019080519060200190610d62929190612594565b506080820151816004019080519060200190610d7f929190612594565b5060a0820151816005019080519060200190610d9c929190612594565b5060c0820151816006015560e08201518160070160006101000a81548173ffffffffffffffffffffffffffffffffffffffff021916908373ffffffffffffffffffffffffffffffffffffffff1602179055506101008201518160080160006101000a81548173ffffffffffffffffffffffffffffffffffffffff021916908373ffffffffffffffffffffffffffffffffffffffff1602179055506101208201518160080160146101000a81548160ff021916908315150217905550905050600c60008373ffffffffffffffffffffffffffffffffffffffff1673ffffffffffffffffffffffffffffffffffffffff168152602001908152602001600020600a549080600181540180825580915050906001820390600052602060002001600090919290919091505550600a600081548092919060010191905055507feeeed15c975fd3e736c550958913fd5541d9193b09fb3c3b98cadc46aed5533a600a54888888888842338a8a604051610f1a9a9998979695949392919061307d565b60405180910390a150505050505050565b600080600080905060008090506060600760003373ffffffffffffffffffffffffffffffffffffffff1673ffffffffffffffffffffffffffffffffffffffff168152602001908152602001600020805480602002602001604051908101604052809291908181526020018280548015610fc357602002820191906000526020600020905b815481526020019060010190808311610faf575b5050505050905060606008600088815260200190815260200160002080548060200260200160405190810160405280929190818152602001828054801561105f57602002820191906000526020600020905b8160009054906101000a900473ffffffffffffffffffffffffffffffffffffffff1673ffffffffffffffffffffffffffffffffffffffff1681526020019060010190808311611015575b5050505050905060005b82518110156110a25782818151811061107e57fe5b602002602001015188141561109557809650600194505b8080600101915050611069565b5060005b815181101561110b578181815181106110bb57fe5b602002602001015173ffffffffffffffffffffffffffffffffffffffff163373ffffffffffffffffffffffffffffffffffffffff1614156110fe57809550600193505b80806001019150506110a6565b508380156111165750825b156114395760008690505b60018351038110156111ea57600760003373ffffffffffffffffffffffffffffffffffffffff1673ffffffffffffffffffffffffffffffffffffffff168152602001908152602001600020600182018154811061117a57fe5b9060005260206000200154600760003373ffffffffffffffffffffffffffffffffffffffff1673ffffffffffffffffffffffffffffffffffffffff16815260200190815260200160002082815481106111cf57fe5b90600052602060002001819055508080600101915050611121565b50600760003373ffffffffffffffffffffffffffffffffffffffff1673ffffffffffffffffffffffffffffffffffffffff1681526020019081526020016000206001600760003373ffffffffffffffffffffffffffffffffffffffff1673ffffffffffffffffffffffffffffffffffffffff16815260200190815260200160002080549050038154811061127a57fe5b9060005260206000200160009055600760003373ffffffffffffffffffffffffffffffffffffffff1673ffffffffffffffffffffffffffffffffffffffff1681526020019081526020016000208054809190600190036112da9190612614565b5060008590505b60018251038110156113ac5760086000898152602001908152602001600020600182018154811061130e57fe5b9060005260206000200160009054906101000a900473ffffffffffffffffffffffffffffffffffffffff16600860008a8152602001908152602001600020828154811061135757fe5b9060005260206000200160006101000a81548173ffffffffffffffffffffffffffffffffffffffff021916908373ffffffffffffffffffffffffffffffffffffffff16021790555080806001019150506112e1565b50600860008881526020019081526020016000206001600860008a81526020019081526020016000208054905003815481106113e457fe5b9060005260206000200160006101000a81549073ffffffffffffffffffffffffffffffffffffffff0219169055600860008881526020019081526020016000208054809190600190036114379190612640565b505b50505050505050565b600b602052806000526040600020600091509050806000015490806001018054600181600116156101000203166002900480601f0160208091040260200160405190810160405280929190818152602001828054600181600116156101000203166002900480156114f45780601f106114c9576101008083540402835291602001916114f4565b820191906000526020600020905b8154815290600101906020018083116114d757829003601f168201915b505050505090806002015490806003018054600181600116156101000203166002900480601f0160208091040260200160405190810160405280929190818152602001828054600181600116156101000203166002900480156115985780601f1061156d57610100808354040283529160200191611598565b820191906000526020600020905b81548152906001019060200180831161157b57829003601f168201915b505050505090806004018054600181600116156101000203166002900480601f0160208091040260200160405190810160405280929190818152602001828054600181600116156101000203166002900480156116365780601f1061160b57610100808354040283529160200191611636565b820191906000526020600020905b81548152906001019060200180831161161957829003601f168201915b505050505090806005018054600181600116156101000203166002900480601f0160208091040260200160405190810160405280929190818152602001828054600181600116156101000203166002900480156116d45780601f106116a9576101008083540402835291602001916116d4565b820191906000526020600020905b8154815290600101906020018083116116b757829003601f168201915b5050505050908060060154908060070160009054906101000a900473ffffffffffffffffffffffffffffffffffffffff16908060080160009054906101000a900473ffffffffffffffffffffffffffffffffffffffff16908060080160149054906101000a900460ff1690508a565b60606004805480602002602001604051908101604052809291908181526020016000905b82821015611a0f57838290600052602060002090600702016040518061010001604052908160008201548152602001600182018054600181600116156101000203166002900480601f01602080910402602001604051908101604052809291908181526020018280546001816001161561010002031660029004801561182e5780601f106118035761010080835404028352916020019161182e565b820191906000526020600020905b81548152906001019060200180831161181157829003601f168201915b50505050508152602001600282018054600181600116156101000203166002900480601f0160208091040260200160405190810160405280929190818152602001828054600181600116156101000203166002900480156118d05780601f106118a5576101008083540402835291602001916118d0565b820191906000526020600020905b8154815290600101906020018083116118b357829003601f168201915b505050505081526020016003820160009054906101000a900473ffffffffffffffffffffffffffffffffffffffff1673ffffffffffffffffffffffffffffffffffffffff1673ffffffffffffffffffffffffffffffffffffffff1681526020016003820160149054906101000a900460ff1615151515815260200160048201548152602001600582018054600181600116156101000203166002900480601f0160208091040260200160405190810160405280929190818152602001828054600181600116156101000203166002900480156119ed5780601f106119c2576101008083540402835291602001916119ed565b820191906000526020600020905b8154815290600101906020018083116119d057829003601f168201915b5050505050815260200160068201548152505081526020019060010190611767565b50505050905090565b3373ffffffffffffffffffffffffffffffffffffffff166005600083815260200190815260200160002060009054906101000a900473ffffffffffffffffffffffffffffffffffffffff1673ffffffffffffffffffffffffffffffffffffffff1614611a8357600080fd5b6004805490508110611a9457611daa565b60008190505b600160048054905003811015611c1d5760046001820181548110611aba57fe5b906000526020600020906007020160048281548110611ad557fe5b90600052602060002090600702016000820154816000015560018201816001019080546001816001161561010002031660029004611b1492919061266c565b5060028201816002019080546001816001161561010002031660029004611b3c92919061266c565b506003820160009054906101000a900473ffffffffffffffffffffffffffffffffffffffff168160030160006101000a81548173ffffffffffffffffffffffffffffffffffffffff021916908373ffffffffffffffffffffffffffffffffffffffff1602179055506003820160149054906101000a900460ff168160030160146101000a81548160ff0219169083151502179055506004820154816004015560058201816005019080546001816001161561010002031660029004611c0292919061266c565b50600682015481600601559050508080600101915050611a9a565b50600460016004805490500381548110611c3357fe5b9060005260206000209060070201600080820160009055600182016000611c5a91906126f3565b600282016000611c6a91906126f3565b6003820160006101000a81549073ffffffffffffffffffffffffffffffffffffffff02191690556003820160146101000a81549060ff02191690556004820160009055600582016000611cbd91906126f3565b600682016000905550506004805480919060019003611cdc919061273b565b506005600082815260200190815260200160002060006101000a81549073ffffffffffffffffffffffffffffffffffffffff0219169055611d666001600660003373ffffffffffffffffffffffffffffffffffffffff1673ffffffffffffffffffffffffffffffffffffffff168152602001908152602001600020546124fd90919063ffffffff16565b600660003373ffffffffffffffffffffffffffffffffffffffff1673ffffffffffffffffffffffffffffffffffffffff168152602001908152602001600020819055505b50565b60048181548110611dba57fe5b9060005260206000209060070201600091509050806000015490806001018054600181600116156101000203166002900480601f016020809104026020016040519081016040528092919081815260200182805460018160011615610100020316600290048015611e6c5780601f10611e4157610100808354040283529160200191611e6c565b820191906000526020600020905b815481529060010190602001808311611e4f57829003601f168201915b505050505090806002018054600181600116156101000203166002900480601f016020809104026020016040519081016040528092919081815260200182805460018160011615610100020316600290048015611f0a5780601f10611edf57610100808354040283529160200191611f0a565b820191906000526020600020905b815481529060010190602001808311611eed57829003601f168201915b5050505050908060030160009054906101000a900473ffffffffffffffffffffffffffffffffffffffff16908060030160149054906101000a900460ff1690806004015490806005018054600181600116156101000203166002900480601f016020809104026020016040519081016040528092919081815260200182805460018160011615610100020316600290048015611fe75780601f10611fbc57610100808354040283529160200191611fe7565b820191906000526020600020905b815481529060010190602001808311611fca57829003601f168201915b5050505050908060060154905088565b600085511161200557600080fd5b600083511161201357600080fd5b600082511161202157600080fd5b600081511161202f57600080fd5b600073ffffffffffffffffffffffffffffffffffffffff163373ffffffffffffffffffffffffffffffffffffffff16141561206957600080fd5b6000841161207657600080fd5b60405180610100016040528060015481526020018681526020018581526020018481526020018381526020018281526020014281526020013373ffffffffffffffffffffffffffffffffffffffff16815250600260006001548152602001908152602001600020600082015181600001556020820151816001019080519060200190612103929190612594565b5060408201518160020155606082015181600301908051906020019061212a929190612594565b506080820151816004019080519060200190612147929190612594565b5060a0820151816005019080519060200190612164929190612594565b5060c0820151816006015560e08201518160070160006101000a81548173ffffffffffffffffffffffffffffffffffffffff021916908373ffffffffffffffffffffffffffffffffffffffff1602179055509050506001600081548092919060010191905055507f6e95bbaa37a5fdec42a312e049dea2fe6160ebe659214d3409b4f91f164c2f526001548686868686423360405161220a989796959493929190612fe3565b60405180910390a15050505050565b6002602052806000526040600020600091509050806000015490806001018054600181600116156101000203166002900480601f0160208091040260200160405190810160405280929190818152602001828054600181600116156101000203166002900480156122cb5780601f106122a0576101008083540402835291602001916122cb565b820191906000526020600020905b8154815290600101906020018083116122ae57829003601f168201915b505050505090806002015490806003018054600181600116156101000203166002900480601f01602080910402602001604051908101604052809291908181526020018280546001816001161561010002031660029004801561236f5780601f106123445761010080835404028352916020019161236f565b820191906000526020600020905b81548152906001019060200180831161235257829003601f168201915b505050505090806004018054600181600116156101000203166002900480601f01602080910402602001604051908101604052809291908181526020018280546001816001161561010002031660029004801561240d5780601f106123e25761010080835404028352916020019161240d565b820191906000526020600020905b8154815290600101906020018083116123f057829003601f168201915b505050505090806005018054600181600116156101000203166002900480601f0160208091040260200160405190810160405280929190818152602001828054600181600116156101000203166002900480156124ab5780601f10612480576101008083540402835291602001916124ab565b820191906000526020600020905b81548152906001019060200180831161248e57829003601f168201915b5050505050908060060154908060070160009054906101000a900473ffffffffffffffffffffffffffffffffffffffff16905088565b6000808284019050838110156124f357fe5b8091505092915050565b60008282111561250957fe5b818303905092915050565b828054600181600116156101000203166002900490600052602060002090601f016020900481019282601f1061255557805160ff1916838001178555612583565b82800160010185558215612583579182015b82811115612582578251825591602001919060010190612567565b5b509050612590919061276d565b5090565b828054600181600116156101000203166002900490600052602060002090601f016020900481019282601f106125d557805160ff1916838001178555612603565b82800160010185558215612603579182015b828111156126025782518255916020019190600101906125e7565b5b509050612610919061276d565b5090565b81548183558181111561263b5781836000526020600020918201910161263a919061276d565b5b505050565b81548183558181111561266757818360005260206000209182019101612666919061276d565b5b505050565b828054600181600116156101000203166002900490600052602060002090601f016020900481019282601f106126a557805485556126e2565b828001600101855582156126e257600052602060002091601f016020900482015b828111156126e15782548255916001019190600101906126c6565b5b5090506126ef919061276d565b5090565b50805460018160011615610100020316600290046000825580601f106127195750612738565b601f016020900490600052602060002090810190612737919061276d565b5b50565b815481835581811115612768576007028160070283600052602060002091820191016127679190612792565b5b505050565b61278f91905b8082111561278b576000816000905550600101612773565b5090565b90565b61283191905b8082111561282d576000808201600090556001820160006127b991906126f3565b6002820160006127c991906126f3565b6003820160006101000a81549073ffffffffffffffffffffffffffffffffffffffff02191690556003820160146101000a81549060ff0219169055600482016000905560058201600061281c91906126f3565b600682016000905550600701612798565b5090565b90565b600081359050612843816134ca565b92915050565b600081359050612858816134e1565b92915050565b600082601f83011261286f57600080fd5b813561288261287d82613347565b61331a565b9150808252602083016020830185838301111561289e57600080fd5b6128a9838284613477565b50505092915050565b6000813590506128c1816134f8565b92915050565b600080604083850312156128da57600080fd5b60006128e885828601612834565b92505060206128f9858286016128b2565b9150509250929050565b600080600080600060a0868803121561291b57600080fd5b600086013567ffffffffffffffff81111561293557600080fd5b6129418882890161285e565b955050602086013567ffffffffffffffff81111561295e57600080fd5b61296a8882890161285e565b945050604061297b88828901612849565b935050606061298c888289016128b2565b925050608086013567ffffffffffffffff8111156129a957600080fd5b6129b58882890161285e565b9150509295509295909350565b600080600080600060a086880312156129da57600080fd5b600086013567ffffffffffffffff8111156129f457600080fd5b612a008882890161285e565b9550506020612a11888289016128b2565b945050604086013567ffffffffffffffff811115612a2e57600080fd5b612a3a8882890161285e565b935050606086013567ffffffffffffffff811115612a5757600080fd5b612a638882890161285e565b925050608086013567ffffffffffffffff811115612a8057600080fd5b612a8c8882890161285e565b9150509295509295909350565b600080600080600080600060e0888a031215612ab457600080fd5b600088013567ffffffffffffffff811115612ace57600080fd5b612ada8a828b0161285e565b9750506020612aeb8a828b016128b2565b965050604088013567ffffffffffffffff811115612b0857600080fd5b612b148a828b0161285e565b955050606088013567ffffffffffffffff811115612b3157600080fd5b612b3d8a828b0161285e565b945050608088013567ffffffffffffffff811115612b5a57600080fd5b612b668a828b0161285e565b93505060a0612b778a828b01612834565b92505060c0612b888a828b01612849565b91505092959891949750929550565b600060208284031215612ba957600080fd5b6000612bb7848285016128b2565b91505092915050565b60008060008060008060c08789031215612bd957600080fd5b6000612be789828a016128b2565b965050602087013567ffffffffffffffff811115612c0457600080fd5b612c1089828a0161285e565b955050604087013567ffffffffffffffff811115612c2d57600080fd5b612c3989828a0161285e565b9450506060612c4a89828a01612849565b9350506080612c5b89828a016128b2565b92505060a087013567ffffffffffffffff811115612c7857600080fd5b612c8489828a0161285e565b9150509295509295509295565b6000612c9d8383612e86565b905092915050565b6000612cb18383612f44565b60208301905092915050565b612cc68161342f565b82525050565b612cd58161341d565b82525050565b612ce48161341d565b82525050565b6000612cf582613393565b612cff81856133d9565b935083602082028501612d1185613373565b8060005b85811015612d4d5784840389528151612d2e8582612c91565b9450612d39836133bf565b925060208a01995050600181019050612d15565b50829750879550505050505092915050565b6000612d6a8261339e565b612d7481856133ea565b9350612d7f83613383565b8060005b83811015612db0578151612d978882612ca5565b9750612da2836133cc565b925050600181019050612d83565b5085935050505092915050565b612dc681613441565b82525050565b612dd581613441565b82525050565b6000612de6826133b4565b612df0818561340c565b9350612e00818560208601613486565b612e09816134b9565b840191505092915050565b6000612e1f826133a9565b612e2981856133fb565b9350612e39818560208601613486565b612e42816134b9565b840191505092915050565b6000612e58826133a9565b612e62818561340c565b9350612e72818560208601613486565b612e7b816134b9565b840191505092915050565b600061010083016000830151612e9f6000860182612f44565b5060208301518482036020860152612eb78282612e14565b91505060408301518482036040860152612ed18282612e14565b9150506060830151612ee66060860182612ccc565b506080830151612ef96080860182612dbd565b5060a0830151612f0c60a0860182612f44565b5060c083015184820360c0860152612f248282612e14565b91505060e0830151612f3960e0860182612f44565b508091505092915050565b612f4d8161346d565b82525050565b612f5c8161346d565b82525050565b60006020820190508181036000830152612f7c8184612cea565b905092915050565b60006020820190508181036000830152612f9e8184612d5f565b905092915050565b60006020820190508181036000830152612fc08184612e4d565b905092915050565b6000602082019050612fdd6000830184612f53565b92915050565b600061010082019050612ff9600083018b612f53565b818103602083015261300b818a612ddb565b905061301a6040830189612f53565b818103606083015261302c8188612ddb565b905081810360808301526130408187612ddb565b905081810360a08301526130548186612ddb565b905061306360c0830185612f53565b61307060e0830184612cbd565b9998505050505050505050565b600061014082019050613093600083018d612f53565b81810360208301526130a5818c612ddb565b90506130b4604083018b612f53565b81810360608301526130c6818a612ddb565b905081810360808301526130da8189612ddb565b905081810360a08301526130ee8188612ddb565b90506130fd60c0830187612f53565b61310a60e0830186612cbd565b613118610100830185612cdb565b613126610120830184612dcc565b9b9a5050505050505050505050565b60006101008201905061314b600083018b612f53565b818103602083015261315d818a612e4d565b905081810360408301526131718189612e4d565b90506131806060830188612cdb565b61318d6080830187612dcc565b61319a60a0830186612f53565b81810360c08301526131ac8185612e4d565b90506131bb60e0830184612f53565b9998505050505050505050565b6000610100820190506131de600083018b612f53565b81810360208301526131f0818a612e4d565b90506131ff6040830189612f53565b81810360608301526132118188612e4d565b905081810360808301526132258187612e4d565b905081810360a08301526132398186612e4d565b905061324860c0830185612f53565b61325560e0830184612cbd565b9998505050505050505050565b600061014082019050613278600083018d612f53565b818103602083015261328a818c612e4d565b9050613299604083018b612f53565b81810360608301526132ab818a612e4d565b905081810360808301526132bf8189612e4d565b905081810360a08301526132d38188612e4d565b90506132e260c0830187612f53565b6132ef60e0830186612cbd565b6132fd610100830185612cdb565b61330b610120830184612dcc565b9b9a5050505050505050505050565b6000604051905081810181811067ffffffffffffffff8211171561333d57600080fd5b8060405250919050565b600067ffffffffffffffff82111561335e57600080fd5b601f19601f8301169050602081019050919050565b6000819050602082019050919050565b6000819050602082019050919050565b600081519050919050565b600081519050919050565b600081519050919050565b600081519050919050565b6000602082019050919050565b6000602082019050919050565b600082825260208201905092915050565b600082825260208201905092915050565b600082825260208201905092915050565b600082825260208201905092915050565b60006134288261344d565b9050919050565b600061343a8261344d565b9050919050565b60008115159050919050565b600073ffffffffffffffffffffffffffffffffffffffff82169050919050565b6000819050919050565b82818337600083830152505050565b60005b838110156134a4578082015181840152602081019050613489565b838111156134b3576000848401525b50505050565b6000601f19601f8301169050919050565b6134d38161341d565b81146134de57600080fd5b50565b6134ea81613441565b81146134f557600080fd5b50565b6135018161346d565b811461350c57600080fd5b5056fea365627a7a7231582019f6cb4be39e55caa9d820904a8d560ea3c05d5e6dfe542bbba4c5d4686eb9946c6578706572696d656e74616cf564736f6c63430005100040",
  "source": "// SPDX-License-Identifier: UNLICENSED\npragma solidity ^0.5.0;\npragma experimental ABIEncoderV2;\n\nimport \"./DCStorage.sol\";\nimport \"./safemath.sol\";\nimport \"./Organization.sol\";\nimport \"./Membership.sol\";\n\ncontract Direct is Membership{\n\n  string public name = \"Crypto Box Direct\";\n  uint public fileCount = 0;\n\n  mapping(uint => DirectFile) public directfiles;\n\n  mapping(address => uint[]) public addressToFileIds;\n  \n  struct DirectFile{\n    uint fileId;\n    string fileHash;\n    uint fileSize;\n    string fileType;\n    string fileName;\n    string fileDescription;\n    uint uploadTime;\n    address payable uploader;\n    address reciever;\n    bool isOneTimeLink;\n  }\n\n  event DirectFileUploaded(\n    uint fileId,\n    string fileHash,\n    uint fileSize,\n    string fileType,\n    string fileName,\n    string fileDescription,\n    uint uploadTime,\n    address payable uploader,\n    address reciever,\n    bool isOneTimeLink\n  );\n\n  constructor() public {\n  }\n\n  function uploadFile(string memory _fileHash, uint _fileSize, string memory _fileType, string memory _fileName, string memory _fileDescription, address _reciever, bool _isOneTimeLink) public {\n    require(bytes(_fileHash).length > 0);\n    require(bytes(_fileType).length > 0);\n    require(bytes(_fileName).length > 0);\n    require(bytes(_fileDescription).length > 0);\n    require(msg.sender != address(0));\n    require(_fileSize > 0);\n    require(_reciever == address(_reciever));\n    directfiles[fileCount] = DirectFile(fileCount, _fileHash, _fileSize, _fileType, _fileName, _fileDescription, now, msg.sender, _reciever, _isOneTimeLink);\n    addressToFileIds[_reciever].push(fileCount);\n    fileCount++;\n    emit DirectFileUploaded(fileCount, _fileHash, _fileSize, _fileType, _fileName, _fileDescription, now, msg.sender, _reciever, _isOneTimeLink);\n  }\n  \n}\n\n\n",
  "sourcePath": "/Users/csuftitan/Desktop/Meet Turakhia/Advanced Blockchain (CPSC 559)/Projects/Final Project(4 Dec 2022)/src/contracts/Direct.sol",
  "compiler": {
    "name": "solc",
    "version": "0.5.16+commit.9c3226ce.Emscripten.clang"
  },
  "schemaVersion": "3.4.9",
  "updatedAt": "2022-12-04T19:29:04.606Z",
  "devdoc": {
    "methods": {}
  },
  "userdoc": {
    "methods": {}
  }
}