{
  "contractName": "Direct",
  "abi": [
    {
      "inputs": [],
      "payable": false,
      "stateMutability": "nonpayable",
      "type": "constructor"
    },
    {
      "anonymous": false,
      "inputs": [
        {
          "indexed": false,
          "internalType": "uint256",
          "name": "fileId",
          "type": "uint256"
        },
        {
          "indexed": false,
          "internalType": "string",
          "name": "fileHash",
          "type": "string"
        },
        {
          "indexed": false,
          "internalType": "uint256",
          "name": "fileSize",
          "type": "uint256"
        },
        {
          "indexed": false,
          "internalType": "string",
          "name": "fileType",
          "type": "string"
        },
        {
          "indexed": false,
          "internalType": "string",
          "name": "fileName",
          "type": "string"
        },
        {
          "indexed": false,
          "internalType": "string",
          "name": "fileDescription",
          "type": "string"
        },
        {
          "indexed": false,
          "internalType": "uint256",
          "name": "uploadTime",
          "type": "uint256"
        },
        {
          "indexed": false,
          "internalType": "address payable",
          "name": "uploader",
          "type": "address"
        },
        {
          "indexed": false,
          "internalType": "address",
          "name": "reciever",
          "type": "address"
        },
        {
          "indexed": false,
          "internalType": "bool",
          "name": "isOneTimeLink",
          "type": "bool"
        }
      ],
      "name": "DirectFileUploaded",
      "type": "event"
    },
    {
      "anonymous": false,
      "inputs": [
        {
          "indexed": false,
          "internalType": "uint256",
          "name": "fileId",
          "type": "uint256"
        },
        {
          "indexed": false,
          "internalType": "string",
          "name": "fileHash",
          "type": "string"
        },
        {
          "indexed": false,
          "internalType": "uint256",
          "name": "fileSize",
          "type": "uint256"
        },
        {
          "indexed": false,
          "internalType": "string",
          "name": "fileType",
          "type": "string"
        },
        {
          "indexed": false,
          "internalType": "string",
          "name": "fileName",
          "type": "string"
        },
        {
          "indexed": false,
          "internalType": "string",
          "name": "fileDescription",
          "type": "string"
        },
        {
          "indexed": false,
          "internalType": "uint256",
          "name": "uploadTime",
          "type": "uint256"
        },
        {
          "indexed": false,
          "internalType": "address payable",
          "name": "uploader",
          "type": "address"
        }
      ],
      "name": "FileUploaded",
      "type": "event"
    },
    {
      "constant": true,
      "inputs": [
        {
          "internalType": "address",
          "name": "",
          "type": "address"
        },
        {
          "internalType": "uint256",
          "name": "",
          "type": "uint256"
        }
      ],
      "name": "addressToFileIds",
      "outputs": [
        {
          "internalType": "uint256",
          "name": "",
          "type": "uint256"
        }
      ],
      "payable": false,
      "stateMutability": "view",
      "type": "function"
    },
    {
      "constant": false,
      "inputs": [
        {
          "internalType": "string",
          "name": "name",
          "type": "string"
        },
        {
          "internalType": "string",
          "name": "description",
          "type": "string"
        },
        {
          "internalType": "bool",
          "name": "privateBool",
          "type": "bool"
        },
        {
          "internalType": "uint256",
          "name": "memberLimit",
          "type": "uint256"
        },
        {
          "internalType": "string",
          "name": "passcode",
          "type": "string"
        }
      ],
      "name": "createOrganization",
      "outputs": [],
      "payable": false,
      "stateMutability": "nonpayable",
      "type": "function"
    },
    {
      "constant": false,
      "inputs": [
        {
          "internalType": "uint256",
          "name": "id",
          "type": "uint256"
        }
      ],
      "name": "deleteOrganization",
      "outputs": [],
      "payable": false,
      "stateMutability": "nonpayable",
      "type": "function"
    },
    {
      "constant": true,
      "inputs": [
        {
          "internalType": "uint256",
          "name": "",
          "type": "uint256"
        }
      ],
      "name": "directfiles",
      "outputs": [
        {
          "internalType": "uint256",
          "name": "fileId",
          "type": "uint256"
        },
        {
          "internalType": "string",
          "name": "fileHash",
          "type": "string"
        },
        {
          "internalType": "uint256",
          "name": "fileSize",
          "type": "uint256"
        },
        {
          "internalType": "string",
          "name": "fileType",
          "type": "string"
        },
        {
          "internalType": "string",
          "name": "fileName",
          "type": "string"
        },
        {
          "internalType": "string",
          "name": "fileDescription",
          "type": "string"
        },
        {
          "internalType": "uint256",
          "name": "uploadTime",
          "type": "uint256"
        },
        {
          "internalType": "address payable",
          "name": "uploader",
          "type": "address"
        },
        {
          "internalType": "address",
          "name": "reciever",
          "type": "address"
        },
        {
          "internalType": "bool",
          "name": "isOneTimeLink",
          "type": "bool"
        }
      ],
      "payable": false,
      "stateMutability": "view",
      "type": "function"
    },
    {
      "constant": false,
      "inputs": [
        {
          "internalType": "uint256",
          "name": "id",
          "type": "uint256"
        },
        {
          "internalType": "string",
          "name": "name",
          "type": "string"
        },
        {
          "internalType": "string",
          "name": "description",
          "type": "string"
        },
        {
          "internalType": "bool",
          "name": "privateBool",
          "type": "bool"
        },
        {
          "internalType": "uint256",
          "name": "memberLimit",
          "type": "uint256"
        },
        {
          "internalType": "string",
          "name": "passcode",
          "type": "string"
        }
      ],
      "name": "editOrganization",
      "outputs": [],
      "payable": false,
      "stateMutability": "nonpayable",
      "type": "function"
    },
    {
      "constant": false,
      "inputs": [
        {
          "internalType": "uint256",
          "name": "id",
          "type": "uint256"
        }
      ],
      "name": "exitOrganization",
      "outputs": [],
      "payable": false,
      "stateMutability": "nonpayable",
      "type": "function"
    },
    {
      "constant": true,
      "inputs": [],
      "name": "fileCount",
      "outputs": [
        {
          "internalType": "uint256",
          "name": "",
          "type": "uint256"
        }
      ],
      "payable": false,
      "stateMutability": "view",
      "type": "function"
    },
    {
      "constant": true,
      "inputs": [
        {
          "internalType": "uint256",
          "name": "",
          "type": "uint256"
        }
      ],
      "name": "files",
      "outputs": [
        {
          "internalType": "uint256",
          "name": "fileId",
          "type": "uint256"
        },
        {
          "internalType": "string",
          "name": "fileHash",
          "type": "string"
        },
        {
          "internalType": "uint256",
          "name": "fileSize",
          "type": "uint256"
        },
        {
          "internalType": "string",
          "name": "fileType",
          "type": "string"
        },
        {
          "internalType": "string",
          "name": "fileName",
          "type": "string"
        },
        {
          "internalType": "string",
          "name": "fileDescription",
          "type": "string"
        },
        {
          "internalType": "uint256",
          "name": "uploadTime",
          "type": "uint256"
        },
        {
          "internalType": "address payable",
          "name": "uploader",
          "type": "address"
        }
      ],
      "payable": false,
      "stateMutability": "view",
      "type": "function"
    },
    {
      "constant": true,
      "inputs": [],
      "name": "getMemberships",
      "outputs": [
        {
          "internalType": "uint256[]",
          "name": "",
          "type": "uint256[]"
        }
      ],
      "payable": false,
      "stateMutability": "view",
      "type": "function"
    },
    {
      "constant": true,
      "inputs": [],
      "name": "getOrganizations",
      "outputs": [
        {
          "components": [
            {
              "internalType": "uint256",
              "name": "Id",
              "type": "uint256"
            },
            {
              "internalType": "string",
              "name": "Name",
              "type": "string"
            },
            {
              "internalType": "string",
              "name": "Description",
              "type": "string"
            },
            {
              "internalType": "address",
              "name": "Owner",
              "type": "address"
            },
            {
              "internalType": "bool",
              "name": "Private",
              "type": "bool"
            },
            {
              "internalType": "uint256",
              "name": "MemberLimit",
              "type": "uint256"
            },
            {
              "internalType": "string",
              "name": "Passcode",
              "type": "string"
            },
            {
              "internalType": "uint256",
              "name": "createdAt",
              "type": "uint256"
            }
          ],
          "internalType": "struct BuildOrganization.Organization[]",
          "name": "",
          "type": "tuple[]"
        }
      ],
      "payable": false,
      "stateMutability": "view",
      "type": "function"
    },
    {
      "constant": false,
      "inputs": [
        {
          "internalType": "uint256",
          "name": "id",
          "type": "uint256"
        }
      ],
      "name": "joinOrganization",
      "outputs": [],
      "payable": false,
      "stateMutability": "nonpayable",
      "type": "function"
    },
    {
      "constant": true,
      "inputs": [],
      "name": "name",
      "outputs": [
        {
          "internalType": "string",
          "name": "",
          "type": "string"
        }
      ],
      "payable": false,
      "stateMutability": "view",
      "type": "function"
    },
    {
      "constant": true,
      "inputs": [
        {
          "internalType": "uint256",
          "name": "",
          "type": "uint256"
        }
      ],
      "name": "organizations",
      "outputs": [
        {
          "internalType": "uint256",
          "name": "Id",
          "type": "uint256"
        },
        {
          "internalType": "string",
          "name": "Name",
          "type": "string"
        },
        {
          "internalType": "string",
          "name": "Description",
          "type": "string"
        },
        {
          "internalType": "address",
          "name": "Owner",
          "type": "address"
        },
        {
          "internalType": "bool",
          "name": "Private",
          "type": "bool"
        },
        {
          "internalType": "uint256",
          "name": "MemberLimit",
          "type": "uint256"
        },
        {
          "internalType": "string",
          "name": "Passcode",
          "type": "string"
        },
        {
          "internalType": "uint256",
          "name": "createdAt",
          "type": "uint256"
        }
      ],
      "payable": false,
      "stateMutability": "view",
      "type": "function"
    },
    {
      "constant": false,
      "inputs": [
        {
          "internalType": "string",
          "name": "_fileHash",
          "type": "string"
        },
        {
          "internalType": "uint256",
          "name": "_fileSize",
          "type": "uint256"
        },
        {
          "internalType": "string",
          "name": "_fileType",
          "type": "string"
        },
        {
          "internalType": "string",
          "name": "_fileName",
          "type": "string"
        },
        {
          "internalType": "string",
          "name": "_fileDescription",
          "type": "string"
        },
        {
          "internalType": "address",
          "name": "_reciever",
          "type": "address"
        },
        {
          "internalType": "bool",
          "name": "_isOneTimeLink",
          "type": "bool"
        }
      ],
      "name": "uploadFile",
      "outputs": [],
      "payable": false,
      "stateMutability": "nonpayable",
      "type": "function"
    },
    {
      "constant": false,
      "inputs": [
        {
          "internalType": "string",
          "name": "_fileHash",
          "type": "string"
        },
        {
          "internalType": "uint256",
          "name": "_fileSize",
          "type": "uint256"
        },
        {
          "internalType": "string",
          "name": "_fileType",
          "type": "string"
        },
        {
          "internalType": "string",
          "name": "_fileName",
          "type": "string"
        },
        {
          "internalType": "string",
          "name": "_fileDescription",
          "type": "string"
        }
      ],
      "name": "uploadFile",
      "outputs": [],
      "payable": false,
      "stateMutability": "nonpayable",
      "type": "function"
    },
    {
      "constant": true,
      "inputs": [],
      "name": "currentUserFileIds",
      "outputs": [
        {
          "internalType": "uint256[]",
          "name": "",
          "type": "uint256[]"
        }
      ],
      "payable": false,
      "stateMutability": "view",
      "type": "function"
    },
    {
      "constant": false,
      "inputs": [
        {
          "internalType": "uint256",
          "name": "id",
          "type": "uint256"
        }
      ],
      "name": "fileDelete",
      "outputs": [],
      "payable": false,
      "stateMutability": "nonpayable",
      "type": "function"
    }
  ],
  "bytecode": "0x60806040526040518060400160405280600981526020017f444353746f7261676500000000000000000000000000000000000000000000008152506000908051906020019062000051929190620000c3565b50600060015560006003556040518060400160405280601181526020017f43727970746f20426f782044697265637400000000000000000000000000000081525060099080519060200190620000a9929190620000c3565b506000600a55348015620000bc57600080fd5b5062000172565b828054600181600116156101000203166002900490600052602060002090601f016020900481019282601f106200010657805160ff191683800117855562000137565b8280016001018555821562000137579182015b828111156200013657825182559160200191906001019062000119565b5b5090506200014691906200014a565b5090565b6200016f91905b808211156200016b57600081600090555060010162000151565b5090565b90565b6138a980620001826000396000f3fe608060405234801561001057600080fd5b506004361061010b5760003560e01c806392515b28116100a2578063b8f871a111610071578063b8f871a11461029b578063dc1301af146102b7578063e792dd8a146102d3578063e82d9d331461030a578063f4c714b4146103265761010b565b806392515b281461020a578063942b7c7f146102265780639754a3a81461025f578063a89b01a81461027d5761010b565b806343953519116100de5780634395351914610196578063481c1093146101b45780637840c6a4146101d057806390a9eb2d146101ee5761010b565b806306fdde03146101105780630e20f01b1461012e57806329ab4bf31461014a578063339d4ad714610166575b600080fd5b61011861035d565b60405161012591906132fd565b60405180910390f35b61014860048036036101439190810190612eee565b6103fb565b005b610164600480360361015f9190810190612f17565b6105f6565b005b610180600480360361017b9190810190612c1e565b6107b7565b60405161018d919061331f565b60405180910390f35b61019e6107e5565b6040516101ab919061331f565b60405180910390f35b6101ce60048036036101c99190810190612c5a565b6107eb565b005b6101d8610b8e565b6040516101e591906132db565b60405180910390f35b61020860048036036102039190810190612df0565b610c23565b005b610224600480360361021f9190810190612eee565b610f7b565b005b610240600480360361023b9190810190612eee565b611492565b6040516102569a999897969594939291906135b9565b60405180910390f35b610267611793565b60405161027491906132b9565b60405180910390f35b610285611a68565b60405161029291906132db565b60405180910390f35b6102b560048036036102b09190810190612eee565b611afd565b005b6102d160048036036102cc9190810190612eee565b611d6f565b005b6102ed60048036036102e89190810190612eee565b612104565b60405161030198979695949392919061348c565b60405180910390f35b610324600480360361031f9190810190612d19565b61234e565b005b610340600480360361033b9190810190612eee565b612570565b60405161035498979695949392919061351f565b60405180910390f35b60098054600181600116156101000203166002900480601f0160208091040260200160405190810160405280929190818152602001828054600181600116156101000203166002900480156103f35780601f106103c8576101008083540402835291602001916103f3565b820191906000526020600020905b8154815290600101906020018083116103d657829003601f168201915b505050505081565b60006004828154811061040a57fe5b90600052602060002090600702016004015490508060086000848152602001908152602001600020805490501061044157506105f3565b6060600760003373ffffffffffffffffffffffffffffffffffffffff1673ffffffffffffffffffffffffffffffffffffffff1681526020019081526020016000208054806020026020016040519081016040528092919081815260200182805480156104cc57602002820191906000526020600020905b8154815260200190600101908083116104b8575b5050505050905060005b815181101561050f578181815181106104eb57fe5b6020026020010151841415610502575050506105f3565b80806001019150506104d6565b50600760003373ffffffffffffffffffffffffffffffffffffffff1673ffffffffffffffffffffffffffffffffffffffff168152602001908152602001600020839080600181540180825580915050906001820390600052602060002001600090919290919091505550600860008481526020019081526020016000203390806001815401808255809150509060018203906000526020600020016000909192909190916101000a81548173ffffffffffffffffffffffffffffffffffffffff021916908373ffffffffffffffffffffffffffffffffffffffff1602179055505050505b50565b600085511161060457600080fd5b600084511161061257600080fd5b6000821161061f57600080fd5b60001515831515141561064357604051806020016040528060008152509050610652565b600081511161065157600080fd5b5b3373ffffffffffffffffffffffffffffffffffffffff166005600088815260200190815260200160002060009054906101000a900473ffffffffffffffffffffffffffffffffffffffff1673ffffffffffffffffffffffffffffffffffffffff16146106bd57600080fd5b84600487815481106106cb57fe5b906000526020600020906007020160010190805190602001906106ef92919061286b565b5083600487815481106106fe57fe5b9060005260206000209060070201600201908051906020019061072292919061286b565b50826004878154811061073157fe5b906000526020600020906007020160030160146101000a81548160ff021916908315150217905550816004878154811061076757fe5b906000526020600020906007020160040181905550806004878154811061078a57fe5b906000526020600020906007020160050190805190602001906107ae92919061286b565b50505050505050565b600c60205281600052604060002081815481106107d057fe5b90600052602060002001600091509150505481565b600a5481565b60008551116107f957600080fd5b600084511161080757600080fd5b6000821161081457600080fd5b60001515831515141561083857604051806020016040528060008152509050610847565b600081511161084657600080fd5b5b6000600354905060046040518061010001604052808381526020018881526020018781526020013373ffffffffffffffffffffffffffffffffffffffff168152602001861515815260200185815260200184815260200142815250908060018154018082558091505090600182039060005260206000209060070201600090919290919091506000820151816000015560208201518160010190805190602001906108f39291906128eb565b5060408201518160020190805190602001906109109291906128eb565b5060608201518160030160006101000a81548173ffffffffffffffffffffffffffffffffffffffff021916908373ffffffffffffffffffffffffffffffffffffffff16021790555060808201518160030160146101000a81548160ff02191690831515021790555060a0820151816004015560c082015181600501908051906020019061099e9291906128eb565b5060e08201518160060155505050336005600083815260200190815260200160002060006101000a81548173ffffffffffffffffffffffffffffffffffffffff021916908373ffffffffffffffffffffffffffffffffffffffff160217905550610a516001600660003373ffffffffffffffffffffffffffffffffffffffff1673ffffffffffffffffffffffffffffffffffffffff1681526020019081526020016000205461283890919063ffffffff16565b600660003373ffffffffffffffffffffffffffffffffffffffff1673ffffffffffffffffffffffffffffffffffffffff16815260200190815260200160002081905550600760003373ffffffffffffffffffffffffffffffffffffffff1673ffffffffffffffffffffffffffffffffffffffff168152602001908152602001600020819080600181540180825580915050906001820390600052602060002001600090919290919091505550600860008281526020019081526020016000203390806001815401808255809150509060018203906000526020600020016000909192909190916101000a81548173ffffffffffffffffffffffffffffffffffffffff021916908373ffffffffffffffffffffffffffffffffffffffff16021790555050600360008154809291906001019190505550505050505050565b6060600760003373ffffffffffffffffffffffffffffffffffffffff1673ffffffffffffffffffffffffffffffffffffffff168152602001908152602001600020805480602002602001604051908101604052809291908181526020018280548015610c1957602002820191906000526020600020905b815481526020019060010190808311610c05575b5050505050905090565b6000875111610c3157600080fd5b6000855111610c3f57600080fd5b6000845111610c4d57600080fd5b6000835111610c5b57600080fd5b600073ffffffffffffffffffffffffffffffffffffffff163373ffffffffffffffffffffffffffffffffffffffff161415610c9557600080fd5b60008611610ca257600080fd5b8173ffffffffffffffffffffffffffffffffffffffff168273ffffffffffffffffffffffffffffffffffffffff1614610cda57600080fd5b604051806101400160405280600a5481526020018881526020018781526020018681526020018581526020018481526020014281526020013373ffffffffffffffffffffffffffffffffffffffff1681526020018373ffffffffffffffffffffffffffffffffffffffff168152602001821515815250600b6000600a548152602001908152602001600020600082015181600001556020820151816001019080519060200190610d8b9291906128eb565b50604082015181600201556060820151816003019080519060200190610db29291906128eb565b506080820151816004019080519060200190610dcf9291906128eb565b5060a0820151816005019080519060200190610dec9291906128eb565b5060c0820151816006015560e08201518160070160006101000a81548173ffffffffffffffffffffffffffffffffffffffff021916908373ffffffffffffffffffffffffffffffffffffffff1602179055506101008201518160080160006101000a81548173ffffffffffffffffffffffffffffffffffffffff021916908373ffffffffffffffffffffffffffffffffffffffff1602179055506101208201518160080160146101000a81548160ff021916908315150217905550905050600c60008373ffffffffffffffffffffffffffffffffffffffff1673ffffffffffffffffffffffffffffffffffffffff168152602001908152602001600020600a549080600181540180825580915050906001820390600052602060002001600090919290919091505550600a600081548092919060010191905055507feeeed15c975fd3e736c550958913fd5541d9193b09fb3c3b98cadc46aed5533a600a54888888888842338a8a604051610f6a9a999897969594939291906133d4565b60405180910390a150505050505050565b600080600080905060008090506060600760003373ffffffffffffffffffffffffffffffffffffffff1673ffffffffffffffffffffffffffffffffffffffff16815260200190815260200160002080548060200260200160405190810160405280929190818152602001828054801561101357602002820191906000526020600020905b815481526020019060010190808311610fff575b505050505090506060600860008881526020019081526020016000208054806020026020016040519081016040528092919081815260200182805480156110af57602002820191906000526020600020905b8160009054906101000a900473ffffffffffffffffffffffffffffffffffffffff1673ffffffffffffffffffffffffffffffffffffffff1681526020019060010190808311611065575b5050505050905060005b82518110156110f2578281815181106110ce57fe5b60200260200101518814156110e557809650600194505b80806001019150506110b9565b5060005b815181101561115b5781818151811061110b57fe5b602002602001015173ffffffffffffffffffffffffffffffffffffffff163373ffffffffffffffffffffffffffffffffffffffff16141561114e57809550600193505b80806001019150506110f6565b508380156111665750825b156114895760008690505b600183510381101561123a57600760003373ffffffffffffffffffffffffffffffffffffffff1673ffffffffffffffffffffffffffffffffffffffff16815260200190815260200160002060018201815481106111ca57fe5b9060005260206000200154600760003373ffffffffffffffffffffffffffffffffffffffff1673ffffffffffffffffffffffffffffffffffffffff168152602001908152602001600020828154811061121f57fe5b90600052602060002001819055508080600101915050611171565b50600760003373ffffffffffffffffffffffffffffffffffffffff1673ffffffffffffffffffffffffffffffffffffffff1681526020019081526020016000206001600760003373ffffffffffffffffffffffffffffffffffffffff1673ffffffffffffffffffffffffffffffffffffffff1681526020019081526020016000208054905003815481106112ca57fe5b9060005260206000200160009055600760003373ffffffffffffffffffffffffffffffffffffffff1673ffffffffffffffffffffffffffffffffffffffff16815260200190815260200160002080548091906001900361132a919061296b565b5060008590505b60018251038110156113fc5760086000898152602001908152602001600020600182018154811061135e57fe5b9060005260206000200160009054906101000a900473ffffffffffffffffffffffffffffffffffffffff16600860008a815260200190815260200160002082815481106113a757fe5b9060005260206000200160006101000a81548173ffffffffffffffffffffffffffffffffffffffff021916908373ffffffffffffffffffffffffffffffffffffffff1602179055508080600101915050611331565b50600860008881526020019081526020016000206001600860008a815260200190815260200160002080549050038154811061143457fe5b9060005260206000200160006101000a81549073ffffffffffffffffffffffffffffffffffffffff0219169055600860008881526020019081526020016000208054809190600190036114879190612997565b505b50505050505050565b600b602052806000526040600020600091509050806000015490806001018054600181600116156101000203166002900480601f0160208091040260200160405190810160405280929190818152602001828054600181600116156101000203166002900480156115445780601f1061151957610100808354040283529160200191611544565b820191906000526020600020905b81548152906001019060200180831161152757829003601f168201915b505050505090806002015490806003018054600181600116156101000203166002900480601f0160208091040260200160405190810160405280929190818152602001828054600181600116156101000203166002900480156115e85780601f106115bd576101008083540402835291602001916115e8565b820191906000526020600020905b8154815290600101906020018083116115cb57829003601f168201915b505050505090806004018054600181600116156101000203166002900480601f0160208091040260200160405190810160405280929190818152602001828054600181600116156101000203166002900480156116865780601f1061165b57610100808354040283529160200191611686565b820191906000526020600020905b81548152906001019060200180831161166957829003601f168201915b505050505090806005018054600181600116156101000203166002900480601f0160208091040260200160405190810160405280929190818152602001828054600181600116156101000203166002900480156117245780601f106116f957610100808354040283529160200191611724565b820191906000526020600020905b81548152906001019060200180831161170757829003601f168201915b5050505050908060060154908060070160009054906101000a900473ffffffffffffffffffffffffffffffffffffffff16908060080160009054906101000a900473ffffffffffffffffffffffffffffffffffffffff16908060080160149054906101000a900460ff1690508a565b60606004805480602002602001604051908101604052809291908181526020016000905b82821015611a5f57838290600052602060002090600702016040518061010001604052908160008201548152602001600182018054600181600116156101000203166002900480601f01602080910402602001604051908101604052809291908181526020018280546001816001161561010002031660029004801561187e5780601f106118535761010080835404028352916020019161187e565b820191906000526020600020905b81548152906001019060200180831161186157829003601f168201915b50505050508152602001600282018054600181600116156101000203166002900480601f0160208091040260200160405190810160405280929190818152602001828054600181600116156101000203166002900480156119205780601f106118f557610100808354040283529160200191611920565b820191906000526020600020905b81548152906001019060200180831161190357829003601f168201915b505050505081526020016003820160009054906101000a900473ffffffffffffffffffffffffffffffffffffffff1673ffffffffffffffffffffffffffffffffffffffff1673ffffffffffffffffffffffffffffffffffffffff1681526020016003820160149054906101000a900460ff1615151515815260200160048201548152602001600582018054600181600116156101000203166002900480601f016020809104026020016040519081016040528092919081815260200182805460018160011615610100020316600290048015611a3d5780601f10611a1257610100808354040283529160200191611a3d565b820191906000526020600020905b815481529060010190602001808311611a2057829003601f168201915b50505050508152602001600682015481525050815260200190600101906117b7565b50505050905090565b6060600c60003373ffffffffffffffffffffffffffffffffffffffff1673ffffffffffffffffffffffffffffffffffffffff168152602001908152602001600020805480602002602001604051908101604052809291908181526020018280548015611af357602002820191906000526020600020905b815481526020019060010190808311611adf575b5050505050905090565b600080905060008090505b6001600c60003373ffffffffffffffffffffffffffffffffffffffff1673ffffffffffffffffffffffffffffffffffffffff1681526020019081526020016000208054905003811015611c7a5782600c60003373ffffffffffffffffffffffffffffffffffffffff1673ffffffffffffffffffffffffffffffffffffffff1681526020019081526020016000208281548110611ba057fe5b90600052602060002001541415611bb657600191505b8115611c6d57600c60003373ffffffffffffffffffffffffffffffffffffffff1673ffffffffffffffffffffffffffffffffffffffff1681526020019081526020016000206001820181548110611c0957fe5b9060005260206000200154600c60003373ffffffffffffffffffffffffffffffffffffffff1673ffffffffffffffffffffffffffffffffffffffff1681526020019081526020016000208281548110611c5e57fe5b90600052602060002001819055505b8080600101915050611b08565b50600c60003373ffffffffffffffffffffffffffffffffffffffff1673ffffffffffffffffffffffffffffffffffffffff1681526020019081526020016000206001600c60003373ffffffffffffffffffffffffffffffffffffffff1673ffffffffffffffffffffffffffffffffffffffff168152602001908152602001600020805490500381548110611d0a57fe5b9060005260206000200160009055600c60003373ffffffffffffffffffffffffffffffffffffffff1673ffffffffffffffffffffffffffffffffffffffff168152602001908152602001600020805480919060019003611d6a919061296b565b505050565b3373ffffffffffffffffffffffffffffffffffffffff166005600083815260200190815260200160002060009054906101000a900473ffffffffffffffffffffffffffffffffffffffff1673ffffffffffffffffffffffffffffffffffffffff1614611dda57600080fd5b6004805490508110611deb57612101565b60008190505b600160048054905003811015611f745760046001820181548110611e1157fe5b906000526020600020906007020160048281548110611e2c57fe5b90600052602060002090600702016000820154816000015560018201816001019080546001816001161561010002031660029004611e6b9291906129c3565b5060028201816002019080546001816001161561010002031660029004611e939291906129c3565b506003820160009054906101000a900473ffffffffffffffffffffffffffffffffffffffff168160030160006101000a81548173ffffffffffffffffffffffffffffffffffffffff021916908373ffffffffffffffffffffffffffffffffffffffff1602179055506003820160149054906101000a900460ff168160030160146101000a81548160ff0219169083151502179055506004820154816004015560058201816005019080546001816001161561010002031660029004611f599291906129c3565b50600682015481600601559050508080600101915050611df1565b50600460016004805490500381548110611f8a57fe5b9060005260206000209060070201600080820160009055600182016000611fb19190612a4a565b600282016000611fc19190612a4a565b6003820160006101000a81549073ffffffffffffffffffffffffffffffffffffffff02191690556003820160146101000a81549060ff021916905560048201600090556005820160006120149190612a4a565b6006820160009055505060048054809190600190036120339190612a92565b506005600082815260200190815260200160002060006101000a81549073ffffffffffffffffffffffffffffffffffffffff02191690556120bd6001600660003373ffffffffffffffffffffffffffffffffffffffff1673ffffffffffffffffffffffffffffffffffffffff1681526020019081526020016000205461285490919063ffffffff16565b600660003373ffffffffffffffffffffffffffffffffffffffff1673ffffffffffffffffffffffffffffffffffffffff168152602001908152602001600020819055505b50565b6004818154811061211157fe5b9060005260206000209060070201600091509050806000015490806001018054600181600116156101000203166002900480601f0160208091040260200160405190810160405280929190818152602001828054600181600116156101000203166002900480156121c35780601f10612198576101008083540402835291602001916121c3565b820191906000526020600020905b8154815290600101906020018083116121a657829003601f168201915b505050505090806002018054600181600116156101000203166002900480601f0160208091040260200160405190810160405280929190818152602001828054600181600116156101000203166002900480156122615780601f1061223657610100808354040283529160200191612261565b820191906000526020600020905b81548152906001019060200180831161224457829003601f168201915b5050505050908060030160009054906101000a900473ffffffffffffffffffffffffffffffffffffffff16908060030160149054906101000a900460ff1690806004015490806005018054600181600116156101000203166002900480601f01602080910402602001604051908101604052809291908181526020018280546001816001161561010002031660029004801561233e5780601f106123135761010080835404028352916020019161233e565b820191906000526020600020905b81548152906001019060200180831161232157829003601f168201915b5050505050908060060154905088565b600085511161235c57600080fd5b600083511161236a57600080fd5b600082511161237857600080fd5b600081511161238657600080fd5b600073ffffffffffffffffffffffffffffffffffffffff163373ffffffffffffffffffffffffffffffffffffffff1614156123c057600080fd5b600084116123cd57600080fd5b60405180610100016040528060015481526020018681526020018581526020018481526020018381526020018281526020014281526020013373ffffffffffffffffffffffffffffffffffffffff1681525060026000600154815260200190815260200160002060008201518160000155602082015181600101908051906020019061245a9291906128eb565b506040820151816002015560608201518160030190805190602001906124819291906128eb565b50608082015181600401908051906020019061249e9291906128eb565b5060a08201518160050190805190602001906124bb9291906128eb565b5060c0820151816006015560e08201518160070160006101000a81548173ffffffffffffffffffffffffffffffffffffffff021916908373ffffffffffffffffffffffffffffffffffffffff1602179055509050506001600081548092919060010191905055507f6e95bbaa37a5fdec42a312e049dea2fe6160ebe659214d3409b4f91f164c2f526001548686868686423360405161256198979695949392919061333a565b60405180910390a15050505050565b6002602052806000526040600020600091509050806000015490806001018054600181600116156101000203166002900480601f0160208091040260200160405190810160405280929190818152602001828054600181600116156101000203166002900480156126225780601f106125f757610100808354040283529160200191612622565b820191906000526020600020905b81548152906001019060200180831161260557829003601f168201915b505050505090806002015490806003018054600181600116156101000203166002900480601f0160208091040260200160405190810160405280929190818152602001828054600181600116156101000203166002900480156126c65780601f1061269b576101008083540402835291602001916126c6565b820191906000526020600020905b8154815290600101906020018083116126a957829003601f168201915b505050505090806004018054600181600116156101000203166002900480601f0160208091040260200160405190810160405280929190818152602001828054600181600116156101000203166002900480156127645780601f1061273957610100808354040283529160200191612764565b820191906000526020600020905b81548152906001019060200180831161274757829003601f168201915b505050505090806005018054600181600116156101000203166002900480601f0160208091040260200160405190810160405280929190818152602001828054600181600116156101000203166002900480156128025780601f106127d757610100808354040283529160200191612802565b820191906000526020600020905b8154815290600101906020018083116127e557829003601f168201915b5050505050908060060154908060070160009054906101000a900473ffffffffffffffffffffffffffffffffffffffff16905088565b60008082840190508381101561284a57fe5b8091505092915050565b60008282111561286057fe5b818303905092915050565b828054600181600116156101000203166002900490600052602060002090601f016020900481019282601f106128ac57805160ff19168380011785556128da565b828001600101855582156128da579182015b828111156128d95782518255916020019190600101906128be565b5b5090506128e79190612ac4565b5090565b828054600181600116156101000203166002900490600052602060002090601f016020900481019282601f1061292c57805160ff191683800117855561295a565b8280016001018555821561295a579182015b8281111561295957825182559160200191906001019061293e565b5b5090506129679190612ac4565b5090565b815481835581811115612992578183600052602060002091820191016129919190612ac4565b5b505050565b8154818355818111156129be578183600052602060002091820191016129bd9190612ac4565b5b505050565b828054600181600116156101000203166002900490600052602060002090601f016020900481019282601f106129fc5780548555612a39565b82800160010185558215612a3957600052602060002091601f016020900482015b82811115612a38578254825591600101919060010190612a1d565b5b509050612a469190612ac4565b5090565b50805460018160011615610100020316600290046000825580601f10612a705750612a8f565b601f016020900490600052602060002090810190612a8e9190612ac4565b5b50565b815481835581811115612abf57600702816007028360005260206000209182019101612abe9190612ae9565b5b505050565b612ae691905b80821115612ae2576000816000905550600101612aca565b5090565b90565b612b8891905b80821115612b8457600080820160009055600182016000612b109190612a4a565b600282016000612b209190612a4a565b6003820160006101000a81549073ffffffffffffffffffffffffffffffffffffffff02191690556003820160146101000a81549060ff02191690556004820160009055600582016000612b739190612a4a565b600682016000905550600701612aef565b5090565b90565b600081359050612b9a81613821565b92915050565b600081359050612baf81613838565b92915050565b600082601f830112612bc657600080fd5b8135612bd9612bd48261369e565b613671565b91508082526020830160208301858383011115612bf557600080fd5b612c008382846137ce565b50505092915050565b600081359050612c188161384f565b92915050565b60008060408385031215612c3157600080fd5b6000612c3f85828601612b8b565b9250506020612c5085828601612c09565b9150509250929050565b600080600080600060a08688031215612c7257600080fd5b600086013567ffffffffffffffff811115612c8c57600080fd5b612c9888828901612bb5565b955050602086013567ffffffffffffffff811115612cb557600080fd5b612cc188828901612bb5565b9450506040612cd288828901612ba0565b9350506060612ce388828901612c09565b925050608086013567ffffffffffffffff811115612d0057600080fd5b612d0c88828901612bb5565b9150509295509295909350565b600080600080600060a08688031215612d3157600080fd5b600086013567ffffffffffffffff811115612d4b57600080fd5b612d5788828901612bb5565b9550506020612d6888828901612c09565b945050604086013567ffffffffffffffff811115612d8557600080fd5b612d9188828901612bb5565b935050606086013567ffffffffffffffff811115612dae57600080fd5b612dba88828901612bb5565b925050608086013567ffffffffffffffff811115612dd757600080fd5b612de388828901612bb5565b9150509295509295909350565b600080600080600080600060e0888a031215612e0b57600080fd5b600088013567ffffffffffffffff811115612e2557600080fd5b612e318a828b01612bb5565b9750506020612e428a828b01612c09565b965050604088013567ffffffffffffffff811115612e5f57600080fd5b612e6b8a828b01612bb5565b955050606088013567ffffffffffffffff811115612e8857600080fd5b612e948a828b01612bb5565b945050608088013567ffffffffffffffff811115612eb157600080fd5b612ebd8a828b01612bb5565b93505060a0612ece8a828b01612b8b565b92505060c0612edf8a828b01612ba0565b91505092959891949750929550565b600060208284031215612f0057600080fd5b6000612f0e84828501612c09565b91505092915050565b60008060008060008060c08789031215612f3057600080fd5b6000612f3e89828a01612c09565b965050602087013567ffffffffffffffff811115612f5b57600080fd5b612f6789828a01612bb5565b955050604087013567ffffffffffffffff811115612f8457600080fd5b612f9089828a01612bb5565b9450506060612fa189828a01612ba0565b9350506080612fb289828a01612c09565b92505060a087013567ffffffffffffffff811115612fcf57600080fd5b612fdb89828a01612bb5565b9150509295509295509295565b6000612ff483836131dd565b905092915050565b6000613008838361329b565b60208301905092915050565b61301d81613786565b82525050565b61302c81613774565b82525050565b61303b81613774565b82525050565b600061304c826136ea565b6130568185613730565b935083602082028501613068856136ca565b8060005b858110156130a457848403895281516130858582612fe8565b945061309083613716565b925060208a0199505060018101905061306c565b50829750879550505050505092915050565b60006130c1826136f5565b6130cb8185613741565b93506130d6836136da565b8060005b838110156131075781516130ee8882612ffc565b97506130f983613723565b9250506001810190506130da565b5085935050505092915050565b61311d81613798565b82525050565b61312c81613798565b82525050565b600061313d8261370b565b6131478185613763565b93506131578185602086016137dd565b61316081613810565b840191505092915050565b600061317682613700565b6131808185613752565b93506131908185602086016137dd565b61319981613810565b840191505092915050565b60006131af82613700565b6131b98185613763565b93506131c98185602086016137dd565b6131d281613810565b840191505092915050565b6000610100830160008301516131f6600086018261329b565b506020830151848203602086015261320e828261316b565b91505060408301518482036040860152613228828261316b565b915050606083015161323d6060860182613023565b5060808301516132506080860182613114565b5060a083015161326360a086018261329b565b5060c083015184820360c086015261327b828261316b565b91505060e083015161329060e086018261329b565b508091505092915050565b6132a4816137c4565b82525050565b6132b3816137c4565b82525050565b600060208201905081810360008301526132d38184613041565b905092915050565b600060208201905081810360008301526132f581846130b6565b905092915050565b6000602082019050818103600083015261331781846131a4565b905092915050565b600060208201905061333460008301846132aa565b92915050565b600061010082019050613350600083018b6132aa565b8181036020830152613362818a613132565b905061337160408301896132aa565b81810360608301526133838188613132565b905081810360808301526133978187613132565b905081810360a08301526133ab8186613132565b90506133ba60c08301856132aa565b6133c760e0830184613014565b9998505050505050505050565b6000610140820190506133ea600083018d6132aa565b81810360208301526133fc818c613132565b905061340b604083018b6132aa565b818103606083015261341d818a613132565b905081810360808301526134318189613132565b905081810360a08301526134458188613132565b905061345460c08301876132aa565b61346160e0830186613014565b61346f610100830185613032565b61347d610120830184613123565b9b9a5050505050505050505050565b6000610100820190506134a2600083018b6132aa565b81810360208301526134b4818a6131a4565b905081810360408301526134c881896131a4565b90506134d76060830188613032565b6134e46080830187613123565b6134f160a08301866132aa565b81810360c083015261350381856131a4565b905061351260e08301846132aa565b9998505050505050505050565b600061010082019050613535600083018b6132aa565b8181036020830152613547818a6131a4565b905061355660408301896132aa565b818103606083015261356881886131a4565b9050818103608083015261357c81876131a4565b905081810360a083015261359081866131a4565b905061359f60c08301856132aa565b6135ac60e0830184613014565b9998505050505050505050565b6000610140820190506135cf600083018d6132aa565b81810360208301526135e1818c6131a4565b90506135f0604083018b6132aa565b8181036060830152613602818a6131a4565b9050818103608083015261361681896131a4565b905081810360a083015261362a81886131a4565b905061363960c08301876132aa565b61364660e0830186613014565b613654610100830185613032565b613662610120830184613123565b9b9a5050505050505050505050565b6000604051905081810181811067ffffffffffffffff8211171561369457600080fd5b8060405250919050565b600067ffffffffffffffff8211156136b557600080fd5b601f19601f8301169050602081019050919050565b6000819050602082019050919050565b6000819050602082019050919050565b600081519050919050565b600081519050919050565b600081519050919050565b600081519050919050565b6000602082019050919050565b6000602082019050919050565b600082825260208201905092915050565b600082825260208201905092915050565b600082825260208201905092915050565b600082825260208201905092915050565b600061377f826137a4565b9050919050565b6000613791826137a4565b9050919050565b60008115159050919050565b600073ffffffffffffffffffffffffffffffffffffffff82169050919050565b6000819050919050565b82818337600083830152505050565b60005b838110156137fb5780820151818401526020810190506137e0565b8381111561380a576000848401525b50505050565b6000601f19601f8301169050919050565b61382a81613774565b811461383557600080fd5b50565b61384181613798565b811461384c57600080fd5b50565b613858816137c4565b811461386357600080fd5b5056fea365627a7a72315820482fd4d461b3f911a704287a9f0506c082112d57fc95220efb52be51a2cc398b6c6578706572696d656e74616cf564736f6c63430005100040",
  "source": "// SPDX-License-Identifier: UNLICENSED\npragma solidity ^0.5.0;\npragma experimental ABIEncoderV2;\n\nimport \"./DCStorage.sol\";\nimport \"./safemath.sol\";\nimport \"./Organization.sol\";\nimport \"./Membership.sol\";\n\ncontract Direct is Membership{\n\n  string public name = \"Crypto Box Direct\";\n  uint public fileCount = 0;\n\n  mapping(uint => DirectFile) public directfiles;\n\n  mapping(address => uint[]) public addressToFileIds;\n  \n  struct DirectFile{\n    uint fileId;\n    string fileHash;\n    uint fileSize;\n    string fileType;\n    string fileName;\n    string fileDescription;\n    uint uploadTime;\n    address payable uploader;\n    address reciever;\n    bool isOneTimeLink;\n  }\n\n  event DirectFileUploaded(\n    uint fileId,\n    string fileHash,\n    uint fileSize,\n    string fileType,\n    string fileName,\n    string fileDescription,\n    uint uploadTime,\n    address payable uploader,\n    address reciever,\n    bool isOneTimeLink\n  );\n\n  constructor() public {\n  }\n\n  function uploadFile(string memory _fileHash, uint _fileSize, string memory _fileType, string memory _fileName, string memory _fileDescription, address _reciever, bool _isOneTimeLink) public {\n    require(bytes(_fileHash).length > 0);\n    require(bytes(_fileType).length > 0);\n    require(bytes(_fileName).length > 0);\n    require(bytes(_fileDescription).length > 0);\n    require(msg.sender != address(0));\n    require(_fileSize > 0);\n    require(_reciever == address(_reciever));\n    directfiles[fileCount] = DirectFile(fileCount, _fileHash, _fileSize, _fileType, _fileName, _fileDescription, now, msg.sender, _reciever, _isOneTimeLink);\n    addressToFileIds[_reciever].push(fileCount);\n    fileCount++;\n    emit DirectFileUploaded(fileCount, _fileHash, _fileSize, _fileType, _fileName, _fileDescription, now, msg.sender, _reciever, _isOneTimeLink);\n  }\n\n  function currentUserFileIds() external view returns(uint [] memory) {\n    return addressToFileIds[msg.sender];\n  }\n\n  function fileDelete(uint id) public {\n    bool startDelete = false;\n    for(uint i = 0; i < addressToFileIds[msg.sender].length - 1; i++){\n        if(addressToFileIds[msg.sender][i] == id){\n            startDelete = true;\n        }\n        if(startDelete){\n            addressToFileIds[msg.sender][i] = addressToFileIds[msg.sender][i + 1];\n        }\n    }\n    delete addressToFileIds[msg.sender][addressToFileIds[msg.sender].length - 1];\n    addressToFileIds[msg.sender].length--;\n  }\n  \n}\n\n\n",
  "sourcePath": "/Users/csuftitan/Desktop/Meet Turakhia/Advanced Blockchain (CPSC 559)/Projects/Final Project(4 Dec 2022)/src/contracts/Direct.sol",
  "compiler": {
    "name": "solc",
    "version": "0.5.16+commit.9c3226ce.Emscripten.clang"
  },
  "schemaVersion": "3.4.9",
  "updatedAt": "2022-12-04T20:16:02.493Z",
  "devdoc": {
    "methods": {}
  },
  "userdoc": {
    "methods": {}
  }
}