{
  "contractName": "Direct",
  "abi": [
    {
      "inputs": [],
      "payable": false,
      "stateMutability": "nonpayable",
      "type": "constructor"
    },
    {
      "anonymous": false,
      "inputs": [
        {
          "indexed": false,
          "internalType": "uint256",
          "name": "fileId",
          "type": "uint256"
        },
        {
          "indexed": false,
          "internalType": "string",
          "name": "fileHash",
          "type": "string"
        },
        {
          "indexed": false,
          "internalType": "uint256",
          "name": "fileSize",
          "type": "uint256"
        },
        {
          "indexed": false,
          "internalType": "string",
          "name": "fileType",
          "type": "string"
        },
        {
          "indexed": false,
          "internalType": "string",
          "name": "fileName",
          "type": "string"
        },
        {
          "indexed": false,
          "internalType": "string",
          "name": "fileDescription",
          "type": "string"
        },
        {
          "indexed": false,
          "internalType": "uint256",
          "name": "uploadTime",
          "type": "uint256"
        },
        {
          "indexed": false,
          "internalType": "address payable",
          "name": "uploader",
          "type": "address"
        },
        {
          "indexed": false,
          "internalType": "address",
          "name": "reciever",
          "type": "address"
        },
        {
          "indexed": false,
          "internalType": "bool",
          "name": "isOneTimeLink",
          "type": "bool"
        }
      ],
      "name": "DirectFileUploaded",
      "type": "event"
    },
    {
      "anonymous": false,
      "inputs": [
        {
          "indexed": false,
          "internalType": "uint256",
          "name": "fileId",
          "type": "uint256"
        },
        {
          "indexed": false,
          "internalType": "string",
          "name": "fileHash",
          "type": "string"
        },
        {
          "indexed": false,
          "internalType": "uint256",
          "name": "fileSize",
          "type": "uint256"
        },
        {
          "indexed": false,
          "internalType": "string",
          "name": "fileType",
          "type": "string"
        },
        {
          "indexed": false,
          "internalType": "string",
          "name": "fileName",
          "type": "string"
        },
        {
          "indexed": false,
          "internalType": "string",
          "name": "fileDescription",
          "type": "string"
        },
        {
          "indexed": false,
          "internalType": "uint256",
          "name": "uploadTime",
          "type": "uint256"
        },
        {
          "indexed": false,
          "internalType": "address payable",
          "name": "uploader",
          "type": "address"
        }
      ],
      "name": "FileUploaded",
      "type": "event"
    },
    {
      "constant": true,
      "inputs": [
        {
          "internalType": "address",
          "name": "",
          "type": "address"
        },
        {
          "internalType": "uint256",
          "name": "",
          "type": "uint256"
        }
      ],
      "name": "addressToFileIds",
      "outputs": [
        {
          "internalType": "uint256",
          "name": "",
          "type": "uint256"
        }
      ],
      "payable": false,
      "stateMutability": "view",
      "type": "function"
    },
    {
      "constant": false,
      "inputs": [
        {
          "internalType": "string",
          "name": "name",
          "type": "string"
        },
        {
          "internalType": "string",
          "name": "description",
          "type": "string"
        },
        {
          "internalType": "bool",
          "name": "privateBool",
          "type": "bool"
        },
        {
          "internalType": "uint256",
          "name": "memberLimit",
          "type": "uint256"
        },
        {
          "internalType": "string",
          "name": "passcode",
          "type": "string"
        }
      ],
      "name": "createOrganization",
      "outputs": [],
      "payable": false,
      "stateMutability": "nonpayable",
      "type": "function"
    },
    {
      "constant": false,
      "inputs": [
        {
          "internalType": "uint256",
          "name": "id",
          "type": "uint256"
        }
      ],
      "name": "deleteOrganization",
      "outputs": [],
      "payable": false,
      "stateMutability": "nonpayable",
      "type": "function"
    },
    {
      "constant": true,
      "inputs": [],
      "name": "directFileCount",
      "outputs": [
        {
          "internalType": "uint256",
          "name": "",
          "type": "uint256"
        }
      ],
      "payable": false,
      "stateMutability": "view",
      "type": "function"
    },
    {
      "constant": true,
      "inputs": [
        {
          "internalType": "uint256",
          "name": "",
          "type": "uint256"
        }
      ],
      "name": "directfiles",
      "outputs": [
        {
          "internalType": "uint256",
          "name": "fileId",
          "type": "uint256"
        },
        {
          "internalType": "string",
          "name": "fileHash",
          "type": "string"
        },
        {
          "internalType": "uint256",
          "name": "fileSize",
          "type": "uint256"
        },
        {
          "internalType": "string",
          "name": "fileType",
          "type": "string"
        },
        {
          "internalType": "string",
          "name": "fileName",
          "type": "string"
        },
        {
          "internalType": "string",
          "name": "fileDescription",
          "type": "string"
        },
        {
          "internalType": "uint256",
          "name": "uploadTime",
          "type": "uint256"
        },
        {
          "internalType": "address payable",
          "name": "uploader",
          "type": "address"
        },
        {
          "internalType": "address",
          "name": "reciever",
          "type": "address"
        },
        {
          "internalType": "bool",
          "name": "isOneTimeLink",
          "type": "bool"
        }
      ],
      "payable": false,
      "stateMutability": "view",
      "type": "function"
    },
    {
      "constant": false,
      "inputs": [
        {
          "internalType": "uint256",
          "name": "id",
          "type": "uint256"
        },
        {
          "internalType": "string",
          "name": "name",
          "type": "string"
        },
        {
          "internalType": "string",
          "name": "description",
          "type": "string"
        },
        {
          "internalType": "bool",
          "name": "privateBool",
          "type": "bool"
        },
        {
          "internalType": "uint256",
          "name": "memberLimit",
          "type": "uint256"
        },
        {
          "internalType": "string",
          "name": "passcode",
          "type": "string"
        }
      ],
      "name": "editOrganization",
      "outputs": [],
      "payable": false,
      "stateMutability": "nonpayable",
      "type": "function"
    },
    {
      "constant": false,
      "inputs": [
        {
          "internalType": "uint256",
          "name": "id",
          "type": "uint256"
        }
      ],
      "name": "exitOrganization",
      "outputs": [],
      "payable": false,
      "stateMutability": "nonpayable",
      "type": "function"
    },
    {
      "constant": true,
      "inputs": [],
      "name": "fileCount",
      "outputs": [
        {
          "internalType": "uint256",
          "name": "",
          "type": "uint256"
        }
      ],
      "payable": false,
      "stateMutability": "view",
      "type": "function"
    },
    {
      "constant": true,
      "inputs": [
        {
          "internalType": "uint256",
          "name": "",
          "type": "uint256"
        }
      ],
      "name": "files",
      "outputs": [
        {
          "internalType": "uint256",
          "name": "fileId",
          "type": "uint256"
        },
        {
          "internalType": "string",
          "name": "fileHash",
          "type": "string"
        },
        {
          "internalType": "uint256",
          "name": "fileSize",
          "type": "uint256"
        },
        {
          "internalType": "string",
          "name": "fileType",
          "type": "string"
        },
        {
          "internalType": "string",
          "name": "fileName",
          "type": "string"
        },
        {
          "internalType": "string",
          "name": "fileDescription",
          "type": "string"
        },
        {
          "internalType": "uint256",
          "name": "uploadTime",
          "type": "uint256"
        },
        {
          "internalType": "address payable",
          "name": "uploader",
          "type": "address"
        }
      ],
      "payable": false,
      "stateMutability": "view",
      "type": "function"
    },
    {
      "constant": true,
      "inputs": [],
      "name": "getMemberships",
      "outputs": [
        {
          "internalType": "uint256[]",
          "name": "",
          "type": "uint256[]"
        }
      ],
      "payable": false,
      "stateMutability": "view",
      "type": "function"
    },
    {
      "constant": true,
      "inputs": [],
      "name": "getOrganizations",
      "outputs": [
        {
          "components": [
            {
              "internalType": "uint256",
              "name": "Id",
              "type": "uint256"
            },
            {
              "internalType": "string",
              "name": "Name",
              "type": "string"
            },
            {
              "internalType": "string",
              "name": "Description",
              "type": "string"
            },
            {
              "internalType": "address",
              "name": "Owner",
              "type": "address"
            },
            {
              "internalType": "bool",
              "name": "Private",
              "type": "bool"
            },
            {
              "internalType": "uint256",
              "name": "MemberLimit",
              "type": "uint256"
            },
            {
              "internalType": "bytes32",
              "name": "Passcode",
              "type": "bytes32"
            },
            {
              "internalType": "uint256",
              "name": "createdAt",
              "type": "uint256"
            }
          ],
          "internalType": "struct BuildOrganization.Organization[]",
          "name": "",
          "type": "tuple[]"
        }
      ],
      "payable": false,
      "stateMutability": "view",
      "type": "function"
    },
    {
      "constant": false,
      "inputs": [
        {
          "internalType": "uint256",
          "name": "id",
          "type": "uint256"
        },
        {
          "internalType": "string",
          "name": "passcode",
          "type": "string"
        }
      ],
      "name": "joinOrganization",
      "outputs": [],
      "payable": false,
      "stateMutability": "nonpayable",
      "type": "function"
    },
    {
      "constant": true,
      "inputs": [],
      "name": "name",
      "outputs": [
        {
          "internalType": "string",
          "name": "",
          "type": "string"
        }
      ],
      "payable": false,
      "stateMutability": "view",
      "type": "function"
    },
    {
      "constant": true,
      "inputs": [
        {
          "internalType": "uint256",
          "name": "",
          "type": "uint256"
        }
      ],
      "name": "organizations",
      "outputs": [
        {
          "internalType": "uint256",
          "name": "Id",
          "type": "uint256"
        },
        {
          "internalType": "string",
          "name": "Name",
          "type": "string"
        },
        {
          "internalType": "string",
          "name": "Description",
          "type": "string"
        },
        {
          "internalType": "address",
          "name": "Owner",
          "type": "address"
        },
        {
          "internalType": "bool",
          "name": "Private",
          "type": "bool"
        },
        {
          "internalType": "uint256",
          "name": "MemberLimit",
          "type": "uint256"
        },
        {
          "internalType": "bytes32",
          "name": "Passcode",
          "type": "bytes32"
        },
        {
          "internalType": "uint256",
          "name": "createdAt",
          "type": "uint256"
        }
      ],
      "payable": false,
      "stateMutability": "view",
      "type": "function"
    },
    {
      "constant": false,
      "inputs": [
        {
          "internalType": "uint256",
          "name": "id",
          "type": "uint256"
        },
        {
          "internalType": "address",
          "name": "userAddress",
          "type": "address"
        }
      ],
      "name": "removeMembership",
      "outputs": [],
      "payable": false,
      "stateMutability": "nonpayable",
      "type": "function"
    },
    {
      "constant": false,
      "inputs": [
        {
          "internalType": "string",
          "name": "_fileHash",
          "type": "string"
        },
        {
          "internalType": "uint256",
          "name": "_fileSize",
          "type": "uint256"
        },
        {
          "internalType": "string",
          "name": "_fileType",
          "type": "string"
        },
        {
          "internalType": "string",
          "name": "_fileName",
          "type": "string"
        },
        {
          "internalType": "string",
          "name": "_fileDescription",
          "type": "string"
        }
      ],
      "name": "uploadFile",
      "outputs": [],
      "payable": false,
      "stateMutability": "nonpayable",
      "type": "function"
    },
    {
      "constant": false,
      "inputs": [
        {
          "internalType": "string",
          "name": "_fileHash",
          "type": "string"
        },
        {
          "internalType": "uint256",
          "name": "_fileSize",
          "type": "uint256"
        },
        {
          "internalType": "string",
          "name": "_fileType",
          "type": "string"
        },
        {
          "internalType": "string",
          "name": "_fileName",
          "type": "string"
        },
        {
          "internalType": "string",
          "name": "_fileDescription",
          "type": "string"
        },
        {
          "internalType": "address",
          "name": "_reciever",
          "type": "address"
        },
        {
          "internalType": "bool",
          "name": "_isOneTimeLink",
          "type": "bool"
        }
      ],
      "name": "uploadDirectFile",
      "outputs": [],
      "payable": false,
      "stateMutability": "nonpayable",
      "type": "function"
    },
    {
      "constant": true,
      "inputs": [],
      "name": "currentUserFileIds",
      "outputs": [
        {
          "internalType": "uint256[]",
          "name": "",
          "type": "uint256[]"
        }
      ],
      "payable": false,
      "stateMutability": "view",
      "type": "function"
    },
    {
      "constant": false,
      "inputs": [
        {
          "internalType": "uint256",
          "name": "id",
          "type": "uint256"
        }
      ],
      "name": "fileDelete",
      "outputs": [],
      "payable": false,
      "stateMutability": "nonpayable",
      "type": "function"
    }
  ],
  "bytecode": "0x60806040526040518060400160405280600981526020017f444353746f7261676500000000000000000000000000000000000000000000008152506000908051906020019062000051929190620000c3565b50600060015560006003556040518060400160405280601181526020017f43727970746f20426f782044697265637400000000000000000000000000000081525060099080519060200190620000a9929190620000c3565b506000600a55348015620000bc57600080fd5b5062000172565b828054600181600116156101000203166002900490600052602060002090601f016020900481019282601f106200010657805160ff191683800117855562000137565b8280016001018555821562000137579182015b828111156200013657825182559160200191906001019062000119565b5b5090506200014691906200014a565b5090565b6200016f91905b808211156200016b57600081600090555060010162000151565b5090565b90565b61402080620001826000396000f3fe608060405234801561001057600080fd5b50600436106101205760003560e01c806392515b28116100ad578063cdc3035311610071578063cdc30353146102ea578063dc1301af14610306578063e792dd8a14610322578063e82d9d3314610359578063f4c714b41461037557610120565b806392515b281461023d578063942b7c7f146102595780639754a3a814610292578063a89b01a8146102b0578063b8f871a1146102ce57610120565b806343953519116100f457806343953519146101ad578063481c1093146101cb5780634db20ee9146101e757806363336311146102035780637840c6a41461021f57610120565b8062d5f22b1461012557806306fdde031461014357806329ab4bf314610161578063339d4ad71461017d575b600080fd5b61012d6103ac565b60405161013a9190613a7e565b60405180910390f35b61014b6103b2565b6040516101589190613a5c565b60405180910390f35b61017b600480360361017691908101906135e5565b610450565b005b6101976004803603610192919081019061325c565b61062d565b6040516101a49190613a7e565b60405180910390f35b6101b561065b565b6040516101c29190613a7e565b60405180910390f35b6101e560048036036101e09190810190613298565b610661565b005b61020160048036036101fc919081019061342e565b610a1d565b005b61021d60048036036102189190810190613555565b610d75565b005b610227611303565b6040516102349190613a3a565b60405180910390f35b6102576004803603610252919081019061352c565b611398565b005b610273600480360361026e919081019061352c565b6118af565b6040516102899a99989796959493929190613d11565b60405180910390f35b61029a611bb0565b6040516102a79190613a18565b60405180910390f35b6102b8611ded565b6040516102c59190613a3a565b60405180910390f35b6102e860048036036102e3919081019061352c565b611e82565b005b61030460048036036102ff9190810190613591565b6121c4565b005b610320600480360361031b919081019061352c565b612473565b005b61033c6004803603610337919081019061352c565b6127e2565b604051610350989796959493929190613beb565b60405180910390f35b610373600480360361036e9190810190613357565b612994565b005b61038f600480360361038a919081019061352c565b612bb6565b6040516103a3989796959493929190613c77565b60405180910390f35b600a5481565b60098054600181600116156101000203166002900480601f0160208091040260200160405190810160405280929190818152602001828054600181600116156101000203166002900480156104485780601f1061041d57610100808354040283529160200191610448565b820191906000526020600020905b81548152906001019060200180831161042b57829003601f168201915b505050505081565b600085511161045e57600080fd5b600084511161046c57600080fd5b6000821161047957600080fd5b60001515831515141561049d576040518060200160405280600081525090506104ac565b60008151116104ab57600080fd5b5b3373ffffffffffffffffffffffffffffffffffffffff166005600088815260200190815260200160002060009054906101000a900473ffffffffffffffffffffffffffffffffffffffff1673ffffffffffffffffffffffffffffffffffffffff161461051757600080fd5b60008160405160200161052a9190613a01565b604051602081830303815290604052805190602001209050856004888154811061055057fe5b90600052602060002090600702016001019080519060200190610574929190612eb1565b50846004888154811061058357fe5b906000526020600020906007020160020190805190602001906105a7929190612eb1565b5083600488815481106105b657fe5b906000526020600020906007020160030160146101000a81548160ff02191690831515021790555082600488815481106105ec57fe5b906000526020600020906007020160040181905550806004888154811061060f57fe5b90600052602060002090600702016005018190555050505050505050565b600c602052816000526040600020818154811061064657fe5b90600052602060002001600091509150505481565b60015481565b600085511161066f57600080fd5b600084511161067d57600080fd5b6000821161068a57600080fd5b6000151583151514156106ae576040518060200160405280600081525090506106bd565b60008151116106bc57600080fd5b5b600060035490506000826040516020016106d79190613a01565b60405160208183030381529060405280519060200120905060046040518061010001604052808481526020018981526020018881526020013373ffffffffffffffffffffffffffffffffffffffff16815260200187151581526020018681526020018381526020014281525090806001815401808255809150509060018203906000526020600020906007020160009091929091909150600082015181600001556020820151816001019080519060200190610794929190612f31565b5060408201518160020190805190602001906107b1929190612f31565b5060608201518160030160006101000a81548173ffffffffffffffffffffffffffffffffffffffff021916908373ffffffffffffffffffffffffffffffffffffffff16021790555060808201518160030160146101000a81548160ff02191690831515021790555060a0820151816004015560c0820151816005015560e08201518160060155505050336005600084815260200190815260200160002060006101000a81548173ffffffffffffffffffffffffffffffffffffffff021916908373ffffffffffffffffffffffffffffffffffffffff1602179055506108df6001600660003373ffffffffffffffffffffffffffffffffffffffff1673ffffffffffffffffffffffffffffffffffffffff16815260200190815260200160002054612e7e90919063ffffffff16565b600660003373ffffffffffffffffffffffffffffffffffffffff1673ffffffffffffffffffffffffffffffffffffffff16815260200190815260200160002081905550600760003373ffffffffffffffffffffffffffffffffffffffff1673ffffffffffffffffffffffffffffffffffffffff168152602001908152602001600020829080600181540180825580915050906001820390600052602060002001600090919290919091505550600860008381526020019081526020016000203390806001815401808255809150509060018203906000526020600020016000909192909190916101000a81548173ffffffffffffffffffffffffffffffffffffffff021916908373ffffffffffffffffffffffffffffffffffffffff1602179055505060036000815480929190600101919050555050505050505050565b6000875111610a2b57600080fd5b6000855111610a3957600080fd5b6000845111610a4757600080fd5b6000835111610a5557600080fd5b600073ffffffffffffffffffffffffffffffffffffffff163373ffffffffffffffffffffffffffffffffffffffff161415610a8f57600080fd5b60008611610a9c57600080fd5b8173ffffffffffffffffffffffffffffffffffffffff168273ffffffffffffffffffffffffffffffffffffffff1614610ad457600080fd5b604051806101400160405280600a5481526020018881526020018781526020018681526020018581526020018481526020014281526020013373ffffffffffffffffffffffffffffffffffffffff1681526020018373ffffffffffffffffffffffffffffffffffffffff168152602001821515815250600b6000600a548152602001908152602001600020600082015181600001556020820151816001019080519060200190610b85929190612f31565b50604082015181600201556060820151816003019080519060200190610bac929190612f31565b506080820151816004019080519060200190610bc9929190612f31565b5060a0820151816005019080519060200190610be6929190612f31565b5060c0820151816006015560e08201518160070160006101000a81548173ffffffffffffffffffffffffffffffffffffffff021916908373ffffffffffffffffffffffffffffffffffffffff1602179055506101008201518160080160006101000a81548173ffffffffffffffffffffffffffffffffffffffff021916908373ffffffffffffffffffffffffffffffffffffffff1602179055506101208201518160080160146101000a81548160ff021916908315150217905550905050600c60008373ffffffffffffffffffffffffffffffffffffffff1673ffffffffffffffffffffffffffffffffffffffff168152602001908152602001600020600a549080600181540180825580915050906001820390600052602060002001600090919290919091505550600a600081548092919060010191905055507feeeed15c975fd3e736c550958913fd5541d9193b09fb3c3b98cadc46aed5533a600a54888888888842338a8a604051610d649a99989796959493929190613b33565b60405180910390a150505050505050565b60048281548110610d8257fe5b906000526020600020906007020160030160009054906101000a900473ffffffffffffffffffffffffffffffffffffffff1673ffffffffffffffffffffffffffffffffffffffff163373ffffffffffffffffffffffffffffffffffffffff1614610deb57600080fd5b600080600080905060008090506060600760008773ffffffffffffffffffffffffffffffffffffffff1673ffffffffffffffffffffffffffffffffffffffff168152602001908152602001600020805480602002602001604051908101604052809291908181526020018280548015610e8357602002820191906000526020600020905b815481526020019060010190808311610e6f575b50505050509050606060086000898152602001908152602001600020805480602002602001604051908101604052809291908181526020018280548015610f1f57602002820191906000526020600020905b8160009054906101000a900473ffffffffffffffffffffffffffffffffffffffff1673ffffffffffffffffffffffffffffffffffffffff1681526020019060010190808311610ed5575b5050505050905060005b8251811015610f6257828181518110610f3e57fe5b6020026020010151891415610f5557809650600194505b8080600101915050610f29565b5060005b8151811015610fcb57818181518110610f7b57fe5b602002602001015173ffffffffffffffffffffffffffffffffffffffff168873ffffffffffffffffffffffffffffffffffffffff161415610fbe57809550600193505b8080600101915050610f66565b50838015610fd65750825b156112f95760008690505b60018351038110156110aa57600760008973ffffffffffffffffffffffffffffffffffffffff1673ffffffffffffffffffffffffffffffffffffffff168152602001908152602001600020600182018154811061103a57fe5b9060005260206000200154600760008a73ffffffffffffffffffffffffffffffffffffffff1673ffffffffffffffffffffffffffffffffffffffff168152602001908152602001600020828154811061108f57fe5b90600052602060002001819055508080600101915050610fe1565b50600760008873ffffffffffffffffffffffffffffffffffffffff1673ffffffffffffffffffffffffffffffffffffffff1681526020019081526020016000206001600760008a73ffffffffffffffffffffffffffffffffffffffff1673ffffffffffffffffffffffffffffffffffffffff16815260200190815260200160002080549050038154811061113a57fe5b9060005260206000200160009055600760008873ffffffffffffffffffffffffffffffffffffffff1673ffffffffffffffffffffffffffffffffffffffff16815260200190815260200160002080548091906001900361119a9190612fb1565b5060008590505b600182510381101561126c57600860008a815260200190815260200160002060018201815481106111ce57fe5b9060005260206000200160009054906101000a900473ffffffffffffffffffffffffffffffffffffffff16600860008b8152602001908152602001600020828154811061121757fe5b9060005260206000200160006101000a81548173ffffffffffffffffffffffffffffffffffffffff021916908373ffffffffffffffffffffffffffffffffffffffff16021790555080806001019150506111a1565b50600860008981526020019081526020016000206001600860008b81526020019081526020016000208054905003815481106112a457fe5b9060005260206000200160006101000a81549073ffffffffffffffffffffffffffffffffffffffff0219169055600860008981526020019081526020016000208054809190600190036112f79190612fdd565b505b5050505050505050565b6060600760003373ffffffffffffffffffffffffffffffffffffffff1673ffffffffffffffffffffffffffffffffffffffff16815260200190815260200160002080548060200260200160405190810160405280929190818152602001828054801561138e57602002820191906000526020600020905b81548152602001906001019080831161137a575b5050505050905090565b600080600080905060008090506060600760003373ffffffffffffffffffffffffffffffffffffffff1673ffffffffffffffffffffffffffffffffffffffff16815260200190815260200160002080548060200260200160405190810160405280929190818152602001828054801561143057602002820191906000526020600020905b81548152602001906001019080831161141c575b505050505090506060600860008881526020019081526020016000208054806020026020016040519081016040528092919081815260200182805480156114cc57602002820191906000526020600020905b8160009054906101000a900473ffffffffffffffffffffffffffffffffffffffff1673ffffffffffffffffffffffffffffffffffffffff1681526020019060010190808311611482575b5050505050905060005b825181101561150f578281815181106114eb57fe5b602002602001015188141561150257809650600194505b80806001019150506114d6565b5060005b81518110156115785781818151811061152857fe5b602002602001015173ffffffffffffffffffffffffffffffffffffffff163373ffffffffffffffffffffffffffffffffffffffff16141561156b57809550600193505b8080600101915050611513565b508380156115835750825b156118a65760008690505b600183510381101561165757600760003373ffffffffffffffffffffffffffffffffffffffff1673ffffffffffffffffffffffffffffffffffffffff16815260200190815260200160002060018201815481106115e757fe5b9060005260206000200154600760003373ffffffffffffffffffffffffffffffffffffffff1673ffffffffffffffffffffffffffffffffffffffff168152602001908152602001600020828154811061163c57fe5b9060005260206000200181905550808060010191505061158e565b50600760003373ffffffffffffffffffffffffffffffffffffffff1673ffffffffffffffffffffffffffffffffffffffff1681526020019081526020016000206001600760003373ffffffffffffffffffffffffffffffffffffffff1673ffffffffffffffffffffffffffffffffffffffff1681526020019081526020016000208054905003815481106116e757fe5b9060005260206000200160009055600760003373ffffffffffffffffffffffffffffffffffffffff1673ffffffffffffffffffffffffffffffffffffffff1681526020019081526020016000208054809190600190036117479190612fb1565b5060008590505b60018251038110156118195760086000898152602001908152602001600020600182018154811061177b57fe5b9060005260206000200160009054906101000a900473ffffffffffffffffffffffffffffffffffffffff16600860008a815260200190815260200160002082815481106117c457fe5b9060005260206000200160006101000a81548173ffffffffffffffffffffffffffffffffffffffff021916908373ffffffffffffffffffffffffffffffffffffffff160217905550808060010191505061174e565b50600860008881526020019081526020016000206001600860008a815260200190815260200160002080549050038154811061185157fe5b9060005260206000200160006101000a81549073ffffffffffffffffffffffffffffffffffffffff0219169055600860008881526020019081526020016000208054809190600190036118a49190612fdd565b505b50505050505050565b600b602052806000526040600020600091509050806000015490806001018054600181600116156101000203166002900480601f0160208091040260200160405190810160405280929190818152602001828054600181600116156101000203166002900480156119615780601f1061193657610100808354040283529160200191611961565b820191906000526020600020905b81548152906001019060200180831161194457829003601f168201915b505050505090806002015490806003018054600181600116156101000203166002900480601f016020809104026020016040519081016040528092919081815260200182805460018160011615610100020316600290048015611a055780601f106119da57610100808354040283529160200191611a05565b820191906000526020600020905b8154815290600101906020018083116119e857829003601f168201915b505050505090806004018054600181600116156101000203166002900480601f016020809104026020016040519081016040528092919081815260200182805460018160011615610100020316600290048015611aa35780601f10611a7857610100808354040283529160200191611aa3565b820191906000526020600020905b815481529060010190602001808311611a8657829003601f168201915b505050505090806005018054600181600116156101000203166002900480601f016020809104026020016040519081016040528092919081815260200182805460018160011615610100020316600290048015611b415780601f10611b1657610100808354040283529160200191611b41565b820191906000526020600020905b815481529060010190602001808311611b2457829003601f168201915b5050505050908060060154908060070160009054906101000a900473ffffffffffffffffffffffffffffffffffffffff16908060080160009054906101000a900473ffffffffffffffffffffffffffffffffffffffff16908060080160149054906101000a900460ff1690508a565b60606004805480602002602001604051908101604052809291908181526020016000905b82821015611de457838290600052602060002090600702016040518061010001604052908160008201548152602001600182018054600181600116156101000203166002900480601f016020809104026020016040519081016040528092919081815260200182805460018160011615610100020316600290048015611c9b5780601f10611c7057610100808354040283529160200191611c9b565b820191906000526020600020905b815481529060010190602001808311611c7e57829003601f168201915b50505050508152602001600282018054600181600116156101000203166002900480601f016020809104026020016040519081016040528092919081815260200182805460018160011615610100020316600290048015611d3d5780601f10611d1257610100808354040283529160200191611d3d565b820191906000526020600020905b815481529060010190602001808311611d2057829003601f168201915b505050505081526020016003820160009054906101000a900473ffffffffffffffffffffffffffffffffffffffff1673ffffffffffffffffffffffffffffffffffffffff1673ffffffffffffffffffffffffffffffffffffffff1681526020016003820160149054906101000a900460ff16151515158152602001600482015481526020016005820154815260200160068201548152505081526020019060010190611bd4565b50505050905090565b6060600c60003373ffffffffffffffffffffffffffffffffffffffff1673ffffffffffffffffffffffffffffffffffffffff168152602001908152602001600020805480602002602001604051908101604052809291908181526020018280548015611e7857602002820191906000526020600020905b815481526020019060010190808311611e64575b5050505050905090565b600080905060008090505b6001600c60003373ffffffffffffffffffffffffffffffffffffffff1673ffffffffffffffffffffffffffffffffffffffff1681526020019081526020016000208054905003811015611fff5782600c60003373ffffffffffffffffffffffffffffffffffffffff1673ffffffffffffffffffffffffffffffffffffffff1681526020019081526020016000208281548110611f2557fe5b90600052602060002001541415611f3b57600191505b8115611ff257600c60003373ffffffffffffffffffffffffffffffffffffffff1673ffffffffffffffffffffffffffffffffffffffff1681526020019081526020016000206001820181548110611f8e57fe5b9060005260206000200154600c60003373ffffffffffffffffffffffffffffffffffffffff1673ffffffffffffffffffffffffffffffffffffffff1681526020019081526020016000208281548110611fe357fe5b90600052602060002001819055505b8080600101915050611e8d565b50600c60003373ffffffffffffffffffffffffffffffffffffffff1673ffffffffffffffffffffffffffffffffffffffff1681526020019081526020016000206001600c60003373ffffffffffffffffffffffffffffffffffffffff1673ffffffffffffffffffffffffffffffffffffffff16815260200190815260200160002080549050038154811061208f57fe5b9060005260206000200160009055600c60003373ffffffffffffffffffffffffffffffffffffffff1673ffffffffffffffffffffffffffffffffffffffff1681526020019081526020016000208054809190600190036120ef9190612fb1565b50600b600083815260200190815260200160002060008082016000905560018201600061211c9190613009565b60028201600090556003820160006121349190613009565b6004820160006121449190613009565b6005820160006121549190613009565b60068201600090556007820160006101000a81549073ffffffffffffffffffffffffffffffffffffffff02191690556008820160006101000a81549073ffffffffffffffffffffffffffffffffffffffff02191690556008820160146101000a81549060ff021916905550505050565b60011515600483815481106121d557fe5b906000526020600020906007020160030160149054906101000a900460ff16151514801561226d57506004828154811061220b57fe5b90600052602060002090600702016005015460405160200161222d91906139e6565b60405160208183030381529060405280519060200120816040516020016122549190613a01565b6040516020818303038152906040528051906020012014155b156122775761246f565b60006004838154811061228657fe5b9060005260206000209060070201600401549050806008600085815260200190815260200160002080549050106122bd575061246f565b6060600760003373ffffffffffffffffffffffffffffffffffffffff1673ffffffffffffffffffffffffffffffffffffffff16815260200190815260200160002080548060200260200160405190810160405280929190818152602001828054801561234857602002820191906000526020600020905b815481526020019060010190808311612334575b5050505050905060005b815181101561238b5781818151811061236757fe5b602002602001015185141561237e5750505061246f565b8080600101915050612352565b50600760003373ffffffffffffffffffffffffffffffffffffffff1673ffffffffffffffffffffffffffffffffffffffff168152602001908152602001600020849080600181540180825580915050906001820390600052602060002001600090919290919091505550600860008581526020019081526020016000203390806001815401808255809150509060018203906000526020600020016000909192909190916101000a81548173ffffffffffffffffffffffffffffffffffffffff021916908373ffffffffffffffffffffffffffffffffffffffff1602179055505050505b5050565b3373ffffffffffffffffffffffffffffffffffffffff166005600083815260200190815260200160002060009054906101000a900473ffffffffffffffffffffffffffffffffffffffff1673ffffffffffffffffffffffffffffffffffffffff16146124de57600080fd5b60048054905081106124ef576127df565b60008190505b60016004805490500381101561265a576004600182018154811061251557fe5b90600052602060002090600702016004828154811061253057fe5b9060005260206000209060070201600082015481600001556001820181600101908054600181600116156101000203166002900461256f929190613051565b5060028201816002019080546001816001161561010002031660029004612597929190613051565b506003820160009054906101000a900473ffffffffffffffffffffffffffffffffffffffff168160030160006101000a81548173ffffffffffffffffffffffffffffffffffffffff021916908373ffffffffffffffffffffffffffffffffffffffff1602179055506003820160149054906101000a900460ff168160030160146101000a81548160ff02191690831515021790555060048201548160040155600582015481600501556006820154816006015590505080806001019150506124f5565b5060046001600480549050038154811061267057fe5b90600052602060002090600702016000808201600090556001820160006126979190613009565b6002820160006126a79190613009565b6003820160006101000a81549073ffffffffffffffffffffffffffffffffffffffff02191690556003820160146101000a81549060ff02191690556004820160009055600582016000905560068201600090555050600480548091906001900361271191906130d8565b506005600082815260200190815260200160002060006101000a81549073ffffffffffffffffffffffffffffffffffffffff021916905561279b6001600660003373ffffffffffffffffffffffffffffffffffffffff1673ffffffffffffffffffffffffffffffffffffffff16815260200190815260200160002054612e9a90919063ffffffff16565b600660003373ffffffffffffffffffffffffffffffffffffffff1673ffffffffffffffffffffffffffffffffffffffff168152602001908152602001600020819055505b50565b600481815481106127ef57fe5b9060005260206000209060070201600091509050806000015490806001018054600181600116156101000203166002900480601f0160208091040260200160405190810160405280929190818152602001828054600181600116156101000203166002900480156128a15780601f10612876576101008083540402835291602001916128a1565b820191906000526020600020905b81548152906001019060200180831161288457829003601f168201915b505050505090806002018054600181600116156101000203166002900480601f01602080910402602001604051908101604052809291908181526020018280546001816001161561010002031660029004801561293f5780601f106129145761010080835404028352916020019161293f565b820191906000526020600020905b81548152906001019060200180831161292257829003601f168201915b5050505050908060030160009054906101000a900473ffffffffffffffffffffffffffffffffffffffff16908060030160149054906101000a900460ff16908060040154908060050154908060060154905088565b60008551116129a257600080fd5b60008351116129b057600080fd5b60008251116129be57600080fd5b60008151116129cc57600080fd5b600073ffffffffffffffffffffffffffffffffffffffff163373ffffffffffffffffffffffffffffffffffffffff161415612a0657600080fd5b60008411612a1357600080fd5b60405180610100016040528060015481526020018681526020018581526020018481526020018381526020018281526020014281526020013373ffffffffffffffffffffffffffffffffffffffff16815250600260006001548152602001908152602001600020600082015181600001556020820151816001019080519060200190612aa0929190612f31565b50604082015181600201556060820151816003019080519060200190612ac7929190612f31565b506080820151816004019080519060200190612ae4929190612f31565b5060a0820151816005019080519060200190612b01929190612f31565b5060c0820151816006015560e08201518160070160006101000a81548173ffffffffffffffffffffffffffffffffffffffff021916908373ffffffffffffffffffffffffffffffffffffffff1602179055509050506001600081548092919060010191905055507f6e95bbaa37a5fdec42a312e049dea2fe6160ebe659214d3409b4f91f164c2f5260015486868686864233604051612ba7989796959493929190613a99565b60405180910390a15050505050565b6002602052806000526040600020600091509050806000015490806001018054600181600116156101000203166002900480601f016020809104026020016040519081016040528092919081815260200182805460018160011615610100020316600290048015612c685780601f10612c3d57610100808354040283529160200191612c68565b820191906000526020600020905b815481529060010190602001808311612c4b57829003601f168201915b505050505090806002015490806003018054600181600116156101000203166002900480601f016020809104026020016040519081016040528092919081815260200182805460018160011615610100020316600290048015612d0c5780601f10612ce157610100808354040283529160200191612d0c565b820191906000526020600020905b815481529060010190602001808311612cef57829003601f168201915b505050505090806004018054600181600116156101000203166002900480601f016020809104026020016040519081016040528092919081815260200182805460018160011615610100020316600290048015612daa5780601f10612d7f57610100808354040283529160200191612daa565b820191906000526020600020905b815481529060010190602001808311612d8d57829003601f168201915b505050505090806005018054600181600116156101000203166002900480601f016020809104026020016040519081016040528092919081815260200182805460018160011615610100020316600290048015612e485780601f10612e1d57610100808354040283529160200191612e48565b820191906000526020600020905b815481529060010190602001808311612e2b57829003601f168201915b5050505050908060060154908060070160009054906101000a900473ffffffffffffffffffffffffffffffffffffffff16905088565b600080828401905083811015612e9057fe5b8091505092915050565b600082821115612ea657fe5b818303905092915050565b828054600181600116156101000203166002900490600052602060002090601f016020900481019282601f10612ef257805160ff1916838001178555612f20565b82800160010185558215612f20579182015b82811115612f1f578251825591602001919060010190612f04565b5b509050612f2d919061310a565b5090565b828054600181600116156101000203166002900490600052602060002090601f016020900481019282601f10612f7257805160ff1916838001178555612fa0565b82800160010185558215612fa0579182015b82811115612f9f578251825591602001919060010190612f84565b5b509050612fad919061310a565b5090565b815481835581811115612fd857818360005260206000209182019101612fd7919061310a565b5b505050565b81548183558181111561300457818360005260206000209182019101613003919061310a565b5b505050565b50805460018160011615610100020316600290046000825580601f1061302f575061304e565b601f01602090049060005260206000209081019061304d919061310a565b5b50565b828054600181600116156101000203166002900490600052602060002090601f016020900481019282601f1061308a57805485556130c7565b828001600101855582156130c757600052602060002091601f016020900482015b828111156130c65782548255916001019190600101906130ab565b5b5090506130d4919061310a565b5090565b81548183558181111561310557600702816007028360005260206000209182019101613104919061312f565b5b505050565b61312c91905b80821115613128576000816000905550600101613110565b5090565b90565b6131c691905b808211156131c2576000808201600090556001820160006131569190613009565b6002820160006131669190613009565b6003820160006101000a81549073ffffffffffffffffffffffffffffffffffffffff02191690556003820160146101000a81549060ff021916905560048201600090556005820160009055600682016000905550600701613135565b5090565b90565b6000813590506131d881613f98565b92915050565b6000813590506131ed81613faf565b92915050565b600082601f83011261320457600080fd5b813561321761321282613df6565b613dc9565b9150808252602083016020830185838301111561323357600080fd5b61323e838284613f3b565b50505092915050565b60008135905061325681613fc6565b92915050565b6000806040838503121561326f57600080fd5b600061327d858286016131c9565b925050602061328e85828601613247565b9150509250929050565b600080600080600060a086880312156132b057600080fd5b600086013567ffffffffffffffff8111156132ca57600080fd5b6132d6888289016131f3565b955050602086013567ffffffffffffffff8111156132f357600080fd5b6132ff888289016131f3565b9450506040613310888289016131de565b935050606061332188828901613247565b925050608086013567ffffffffffffffff81111561333e57600080fd5b61334a888289016131f3565b9150509295509295909350565b600080600080600060a0868803121561336f57600080fd5b600086013567ffffffffffffffff81111561338957600080fd5b613395888289016131f3565b95505060206133a688828901613247565b945050604086013567ffffffffffffffff8111156133c357600080fd5b6133cf888289016131f3565b935050606086013567ffffffffffffffff8111156133ec57600080fd5b6133f8888289016131f3565b925050608086013567ffffffffffffffff81111561341557600080fd5b613421888289016131f3565b9150509295509295909350565b600080600080600080600060e0888a03121561344957600080fd5b600088013567ffffffffffffffff81111561346357600080fd5b61346f8a828b016131f3565b97505060206134808a828b01613247565b965050604088013567ffffffffffffffff81111561349d57600080fd5b6134a98a828b016131f3565b955050606088013567ffffffffffffffff8111156134c657600080fd5b6134d28a828b016131f3565b945050608088013567ffffffffffffffff8111156134ef57600080fd5b6134fb8a828b016131f3565b93505060a061350c8a828b016131c9565b92505060c061351d8a828b016131de565b91505092959891949750929550565b60006020828403121561353e57600080fd5b600061354c84828501613247565b91505092915050565b6000806040838503121561356857600080fd5b600061357685828601613247565b9250506020613587858286016131c9565b9150509250929050565b600080604083850312156135a457600080fd5b60006135b285828601613247565b925050602083013567ffffffffffffffff8111156135cf57600080fd5b6135db858286016131f3565b9150509250929050565b60008060008060008060c087890312156135fe57600080fd5b600061360c89828a01613247565b965050602087013567ffffffffffffffff81111561362957600080fd5b61363589828a016131f3565b955050604087013567ffffffffffffffff81111561365257600080fd5b61365e89828a016131f3565b945050606061366f89828a016131de565b935050608061368089828a01613247565b92505060a087013567ffffffffffffffff81111561369d57600080fd5b6136a989828a016131f3565b9150509295509295509295565b60006136c28383613911565b905092915050565b60006136d683836139c8565b60208301905092915050565b6136eb81613ee9565b82525050565b6136fa81613ed7565b82525050565b61370981613ed7565b82525050565b600061371a82613e42565b6137248185613e88565b93508360208202850161373685613e22565b8060005b85811015613772578484038952815161375385826136b6565b945061375e83613e6e565b925060208a0199505060018101905061373a565b50829750879550505050505092915050565b600061378f82613e4d565b6137998185613e99565b93506137a483613e32565b8060005b838110156137d55781516137bc88826136ca565b97506137c783613e7b565b9250506001810190506137a8565b5085935050505092915050565b6137eb81613efb565b82525050565b6137fa81613efb565b82525050565b61380981613f07565b82525050565b61381881613f07565b82525050565b61382f61382a82613f07565b613f7d565b82525050565b600061384082613e63565b61384a8185613ebb565b935061385a818560208601613f4a565b61386381613f87565b840191505092915050565b600061387982613e63565b6138838185613ecc565b9350613893818560208601613f4a565b80840191505092915050565b60006138aa82613e58565b6138b48185613eaa565b93506138c4818560208601613f4a565b6138cd81613f87565b840191505092915050565b60006138e382613e58565b6138ed8185613ebb565b93506138fd818560208601613f4a565b61390681613f87565b840191505092915050565b60006101008301600083015161392a60008601826139c8565b5060208301518482036020860152613942828261389f565b9150506040830151848203604086015261395c828261389f565b915050606083015161397160608601826136f1565b50608083015161398460808601826137e2565b5060a083015161399760a08601826139c8565b5060c08301516139aa60c0860182613800565b5060e08301516139bd60e08601826139c8565b508091505092915050565b6139d181613f31565b82525050565b6139e081613f31565b82525050565b60006139f2828461381e565b60208201915081905092915050565b6000613a0d828461386e565b915081905092915050565b60006020820190508181036000830152613a32818461370f565b905092915050565b60006020820190508181036000830152613a548184613784565b905092915050565b60006020820190508181036000830152613a7681846138d8565b905092915050565b6000602082019050613a9360008301846139d7565b92915050565b600061010082019050613aaf600083018b6139d7565b8181036020830152613ac1818a613835565b9050613ad060408301896139d7565b8181036060830152613ae28188613835565b90508181036080830152613af68187613835565b905081810360a0830152613b0a8186613835565b9050613b1960c08301856139d7565b613b2660e08301846136e2565b9998505050505050505050565b600061014082019050613b49600083018d6139d7565b8181036020830152613b5b818c613835565b9050613b6a604083018b6139d7565b8181036060830152613b7c818a613835565b90508181036080830152613b908189613835565b905081810360a0830152613ba48188613835565b9050613bb360c08301876139d7565b613bc060e08301866136e2565b613bce610100830185613700565b613bdc6101208301846137f1565b9b9a5050505050505050505050565b600061010082019050613c01600083018b6139d7565b8181036020830152613c13818a6138d8565b90508181036040830152613c2781896138d8565b9050613c366060830188613700565b613c4360808301876137f1565b613c5060a08301866139d7565b613c5d60c083018561380f565b613c6a60e08301846139d7565b9998505050505050505050565b600061010082019050613c8d600083018b6139d7565b8181036020830152613c9f818a6138d8565b9050613cae60408301896139d7565b8181036060830152613cc081886138d8565b90508181036080830152613cd481876138d8565b905081810360a0830152613ce881866138d8565b9050613cf760c08301856139d7565b613d0460e08301846136e2565b9998505050505050505050565b600061014082019050613d27600083018d6139d7565b8181036020830152613d39818c6138d8565b9050613d48604083018b6139d7565b8181036060830152613d5a818a6138d8565b90508181036080830152613d6e81896138d8565b905081810360a0830152613d8281886138d8565b9050613d9160c08301876139d7565b613d9e60e08301866136e2565b613dac610100830185613700565b613dba6101208301846137f1565b9b9a5050505050505050505050565b6000604051905081810181811067ffffffffffffffff82111715613dec57600080fd5b8060405250919050565b600067ffffffffffffffff821115613e0d57600080fd5b601f19601f8301169050602081019050919050565b6000819050602082019050919050565b6000819050602082019050919050565b600081519050919050565b600081519050919050565b600081519050919050565b600081519050919050565b6000602082019050919050565b6000602082019050919050565b600082825260208201905092915050565b600082825260208201905092915050565b600082825260208201905092915050565b600082825260208201905092915050565b600081905092915050565b6000613ee282613f11565b9050919050565b6000613ef482613f11565b9050919050565b60008115159050919050565b6000819050919050565b600073ffffffffffffffffffffffffffffffffffffffff82169050919050565b6000819050919050565b82818337600083830152505050565b60005b83811015613f68578082015181840152602081019050613f4d565b83811115613f77576000848401525b50505050565b6000819050919050565b6000601f19601f8301169050919050565b613fa181613ed7565b8114613fac57600080fd5b50565b613fb881613efb565b8114613fc357600080fd5b50565b613fcf81613f31565b8114613fda57600080fd5b5056fea365627a7a723158207c87413779fcf26c54ee1e789f7477fce6bbe5e787a218b7bef380d494c491bb6c6578706572696d656e74616cf564736f6c63430005100040",
  "source": "// SPDX-License-Identifier: UNLICENSED\npragma solidity ^0.5.0;\npragma experimental ABIEncoderV2;\n\nimport \"./DCStorage.sol\";\nimport \"./safemath.sol\";\nimport \"./Organization.sol\";\nimport \"./Membership.sol\";\n\ncontract Direct is Membership{\n\n  string public name = \"Crypto Box Direct\";\n  uint public directFileCount = 0;\n\n  mapping(uint => DirectFile) public directfiles;\n\n  mapping(address => uint[]) public addressToFileIds;\n  \n  struct DirectFile{\n    uint fileId;\n    string fileHash;\n    uint fileSize;\n    string fileType;\n    string fileName;\n    string fileDescription;\n    uint uploadTime;\n    address payable uploader;\n    address reciever;\n    bool isOneTimeLink;\n  }\n\n  event DirectFileUploaded(\n    uint fileId,\n    string fileHash,\n    uint fileSize,\n    string fileType,\n    string fileName,\n    string fileDescription,\n    uint uploadTime,\n    address payable uploader,\n    address reciever,\n    bool isOneTimeLink\n  );\n\n  constructor() public {\n  }\n\n  function uploadDirectFile(string memory _fileHash, uint _fileSize, string memory _fileType, string memory _fileName, string memory _fileDescription, address _reciever, bool _isOneTimeLink) public {\n    require(bytes(_fileHash).length > 0);\n    require(bytes(_fileType).length > 0);\n    require(bytes(_fileName).length > 0);\n    require(bytes(_fileDescription).length > 0);\n    require(msg.sender != address(0));\n    require(_fileSize > 0);\n    require(_reciever == address(_reciever));\n    directfiles[directFileCount] = DirectFile(directFileCount, _fileHash, _fileSize, _fileType, _fileName, _fileDescription, now, msg.sender, _reciever, _isOneTimeLink);\n    addressToFileIds[_reciever].push(directFileCount);\n    directFileCount++;\n    emit DirectFileUploaded(directFileCount, _fileHash, _fileSize, _fileType, _fileName, _fileDescription, now, msg.sender, _reciever, _isOneTimeLink);\n  }\n\n  function currentUserFileIds() external view returns(uint [] memory) {\n    return addressToFileIds[msg.sender];\n  }\n\n  function fileDelete(uint id) public {\n    bool startDelete = false;\n    for(uint i = 0; i < addressToFileIds[msg.sender].length - 1; i++){\n        if(addressToFileIds[msg.sender][i] == id){\n            startDelete = true;\n        }\n        if(startDelete){\n            addressToFileIds[msg.sender][i] = addressToFileIds[msg.sender][i + 1];\n        }\n    }\n    delete addressToFileIds[msg.sender][addressToFileIds[msg.sender].length - 1];\n    addressToFileIds[msg.sender].length--;\n    delete directfiles[id];\n  }\n  \n}\n\n\n",
  "sourcePath": "/Users/csuftitan/Desktop/Meet Turakhia/Advanced Blockchain (CPSC 559)/Projects/Final Project(4 Dec 2022)/src/contracts/Direct.sol",
  "compiler": {
    "name": "solc",
    "version": "0.5.16+commit.9c3226ce.Emscripten.clang"
  },
  "schemaVersion": "3.4.9",
  "updatedAt": "2022-12-05T02:14:25.411Z",
  "devdoc": {
    "methods": {}
  },
  "userdoc": {
    "methods": {}
  }
}