{
  "contractName": "Membership",
  "abi": [
    {
      "anonymous": false,
      "inputs": [
        {
          "indexed": false,
          "internalType": "uint256",
          "name": "fileId",
          "type": "uint256"
        },
        {
          "indexed": false,
          "internalType": "string",
          "name": "fileHash",
          "type": "string"
        },
        {
          "indexed": false,
          "internalType": "uint256",
          "name": "fileSize",
          "type": "uint256"
        },
        {
          "indexed": false,
          "internalType": "string",
          "name": "fileType",
          "type": "string"
        },
        {
          "indexed": false,
          "internalType": "string",
          "name": "fileName",
          "type": "string"
        },
        {
          "indexed": false,
          "internalType": "string",
          "name": "fileDescription",
          "type": "string"
        },
        {
          "indexed": false,
          "internalType": "uint256",
          "name": "uploadTime",
          "type": "uint256"
        },
        {
          "indexed": false,
          "internalType": "address payable",
          "name": "uploader",
          "type": "address"
        }
      ],
      "name": "FileUploaded",
      "type": "event"
    },
    {
      "constant": false,
      "inputs": [
        {
          "internalType": "string",
          "name": "name",
          "type": "string"
        },
        {
          "internalType": "string",
          "name": "description",
          "type": "string"
        },
        {
          "internalType": "bool",
          "name": "privateBool",
          "type": "bool"
        },
        {
          "internalType": "uint256",
          "name": "memberLimit",
          "type": "uint256"
        },
        {
          "internalType": "string",
          "name": "passcode",
          "type": "string"
        }
      ],
      "name": "createOrganization",
      "outputs": [],
      "payable": false,
      "stateMutability": "nonpayable",
      "type": "function"
    },
    {
      "constant": false,
      "inputs": [
        {
          "internalType": "uint256",
          "name": "id",
          "type": "uint256"
        }
      ],
      "name": "deleteOrganization",
      "outputs": [],
      "payable": false,
      "stateMutability": "nonpayable",
      "type": "function"
    },
    {
      "constant": false,
      "inputs": [
        {
          "internalType": "uint256",
          "name": "id",
          "type": "uint256"
        },
        {
          "internalType": "string",
          "name": "name",
          "type": "string"
        },
        {
          "internalType": "string",
          "name": "description",
          "type": "string"
        },
        {
          "internalType": "bool",
          "name": "privateBool",
          "type": "bool"
        },
        {
          "internalType": "uint256",
          "name": "memberLimit",
          "type": "uint256"
        },
        {
          "internalType": "string",
          "name": "passcode",
          "type": "string"
        }
      ],
      "name": "editOrganization",
      "outputs": [],
      "payable": false,
      "stateMutability": "nonpayable",
      "type": "function"
    },
    {
      "constant": true,
      "inputs": [],
      "name": "fileCount",
      "outputs": [
        {
          "internalType": "uint256",
          "name": "",
          "type": "uint256"
        }
      ],
      "payable": false,
      "stateMutability": "view",
      "type": "function"
    },
    {
      "constant": true,
      "inputs": [
        {
          "internalType": "uint256",
          "name": "",
          "type": "uint256"
        }
      ],
      "name": "files",
      "outputs": [
        {
          "internalType": "uint256",
          "name": "fileId",
          "type": "uint256"
        },
        {
          "internalType": "string",
          "name": "fileHash",
          "type": "string"
        },
        {
          "internalType": "uint256",
          "name": "fileSize",
          "type": "uint256"
        },
        {
          "internalType": "string",
          "name": "fileType",
          "type": "string"
        },
        {
          "internalType": "string",
          "name": "fileName",
          "type": "string"
        },
        {
          "internalType": "string",
          "name": "fileDescription",
          "type": "string"
        },
        {
          "internalType": "uint256",
          "name": "uploadTime",
          "type": "uint256"
        },
        {
          "internalType": "address payable",
          "name": "uploader",
          "type": "address"
        }
      ],
      "payable": false,
      "stateMutability": "view",
      "type": "function"
    },
    {
      "constant": true,
      "inputs": [],
      "name": "getMemberships",
      "outputs": [
        {
          "internalType": "uint256[]",
          "name": "",
          "type": "uint256[]"
        }
      ],
      "payable": false,
      "stateMutability": "view",
      "type": "function"
    },
    {
      "constant": true,
      "inputs": [],
      "name": "getOrganizations",
      "outputs": [
        {
          "components": [
            {
              "internalType": "uint256",
              "name": "Id",
              "type": "uint256"
            },
            {
              "internalType": "string",
              "name": "Name",
              "type": "string"
            },
            {
              "internalType": "string",
              "name": "Description",
              "type": "string"
            },
            {
              "internalType": "address",
              "name": "Owner",
              "type": "address"
            },
            {
              "internalType": "bool",
              "name": "Private",
              "type": "bool"
            },
            {
              "internalType": "uint256",
              "name": "MemberLimit",
              "type": "uint256"
            },
            {
              "internalType": "string",
              "name": "Passcode",
              "type": "string"
            },
            {
              "internalType": "uint256",
              "name": "createdAt",
              "type": "uint256"
            }
          ],
          "internalType": "struct BuildOrganization.Organization[]",
          "name": "",
          "type": "tuple[]"
        }
      ],
      "payable": false,
      "stateMutability": "view",
      "type": "function"
    },
    {
      "constant": true,
      "inputs": [],
      "name": "name",
      "outputs": [
        {
          "internalType": "string",
          "name": "",
          "type": "string"
        }
      ],
      "payable": false,
      "stateMutability": "view",
      "type": "function"
    },
    {
      "constant": true,
      "inputs": [
        {
          "internalType": "uint256",
          "name": "",
          "type": "uint256"
        }
      ],
      "name": "organizations",
      "outputs": [
        {
          "internalType": "uint256",
          "name": "Id",
          "type": "uint256"
        },
        {
          "internalType": "string",
          "name": "Name",
          "type": "string"
        },
        {
          "internalType": "string",
          "name": "Description",
          "type": "string"
        },
        {
          "internalType": "address",
          "name": "Owner",
          "type": "address"
        },
        {
          "internalType": "bool",
          "name": "Private",
          "type": "bool"
        },
        {
          "internalType": "uint256",
          "name": "MemberLimit",
          "type": "uint256"
        },
        {
          "internalType": "string",
          "name": "Passcode",
          "type": "string"
        },
        {
          "internalType": "uint256",
          "name": "createdAt",
          "type": "uint256"
        }
      ],
      "payable": false,
      "stateMutability": "view",
      "type": "function"
    },
    {
      "constant": false,
      "inputs": [
        {
          "internalType": "string",
          "name": "_fileHash",
          "type": "string"
        },
        {
          "internalType": "uint256",
          "name": "_fileSize",
          "type": "uint256"
        },
        {
          "internalType": "string",
          "name": "_fileType",
          "type": "string"
        },
        {
          "internalType": "string",
          "name": "_fileName",
          "type": "string"
        },
        {
          "internalType": "string",
          "name": "_fileDescription",
          "type": "string"
        }
      ],
      "name": "uploadFile",
      "outputs": [],
      "payable": false,
      "stateMutability": "nonpayable",
      "type": "function"
    },
    {
      "constant": false,
      "inputs": [
        {
          "internalType": "uint256",
          "name": "id",
          "type": "uint256"
        }
      ],
      "name": "joinOrganization",
      "outputs": [],
      "payable": false,
      "stateMutability": "nonpayable",
      "type": "function"
    },
    {
      "constant": false,
      "inputs": [
        {
          "internalType": "uint256",
          "name": "id",
          "type": "uint256"
        }
      ],
      "name": "exitOrganization",
      "outputs": [],
      "payable": false,
      "stateMutability": "nonpayable",
      "type": "function"
    }
  ],
  "bytecode": "0x60806040526040518060400160405280600981526020017f444353746f726167650000000000000000000000000000000000000000000000815250600090805190602001906200005192919062000062565b506000600155600060035562000111565b828054600181600116156101000203166002900490600052602060002090601f016020900481019282601f10620000a557805160ff1916838001178555620000d6565b82800160010185558215620000d6579182015b82811115620000d5578251825591602001919060010190620000b8565b5b509050620000e59190620000e9565b5090565b6200010e91905b808211156200010a576000816000905550600101620000f0565b5090565b90565b612a2f80620001216000396000f3fe608060405234801561001057600080fd5b50600436106100b45760003560e01c806392515b281161007157806392515b28146101675780639754a3a814610183578063dc1301af146101a1578063e792dd8a146101bd578063e82d9d33146101f4578063f4c714b414610210576100b4565b806306fdde03146100b95780630e20f01b146100d757806329ab4bf3146100f3578063439535191461010f578063481c10931461012d5780637840c6a414610149575b600080fd5b6100c1610247565b6040516100ce919061260a565b60405180910390f35b6100f160048036036100ec91908101906121fb565b6102e5565b005b61010d60048036036101089190810190612224565b610498565b005b6101176105fd565b604051610124919061262c565b60405180910390f35b61014760048036036101429190810190612065565b610603565b005b61015161094a565b60405161015e91906125e8565b60405180910390f35b610181600480360361017c91908101906121fb565b6109df565b005b61018b610ef6565b60405161019891906125c6565b60405180910390f35b6101bb60048036036101b691908101906121fb565b6111cb565b005b6101d760048036036101d291908101906121fb565b611560565b6040516101eb9897969594939291906126e1565b60405180910390f35b61020e60048036036102099190810190612124565b6117aa565b005b61022a600480360361022591908101906121fb565b6119cc565b60405161023e989796959493929190612774565b60405180910390f35b60008054600181600116156101000203166002900480601f0160208091040260200160405190810160405280929190818152602001828054600181600116156101000203166002900480156102dd5780601f106102b2576101008083540402835291602001916102dd565b820191906000526020600020905b8154815290600101906020018083116102c057829003601f168201915b505050505081565b6060600760003373ffffffffffffffffffffffffffffffffffffffff1673ffffffffffffffffffffffffffffffffffffffff16815260200190815260200160002080548060200260200160405190810160405280929190818152602001828054801561037057602002820191906000526020600020905b81548152602001906001019080831161035c575b5050505050905060005b81518110156103b25781818151811061038f57fe5b60200260200101518314156103a5575050610495565b808060010191505061037a565b50600760003373ffffffffffffffffffffffffffffffffffffffff1673ffffffffffffffffffffffffffffffffffffffff168152602001908152602001600020829080600181540180825580915050906001820390600052602060002001600090919290919091505550600860008381526020019081526020016000203390806001815401808255809150509060018203906000526020600020016000909192909190916101000a81548173ffffffffffffffffffffffffffffffffffffffff021916908373ffffffffffffffffffffffffffffffffffffffff16021790555050505b50565b3373ffffffffffffffffffffffffffffffffffffffff166005600088815260200190815260200160002060009054906101000a900473ffffffffffffffffffffffffffffffffffffffff1673ffffffffffffffffffffffffffffffffffffffff161461050357600080fd5b846004878154811061051157fe5b90600052602060002090600702016001019080519060200190610535929190611cc7565b50836004878154811061054457fe5b90600052602060002090600702016002019080519060200190610568929190611cc7565b50826004878154811061057757fe5b906000526020600020906007020160030160146101000a81548160ff02191690831515021790555081600487815481106105ad57fe5b90600052602060002090600702016004018190555080600487815481106105d057fe5b906000526020600020906007020160050190805190602001906105f4929190611cc7565b50505050505050565b60015481565b6000600354905060046040518061010001604052808381526020018881526020018781526020013373ffffffffffffffffffffffffffffffffffffffff168152602001861515815260200185815260200184815260200142815250908060018154018082558091505090600182039060005260206000209060070201600090919290919091506000820151816000015560208201518160010190805190602001906106af929190611d47565b5060408201518160020190805190602001906106cc929190611d47565b5060608201518160030160006101000a81548173ffffffffffffffffffffffffffffffffffffffff021916908373ffffffffffffffffffffffffffffffffffffffff16021790555060808201518160030160146101000a81548160ff02191690831515021790555060a0820151816004015560c082015181600501908051906020019061075a929190611d47565b5060e08201518160060155505050336005600083815260200190815260200160002060006101000a81548173ffffffffffffffffffffffffffffffffffffffff021916908373ffffffffffffffffffffffffffffffffffffffff16021790555061080d6001600660003373ffffffffffffffffffffffffffffffffffffffff1673ffffffffffffffffffffffffffffffffffffffff16815260200190815260200160002054611c9490919063ffffffff16565b600660003373ffffffffffffffffffffffffffffffffffffffff1673ffffffffffffffffffffffffffffffffffffffff16815260200190815260200160002081905550600760003373ffffffffffffffffffffffffffffffffffffffff1673ffffffffffffffffffffffffffffffffffffffff168152602001908152602001600020819080600181540180825580915050906001820390600052602060002001600090919290919091505550600860008281526020019081526020016000203390806001815401808255809150509060018203906000526020600020016000909192909190916101000a81548173ffffffffffffffffffffffffffffffffffffffff021916908373ffffffffffffffffffffffffffffffffffffffff16021790555050600360008154809291906001019190505550505050505050565b6060600760003373ffffffffffffffffffffffffffffffffffffffff1673ffffffffffffffffffffffffffffffffffffffff1681526020019081526020016000208054806020026020016040519081016040528092919081815260200182805480156109d557602002820191906000526020600020905b8154815260200190600101908083116109c1575b5050505050905090565b600080600080905060008090506060600760003373ffffffffffffffffffffffffffffffffffffffff1673ffffffffffffffffffffffffffffffffffffffff168152602001908152602001600020805480602002602001604051908101604052809291908181526020018280548015610a7757602002820191906000526020600020905b815481526020019060010190808311610a63575b50505050509050606060086000888152602001908152602001600020805480602002602001604051908101604052809291908181526020018280548015610b1357602002820191906000526020600020905b8160009054906101000a900473ffffffffffffffffffffffffffffffffffffffff1673ffffffffffffffffffffffffffffffffffffffff1681526020019060010190808311610ac9575b5050505050905060005b8251811015610b5657828181518110610b3257fe5b6020026020010151881415610b4957809650600194505b8080600101915050610b1d565b5060005b8151811015610bbf57818181518110610b6f57fe5b602002602001015173ffffffffffffffffffffffffffffffffffffffff163373ffffffffffffffffffffffffffffffffffffffff161415610bb257809550600193505b8080600101915050610b5a565b50838015610bca5750825b15610eed5760008690505b6001835103811015610c9e57600760003373ffffffffffffffffffffffffffffffffffffffff1673ffffffffffffffffffffffffffffffffffffffff1681526020019081526020016000206001820181548110610c2e57fe5b9060005260206000200154600760003373ffffffffffffffffffffffffffffffffffffffff1673ffffffffffffffffffffffffffffffffffffffff1681526020019081526020016000208281548110610c8357fe5b90600052602060002001819055508080600101915050610bd5565b50600760003373ffffffffffffffffffffffffffffffffffffffff1673ffffffffffffffffffffffffffffffffffffffff1681526020019081526020016000206001600760003373ffffffffffffffffffffffffffffffffffffffff1673ffffffffffffffffffffffffffffffffffffffff168152602001908152602001600020805490500381548110610d2e57fe5b9060005260206000200160009055600760003373ffffffffffffffffffffffffffffffffffffffff1673ffffffffffffffffffffffffffffffffffffffff168152602001908152602001600020805480919060019003610d8e9190611dc7565b5060008590505b6001825103811015610e6057600860008981526020019081526020016000206001820181548110610dc257fe5b9060005260206000200160009054906101000a900473ffffffffffffffffffffffffffffffffffffffff16600860008a81526020019081526020016000208281548110610e0b57fe5b9060005260206000200160006101000a81548173ffffffffffffffffffffffffffffffffffffffff021916908373ffffffffffffffffffffffffffffffffffffffff1602179055508080600101915050610d95565b50600860008881526020019081526020016000206001600860008a8152602001908152602001600020805490500381548110610e9857fe5b9060005260206000200160006101000a81549073ffffffffffffffffffffffffffffffffffffffff021916905560086000888152602001908152602001600020805480919060019003610eeb9190611df3565b505b50505050505050565b60606004805480602002602001604051908101604052809291908181526020016000905b828210156111c257838290600052602060002090600702016040518061010001604052908160008201548152602001600182018054600181600116156101000203166002900480601f016020809104026020016040519081016040528092919081815260200182805460018160011615610100020316600290048015610fe15780601f10610fb657610100808354040283529160200191610fe1565b820191906000526020600020905b815481529060010190602001808311610fc457829003601f168201915b50505050508152602001600282018054600181600116156101000203166002900480601f0160208091040260200160405190810160405280929190818152602001828054600181600116156101000203166002900480156110835780601f1061105857610100808354040283529160200191611083565b820191906000526020600020905b81548152906001019060200180831161106657829003601f168201915b505050505081526020016003820160009054906101000a900473ffffffffffffffffffffffffffffffffffffffff1673ffffffffffffffffffffffffffffffffffffffff1673ffffffffffffffffffffffffffffffffffffffff1681526020016003820160149054906101000a900460ff1615151515815260200160048201548152602001600582018054600181600116156101000203166002900480601f0160208091040260200160405190810160405280929190818152602001828054600181600116156101000203166002900480156111a05780601f10611175576101008083540402835291602001916111a0565b820191906000526020600020905b81548152906001019060200180831161118357829003601f168201915b5050505050815260200160068201548152505081526020019060010190610f1a565b50505050905090565b3373ffffffffffffffffffffffffffffffffffffffff166005600083815260200190815260200160002060009054906101000a900473ffffffffffffffffffffffffffffffffffffffff1673ffffffffffffffffffffffffffffffffffffffff161461123657600080fd5b60048054905081106112475761155d565b60008190505b6001600480549050038110156113d0576004600182018154811061126d57fe5b90600052602060002090600702016004828154811061128857fe5b906000526020600020906007020160008201548160000155600182018160010190805460018160011615610100020316600290046112c7929190611e1f565b50600282018160020190805460018160011615610100020316600290046112ef929190611e1f565b506003820160009054906101000a900473ffffffffffffffffffffffffffffffffffffffff168160030160006101000a81548173ffffffffffffffffffffffffffffffffffffffff021916908373ffffffffffffffffffffffffffffffffffffffff1602179055506003820160149054906101000a900460ff168160030160146101000a81548160ff02191690831515021790555060048201548160040155600582018160050190805460018160011615610100020316600290046113b5929190611e1f565b5060068201548160060155905050808060010191505061124d565b506004600160048054905003815481106113e657fe5b906000526020600020906007020160008082016000905560018201600061140d9190611ea6565b60028201600061141d9190611ea6565b6003820160006101000a81549073ffffffffffffffffffffffffffffffffffffffff02191690556003820160146101000a81549060ff021916905560048201600090556005820160006114709190611ea6565b60068201600090555050600480548091906001900361148f9190611eee565b506005600082815260200190815260200160002060006101000a81549073ffffffffffffffffffffffffffffffffffffffff02191690556115196001600660003373ffffffffffffffffffffffffffffffffffffffff1673ffffffffffffffffffffffffffffffffffffffff16815260200190815260200160002054611cb090919063ffffffff16565b600660003373ffffffffffffffffffffffffffffffffffffffff1673ffffffffffffffffffffffffffffffffffffffff168152602001908152602001600020819055505b50565b6004818154811061156d57fe5b9060005260206000209060070201600091509050806000015490806001018054600181600116156101000203166002900480601f01602080910402602001604051908101604052809291908181526020018280546001816001161561010002031660029004801561161f5780601f106115f45761010080835404028352916020019161161f565b820191906000526020600020905b81548152906001019060200180831161160257829003601f168201915b505050505090806002018054600181600116156101000203166002900480601f0160208091040260200160405190810160405280929190818152602001828054600181600116156101000203166002900480156116bd5780601f10611692576101008083540402835291602001916116bd565b820191906000526020600020905b8154815290600101906020018083116116a057829003601f168201915b5050505050908060030160009054906101000a900473ffffffffffffffffffffffffffffffffffffffff16908060030160149054906101000a900460ff1690806004015490806005018054600181600116156101000203166002900480601f01602080910402602001604051908101604052809291908181526020018280546001816001161561010002031660029004801561179a5780601f1061176f5761010080835404028352916020019161179a565b820191906000526020600020905b81548152906001019060200180831161177d57829003601f168201915b5050505050908060060154905088565b60008551116117b857600080fd5b60008351116117c657600080fd5b60008251116117d457600080fd5b60008151116117e257600080fd5b600073ffffffffffffffffffffffffffffffffffffffff163373ffffffffffffffffffffffffffffffffffffffff16141561181c57600080fd5b6000841161182957600080fd5b60405180610100016040528060015481526020018681526020018581526020018481526020018381526020018281526020014281526020013373ffffffffffffffffffffffffffffffffffffffff168152506002600060015481526020019081526020016000206000820151816000015560208201518160010190805190602001906118b6929190611d47565b506040820151816002015560608201518160030190805190602001906118dd929190611d47565b5060808201518160040190805190602001906118fa929190611d47565b5060a0820151816005019080519060200190611917929190611d47565b5060c0820151816006015560e08201518160070160006101000a81548173ffffffffffffffffffffffffffffffffffffffff021916908373ffffffffffffffffffffffffffffffffffffffff1602179055509050506001600081548092919060010191905055507f6e95bbaa37a5fdec42a312e049dea2fe6160ebe659214d3409b4f91f164c2f52600154868686868642336040516119bd989796959493929190612647565b60405180910390a15050505050565b6002602052806000526040600020600091509050806000015490806001018054600181600116156101000203166002900480601f016020809104026020016040519081016040528092919081815260200182805460018160011615610100020316600290048015611a7e5780601f10611a5357610100808354040283529160200191611a7e565b820191906000526020600020905b815481529060010190602001808311611a6157829003601f168201915b505050505090806002015490806003018054600181600116156101000203166002900480601f016020809104026020016040519081016040528092919081815260200182805460018160011615610100020316600290048015611b225780601f10611af757610100808354040283529160200191611b22565b820191906000526020600020905b815481529060010190602001808311611b0557829003601f168201915b505050505090806004018054600181600116156101000203166002900480601f016020809104026020016040519081016040528092919081815260200182805460018160011615610100020316600290048015611bc05780601f10611b9557610100808354040283529160200191611bc0565b820191906000526020600020905b815481529060010190602001808311611ba357829003601f168201915b505050505090806005018054600181600116156101000203166002900480601f016020809104026020016040519081016040528092919081815260200182805460018160011615610100020316600290048015611c5e5780601f10611c3357610100808354040283529160200191611c5e565b820191906000526020600020905b815481529060010190602001808311611c4157829003601f168201915b5050505050908060060154908060070160009054906101000a900473ffffffffffffffffffffffffffffffffffffffff16905088565b600080828401905083811015611ca657fe5b8091505092915050565b600082821115611cbc57fe5b818303905092915050565b828054600181600116156101000203166002900490600052602060002090601f016020900481019282601f10611d0857805160ff1916838001178555611d36565b82800160010185558215611d36579182015b82811115611d35578251825591602001919060010190611d1a565b5b509050611d439190611f20565b5090565b828054600181600116156101000203166002900490600052602060002090601f016020900481019282601f10611d8857805160ff1916838001178555611db6565b82800160010185558215611db6579182015b82811115611db5578251825591602001919060010190611d9a565b5b509050611dc39190611f20565b5090565b815481835581811115611dee57818360005260206000209182019101611ded9190611f20565b5b505050565b815481835581811115611e1a57818360005260206000209182019101611e199190611f20565b5b505050565b828054600181600116156101000203166002900490600052602060002090601f016020900481019282601f10611e585780548555611e95565b82800160010185558215611e9557600052602060002091601f016020900482015b82811115611e94578254825591600101919060010190611e79565b5b509050611ea29190611f20565b5090565b50805460018160011615610100020316600290046000825580601f10611ecc5750611eeb565b601f016020900490600052602060002090810190611eea9190611f20565b5b50565b815481835581811115611f1b57600702816007028360005260206000209182019101611f1a9190611f45565b5b505050565b611f4291905b80821115611f3e576000816000905550600101611f26565b5090565b90565b611fe491905b80821115611fe057600080820160009055600182016000611f6c9190611ea6565b600282016000611f7c9190611ea6565b6003820160006101000a81549073ffffffffffffffffffffffffffffffffffffffff02191690556003820160146101000a81549060ff02191690556004820160009055600582016000611fcf9190611ea6565b600682016000905550600701611f4b565b5090565b90565b600081359050611ff6816129be565b92915050565b600082601f83011261200d57600080fd5b813561202061201b8261283b565b61280e565b9150808252602083016020830185838301111561203c57600080fd5b61204783828461296b565b50505092915050565b60008135905061205f816129d5565b92915050565b600080600080600060a0868803121561207d57600080fd5b600086013567ffffffffffffffff81111561209757600080fd5b6120a388828901611ffc565b955050602086013567ffffffffffffffff8111156120c057600080fd5b6120cc88828901611ffc565b94505060406120dd88828901611fe7565b93505060606120ee88828901612050565b925050608086013567ffffffffffffffff81111561210b57600080fd5b61211788828901611ffc565b9150509295509295909350565b600080600080600060a0868803121561213c57600080fd5b600086013567ffffffffffffffff81111561215657600080fd5b61216288828901611ffc565b955050602061217388828901612050565b945050604086013567ffffffffffffffff81111561219057600080fd5b61219c88828901611ffc565b935050606086013567ffffffffffffffff8111156121b957600080fd5b6121c588828901611ffc565b925050608086013567ffffffffffffffff8111156121e257600080fd5b6121ee88828901611ffc565b9150509295509295909350565b60006020828403121561220d57600080fd5b600061221b84828501612050565b91505092915050565b60008060008060008060c0878903121561223d57600080fd5b600061224b89828a01612050565b965050602087013567ffffffffffffffff81111561226857600080fd5b61227489828a01611ffc565b955050604087013567ffffffffffffffff81111561229157600080fd5b61229d89828a01611ffc565b94505060606122ae89828a01611fe7565b93505060806122bf89828a01612050565b92505060a087013567ffffffffffffffff8111156122dc57600080fd5b6122e889828a01611ffc565b9150509295509295509295565b600061230183836124ea565b905092915050565b600061231583836125a8565b60208301905092915050565b61232a81612923565b82525050565b61233981612911565b82525050565b61234881612911565b82525050565b600061235982612887565b61236381856128cd565b93508360208202850161237585612867565b8060005b858110156123b1578484038952815161239285826122f5565b945061239d836128b3565b925060208a01995050600181019050612379565b50829750879550505050505092915050565b60006123ce82612892565b6123d881856128de565b93506123e383612877565b8060005b838110156124145781516123fb8882612309565b9750612406836128c0565b9250506001810190506123e7565b5085935050505092915050565b61242a81612935565b82525050565b61243981612935565b82525050565b600061244a826128a8565b6124548185612900565b935061246481856020860161297a565b61246d816129ad565b840191505092915050565b60006124838261289d565b61248d81856128ef565b935061249d81856020860161297a565b6124a6816129ad565b840191505092915050565b60006124bc8261289d565b6124c68185612900565b93506124d681856020860161297a565b6124df816129ad565b840191505092915050565b60006101008301600083015161250360008601826125a8565b506020830151848203602086015261251b8282612478565b915050604083015184820360408601526125358282612478565b915050606083015161254a6060860182612330565b50608083015161255d6080860182612421565b5060a083015161257060a08601826125a8565b5060c083015184820360c08601526125888282612478565b91505060e083015161259d60e08601826125a8565b508091505092915050565b6125b181612961565b82525050565b6125c081612961565b82525050565b600060208201905081810360008301526125e0818461234e565b905092915050565b6000602082019050818103600083015261260281846123c3565b905092915050565b6000602082019050818103600083015261262481846124b1565b905092915050565b600060208201905061264160008301846125b7565b92915050565b60006101008201905061265d600083018b6125b7565b818103602083015261266f818a61243f565b905061267e60408301896125b7565b8181036060830152612690818861243f565b905081810360808301526126a4818761243f565b905081810360a08301526126b8818661243f565b90506126c760c08301856125b7565b6126d460e0830184612321565b9998505050505050505050565b6000610100820190506126f7600083018b6125b7565b8181036020830152612709818a6124b1565b9050818103604083015261271d81896124b1565b905061272c606083018861233f565b6127396080830187612430565b61274660a08301866125b7565b81810360c083015261275881856124b1565b905061276760e08301846125b7565b9998505050505050505050565b60006101008201905061278a600083018b6125b7565b818103602083015261279c818a6124b1565b90506127ab60408301896125b7565b81810360608301526127bd81886124b1565b905081810360808301526127d181876124b1565b905081810360a08301526127e581866124b1565b90506127f460c08301856125b7565b61280160e0830184612321565b9998505050505050505050565b6000604051905081810181811067ffffffffffffffff8211171561283157600080fd5b8060405250919050565b600067ffffffffffffffff82111561285257600080fd5b601f19601f8301169050602081019050919050565b6000819050602082019050919050565b6000819050602082019050919050565b600081519050919050565b600081519050919050565b600081519050919050565b600081519050919050565b6000602082019050919050565b6000602082019050919050565b600082825260208201905092915050565b600082825260208201905092915050565b600082825260208201905092915050565b600082825260208201905092915050565b600061291c82612941565b9050919050565b600061292e82612941565b9050919050565b60008115159050919050565b600073ffffffffffffffffffffffffffffffffffffffff82169050919050565b6000819050919050565b82818337600083830152505050565b60005b8381101561299857808201518184015260208101905061297d565b838111156129a7576000848401525b50505050565b6000601f19601f8301169050919050565b6129c781612935565b81146129d257600080fd5b50565b6129de81612961565b81146129e957600080fd5b5056fea365627a7a72315820112d9d3e01cff88e6e9fa22cea5399f218383806f4085b8a503c10b6d37e9d876c6578706572696d656e74616cf564736f6c63430005100040",
  "source": "// SPDX-License-Identifier: UNLICENSED\npragma solidity ^0.5.0;\npragma experimental ABIEncoderV2;\n\nimport \"./DCStorage.sol\";\nimport \"./safemath.sol\";\nimport \"./Organization.sol\";\n\ncontract Membership is BuildOrganization{\n\n    function joinOrganization(uint id) public {\n        uint[] memory orgIds = addressToOrganizations[msg.sender];\n        for(uint i; i < orgIds.length; i++){\n            if(id == orgIds[i]){\n                return;\n            }\n        }\n        addressToOrganizations[msg.sender].push(id);\n        organizationToAddresses[id].push(msg.sender);\n    }\n\n    function exitOrganization(uint id) public {\n        uint orgIndex;\n        uint memberIndex;\n        bool isMember = false;\n        bool isMemberConfirm = false;\n        uint[] memory orgIds = addressToOrganizations[msg.sender];\n        address[] memory memberAddresses = organizationToAddresses[id];\n        for(uint i; i < orgIds.length; i++){\n            if(id == orgIds[i]){\n                orgIndex = i;\n                isMember = true;\n            }\n        }\n        for(uint i; i < memberAddresses.length; i++){\n            if(msg.sender == memberAddresses[i]){\n                memberIndex = i;\n                isMemberConfirm = true;\n            }\n        }\n        if(isMember && isMemberConfirm){\n            for(uint i = orgIndex; i < orgIds.length - 1; i++){\n                addressToOrganizations[msg.sender][i] = addressToOrganizations[msg.sender][i+1];\n            }\n            delete addressToOrganizations[msg.sender][addressToOrganizations[msg.sender].length - 1];\n            addressToOrganizations[msg.sender].length--;\n            for(uint i = memberIndex; i < memberAddresses.length - 1; i++){\n                organizationToAddresses[id][i] = organizationToAddresses[id][i+1]; \n            }\n            delete organizationToAddresses[id][organizationToAddresses[id].length - 1];\n            organizationToAddresses[id].length--;\n        }\n    }\n\n}\n\n\n\n\n",
  "sourcePath": "/Users/csuftitan/Desktop/Meet Turakhia/Advanced Blockchain (CPSC 559)/Projects/Final Project(4 Dec 2022)/src/contracts/Membership.sol",
  "compiler": {
    "name": "solc",
    "version": "0.5.16+commit.9c3226ce.Emscripten.clang"
  },
  "schemaVersion": "3.4.9",
  "updatedAt": "2022-12-04T04:45:18.682Z",
  "networkType": "ethereum",
  "devdoc": {
    "methods": {}
  },
  "userdoc": {
    "methods": {}
  }
}