{
  "contractName": "Membership",
  "abi": [
    {
      "anonymous": false,
      "inputs": [
        {
          "indexed": false,
          "internalType": "uint256",
          "name": "fileId",
          "type": "uint256"
        },
        {
          "indexed": false,
          "internalType": "string",
          "name": "fileHash",
          "type": "string"
        },
        {
          "indexed": false,
          "internalType": "uint256",
          "name": "fileSize",
          "type": "uint256"
        },
        {
          "indexed": false,
          "internalType": "string",
          "name": "fileType",
          "type": "string"
        },
        {
          "indexed": false,
          "internalType": "string",
          "name": "fileName",
          "type": "string"
        },
        {
          "indexed": false,
          "internalType": "string",
          "name": "fileDescription",
          "type": "string"
        },
        {
          "indexed": false,
          "internalType": "uint256",
          "name": "uploadTime",
          "type": "uint256"
        },
        {
          "indexed": false,
          "internalType": "address payable",
          "name": "uploader",
          "type": "address"
        }
      ],
      "name": "FileUploaded",
      "type": "event"
    },
    {
      "constant": false,
      "inputs": [
        {
          "internalType": "string",
          "name": "name",
          "type": "string"
        },
        {
          "internalType": "string",
          "name": "description",
          "type": "string"
        },
        {
          "internalType": "bool",
          "name": "privateBool",
          "type": "bool"
        },
        {
          "internalType": "uint256",
          "name": "memberLimit",
          "type": "uint256"
        },
        {
          "internalType": "string",
          "name": "passcode",
          "type": "string"
        }
      ],
      "name": "createOrganization",
      "outputs": [],
      "payable": false,
      "stateMutability": "nonpayable",
      "type": "function"
    },
    {
      "constant": false,
      "inputs": [
        {
          "internalType": "uint256",
          "name": "id",
          "type": "uint256"
        }
      ],
      "name": "deleteOrganization",
      "outputs": [],
      "payable": false,
      "stateMutability": "nonpayable",
      "type": "function"
    },
    {
      "constant": false,
      "inputs": [
        {
          "internalType": "uint256",
          "name": "id",
          "type": "uint256"
        },
        {
          "internalType": "string",
          "name": "name",
          "type": "string"
        },
        {
          "internalType": "string",
          "name": "description",
          "type": "string"
        },
        {
          "internalType": "bool",
          "name": "privateBool",
          "type": "bool"
        },
        {
          "internalType": "uint256",
          "name": "memberLimit",
          "type": "uint256"
        },
        {
          "internalType": "string",
          "name": "passcode",
          "type": "string"
        }
      ],
      "name": "editOrganization",
      "outputs": [],
      "payable": false,
      "stateMutability": "nonpayable",
      "type": "function"
    },
    {
      "constant": true,
      "inputs": [],
      "name": "fileCount",
      "outputs": [
        {
          "internalType": "uint256",
          "name": "",
          "type": "uint256"
        }
      ],
      "payable": false,
      "stateMutability": "view",
      "type": "function"
    },
    {
      "constant": true,
      "inputs": [
        {
          "internalType": "uint256",
          "name": "",
          "type": "uint256"
        }
      ],
      "name": "files",
      "outputs": [
        {
          "internalType": "uint256",
          "name": "fileId",
          "type": "uint256"
        },
        {
          "internalType": "string",
          "name": "fileHash",
          "type": "string"
        },
        {
          "internalType": "uint256",
          "name": "fileSize",
          "type": "uint256"
        },
        {
          "internalType": "string",
          "name": "fileType",
          "type": "string"
        },
        {
          "internalType": "string",
          "name": "fileName",
          "type": "string"
        },
        {
          "internalType": "string",
          "name": "fileDescription",
          "type": "string"
        },
        {
          "internalType": "uint256",
          "name": "uploadTime",
          "type": "uint256"
        },
        {
          "internalType": "address payable",
          "name": "uploader",
          "type": "address"
        }
      ],
      "payable": false,
      "stateMutability": "view",
      "type": "function"
    },
    {
      "constant": true,
      "inputs": [],
      "name": "getMemberships",
      "outputs": [
        {
          "internalType": "uint256[]",
          "name": "",
          "type": "uint256[]"
        }
      ],
      "payable": false,
      "stateMutability": "view",
      "type": "function"
    },
    {
      "constant": true,
      "inputs": [],
      "name": "getOrganizations",
      "outputs": [
        {
          "components": [
            {
              "internalType": "uint256",
              "name": "Id",
              "type": "uint256"
            },
            {
              "internalType": "string",
              "name": "Name",
              "type": "string"
            },
            {
              "internalType": "string",
              "name": "Description",
              "type": "string"
            },
            {
              "internalType": "address",
              "name": "Owner",
              "type": "address"
            },
            {
              "internalType": "bool",
              "name": "Private",
              "type": "bool"
            },
            {
              "internalType": "uint256",
              "name": "MemberLimit",
              "type": "uint256"
            },
            {
              "internalType": "string",
              "name": "Passcode",
              "type": "string"
            },
            {
              "internalType": "uint256",
              "name": "createdAt",
              "type": "uint256"
            }
          ],
          "internalType": "struct BuildOrganization.Organization[]",
          "name": "",
          "type": "tuple[]"
        }
      ],
      "payable": false,
      "stateMutability": "view",
      "type": "function"
    },
    {
      "constant": true,
      "inputs": [],
      "name": "name",
      "outputs": [
        {
          "internalType": "string",
          "name": "",
          "type": "string"
        }
      ],
      "payable": false,
      "stateMutability": "view",
      "type": "function"
    },
    {
      "constant": true,
      "inputs": [
        {
          "internalType": "uint256",
          "name": "",
          "type": "uint256"
        }
      ],
      "name": "organizations",
      "outputs": [
        {
          "internalType": "uint256",
          "name": "Id",
          "type": "uint256"
        },
        {
          "internalType": "string",
          "name": "Name",
          "type": "string"
        },
        {
          "internalType": "string",
          "name": "Description",
          "type": "string"
        },
        {
          "internalType": "address",
          "name": "Owner",
          "type": "address"
        },
        {
          "internalType": "bool",
          "name": "Private",
          "type": "bool"
        },
        {
          "internalType": "uint256",
          "name": "MemberLimit",
          "type": "uint256"
        },
        {
          "internalType": "string",
          "name": "Passcode",
          "type": "string"
        },
        {
          "internalType": "uint256",
          "name": "createdAt",
          "type": "uint256"
        }
      ],
      "payable": false,
      "stateMutability": "view",
      "type": "function"
    },
    {
      "constant": false,
      "inputs": [
        {
          "internalType": "string",
          "name": "_fileHash",
          "type": "string"
        },
        {
          "internalType": "uint256",
          "name": "_fileSize",
          "type": "uint256"
        },
        {
          "internalType": "string",
          "name": "_fileType",
          "type": "string"
        },
        {
          "internalType": "string",
          "name": "_fileName",
          "type": "string"
        },
        {
          "internalType": "string",
          "name": "_fileDescription",
          "type": "string"
        }
      ],
      "name": "uploadFile",
      "outputs": [],
      "payable": false,
      "stateMutability": "nonpayable",
      "type": "function"
    },
    {
      "constant": false,
      "inputs": [
        {
          "internalType": "uint256",
          "name": "id",
          "type": "uint256"
        }
      ],
      "name": "joinOrganization",
      "outputs": [],
      "payable": false,
      "stateMutability": "nonpayable",
      "type": "function"
    },
    {
      "constant": false,
      "inputs": [
        {
          "internalType": "uint256",
          "name": "id",
          "type": "uint256"
        }
      ],
      "name": "exitOrganization",
      "outputs": [],
      "payable": false,
      "stateMutability": "nonpayable",
      "type": "function"
    }
  ],
  "bytecode": "0x60806040526040518060400160405280600981526020017f444353746f726167650000000000000000000000000000000000000000000000815250600090805190602001906200005192919062000062565b506000600155600060035562000111565b828054600181600116156101000203166002900490600052602060002090601f016020900481019282601f10620000a557805160ff1916838001178555620000d6565b82800160010185558215620000d6579182015b82811115620000d5578251825591602001919060010190620000b8565b5b509050620000e59190620000e9565b5090565b6200010e91905b808211156200010a576000816000905550600101620000f0565b5090565b90565b612a7780620001216000396000f3fe608060405234801561001057600080fd5b50600436106100b45760003560e01c806392515b281161007157806392515b28146101675780639754a3a814610183578063dc1301af146101a1578063e792dd8a146101bd578063e82d9d33146101f4578063f4c714b414610210576100b4565b806306fdde03146100b95780630e20f01b146100d757806329ab4bf3146100f3578063439535191461010f578063481c10931461012d5780637840c6a414610149575b600080fd5b6100c1610247565b6040516100ce9190612652565b60405180910390f35b6100f160048036036100ec9190810190612243565b6102e5565b005b61010d6004803603610108919081019061226c565b6104e0565b005b610117610645565b6040516101249190612674565b60405180910390f35b610147600480360361014291908101906120ad565b61064b565b005b610151610992565b60405161015e9190612630565b60405180910390f35b610181600480360361017c9190810190612243565b610a27565b005b61018b610f3e565b604051610198919061260e565b60405180910390f35b6101bb60048036036101b69190810190612243565b611213565b005b6101d760048036036101d29190810190612243565b6115a8565b6040516101eb989796959493929190612729565b60405180910390f35b61020e6004803603610209919081019061216c565b6117f2565b005b61022a60048036036102259190810190612243565b611a14565b60405161023e9897969594939291906127bc565b60405180910390f35b60008054600181600116156101000203166002900480601f0160208091040260200160405190810160405280929190818152602001828054600181600116156101000203166002900480156102dd5780601f106102b2576101008083540402835291602001916102dd565b820191906000526020600020905b8154815290600101906020018083116102c057829003601f168201915b505050505081565b6000600482815481106102f457fe5b90600052602060002090600702016004015490508060086000848152602001908152602001600020805490501061032b57506104dd565b6060600760003373ffffffffffffffffffffffffffffffffffffffff1673ffffffffffffffffffffffffffffffffffffffff1681526020019081526020016000208054806020026020016040519081016040528092919081815260200182805480156103b657602002820191906000526020600020905b8154815260200190600101908083116103a2575b5050505050905060005b81518110156103f9578181815181106103d557fe5b60200260200101518414156103ec575050506104dd565b80806001019150506103c0565b50600760003373ffffffffffffffffffffffffffffffffffffffff1673ffffffffffffffffffffffffffffffffffffffff168152602001908152602001600020839080600181540180825580915050906001820390600052602060002001600090919290919091505550600860008481526020019081526020016000203390806001815401808255809150509060018203906000526020600020016000909192909190916101000a81548173ffffffffffffffffffffffffffffffffffffffff021916908373ffffffffffffffffffffffffffffffffffffffff1602179055505050505b50565b3373ffffffffffffffffffffffffffffffffffffffff166005600088815260200190815260200160002060009054906101000a900473ffffffffffffffffffffffffffffffffffffffff1673ffffffffffffffffffffffffffffffffffffffff161461054b57600080fd5b846004878154811061055957fe5b9060005260206000209060070201600101908051906020019061057d929190611d0f565b50836004878154811061058c57fe5b906000526020600020906007020160020190805190602001906105b0929190611d0f565b5082600487815481106105bf57fe5b906000526020600020906007020160030160146101000a81548160ff02191690831515021790555081600487815481106105f557fe5b906000526020600020906007020160040181905550806004878154811061061857fe5b9060005260206000209060070201600501908051906020019061063c929190611d0f565b50505050505050565b60015481565b6000600354905060046040518061010001604052808381526020018881526020018781526020013373ffffffffffffffffffffffffffffffffffffffff168152602001861515815260200185815260200184815260200142815250908060018154018082558091505090600182039060005260206000209060070201600090919290919091506000820151816000015560208201518160010190805190602001906106f7929190611d8f565b506040820151816002019080519060200190610714929190611d8f565b5060608201518160030160006101000a81548173ffffffffffffffffffffffffffffffffffffffff021916908373ffffffffffffffffffffffffffffffffffffffff16021790555060808201518160030160146101000a81548160ff02191690831515021790555060a0820151816004015560c08201518160050190805190602001906107a2929190611d8f565b5060e08201518160060155505050336005600083815260200190815260200160002060006101000a81548173ffffffffffffffffffffffffffffffffffffffff021916908373ffffffffffffffffffffffffffffffffffffffff1602179055506108556001600660003373ffffffffffffffffffffffffffffffffffffffff1673ffffffffffffffffffffffffffffffffffffffff16815260200190815260200160002054611cdc90919063ffffffff16565b600660003373ffffffffffffffffffffffffffffffffffffffff1673ffffffffffffffffffffffffffffffffffffffff16815260200190815260200160002081905550600760003373ffffffffffffffffffffffffffffffffffffffff1673ffffffffffffffffffffffffffffffffffffffff168152602001908152602001600020819080600181540180825580915050906001820390600052602060002001600090919290919091505550600860008281526020019081526020016000203390806001815401808255809150509060018203906000526020600020016000909192909190916101000a81548173ffffffffffffffffffffffffffffffffffffffff021916908373ffffffffffffffffffffffffffffffffffffffff16021790555050600360008154809291906001019190505550505050505050565b6060600760003373ffffffffffffffffffffffffffffffffffffffff1673ffffffffffffffffffffffffffffffffffffffff168152602001908152602001600020805480602002602001604051908101604052809291908181526020018280548015610a1d57602002820191906000526020600020905b815481526020019060010190808311610a09575b5050505050905090565b600080600080905060008090506060600760003373ffffffffffffffffffffffffffffffffffffffff1673ffffffffffffffffffffffffffffffffffffffff168152602001908152602001600020805480602002602001604051908101604052809291908181526020018280548015610abf57602002820191906000526020600020905b815481526020019060010190808311610aab575b50505050509050606060086000888152602001908152602001600020805480602002602001604051908101604052809291908181526020018280548015610b5b57602002820191906000526020600020905b8160009054906101000a900473ffffffffffffffffffffffffffffffffffffffff1673ffffffffffffffffffffffffffffffffffffffff1681526020019060010190808311610b11575b5050505050905060005b8251811015610b9e57828181518110610b7a57fe5b6020026020010151881415610b9157809650600194505b8080600101915050610b65565b5060005b8151811015610c0757818181518110610bb757fe5b602002602001015173ffffffffffffffffffffffffffffffffffffffff163373ffffffffffffffffffffffffffffffffffffffff161415610bfa57809550600193505b8080600101915050610ba2565b50838015610c125750825b15610f355760008690505b6001835103811015610ce657600760003373ffffffffffffffffffffffffffffffffffffffff1673ffffffffffffffffffffffffffffffffffffffff1681526020019081526020016000206001820181548110610c7657fe5b9060005260206000200154600760003373ffffffffffffffffffffffffffffffffffffffff1673ffffffffffffffffffffffffffffffffffffffff1681526020019081526020016000208281548110610ccb57fe5b90600052602060002001819055508080600101915050610c1d565b50600760003373ffffffffffffffffffffffffffffffffffffffff1673ffffffffffffffffffffffffffffffffffffffff1681526020019081526020016000206001600760003373ffffffffffffffffffffffffffffffffffffffff1673ffffffffffffffffffffffffffffffffffffffff168152602001908152602001600020805490500381548110610d7657fe5b9060005260206000200160009055600760003373ffffffffffffffffffffffffffffffffffffffff1673ffffffffffffffffffffffffffffffffffffffff168152602001908152602001600020805480919060019003610dd69190611e0f565b5060008590505b6001825103811015610ea857600860008981526020019081526020016000206001820181548110610e0a57fe5b9060005260206000200160009054906101000a900473ffffffffffffffffffffffffffffffffffffffff16600860008a81526020019081526020016000208281548110610e5357fe5b9060005260206000200160006101000a81548173ffffffffffffffffffffffffffffffffffffffff021916908373ffffffffffffffffffffffffffffffffffffffff1602179055508080600101915050610ddd565b50600860008881526020019081526020016000206001600860008a8152602001908152602001600020805490500381548110610ee057fe5b9060005260206000200160006101000a81549073ffffffffffffffffffffffffffffffffffffffff021916905560086000888152602001908152602001600020805480919060019003610f339190611e3b565b505b50505050505050565b60606004805480602002602001604051908101604052809291908181526020016000905b8282101561120a57838290600052602060002090600702016040518061010001604052908160008201548152602001600182018054600181600116156101000203166002900480601f0160208091040260200160405190810160405280929190818152602001828054600181600116156101000203166002900480156110295780601f10610ffe57610100808354040283529160200191611029565b820191906000526020600020905b81548152906001019060200180831161100c57829003601f168201915b50505050508152602001600282018054600181600116156101000203166002900480601f0160208091040260200160405190810160405280929190818152602001828054600181600116156101000203166002900480156110cb5780601f106110a0576101008083540402835291602001916110cb565b820191906000526020600020905b8154815290600101906020018083116110ae57829003601f168201915b505050505081526020016003820160009054906101000a900473ffffffffffffffffffffffffffffffffffffffff1673ffffffffffffffffffffffffffffffffffffffff1673ffffffffffffffffffffffffffffffffffffffff1681526020016003820160149054906101000a900460ff1615151515815260200160048201548152602001600582018054600181600116156101000203166002900480601f0160208091040260200160405190810160405280929190818152602001828054600181600116156101000203166002900480156111e85780601f106111bd576101008083540402835291602001916111e8565b820191906000526020600020905b8154815290600101906020018083116111cb57829003601f168201915b5050505050815260200160068201548152505081526020019060010190610f62565b50505050905090565b3373ffffffffffffffffffffffffffffffffffffffff166005600083815260200190815260200160002060009054906101000a900473ffffffffffffffffffffffffffffffffffffffff1673ffffffffffffffffffffffffffffffffffffffff161461127e57600080fd5b600480549050811061128f576115a5565b60008190505b60016004805490500381101561141857600460018201815481106112b557fe5b9060005260206000209060070201600482815481106112d057fe5b9060005260206000209060070201600082015481600001556001820181600101908054600181600116156101000203166002900461130f929190611e67565b5060028201816002019080546001816001161561010002031660029004611337929190611e67565b506003820160009054906101000a900473ffffffffffffffffffffffffffffffffffffffff168160030160006101000a81548173ffffffffffffffffffffffffffffffffffffffff021916908373ffffffffffffffffffffffffffffffffffffffff1602179055506003820160149054906101000a900460ff168160030160146101000a81548160ff02191690831515021790555060048201548160040155600582018160050190805460018160011615610100020316600290046113fd929190611e67565b50600682015481600601559050508080600101915050611295565b5060046001600480549050038154811061142e57fe5b90600052602060002090600702016000808201600090556001820160006114559190611eee565b6002820160006114659190611eee565b6003820160006101000a81549073ffffffffffffffffffffffffffffffffffffffff02191690556003820160146101000a81549060ff021916905560048201600090556005820160006114b89190611eee565b6006820160009055505060048054809190600190036114d79190611f36565b506005600082815260200190815260200160002060006101000a81549073ffffffffffffffffffffffffffffffffffffffff02191690556115616001600660003373ffffffffffffffffffffffffffffffffffffffff1673ffffffffffffffffffffffffffffffffffffffff16815260200190815260200160002054611cf890919063ffffffff16565b600660003373ffffffffffffffffffffffffffffffffffffffff1673ffffffffffffffffffffffffffffffffffffffff168152602001908152602001600020819055505b50565b600481815481106115b557fe5b9060005260206000209060070201600091509050806000015490806001018054600181600116156101000203166002900480601f0160208091040260200160405190810160405280929190818152602001828054600181600116156101000203166002900480156116675780601f1061163c57610100808354040283529160200191611667565b820191906000526020600020905b81548152906001019060200180831161164a57829003601f168201915b505050505090806002018054600181600116156101000203166002900480601f0160208091040260200160405190810160405280929190818152602001828054600181600116156101000203166002900480156117055780601f106116da57610100808354040283529160200191611705565b820191906000526020600020905b8154815290600101906020018083116116e857829003601f168201915b5050505050908060030160009054906101000a900473ffffffffffffffffffffffffffffffffffffffff16908060030160149054906101000a900460ff1690806004015490806005018054600181600116156101000203166002900480601f0160208091040260200160405190810160405280929190818152602001828054600181600116156101000203166002900480156117e25780601f106117b7576101008083540402835291602001916117e2565b820191906000526020600020905b8154815290600101906020018083116117c557829003601f168201915b5050505050908060060154905088565b600085511161180057600080fd5b600083511161180e57600080fd5b600082511161181c57600080fd5b600081511161182a57600080fd5b600073ffffffffffffffffffffffffffffffffffffffff163373ffffffffffffffffffffffffffffffffffffffff16141561186457600080fd5b6000841161187157600080fd5b60405180610100016040528060015481526020018681526020018581526020018481526020018381526020018281526020014281526020013373ffffffffffffffffffffffffffffffffffffffff168152506002600060015481526020019081526020016000206000820151816000015560208201518160010190805190602001906118fe929190611d8f565b50604082015181600201556060820151816003019080519060200190611925929190611d8f565b506080820151816004019080519060200190611942929190611d8f565b5060a082015181600501908051906020019061195f929190611d8f565b5060c0820151816006015560e08201518160070160006101000a81548173ffffffffffffffffffffffffffffffffffffffff021916908373ffffffffffffffffffffffffffffffffffffffff1602179055509050506001600081548092919060010191905055507f6e95bbaa37a5fdec42a312e049dea2fe6160ebe659214d3409b4f91f164c2f5260015486868686864233604051611a0598979695949392919061268f565b60405180910390a15050505050565b6002602052806000526040600020600091509050806000015490806001018054600181600116156101000203166002900480601f016020809104026020016040519081016040528092919081815260200182805460018160011615610100020316600290048015611ac65780601f10611a9b57610100808354040283529160200191611ac6565b820191906000526020600020905b815481529060010190602001808311611aa957829003601f168201915b505050505090806002015490806003018054600181600116156101000203166002900480601f016020809104026020016040519081016040528092919081815260200182805460018160011615610100020316600290048015611b6a5780601f10611b3f57610100808354040283529160200191611b6a565b820191906000526020600020905b815481529060010190602001808311611b4d57829003601f168201915b505050505090806004018054600181600116156101000203166002900480601f016020809104026020016040519081016040528092919081815260200182805460018160011615610100020316600290048015611c085780601f10611bdd57610100808354040283529160200191611c08565b820191906000526020600020905b815481529060010190602001808311611beb57829003601f168201915b505050505090806005018054600181600116156101000203166002900480601f016020809104026020016040519081016040528092919081815260200182805460018160011615610100020316600290048015611ca65780601f10611c7b57610100808354040283529160200191611ca6565b820191906000526020600020905b815481529060010190602001808311611c8957829003601f168201915b5050505050908060060154908060070160009054906101000a900473ffffffffffffffffffffffffffffffffffffffff16905088565b600080828401905083811015611cee57fe5b8091505092915050565b600082821115611d0457fe5b818303905092915050565b828054600181600116156101000203166002900490600052602060002090601f016020900481019282601f10611d5057805160ff1916838001178555611d7e565b82800160010185558215611d7e579182015b82811115611d7d578251825591602001919060010190611d62565b5b509050611d8b9190611f68565b5090565b828054600181600116156101000203166002900490600052602060002090601f016020900481019282601f10611dd057805160ff1916838001178555611dfe565b82800160010185558215611dfe579182015b82811115611dfd578251825591602001919060010190611de2565b5b509050611e0b9190611f68565b5090565b815481835581811115611e3657818360005260206000209182019101611e359190611f68565b5b505050565b815481835581811115611e6257818360005260206000209182019101611e619190611f68565b5b505050565b828054600181600116156101000203166002900490600052602060002090601f016020900481019282601f10611ea05780548555611edd565b82800160010185558215611edd57600052602060002091601f016020900482015b82811115611edc578254825591600101919060010190611ec1565b5b509050611eea9190611f68565b5090565b50805460018160011615610100020316600290046000825580601f10611f145750611f33565b601f016020900490600052602060002090810190611f329190611f68565b5b50565b815481835581811115611f6357600702816007028360005260206000209182019101611f629190611f8d565b5b505050565b611f8a91905b80821115611f86576000816000905550600101611f6e565b5090565b90565b61202c91905b8082111561202857600080820160009055600182016000611fb49190611eee565b600282016000611fc49190611eee565b6003820160006101000a81549073ffffffffffffffffffffffffffffffffffffffff02191690556003820160146101000a81549060ff021916905560048201600090556005820160006120179190611eee565b600682016000905550600701611f93565b5090565b90565b60008135905061203e81612a06565b92915050565b600082601f83011261205557600080fd5b813561206861206382612883565b612856565b9150808252602083016020830185838301111561208457600080fd5b61208f8382846129b3565b50505092915050565b6000813590506120a781612a1d565b92915050565b600080600080600060a086880312156120c557600080fd5b600086013567ffffffffffffffff8111156120df57600080fd5b6120eb88828901612044565b955050602086013567ffffffffffffffff81111561210857600080fd5b61211488828901612044565b94505060406121258882890161202f565b935050606061213688828901612098565b925050608086013567ffffffffffffffff81111561215357600080fd5b61215f88828901612044565b9150509295509295909350565b600080600080600060a0868803121561218457600080fd5b600086013567ffffffffffffffff81111561219e57600080fd5b6121aa88828901612044565b95505060206121bb88828901612098565b945050604086013567ffffffffffffffff8111156121d857600080fd5b6121e488828901612044565b935050606086013567ffffffffffffffff81111561220157600080fd5b61220d88828901612044565b925050608086013567ffffffffffffffff81111561222a57600080fd5b61223688828901612044565b9150509295509295909350565b60006020828403121561225557600080fd5b600061226384828501612098565b91505092915050565b60008060008060008060c0878903121561228557600080fd5b600061229389828a01612098565b965050602087013567ffffffffffffffff8111156122b057600080fd5b6122bc89828a01612044565b955050604087013567ffffffffffffffff8111156122d957600080fd5b6122e589828a01612044565b94505060606122f689828a0161202f565b935050608061230789828a01612098565b92505060a087013567ffffffffffffffff81111561232457600080fd5b61233089828a01612044565b9150509295509295509295565b60006123498383612532565b905092915050565b600061235d83836125f0565b60208301905092915050565b6123728161296b565b82525050565b61238181612959565b82525050565b61239081612959565b82525050565b60006123a1826128cf565b6123ab8185612915565b9350836020820285016123bd856128af565b8060005b858110156123f957848403895281516123da858261233d565b94506123e5836128fb565b925060208a019950506001810190506123c1565b50829750879550505050505092915050565b6000612416826128da565b6124208185612926565b935061242b836128bf565b8060005b8381101561245c5781516124438882612351565b975061244e83612908565b92505060018101905061242f565b5085935050505092915050565b6124728161297d565b82525050565b6124818161297d565b82525050565b6000612492826128f0565b61249c8185612948565b93506124ac8185602086016129c2565b6124b5816129f5565b840191505092915050565b60006124cb826128e5565b6124d58185612937565b93506124e58185602086016129c2565b6124ee816129f5565b840191505092915050565b6000612504826128e5565b61250e8185612948565b935061251e8185602086016129c2565b612527816129f5565b840191505092915050565b60006101008301600083015161254b60008601826125f0565b506020830151848203602086015261256382826124c0565b9150506040830151848203604086015261257d82826124c0565b91505060608301516125926060860182612378565b5060808301516125a56080860182612469565b5060a08301516125b860a08601826125f0565b5060c083015184820360c08601526125d082826124c0565b91505060e08301516125e560e08601826125f0565b508091505092915050565b6125f9816129a9565b82525050565b612608816129a9565b82525050565b600060208201905081810360008301526126288184612396565b905092915050565b6000602082019050818103600083015261264a818461240b565b905092915050565b6000602082019050818103600083015261266c81846124f9565b905092915050565b600060208201905061268960008301846125ff565b92915050565b6000610100820190506126a5600083018b6125ff565b81810360208301526126b7818a612487565b90506126c660408301896125ff565b81810360608301526126d88188612487565b905081810360808301526126ec8187612487565b905081810360a08301526127008186612487565b905061270f60c08301856125ff565b61271c60e0830184612369565b9998505050505050505050565b60006101008201905061273f600083018b6125ff565b8181036020830152612751818a6124f9565b9050818103604083015261276581896124f9565b90506127746060830188612387565b6127816080830187612478565b61278e60a08301866125ff565b81810360c08301526127a081856124f9565b90506127af60e08301846125ff565b9998505050505050505050565b6000610100820190506127d2600083018b6125ff565b81810360208301526127e4818a6124f9565b90506127f360408301896125ff565b818103606083015261280581886124f9565b9050818103608083015261281981876124f9565b905081810360a083015261282d81866124f9565b905061283c60c08301856125ff565b61284960e0830184612369565b9998505050505050505050565b6000604051905081810181811067ffffffffffffffff8211171561287957600080fd5b8060405250919050565b600067ffffffffffffffff82111561289a57600080fd5b601f19601f8301169050602081019050919050565b6000819050602082019050919050565b6000819050602082019050919050565b600081519050919050565b600081519050919050565b600081519050919050565b600081519050919050565b6000602082019050919050565b6000602082019050919050565b600082825260208201905092915050565b600082825260208201905092915050565b600082825260208201905092915050565b600082825260208201905092915050565b600061296482612989565b9050919050565b600061297682612989565b9050919050565b60008115159050919050565b600073ffffffffffffffffffffffffffffffffffffffff82169050919050565b6000819050919050565b82818337600083830152505050565b60005b838110156129e05780820151818401526020810190506129c5565b838111156129ef576000848401525b50505050565b6000601f19601f8301169050919050565b612a0f8161297d565b8114612a1a57600080fd5b50565b612a26816129a9565b8114612a3157600080fd5b5056fea365627a7a72315820559a6e0418c93a91d17200ae834ce1a002ae79e40e09d16ee9d56641ce480d156c6578706572696d656e74616cf564736f6c63430005100040",
  "source": "// SPDX-License-Identifier: UNLICENSED\npragma solidity ^0.5.0;\npragma experimental ABIEncoderV2;\n\nimport \"./DCStorage.sol\";\nimport \"./safemath.sol\";\nimport \"./Organization.sol\";\n\ncontract Membership is BuildOrganization{\n\n    function joinOrganization(uint id) public {\n        uint memberLimit = organizations[id].MemberLimit;\n        if(organizationToAddresses[id].length >= memberLimit){\n            return;\n        }\n\n        uint[] memory orgIds = addressToOrganizations[msg.sender];\n        for(uint i; i < orgIds.length; i++){\n            if(id == orgIds[i]){\n                return;\n            }\n        }\n        addressToOrganizations[msg.sender].push(id);\n        organizationToAddresses[id].push(msg.sender);\n    }\n\n    function exitOrganization(uint id) public {\n        uint orgIndex;\n        uint memberIndex;\n        bool isMember = false;\n        bool isMemberConfirm = false;\n        uint[] memory orgIds = addressToOrganizations[msg.sender];\n        address[] memory memberAddresses = organizationToAddresses[id];\n        for(uint i; i < orgIds.length; i++){\n            if(id == orgIds[i]){\n                orgIndex = i;\n                isMember = true;\n            }\n        }\n        for(uint i; i < memberAddresses.length; i++){\n            if(msg.sender == memberAddresses[i]){\n                memberIndex = i;\n                isMemberConfirm = true;\n            }\n        }\n        if(isMember && isMemberConfirm){\n            for(uint i = orgIndex; i < orgIds.length - 1; i++){\n                addressToOrganizations[msg.sender][i] = addressToOrganizations[msg.sender][i+1];\n            }\n            delete addressToOrganizations[msg.sender][addressToOrganizations[msg.sender].length - 1];\n            addressToOrganizations[msg.sender].length--;\n            for(uint i = memberIndex; i < memberAddresses.length - 1; i++){\n                organizationToAddresses[id][i] = organizationToAddresses[id][i+1]; \n            }\n            delete organizationToAddresses[id][organizationToAddresses[id].length - 1];\n            organizationToAddresses[id].length--;\n        }\n    }\n\n}\n\n\n\n\n",
  "sourcePath": "/Users/csuftitan/Desktop/Meet Turakhia/Advanced Blockchain (CPSC 559)/Projects/Final Project(4 Dec 2022)/src/contracts/Membership.sol",
  "compiler": {
    "name": "solc",
    "version": "0.5.16+commit.9c3226ce.Emscripten.clang"
  },
  "schemaVersion": "3.4.9",
  "updatedAt": "2022-12-04T07:21:37.823Z",
  "networkType": "ethereum",
  "devdoc": {
    "methods": {}
  },
  "userdoc": {
    "methods": {}
  }
}