{
  "contractName": "Membership",
  "abi": [
    {
      "anonymous": false,
      "inputs": [
        {
          "indexed": false,
          "internalType": "uint256",
          "name": "fileId",
          "type": "uint256"
        },
        {
          "indexed": false,
          "internalType": "string",
          "name": "fileHash",
          "type": "string"
        },
        {
          "indexed": false,
          "internalType": "uint256",
          "name": "fileSize",
          "type": "uint256"
        },
        {
          "indexed": false,
          "internalType": "string",
          "name": "fileType",
          "type": "string"
        },
        {
          "indexed": false,
          "internalType": "string",
          "name": "fileName",
          "type": "string"
        },
        {
          "indexed": false,
          "internalType": "string",
          "name": "fileDescription",
          "type": "string"
        },
        {
          "indexed": false,
          "internalType": "uint256",
          "name": "uploadTime",
          "type": "uint256"
        },
        {
          "indexed": false,
          "internalType": "address payable",
          "name": "uploader",
          "type": "address"
        }
      ],
      "name": "FileUploaded",
      "type": "event"
    },
    {
      "constant": false,
      "inputs": [
        {
          "internalType": "string",
          "name": "name",
          "type": "string"
        },
        {
          "internalType": "string",
          "name": "description",
          "type": "string"
        },
        {
          "internalType": "bool",
          "name": "privateBool",
          "type": "bool"
        },
        {
          "internalType": "uint256",
          "name": "memberLimit",
          "type": "uint256"
        },
        {
          "internalType": "string",
          "name": "passcode",
          "type": "string"
        }
      ],
      "name": "createOrganization",
      "outputs": [],
      "payable": false,
      "stateMutability": "nonpayable",
      "type": "function"
    },
    {
      "constant": false,
      "inputs": [
        {
          "internalType": "uint256",
          "name": "id",
          "type": "uint256"
        }
      ],
      "name": "deleteOrganization",
      "outputs": [],
      "payable": false,
      "stateMutability": "nonpayable",
      "type": "function"
    },
    {
      "constant": false,
      "inputs": [
        {
          "internalType": "uint256",
          "name": "id",
          "type": "uint256"
        },
        {
          "internalType": "string",
          "name": "name",
          "type": "string"
        },
        {
          "internalType": "string",
          "name": "description",
          "type": "string"
        },
        {
          "internalType": "bool",
          "name": "privateBool",
          "type": "bool"
        },
        {
          "internalType": "uint256",
          "name": "memberLimit",
          "type": "uint256"
        },
        {
          "internalType": "string",
          "name": "passcode",
          "type": "string"
        }
      ],
      "name": "editOrganization",
      "outputs": [],
      "payable": false,
      "stateMutability": "nonpayable",
      "type": "function"
    },
    {
      "constant": true,
      "inputs": [],
      "name": "fileCount",
      "outputs": [
        {
          "internalType": "uint256",
          "name": "",
          "type": "uint256"
        }
      ],
      "payable": false,
      "stateMutability": "view",
      "type": "function"
    },
    {
      "constant": true,
      "inputs": [
        {
          "internalType": "uint256",
          "name": "",
          "type": "uint256"
        }
      ],
      "name": "files",
      "outputs": [
        {
          "internalType": "uint256",
          "name": "fileId",
          "type": "uint256"
        },
        {
          "internalType": "string",
          "name": "fileHash",
          "type": "string"
        },
        {
          "internalType": "uint256",
          "name": "fileSize",
          "type": "uint256"
        },
        {
          "internalType": "string",
          "name": "fileType",
          "type": "string"
        },
        {
          "internalType": "string",
          "name": "fileName",
          "type": "string"
        },
        {
          "internalType": "string",
          "name": "fileDescription",
          "type": "string"
        },
        {
          "internalType": "uint256",
          "name": "uploadTime",
          "type": "uint256"
        },
        {
          "internalType": "address payable",
          "name": "uploader",
          "type": "address"
        }
      ],
      "payable": false,
      "stateMutability": "view",
      "type": "function"
    },
    {
      "constant": true,
      "inputs": [],
      "name": "getMemberships",
      "outputs": [
        {
          "internalType": "uint256[]",
          "name": "",
          "type": "uint256[]"
        }
      ],
      "payable": false,
      "stateMutability": "view",
      "type": "function"
    },
    {
      "constant": true,
      "inputs": [],
      "name": "getOrganizations",
      "outputs": [
        {
          "components": [
            {
              "internalType": "uint256",
              "name": "Id",
              "type": "uint256"
            },
            {
              "internalType": "string",
              "name": "Name",
              "type": "string"
            },
            {
              "internalType": "string",
              "name": "Description",
              "type": "string"
            },
            {
              "internalType": "address",
              "name": "Owner",
              "type": "address"
            },
            {
              "internalType": "bool",
              "name": "Private",
              "type": "bool"
            },
            {
              "internalType": "uint256",
              "name": "MemberLimit",
              "type": "uint256"
            },
            {
              "internalType": "bytes32",
              "name": "Passcode",
              "type": "bytes32"
            },
            {
              "internalType": "uint256",
              "name": "createdAt",
              "type": "uint256"
            }
          ],
          "internalType": "struct BuildOrganization.Organization[]",
          "name": "",
          "type": "tuple[]"
        }
      ],
      "payable": false,
      "stateMutability": "view",
      "type": "function"
    },
    {
      "constant": true,
      "inputs": [],
      "name": "name",
      "outputs": [
        {
          "internalType": "string",
          "name": "",
          "type": "string"
        }
      ],
      "payable": false,
      "stateMutability": "view",
      "type": "function"
    },
    {
      "constant": true,
      "inputs": [
        {
          "internalType": "uint256",
          "name": "",
          "type": "uint256"
        }
      ],
      "name": "organizations",
      "outputs": [
        {
          "internalType": "uint256",
          "name": "Id",
          "type": "uint256"
        },
        {
          "internalType": "string",
          "name": "Name",
          "type": "string"
        },
        {
          "internalType": "string",
          "name": "Description",
          "type": "string"
        },
        {
          "internalType": "address",
          "name": "Owner",
          "type": "address"
        },
        {
          "internalType": "bool",
          "name": "Private",
          "type": "bool"
        },
        {
          "internalType": "uint256",
          "name": "MemberLimit",
          "type": "uint256"
        },
        {
          "internalType": "bytes32",
          "name": "Passcode",
          "type": "bytes32"
        },
        {
          "internalType": "uint256",
          "name": "createdAt",
          "type": "uint256"
        }
      ],
      "payable": false,
      "stateMutability": "view",
      "type": "function"
    },
    {
      "constant": false,
      "inputs": [
        {
          "internalType": "string",
          "name": "_fileHash",
          "type": "string"
        },
        {
          "internalType": "uint256",
          "name": "_fileSize",
          "type": "uint256"
        },
        {
          "internalType": "string",
          "name": "_fileType",
          "type": "string"
        },
        {
          "internalType": "string",
          "name": "_fileName",
          "type": "string"
        },
        {
          "internalType": "string",
          "name": "_fileDescription",
          "type": "string"
        }
      ],
      "name": "uploadFile",
      "outputs": [],
      "payable": false,
      "stateMutability": "nonpayable",
      "type": "function"
    },
    {
      "constant": false,
      "inputs": [
        {
          "internalType": "uint256",
          "name": "id",
          "type": "uint256"
        },
        {
          "internalType": "string",
          "name": "passcode",
          "type": "string"
        }
      ],
      "name": "joinOrganization",
      "outputs": [],
      "payable": false,
      "stateMutability": "nonpayable",
      "type": "function"
    },
    {
      "constant": false,
      "inputs": [
        {
          "internalType": "uint256",
          "name": "id",
          "type": "uint256"
        }
      ],
      "name": "exitOrganization",
      "outputs": [],
      "payable": false,
      "stateMutability": "nonpayable",
      "type": "function"
    },
    {
      "constant": false,
      "inputs": [
        {
          "internalType": "uint256",
          "name": "id",
          "type": "uint256"
        },
        {
          "internalType": "address",
          "name": "userAddress",
          "type": "address"
        }
      ],
      "name": "removeMembership",
      "outputs": [],
      "payable": false,
      "stateMutability": "nonpayable",
      "type": "function"
    }
  ],
  "bytecode": "0x60806040526040518060400160405280600981526020017f444353746f726167650000000000000000000000000000000000000000000000815250600090805190602001906200005192919062000062565b506000600155600060035562000111565b828054600181600116156101000203166002900490600052602060002090601f016020900481019282601f10620000a557805160ff1916838001178555620000d6565b82800160010185558215620000d6579182015b82811115620000d5578251825591602001919060010190620000b8565b5b509050620000e59190620000e9565b5090565b6200010e91905b808211156200010a576000816000905550600101620000f0565b5090565b90565b61318280620001216000396000f3fe608060405234801561001057600080fd5b50600436106100cf5760003560e01c806392515b281161008c578063dc1301af11610066578063dc1301af146101d8578063e792dd8a146101f4578063e82d9d331461022b578063f4c714b414610247576100cf565b806392515b28146101825780639754a3a81461019e578063cdc30353146101bc576100cf565b806306fdde03146100d457806329ab4bf3146100f2578063439535191461010e578063481c10931461012c57806363336311146101485780637840c6a414610164575b600080fd5b6100dc61027e565b6040516100e99190612d38565b60405180910390f35b61010c600480360361010791908101906128f3565b61031c565b005b6101166104f9565b6040516101239190612d5a565b60405180910390f35b610146600480360361014191908101906126a4565b6104ff565b005b610162600480360361015d9190810190612863565b6108bb565b005b61016c610e49565b6040516101799190612d16565b60405180910390f35b61019c6004803603610197919081019061283a565b610ede565b005b6101a66113f5565b6040516101b39190612cf4565b60405180910390f35b6101d660048036036101d1919081019061289f565b611632565b005b6101f260048036036101ed919081019061283a565b6118bb565b005b61020e6004803603610209919081019061283a565b611c2a565b604051610222989796959493929190612e0f565b60405180910390f35b61024560048036036102409190810190612763565b611ddc565b005b610261600480360361025c919081019061283a565b611ffe565b604051610275989796959493929190612e9b565b60405180910390f35b60008054600181600116156101000203166002900480601f0160208091040260200160405190810160405280929190818152602001828054600181600116156101000203166002900480156103145780601f106102e957610100808354040283529160200191610314565b820191906000526020600020905b8154815290600101906020018083116102f757829003601f168201915b505050505081565b600085511161032a57600080fd5b600084511161033857600080fd5b6000821161034557600080fd5b60001515831515141561036957604051806020016040528060008152509050610378565b600081511161037757600080fd5b5b3373ffffffffffffffffffffffffffffffffffffffff166005600088815260200190815260200160002060009054906101000a900473ffffffffffffffffffffffffffffffffffffffff1673ffffffffffffffffffffffffffffffffffffffff16146103e357600080fd5b6000816040516020016103f69190612cdd565b604051602081830303815290604052805190602001209050856004888154811061041c57fe5b906000526020600020906007020160010190805190602001906104409291906122f9565b50846004888154811061044f57fe5b906000526020600020906007020160020190805190602001906104739291906122f9565b50836004888154811061048257fe5b906000526020600020906007020160030160146101000a81548160ff02191690831515021790555082600488815481106104b857fe5b90600052602060002090600702016004018190555080600488815481106104db57fe5b90600052602060002090600702016005018190555050505050505050565b60015481565b600085511161050d57600080fd5b600084511161051b57600080fd5b6000821161052857600080fd5b60001515831515141561054c5760405180602001604052806000815250905061055b565b600081511161055a57600080fd5b5b600060035490506000826040516020016105759190612cdd565b60405160208183030381529060405280519060200120905060046040518061010001604052808481526020018981526020018881526020013373ffffffffffffffffffffffffffffffffffffffff16815260200187151581526020018681526020018381526020014281525090806001815401808255809150509060018203906000526020600020906007020160009091929091909150600082015181600001556020820151816001019080519060200190610632929190612379565b50604082015181600201908051906020019061064f929190612379565b5060608201518160030160006101000a81548173ffffffffffffffffffffffffffffffffffffffff021916908373ffffffffffffffffffffffffffffffffffffffff16021790555060808201518160030160146101000a81548160ff02191690831515021790555060a0820151816004015560c0820151816005015560e08201518160060155505050336005600084815260200190815260200160002060006101000a81548173ffffffffffffffffffffffffffffffffffffffff021916908373ffffffffffffffffffffffffffffffffffffffff16021790555061077d6001600660003373ffffffffffffffffffffffffffffffffffffffff1673ffffffffffffffffffffffffffffffffffffffff168152602001908152602001600020546122c690919063ffffffff16565b600660003373ffffffffffffffffffffffffffffffffffffffff1673ffffffffffffffffffffffffffffffffffffffff16815260200190815260200160002081905550600760003373ffffffffffffffffffffffffffffffffffffffff1673ffffffffffffffffffffffffffffffffffffffff168152602001908152602001600020829080600181540180825580915050906001820390600052602060002001600090919290919091505550600860008381526020019081526020016000203390806001815401808255809150509060018203906000526020600020016000909192909190916101000a81548173ffffffffffffffffffffffffffffffffffffffff021916908373ffffffffffffffffffffffffffffffffffffffff1602179055505060036000815480929190600101919050555050505050505050565b600482815481106108c857fe5b906000526020600020906007020160030160009054906101000a900473ffffffffffffffffffffffffffffffffffffffff1673ffffffffffffffffffffffffffffffffffffffff163373ffffffffffffffffffffffffffffffffffffffff161461093157600080fd5b600080600080905060008090506060600760008773ffffffffffffffffffffffffffffffffffffffff1673ffffffffffffffffffffffffffffffffffffffff1681526020019081526020016000208054806020026020016040519081016040528092919081815260200182805480156109c957602002820191906000526020600020905b8154815260200190600101908083116109b5575b50505050509050606060086000898152602001908152602001600020805480602002602001604051908101604052809291908181526020018280548015610a6557602002820191906000526020600020905b8160009054906101000a900473ffffffffffffffffffffffffffffffffffffffff1673ffffffffffffffffffffffffffffffffffffffff1681526020019060010190808311610a1b575b5050505050905060005b8251811015610aa857828181518110610a8457fe5b6020026020010151891415610a9b57809650600194505b8080600101915050610a6f565b5060005b8151811015610b1157818181518110610ac157fe5b602002602001015173ffffffffffffffffffffffffffffffffffffffff168873ffffffffffffffffffffffffffffffffffffffff161415610b0457809550600193505b8080600101915050610aac565b50838015610b1c5750825b15610e3f5760008690505b6001835103811015610bf057600760008973ffffffffffffffffffffffffffffffffffffffff1673ffffffffffffffffffffffffffffffffffffffff1681526020019081526020016000206001820181548110610b8057fe5b9060005260206000200154600760008a73ffffffffffffffffffffffffffffffffffffffff1673ffffffffffffffffffffffffffffffffffffffff1681526020019081526020016000208281548110610bd557fe5b90600052602060002001819055508080600101915050610b27565b50600760008873ffffffffffffffffffffffffffffffffffffffff1673ffffffffffffffffffffffffffffffffffffffff1681526020019081526020016000206001600760008a73ffffffffffffffffffffffffffffffffffffffff1673ffffffffffffffffffffffffffffffffffffffff168152602001908152602001600020805490500381548110610c8057fe5b9060005260206000200160009055600760008873ffffffffffffffffffffffffffffffffffffffff1673ffffffffffffffffffffffffffffffffffffffff168152602001908152602001600020805480919060019003610ce091906123f9565b5060008590505b6001825103811015610db257600860008a81526020019081526020016000206001820181548110610d1457fe5b9060005260206000200160009054906101000a900473ffffffffffffffffffffffffffffffffffffffff16600860008b81526020019081526020016000208281548110610d5d57fe5b9060005260206000200160006101000a81548173ffffffffffffffffffffffffffffffffffffffff021916908373ffffffffffffffffffffffffffffffffffffffff1602179055508080600101915050610ce7565b50600860008981526020019081526020016000206001600860008b8152602001908152602001600020805490500381548110610dea57fe5b9060005260206000200160006101000a81549073ffffffffffffffffffffffffffffffffffffffff021916905560086000898152602001908152602001600020805480919060019003610e3d9190612425565b505b5050505050505050565b6060600760003373ffffffffffffffffffffffffffffffffffffffff1673ffffffffffffffffffffffffffffffffffffffff168152602001908152602001600020805480602002602001604051908101604052809291908181526020018280548015610ed457602002820191906000526020600020905b815481526020019060010190808311610ec0575b5050505050905090565b600080600080905060008090506060600760003373ffffffffffffffffffffffffffffffffffffffff1673ffffffffffffffffffffffffffffffffffffffff168152602001908152602001600020805480602002602001604051908101604052809291908181526020018280548015610f7657602002820191906000526020600020905b815481526020019060010190808311610f62575b5050505050905060606008600088815260200190815260200160002080548060200260200160405190810160405280929190818152602001828054801561101257602002820191906000526020600020905b8160009054906101000a900473ffffffffffffffffffffffffffffffffffffffff1673ffffffffffffffffffffffffffffffffffffffff1681526020019060010190808311610fc8575b5050505050905060005b82518110156110555782818151811061103157fe5b602002602001015188141561104857809650600194505b808060010191505061101c565b5060005b81518110156110be5781818151811061106e57fe5b602002602001015173ffffffffffffffffffffffffffffffffffffffff163373ffffffffffffffffffffffffffffffffffffffff1614156110b157809550600193505b8080600101915050611059565b508380156110c95750825b156113ec5760008690505b600183510381101561119d57600760003373ffffffffffffffffffffffffffffffffffffffff1673ffffffffffffffffffffffffffffffffffffffff168152602001908152602001600020600182018154811061112d57fe5b9060005260206000200154600760003373ffffffffffffffffffffffffffffffffffffffff1673ffffffffffffffffffffffffffffffffffffffff168152602001908152602001600020828154811061118257fe5b906000526020600020018190555080806001019150506110d4565b50600760003373ffffffffffffffffffffffffffffffffffffffff1673ffffffffffffffffffffffffffffffffffffffff1681526020019081526020016000206001600760003373ffffffffffffffffffffffffffffffffffffffff1673ffffffffffffffffffffffffffffffffffffffff16815260200190815260200160002080549050038154811061122d57fe5b9060005260206000200160009055600760003373ffffffffffffffffffffffffffffffffffffffff1673ffffffffffffffffffffffffffffffffffffffff16815260200190815260200160002080548091906001900361128d91906123f9565b5060008590505b600182510381101561135f576008600089815260200190815260200160002060018201815481106112c157fe5b9060005260206000200160009054906101000a900473ffffffffffffffffffffffffffffffffffffffff16600860008a8152602001908152602001600020828154811061130a57fe5b9060005260206000200160006101000a81548173ffffffffffffffffffffffffffffffffffffffff021916908373ffffffffffffffffffffffffffffffffffffffff1602179055508080600101915050611294565b50600860008881526020019081526020016000206001600860008a815260200190815260200160002080549050038154811061139757fe5b9060005260206000200160006101000a81549073ffffffffffffffffffffffffffffffffffffffff0219169055600860008881526020019081526020016000208054809190600190036113ea9190612425565b505b50505050505050565b60606004805480602002602001604051908101604052809291908181526020016000905b8282101561162957838290600052602060002090600702016040518061010001604052908160008201548152602001600182018054600181600116156101000203166002900480601f0160208091040260200160405190810160405280929190818152602001828054600181600116156101000203166002900480156114e05780601f106114b5576101008083540402835291602001916114e0565b820191906000526020600020905b8154815290600101906020018083116114c357829003601f168201915b50505050508152602001600282018054600181600116156101000203166002900480601f0160208091040260200160405190810160405280929190818152602001828054600181600116156101000203166002900480156115825780601f1061155757610100808354040283529160200191611582565b820191906000526020600020905b81548152906001019060200180831161156557829003601f168201915b505050505081526020016003820160009054906101000a900473ffffffffffffffffffffffffffffffffffffffff1673ffffffffffffffffffffffffffffffffffffffff1673ffffffffffffffffffffffffffffffffffffffff1681526020016003820160149054906101000a900460ff16151515158152602001600482015481526020016005820154815260200160068201548152505081526020019060010190611419565b50505050905090565b600115156004838154811061164357fe5b906000526020600020906007020160030160149054906101000a900460ff1615151480156116b557506004828154811061167957fe5b9060005260206000209060070201600501548160405160200161169c9190612cdd565b6040516020818303038152906040528051906020012014155b156116bf576118b7565b6000600483815481106116ce57fe5b90600052602060002090600702016004015490508060086000858152602001908152602001600020805490501061170557506118b7565b6060600760003373ffffffffffffffffffffffffffffffffffffffff1673ffffffffffffffffffffffffffffffffffffffff16815260200190815260200160002080548060200260200160405190810160405280929190818152602001828054801561179057602002820191906000526020600020905b81548152602001906001019080831161177c575b5050505050905060005b81518110156117d3578181815181106117af57fe5b60200260200101518514156117c6575050506118b7565b808060010191505061179a565b50600760003373ffffffffffffffffffffffffffffffffffffffff1673ffffffffffffffffffffffffffffffffffffffff168152602001908152602001600020849080600181540180825580915050906001820390600052602060002001600090919290919091505550600860008581526020019081526020016000203390806001815401808255809150509060018203906000526020600020016000909192909190916101000a81548173ffffffffffffffffffffffffffffffffffffffff021916908373ffffffffffffffffffffffffffffffffffffffff1602179055505050505b5050565b3373ffffffffffffffffffffffffffffffffffffffff166005600083815260200190815260200160002060009054906101000a900473ffffffffffffffffffffffffffffffffffffffff1673ffffffffffffffffffffffffffffffffffffffff161461192657600080fd5b600480549050811061193757611c27565b60008190505b600160048054905003811015611aa2576004600182018154811061195d57fe5b90600052602060002090600702016004828154811061197857fe5b906000526020600020906007020160008201548160000155600182018160010190805460018160011615610100020316600290046119b7929190612451565b50600282018160020190805460018160011615610100020316600290046119df929190612451565b506003820160009054906101000a900473ffffffffffffffffffffffffffffffffffffffff168160030160006101000a81548173ffffffffffffffffffffffffffffffffffffffff021916908373ffffffffffffffffffffffffffffffffffffffff1602179055506003820160149054906101000a900460ff168160030160146101000a81548160ff021916908315150217905550600482015481600401556005820154816005015560068201548160060155905050808060010191505061193d565b50600460016004805490500381548110611ab857fe5b9060005260206000209060070201600080820160009055600182016000611adf91906124d8565b600282016000611aef91906124d8565b6003820160006101000a81549073ffffffffffffffffffffffffffffffffffffffff02191690556003820160146101000a81549060ff021916905560048201600090556005820160009055600682016000905550506004805480919060019003611b599190612520565b506005600082815260200190815260200160002060006101000a81549073ffffffffffffffffffffffffffffffffffffffff0219169055611be36001600660003373ffffffffffffffffffffffffffffffffffffffff1673ffffffffffffffffffffffffffffffffffffffff168152602001908152602001600020546122e290919063ffffffff16565b600660003373ffffffffffffffffffffffffffffffffffffffff1673ffffffffffffffffffffffffffffffffffffffff168152602001908152602001600020819055505b50565b60048181548110611c3757fe5b9060005260206000209060070201600091509050806000015490806001018054600181600116156101000203166002900480601f016020809104026020016040519081016040528092919081815260200182805460018160011615610100020316600290048015611ce95780601f10611cbe57610100808354040283529160200191611ce9565b820191906000526020600020905b815481529060010190602001808311611ccc57829003601f168201915b505050505090806002018054600181600116156101000203166002900480601f016020809104026020016040519081016040528092919081815260200182805460018160011615610100020316600290048015611d875780601f10611d5c57610100808354040283529160200191611d87565b820191906000526020600020905b815481529060010190602001808311611d6a57829003601f168201915b5050505050908060030160009054906101000a900473ffffffffffffffffffffffffffffffffffffffff16908060030160149054906101000a900460ff16908060040154908060050154908060060154905088565b6000855111611dea57600080fd5b6000835111611df857600080fd5b6000825111611e0657600080fd5b6000815111611e1457600080fd5b600073ffffffffffffffffffffffffffffffffffffffff163373ffffffffffffffffffffffffffffffffffffffff161415611e4e57600080fd5b60008411611e5b57600080fd5b60405180610100016040528060015481526020018681526020018581526020018481526020018381526020018281526020014281526020013373ffffffffffffffffffffffffffffffffffffffff16815250600260006001548152602001908152602001600020600082015181600001556020820151816001019080519060200190611ee8929190612379565b50604082015181600201556060820151816003019080519060200190611f0f929190612379565b506080820151816004019080519060200190611f2c929190612379565b5060a0820151816005019080519060200190611f49929190612379565b5060c0820151816006015560e08201518160070160006101000a81548173ffffffffffffffffffffffffffffffffffffffff021916908373ffffffffffffffffffffffffffffffffffffffff1602179055509050506001600081548092919060010191905055507f6e95bbaa37a5fdec42a312e049dea2fe6160ebe659214d3409b4f91f164c2f5260015486868686864233604051611fef989796959493929190612d75565b60405180910390a15050505050565b6002602052806000526040600020600091509050806000015490806001018054600181600116156101000203166002900480601f0160208091040260200160405190810160405280929190818152602001828054600181600116156101000203166002900480156120b05780601f10612085576101008083540402835291602001916120b0565b820191906000526020600020905b81548152906001019060200180831161209357829003601f168201915b505050505090806002015490806003018054600181600116156101000203166002900480601f0160208091040260200160405190810160405280929190818152602001828054600181600116156101000203166002900480156121545780601f1061212957610100808354040283529160200191612154565b820191906000526020600020905b81548152906001019060200180831161213757829003601f168201915b505050505090806004018054600181600116156101000203166002900480601f0160208091040260200160405190810160405280929190818152602001828054600181600116156101000203166002900480156121f25780601f106121c7576101008083540402835291602001916121f2565b820191906000526020600020905b8154815290600101906020018083116121d557829003601f168201915b505050505090806005018054600181600116156101000203166002900480601f0160208091040260200160405190810160405280929190818152602001828054600181600116156101000203166002900480156122905780601f1061226557610100808354040283529160200191612290565b820191906000526020600020905b81548152906001019060200180831161227357829003601f168201915b5050505050908060060154908060070160009054906101000a900473ffffffffffffffffffffffffffffffffffffffff16905088565b6000808284019050838110156122d857fe5b8091505092915050565b6000828211156122ee57fe5b818303905092915050565b828054600181600116156101000203166002900490600052602060002090601f016020900481019282601f1061233a57805160ff1916838001178555612368565b82800160010185558215612368579182015b8281111561236757825182559160200191906001019061234c565b5b5090506123759190612552565b5090565b828054600181600116156101000203166002900490600052602060002090601f016020900481019282601f106123ba57805160ff19168380011785556123e8565b828001600101855582156123e8579182015b828111156123e75782518255916020019190600101906123cc565b5b5090506123f59190612552565b5090565b8154818355818111156124205781836000526020600020918201910161241f9190612552565b5b505050565b81548183558181111561244c5781836000526020600020918201910161244b9190612552565b5b505050565b828054600181600116156101000203166002900490600052602060002090601f016020900481019282601f1061248a57805485556124c7565b828001600101855582156124c757600052602060002091601f016020900482015b828111156124c65782548255916001019190600101906124ab565b5b5090506124d49190612552565b5090565b50805460018160011615610100020316600290046000825580601f106124fe575061251d565b601f01602090049060005260206000209081019061251c9190612552565b5b50565b81548183558181111561254d5760070281600702836000526020600020918201910161254c9190612577565b5b505050565b61257491905b80821115612570576000816000905550600101612558565b5090565b90565b61260e91905b8082111561260a5760008082016000905560018201600061259e91906124d8565b6002820160006125ae91906124d8565b6003820160006101000a81549073ffffffffffffffffffffffffffffffffffffffff02191690556003820160146101000a81549060ff02191690556004820160009055600582016000905560068201600090555060070161257d565b5090565b90565b600081359050612620816130fa565b92915050565b60008135905061263581613111565b92915050565b600082601f83011261264c57600080fd5b813561265f61265a82612f62565b612f35565b9150808252602083016020830185838301111561267b57600080fd5b6126868382846130a7565b50505092915050565b60008135905061269e81613128565b92915050565b600080600080600060a086880312156126bc57600080fd5b600086013567ffffffffffffffff8111156126d657600080fd5b6126e28882890161263b565b955050602086013567ffffffffffffffff8111156126ff57600080fd5b61270b8882890161263b565b945050604061271c88828901612626565b935050606061272d8882890161268f565b925050608086013567ffffffffffffffff81111561274a57600080fd5b6127568882890161263b565b9150509295509295909350565b600080600080600060a0868803121561277b57600080fd5b600086013567ffffffffffffffff81111561279557600080fd5b6127a18882890161263b565b95505060206127b28882890161268f565b945050604086013567ffffffffffffffff8111156127cf57600080fd5b6127db8882890161263b565b935050606086013567ffffffffffffffff8111156127f857600080fd5b6128048882890161263b565b925050608086013567ffffffffffffffff81111561282157600080fd5b61282d8882890161263b565b9150509295509295909350565b60006020828403121561284c57600080fd5b600061285a8482850161268f565b91505092915050565b6000806040838503121561287657600080fd5b60006128848582860161268f565b925050602061289585828601612611565b9150509250929050565b600080604083850312156128b257600080fd5b60006128c08582860161268f565b925050602083013567ffffffffffffffff8111156128dd57600080fd5b6128e98582860161263b565b9150509250929050565b60008060008060008060c0878903121561290c57600080fd5b600061291a89828a0161268f565b965050602087013567ffffffffffffffff81111561293757600080fd5b61294389828a0161263b565b955050604087013567ffffffffffffffff81111561296057600080fd5b61296c89828a0161263b565b945050606061297d89828a01612626565b935050608061298e89828a0161268f565b92505060a087013567ffffffffffffffff8111156129ab57600080fd5b6129b789828a0161263b565b9150509295509295509295565b60006129d08383612c08565b905092915050565b60006129e48383612cbf565b60208301905092915050565b6129f981613055565b82525050565b612a0881613043565b82525050565b612a1781613043565b82525050565b6000612a2882612fae565b612a328185612ff4565b935083602082028501612a4485612f8e565b8060005b85811015612a805784840389528151612a6185826129c4565b9450612a6c83612fda565b925060208a01995050600181019050612a48565b50829750879550505050505092915050565b6000612a9d82612fb9565b612aa78185613005565b9350612ab283612f9e565b8060005b83811015612ae3578151612aca88826129d8565b9750612ad583612fe7565b925050600181019050612ab6565b5085935050505092915050565b612af981613067565b82525050565b612b0881613067565b82525050565b612b1781613073565b82525050565b612b2681613073565b82525050565b6000612b3782612fcf565b612b418185613027565b9350612b518185602086016130b6565b612b5a816130e9565b840191505092915050565b6000612b7082612fcf565b612b7a8185613038565b9350612b8a8185602086016130b6565b80840191505092915050565b6000612ba182612fc4565b612bab8185613016565b9350612bbb8185602086016130b6565b612bc4816130e9565b840191505092915050565b6000612bda82612fc4565b612be48185613027565b9350612bf48185602086016130b6565b612bfd816130e9565b840191505092915050565b600061010083016000830151612c216000860182612cbf565b5060208301518482036020860152612c398282612b96565b91505060408301518482036040860152612c538282612b96565b9150506060830151612c6860608601826129ff565b506080830151612c7b6080860182612af0565b5060a0830151612c8e60a0860182612cbf565b5060c0830151612ca160c0860182612b0e565b5060e0830151612cb460e0860182612cbf565b508091505092915050565b612cc88161309d565b82525050565b612cd78161309d565b82525050565b6000612ce98284612b65565b915081905092915050565b60006020820190508181036000830152612d0e8184612a1d565b905092915050565b60006020820190508181036000830152612d308184612a92565b905092915050565b60006020820190508181036000830152612d528184612bcf565b905092915050565b6000602082019050612d6f6000830184612cce565b92915050565b600061010082019050612d8b600083018b612cce565b8181036020830152612d9d818a612b2c565b9050612dac6040830189612cce565b8181036060830152612dbe8188612b2c565b90508181036080830152612dd28187612b2c565b905081810360a0830152612de68186612b2c565b9050612df560c0830185612cce565b612e0260e08301846129f0565b9998505050505050505050565b600061010082019050612e25600083018b612cce565b8181036020830152612e37818a612bcf565b90508181036040830152612e4b8189612bcf565b9050612e5a6060830188612a0e565b612e676080830187612aff565b612e7460a0830186612cce565b612e8160c0830185612b1d565b612e8e60e0830184612cce565b9998505050505050505050565b600061010082019050612eb1600083018b612cce565b8181036020830152612ec3818a612bcf565b9050612ed26040830189612cce565b8181036060830152612ee48188612bcf565b90508181036080830152612ef88187612bcf565b905081810360a0830152612f0c8186612bcf565b9050612f1b60c0830185612cce565b612f2860e08301846129f0565b9998505050505050505050565b6000604051905081810181811067ffffffffffffffff82111715612f5857600080fd5b8060405250919050565b600067ffffffffffffffff821115612f7957600080fd5b601f19601f8301169050602081019050919050565b6000819050602082019050919050565b6000819050602082019050919050565b600081519050919050565b600081519050919050565b600081519050919050565b600081519050919050565b6000602082019050919050565b6000602082019050919050565b600082825260208201905092915050565b600082825260208201905092915050565b600082825260208201905092915050565b600082825260208201905092915050565b600081905092915050565b600061304e8261307d565b9050919050565b60006130608261307d565b9050919050565b60008115159050919050565b6000819050919050565b600073ffffffffffffffffffffffffffffffffffffffff82169050919050565b6000819050919050565b82818337600083830152505050565b60005b838110156130d45780820151818401526020810190506130b9565b838111156130e3576000848401525b50505050565b6000601f19601f8301169050919050565b61310381613043565b811461310e57600080fd5b50565b61311a81613067565b811461312557600080fd5b50565b6131318161309d565b811461313c57600080fd5b5056fea365627a7a723158203ff36fc605f37aca71e46a11079eab767423eba5cec9cda4e4cefd3ee484e9906c6578706572696d656e74616cf564736f6c63430005100040",
  "source": "// SPDX-License-Identifier: UNLICENSED\npragma solidity ^0.5.0;\npragma experimental ABIEncoderV2;\n\nimport \"./DCStorage.sol\";\nimport \"./safemath.sol\";\nimport \"./Organization.sol\";\n\ncontract Membership is BuildOrganization{\n\n    function joinOrganization(uint id, string memory passcode) public {\n        if(organizations[id].Private == true && keccak256(abi.encodePacked(passcode)) != organizations[id].Passcode){\n            return;\n        }\n\n        uint memberLimit = organizations[id].MemberLimit;\n        if(organizationToAddresses[id].length >= memberLimit){\n            return;\n        }\n\n        uint[] memory orgIds = addressToOrganizations[msg.sender];\n        for(uint i; i < orgIds.length; i++){\n            if(id == orgIds[i]){\n                return;\n            }\n        }\n        addressToOrganizations[msg.sender].push(id);\n        organizationToAddresses[id].push(msg.sender);\n    }\n\n    function exitOrganization(uint id) public {\n        uint orgIndex;\n        uint memberIndex;\n        bool isMember = false;\n        bool isMemberConfirm = false;\n        uint[] memory orgIds = addressToOrganizations[msg.sender];\n        address[] memory memberAddresses = organizationToAddresses[id];\n        for(uint i; i < orgIds.length; i++){\n            if(id == orgIds[i]){\n                orgIndex = i;\n                isMember = true;\n            }\n        }\n        for(uint i; i < memberAddresses.length; i++){\n            if(msg.sender == memberAddresses[i]){\n                memberIndex = i;\n                isMemberConfirm = true;\n            }\n        }\n        if(isMember && isMemberConfirm){\n            for(uint i = orgIndex; i < orgIds.length - 1; i++){\n                addressToOrganizations[msg.sender][i] = addressToOrganizations[msg.sender][i+1];\n            }\n            delete addressToOrganizations[msg.sender][addressToOrganizations[msg.sender].length - 1];\n            addressToOrganizations[msg.sender].length--;\n            for(uint i = memberIndex; i < memberAddresses.length - 1; i++){\n                organizationToAddresses[id][i] = organizationToAddresses[id][i+1]; \n            }\n            delete organizationToAddresses[id][organizationToAddresses[id].length - 1];\n            organizationToAddresses[id].length--;\n        }\n    }\n\n    function removeMembership(uint id, address userAddress) public {\n        require(msg.sender == organizations[id].Owner);\n        uint orgIndex;\n        uint memberIndex;\n        bool isMember = false;\n        bool isMemberConfirm = false;\n        uint[] memory orgIds = addressToOrganizations[userAddress];\n        address[] memory memberAddresses = organizationToAddresses[id];\n        for(uint i; i < orgIds.length; i++){\n            if(id == orgIds[i]){\n                orgIndex = i;\n                isMember = true;\n            }\n        }\n        for(uint i; i < memberAddresses.length; i++){\n            if(userAddress == memberAddresses[i]){\n                memberIndex = i;\n                isMemberConfirm = true;\n            }\n        }\n        if(isMember && isMemberConfirm){\n            for(uint i = orgIndex; i < orgIds.length - 1; i++){\n                addressToOrganizations[userAddress][i] = addressToOrganizations[userAddress][i+1];\n            }\n            delete addressToOrganizations[userAddress][addressToOrganizations[userAddress].length - 1];\n            addressToOrganizations[userAddress].length--;\n            for(uint i = memberIndex; i < memberAddresses.length - 1; i++){\n                organizationToAddresses[id][i] = organizationToAddresses[id][i+1]; \n            }\n            delete organizationToAddresses[id][organizationToAddresses[id].length - 1];\n            organizationToAddresses[id].length--;\n        }\n    }\n\n}\n\n\n\n\n",
  "sourcePath": "/Users/csuftitan/Desktop/Meet Turakhia/Advanced Blockchain (CPSC 559)/Projects/Final Project(4 Dec 2022)/src/contracts/Membership.sol",
  "compiler": {
    "name": "solc",
    "version": "0.5.16+commit.9c3226ce.Emscripten.clang"
  },
  "schemaVersion": "3.4.9",
  "updatedAt": "2022-12-07T08:35:34.916Z",
  "networkType": "ethereum",
  "devdoc": {
    "methods": {}
  },
  "userdoc": {
    "methods": {}
  }
}