{
  "contractName": "Membership",
  "abi": [
    {
      "anonymous": false,
      "inputs": [
        {
          "indexed": false,
          "internalType": "uint256",
          "name": "fileId",
          "type": "uint256"
        },
        {
          "indexed": false,
          "internalType": "string",
          "name": "fileHash",
          "type": "string"
        },
        {
          "indexed": false,
          "internalType": "uint256",
          "name": "fileSize",
          "type": "uint256"
        },
        {
          "indexed": false,
          "internalType": "string",
          "name": "fileType",
          "type": "string"
        },
        {
          "indexed": false,
          "internalType": "string",
          "name": "fileName",
          "type": "string"
        },
        {
          "indexed": false,
          "internalType": "string",
          "name": "fileDescription",
          "type": "string"
        },
        {
          "indexed": false,
          "internalType": "uint256",
          "name": "uploadTime",
          "type": "uint256"
        },
        {
          "indexed": false,
          "internalType": "address payable",
          "name": "uploader",
          "type": "address"
        }
      ],
      "name": "FileUploaded",
      "type": "event"
    },
    {
      "constant": false,
      "inputs": [
        {
          "internalType": "string",
          "name": "name",
          "type": "string"
        },
        {
          "internalType": "string",
          "name": "description",
          "type": "string"
        },
        {
          "internalType": "bool",
          "name": "privateBool",
          "type": "bool"
        },
        {
          "internalType": "uint256",
          "name": "memberLimit",
          "type": "uint256"
        },
        {
          "internalType": "string",
          "name": "passcode",
          "type": "string"
        }
      ],
      "name": "createOrganization",
      "outputs": [],
      "payable": false,
      "stateMutability": "nonpayable",
      "type": "function"
    },
    {
      "constant": false,
      "inputs": [
        {
          "internalType": "uint256",
          "name": "id",
          "type": "uint256"
        }
      ],
      "name": "deleteOrganization",
      "outputs": [],
      "payable": false,
      "stateMutability": "nonpayable",
      "type": "function"
    },
    {
      "constant": false,
      "inputs": [
        {
          "internalType": "uint256",
          "name": "id",
          "type": "uint256"
        },
        {
          "internalType": "string",
          "name": "name",
          "type": "string"
        },
        {
          "internalType": "string",
          "name": "description",
          "type": "string"
        },
        {
          "internalType": "bool",
          "name": "privateBool",
          "type": "bool"
        },
        {
          "internalType": "uint256",
          "name": "memberLimit",
          "type": "uint256"
        },
        {
          "internalType": "string",
          "name": "passcode",
          "type": "string"
        }
      ],
      "name": "editOrganization",
      "outputs": [],
      "payable": false,
      "stateMutability": "nonpayable",
      "type": "function"
    },
    {
      "constant": true,
      "inputs": [],
      "name": "fileCount",
      "outputs": [
        {
          "internalType": "uint256",
          "name": "",
          "type": "uint256"
        }
      ],
      "payable": false,
      "stateMutability": "view",
      "type": "function"
    },
    {
      "constant": true,
      "inputs": [
        {
          "internalType": "uint256",
          "name": "",
          "type": "uint256"
        }
      ],
      "name": "files",
      "outputs": [
        {
          "internalType": "uint256",
          "name": "fileId",
          "type": "uint256"
        },
        {
          "internalType": "string",
          "name": "fileHash",
          "type": "string"
        },
        {
          "internalType": "uint256",
          "name": "fileSize",
          "type": "uint256"
        },
        {
          "internalType": "string",
          "name": "fileType",
          "type": "string"
        },
        {
          "internalType": "string",
          "name": "fileName",
          "type": "string"
        },
        {
          "internalType": "string",
          "name": "fileDescription",
          "type": "string"
        },
        {
          "internalType": "uint256",
          "name": "uploadTime",
          "type": "uint256"
        },
        {
          "internalType": "address payable",
          "name": "uploader",
          "type": "address"
        }
      ],
      "payable": false,
      "stateMutability": "view",
      "type": "function"
    },
    {
      "constant": true,
      "inputs": [],
      "name": "getMemberships",
      "outputs": [
        {
          "internalType": "uint256[]",
          "name": "",
          "type": "uint256[]"
        }
      ],
      "payable": false,
      "stateMutability": "view",
      "type": "function"
    },
    {
      "constant": true,
      "inputs": [],
      "name": "getOrganizations",
      "outputs": [
        {
          "components": [
            {
              "internalType": "uint256",
              "name": "Id",
              "type": "uint256"
            },
            {
              "internalType": "string",
              "name": "Name",
              "type": "string"
            },
            {
              "internalType": "string",
              "name": "Description",
              "type": "string"
            },
            {
              "internalType": "address",
              "name": "Owner",
              "type": "address"
            },
            {
              "internalType": "bool",
              "name": "Private",
              "type": "bool"
            },
            {
              "internalType": "uint256",
              "name": "MemberLimit",
              "type": "uint256"
            },
            {
              "internalType": "bytes32",
              "name": "Passcode",
              "type": "bytes32"
            },
            {
              "internalType": "uint256",
              "name": "createdAt",
              "type": "uint256"
            }
          ],
          "internalType": "struct BuildOrganization.Organization[]",
          "name": "",
          "type": "tuple[]"
        }
      ],
      "payable": false,
      "stateMutability": "view",
      "type": "function"
    },
    {
      "constant": true,
      "inputs": [],
      "name": "name",
      "outputs": [
        {
          "internalType": "string",
          "name": "",
          "type": "string"
        }
      ],
      "payable": false,
      "stateMutability": "view",
      "type": "function"
    },
    {
      "constant": true,
      "inputs": [
        {
          "internalType": "uint256",
          "name": "",
          "type": "uint256"
        }
      ],
      "name": "organizations",
      "outputs": [
        {
          "internalType": "uint256",
          "name": "Id",
          "type": "uint256"
        },
        {
          "internalType": "string",
          "name": "Name",
          "type": "string"
        },
        {
          "internalType": "string",
          "name": "Description",
          "type": "string"
        },
        {
          "internalType": "address",
          "name": "Owner",
          "type": "address"
        },
        {
          "internalType": "bool",
          "name": "Private",
          "type": "bool"
        },
        {
          "internalType": "uint256",
          "name": "MemberLimit",
          "type": "uint256"
        },
        {
          "internalType": "bytes32",
          "name": "Passcode",
          "type": "bytes32"
        },
        {
          "internalType": "uint256",
          "name": "createdAt",
          "type": "uint256"
        }
      ],
      "payable": false,
      "stateMutability": "view",
      "type": "function"
    },
    {
      "constant": false,
      "inputs": [
        {
          "internalType": "string",
          "name": "_fileHash",
          "type": "string"
        },
        {
          "internalType": "uint256",
          "name": "_fileSize",
          "type": "uint256"
        },
        {
          "internalType": "string",
          "name": "_fileType",
          "type": "string"
        },
        {
          "internalType": "string",
          "name": "_fileName",
          "type": "string"
        },
        {
          "internalType": "string",
          "name": "_fileDescription",
          "type": "string"
        }
      ],
      "name": "uploadFile",
      "outputs": [],
      "payable": false,
      "stateMutability": "nonpayable",
      "type": "function"
    },
    {
      "constant": false,
      "inputs": [
        {
          "internalType": "uint256",
          "name": "id",
          "type": "uint256"
        },
        {
          "internalType": "string",
          "name": "passcode",
          "type": "string"
        }
      ],
      "name": "joinOrganization",
      "outputs": [],
      "payable": false,
      "stateMutability": "nonpayable",
      "type": "function"
    },
    {
      "constant": false,
      "inputs": [
        {
          "internalType": "uint256",
          "name": "id",
          "type": "uint256"
        }
      ],
      "name": "exitOrganization",
      "outputs": [],
      "payable": false,
      "stateMutability": "nonpayable",
      "type": "function"
    },
    {
      "constant": false,
      "inputs": [
        {
          "internalType": "uint256",
          "name": "id",
          "type": "uint256"
        },
        {
          "internalType": "address",
          "name": "userAddress",
          "type": "address"
        }
      ],
      "name": "removeMembership",
      "outputs": [],
      "payable": false,
      "stateMutability": "nonpayable",
      "type": "function"
    }
  ],
  "bytecode": "0x60806040526040518060400160405280600981526020017f444353746f726167650000000000000000000000000000000000000000000000815250600090805190602001906200005192919062000062565b506000600155600060035562000111565b828054600181600116156101000203166002900490600052602060002090601f016020900481019282601f10620000a557805160ff1916838001178555620000d6565b82800160010185558215620000d6579182015b82811115620000d5578251825591602001919060010190620000b8565b5b509050620000e59190620000e9565b5090565b6200010e91905b808211156200010a576000816000905550600101620000f0565b5090565b90565b6131e480620001216000396000f3fe608060405234801561001057600080fd5b50600436106100cf5760003560e01c806392515b281161008c578063dc1301af11610066578063dc1301af146101d8578063e792dd8a146101f4578063e82d9d331461022b578063f4c714b414610247576100cf565b806392515b28146101825780639754a3a81461019e578063cdc30353146101bc576100cf565b806306fdde03146100d457806329ab4bf3146100f2578063439535191461010e578063481c10931461012c57806363336311146101485780637840c6a414610164575b600080fd5b6100dc61027e565b6040516100e99190612d90565b60405180910390f35b61010c60048036036101079190810190612919565b61031c565b005b6101166104f9565b6040516101239190612db2565b60405180910390f35b610146600480360361014191908101906126ca565b6104ff565b005b610162600480360361015d9190810190612889565b6108bb565b005b61016c610e49565b6040516101799190612d6e565b60405180910390f35b61019c60048036036101979190810190612860565b610ede565b005b6101a66113f5565b6040516101b39190612d4c565b60405180910390f35b6101d660048036036101d191908101906128c5565b611632565b005b6101f260048036036101ed9190810190612860565b6118e1565b005b61020e60048036036102099190810190612860565b611c50565b604051610222989796959493929190612e67565b60405180910390f35b61024560048036036102409190810190612789565b611e02565b005b610261600480360361025c9190810190612860565b612024565b604051610275989796959493929190612ef3565b60405180910390f35b60008054600181600116156101000203166002900480601f0160208091040260200160405190810160405280929190818152602001828054600181600116156101000203166002900480156103145780601f106102e957610100808354040283529160200191610314565b820191906000526020600020905b8154815290600101906020018083116102f757829003601f168201915b505050505081565b600085511161032a57600080fd5b600084511161033857600080fd5b6000821161034557600080fd5b60001515831515141561036957604051806020016040528060008152509050610378565b600081511161037757600080fd5b5b3373ffffffffffffffffffffffffffffffffffffffff166005600088815260200190815260200160002060009054906101000a900473ffffffffffffffffffffffffffffffffffffffff1673ffffffffffffffffffffffffffffffffffffffff16146103e357600080fd5b6000816040516020016103f69190612d35565b604051602081830303815290604052805190602001209050856004888154811061041c57fe5b9060005260206000209060070201600101908051906020019061044092919061231f565b50846004888154811061044f57fe5b9060005260206000209060070201600201908051906020019061047392919061231f565b50836004888154811061048257fe5b906000526020600020906007020160030160146101000a81548160ff02191690831515021790555082600488815481106104b857fe5b90600052602060002090600702016004018190555080600488815481106104db57fe5b90600052602060002090600702016005018190555050505050505050565b60015481565b600085511161050d57600080fd5b600084511161051b57600080fd5b6000821161052857600080fd5b60001515831515141561054c5760405180602001604052806000815250905061055b565b600081511161055a57600080fd5b5b600060035490506000826040516020016105759190612d35565b60405160208183030381529060405280519060200120905060046040518061010001604052808481526020018981526020018881526020013373ffffffffffffffffffffffffffffffffffffffff1681526020018715158152602001868152602001838152602001428152509080600181540180825580915050906001820390600052602060002090600702016000909192909190915060008201518160000155602082015181600101908051906020019061063292919061239f565b50604082015181600201908051906020019061064f92919061239f565b5060608201518160030160006101000a81548173ffffffffffffffffffffffffffffffffffffffff021916908373ffffffffffffffffffffffffffffffffffffffff16021790555060808201518160030160146101000a81548160ff02191690831515021790555060a0820151816004015560c0820151816005015560e08201518160060155505050336005600084815260200190815260200160002060006101000a81548173ffffffffffffffffffffffffffffffffffffffff021916908373ffffffffffffffffffffffffffffffffffffffff16021790555061077d6001600660003373ffffffffffffffffffffffffffffffffffffffff1673ffffffffffffffffffffffffffffffffffffffff168152602001908152602001600020546122ec90919063ffffffff16565b600660003373ffffffffffffffffffffffffffffffffffffffff1673ffffffffffffffffffffffffffffffffffffffff16815260200190815260200160002081905550600760003373ffffffffffffffffffffffffffffffffffffffff1673ffffffffffffffffffffffffffffffffffffffff168152602001908152602001600020829080600181540180825580915050906001820390600052602060002001600090919290919091505550600860008381526020019081526020016000203390806001815401808255809150509060018203906000526020600020016000909192909190916101000a81548173ffffffffffffffffffffffffffffffffffffffff021916908373ffffffffffffffffffffffffffffffffffffffff1602179055505060036000815480929190600101919050555050505050505050565b600482815481106108c857fe5b906000526020600020906007020160030160009054906101000a900473ffffffffffffffffffffffffffffffffffffffff1673ffffffffffffffffffffffffffffffffffffffff163373ffffffffffffffffffffffffffffffffffffffff161461093157600080fd5b600080600080905060008090506060600760008773ffffffffffffffffffffffffffffffffffffffff1673ffffffffffffffffffffffffffffffffffffffff1681526020019081526020016000208054806020026020016040519081016040528092919081815260200182805480156109c957602002820191906000526020600020905b8154815260200190600101908083116109b5575b50505050509050606060086000898152602001908152602001600020805480602002602001604051908101604052809291908181526020018280548015610a6557602002820191906000526020600020905b8160009054906101000a900473ffffffffffffffffffffffffffffffffffffffff1673ffffffffffffffffffffffffffffffffffffffff1681526020019060010190808311610a1b575b5050505050905060005b8251811015610aa857828181518110610a8457fe5b6020026020010151891415610a9b57809650600194505b8080600101915050610a6f565b5060005b8151811015610b1157818181518110610ac157fe5b602002602001015173ffffffffffffffffffffffffffffffffffffffff168873ffffffffffffffffffffffffffffffffffffffff161415610b0457809550600193505b8080600101915050610aac565b50838015610b1c5750825b15610e3f5760008690505b6001835103811015610bf057600760008973ffffffffffffffffffffffffffffffffffffffff1673ffffffffffffffffffffffffffffffffffffffff1681526020019081526020016000206001820181548110610b8057fe5b9060005260206000200154600760008a73ffffffffffffffffffffffffffffffffffffffff1673ffffffffffffffffffffffffffffffffffffffff1681526020019081526020016000208281548110610bd557fe5b90600052602060002001819055508080600101915050610b27565b50600760008873ffffffffffffffffffffffffffffffffffffffff1673ffffffffffffffffffffffffffffffffffffffff1681526020019081526020016000206001600760008a73ffffffffffffffffffffffffffffffffffffffff1673ffffffffffffffffffffffffffffffffffffffff168152602001908152602001600020805490500381548110610c8057fe5b9060005260206000200160009055600760008873ffffffffffffffffffffffffffffffffffffffff1673ffffffffffffffffffffffffffffffffffffffff168152602001908152602001600020805480919060019003610ce0919061241f565b5060008590505b6001825103811015610db257600860008a81526020019081526020016000206001820181548110610d1457fe5b9060005260206000200160009054906101000a900473ffffffffffffffffffffffffffffffffffffffff16600860008b81526020019081526020016000208281548110610d5d57fe5b9060005260206000200160006101000a81548173ffffffffffffffffffffffffffffffffffffffff021916908373ffffffffffffffffffffffffffffffffffffffff1602179055508080600101915050610ce7565b50600860008981526020019081526020016000206001600860008b8152602001908152602001600020805490500381548110610dea57fe5b9060005260206000200160006101000a81549073ffffffffffffffffffffffffffffffffffffffff021916905560086000898152602001908152602001600020805480919060019003610e3d919061244b565b505b5050505050505050565b6060600760003373ffffffffffffffffffffffffffffffffffffffff1673ffffffffffffffffffffffffffffffffffffffff168152602001908152602001600020805480602002602001604051908101604052809291908181526020018280548015610ed457602002820191906000526020600020905b815481526020019060010190808311610ec0575b5050505050905090565b600080600080905060008090506060600760003373ffffffffffffffffffffffffffffffffffffffff1673ffffffffffffffffffffffffffffffffffffffff168152602001908152602001600020805480602002602001604051908101604052809291908181526020018280548015610f7657602002820191906000526020600020905b815481526020019060010190808311610f62575b5050505050905060606008600088815260200190815260200160002080548060200260200160405190810160405280929190818152602001828054801561101257602002820191906000526020600020905b8160009054906101000a900473ffffffffffffffffffffffffffffffffffffffff1673ffffffffffffffffffffffffffffffffffffffff1681526020019060010190808311610fc8575b5050505050905060005b82518110156110555782818151811061103157fe5b602002602001015188141561104857809650600194505b808060010191505061101c565b5060005b81518110156110be5781818151811061106e57fe5b602002602001015173ffffffffffffffffffffffffffffffffffffffff163373ffffffffffffffffffffffffffffffffffffffff1614156110b157809550600193505b8080600101915050611059565b508380156110c95750825b156113ec5760008690505b600183510381101561119d57600760003373ffffffffffffffffffffffffffffffffffffffff1673ffffffffffffffffffffffffffffffffffffffff168152602001908152602001600020600182018154811061112d57fe5b9060005260206000200154600760003373ffffffffffffffffffffffffffffffffffffffff1673ffffffffffffffffffffffffffffffffffffffff168152602001908152602001600020828154811061118257fe5b906000526020600020018190555080806001019150506110d4565b50600760003373ffffffffffffffffffffffffffffffffffffffff1673ffffffffffffffffffffffffffffffffffffffff1681526020019081526020016000206001600760003373ffffffffffffffffffffffffffffffffffffffff1673ffffffffffffffffffffffffffffffffffffffff16815260200190815260200160002080549050038154811061122d57fe5b9060005260206000200160009055600760003373ffffffffffffffffffffffffffffffffffffffff1673ffffffffffffffffffffffffffffffffffffffff16815260200190815260200160002080548091906001900361128d919061241f565b5060008590505b600182510381101561135f576008600089815260200190815260200160002060018201815481106112c157fe5b9060005260206000200160009054906101000a900473ffffffffffffffffffffffffffffffffffffffff16600860008a8152602001908152602001600020828154811061130a57fe5b9060005260206000200160006101000a81548173ffffffffffffffffffffffffffffffffffffffff021916908373ffffffffffffffffffffffffffffffffffffffff1602179055508080600101915050611294565b50600860008881526020019081526020016000206001600860008a815260200190815260200160002080549050038154811061139757fe5b9060005260206000200160006101000a81549073ffffffffffffffffffffffffffffffffffffffff0219169055600860008881526020019081526020016000208054809190600190036113ea919061244b565b505b50505050505050565b60606004805480602002602001604051908101604052809291908181526020016000905b8282101561162957838290600052602060002090600702016040518061010001604052908160008201548152602001600182018054600181600116156101000203166002900480601f0160208091040260200160405190810160405280929190818152602001828054600181600116156101000203166002900480156114e05780601f106114b5576101008083540402835291602001916114e0565b820191906000526020600020905b8154815290600101906020018083116114c357829003601f168201915b50505050508152602001600282018054600181600116156101000203166002900480601f0160208091040260200160405190810160405280929190818152602001828054600181600116156101000203166002900480156115825780601f1061155757610100808354040283529160200191611582565b820191906000526020600020905b81548152906001019060200180831161156557829003601f168201915b505050505081526020016003820160009054906101000a900473ffffffffffffffffffffffffffffffffffffffff1673ffffffffffffffffffffffffffffffffffffffff1673ffffffffffffffffffffffffffffffffffffffff1681526020016003820160149054906101000a900460ff16151515158152602001600482015481526020016005820154815260200160068201548152505081526020019060010190611419565b50505050905090565b600115156004838154811061164357fe5b906000526020600020906007020160030160149054906101000a900460ff1615151480156116db57506004828154811061167957fe5b90600052602060002090600702016005015460405160200161169b9190612d1a565b60405160208183030381529060405280519060200120816040516020016116c29190612d35565b6040516020818303038152906040528051906020012014155b156116e5576118dd565b6000600483815481106116f457fe5b90600052602060002090600702016004015490508060086000858152602001908152602001600020805490501061172b57506118dd565b6060600760003373ffffffffffffffffffffffffffffffffffffffff1673ffffffffffffffffffffffffffffffffffffffff1681526020019081526020016000208054806020026020016040519081016040528092919081815260200182805480156117b657602002820191906000526020600020905b8154815260200190600101908083116117a2575b5050505050905060005b81518110156117f9578181815181106117d557fe5b60200260200101518514156117ec575050506118dd565b80806001019150506117c0565b50600760003373ffffffffffffffffffffffffffffffffffffffff1673ffffffffffffffffffffffffffffffffffffffff168152602001908152602001600020849080600181540180825580915050906001820390600052602060002001600090919290919091505550600860008581526020019081526020016000203390806001815401808255809150509060018203906000526020600020016000909192909190916101000a81548173ffffffffffffffffffffffffffffffffffffffff021916908373ffffffffffffffffffffffffffffffffffffffff1602179055505050505b5050565b3373ffffffffffffffffffffffffffffffffffffffff166005600083815260200190815260200160002060009054906101000a900473ffffffffffffffffffffffffffffffffffffffff1673ffffffffffffffffffffffffffffffffffffffff161461194c57600080fd5b600480549050811061195d57611c4d565b60008190505b600160048054905003811015611ac8576004600182018154811061198357fe5b90600052602060002090600702016004828154811061199e57fe5b906000526020600020906007020160008201548160000155600182018160010190805460018160011615610100020316600290046119dd929190612477565b5060028201816002019080546001816001161561010002031660029004611a05929190612477565b506003820160009054906101000a900473ffffffffffffffffffffffffffffffffffffffff168160030160006101000a81548173ffffffffffffffffffffffffffffffffffffffff021916908373ffffffffffffffffffffffffffffffffffffffff1602179055506003820160149054906101000a900460ff168160030160146101000a81548160ff0219169083151502179055506004820154816004015560058201548160050155600682015481600601559050508080600101915050611963565b50600460016004805490500381548110611ade57fe5b9060005260206000209060070201600080820160009055600182016000611b0591906124fe565b600282016000611b1591906124fe565b6003820160006101000a81549073ffffffffffffffffffffffffffffffffffffffff02191690556003820160146101000a81549060ff021916905560048201600090556005820160009055600682016000905550506004805480919060019003611b7f9190612546565b506005600082815260200190815260200160002060006101000a81549073ffffffffffffffffffffffffffffffffffffffff0219169055611c096001600660003373ffffffffffffffffffffffffffffffffffffffff1673ffffffffffffffffffffffffffffffffffffffff1681526020019081526020016000205461230890919063ffffffff16565b600660003373ffffffffffffffffffffffffffffffffffffffff1673ffffffffffffffffffffffffffffffffffffffff168152602001908152602001600020819055505b50565b60048181548110611c5d57fe5b9060005260206000209060070201600091509050806000015490806001018054600181600116156101000203166002900480601f016020809104026020016040519081016040528092919081815260200182805460018160011615610100020316600290048015611d0f5780601f10611ce457610100808354040283529160200191611d0f565b820191906000526020600020905b815481529060010190602001808311611cf257829003601f168201915b505050505090806002018054600181600116156101000203166002900480601f016020809104026020016040519081016040528092919081815260200182805460018160011615610100020316600290048015611dad5780601f10611d8257610100808354040283529160200191611dad565b820191906000526020600020905b815481529060010190602001808311611d9057829003601f168201915b5050505050908060030160009054906101000a900473ffffffffffffffffffffffffffffffffffffffff16908060030160149054906101000a900460ff16908060040154908060050154908060060154905088565b6000855111611e1057600080fd5b6000835111611e1e57600080fd5b6000825111611e2c57600080fd5b6000815111611e3a57600080fd5b600073ffffffffffffffffffffffffffffffffffffffff163373ffffffffffffffffffffffffffffffffffffffff161415611e7457600080fd5b60008411611e8157600080fd5b60405180610100016040528060015481526020018681526020018581526020018481526020018381526020018281526020014281526020013373ffffffffffffffffffffffffffffffffffffffff16815250600260006001548152602001908152602001600020600082015181600001556020820151816001019080519060200190611f0e92919061239f565b50604082015181600201556060820151816003019080519060200190611f3592919061239f565b506080820151816004019080519060200190611f5292919061239f565b5060a0820151816005019080519060200190611f6f92919061239f565b5060c0820151816006015560e08201518160070160006101000a81548173ffffffffffffffffffffffffffffffffffffffff021916908373ffffffffffffffffffffffffffffffffffffffff1602179055509050506001600081548092919060010191905055507f6e95bbaa37a5fdec42a312e049dea2fe6160ebe659214d3409b4f91f164c2f5260015486868686864233604051612015989796959493929190612dcd565b60405180910390a15050505050565b6002602052806000526040600020600091509050806000015490806001018054600181600116156101000203166002900480601f0160208091040260200160405190810160405280929190818152602001828054600181600116156101000203166002900480156120d65780601f106120ab576101008083540402835291602001916120d6565b820191906000526020600020905b8154815290600101906020018083116120b957829003601f168201915b505050505090806002015490806003018054600181600116156101000203166002900480601f01602080910402602001604051908101604052809291908181526020018280546001816001161561010002031660029004801561217a5780601f1061214f5761010080835404028352916020019161217a565b820191906000526020600020905b81548152906001019060200180831161215d57829003601f168201915b505050505090806004018054600181600116156101000203166002900480601f0160208091040260200160405190810160405280929190818152602001828054600181600116156101000203166002900480156122185780601f106121ed57610100808354040283529160200191612218565b820191906000526020600020905b8154815290600101906020018083116121fb57829003601f168201915b505050505090806005018054600181600116156101000203166002900480601f0160208091040260200160405190810160405280929190818152602001828054600181600116156101000203166002900480156122b65780601f1061228b576101008083540402835291602001916122b6565b820191906000526020600020905b81548152906001019060200180831161229957829003601f168201915b5050505050908060060154908060070160009054906101000a900473ffffffffffffffffffffffffffffffffffffffff16905088565b6000808284019050838110156122fe57fe5b8091505092915050565b60008282111561231457fe5b818303905092915050565b828054600181600116156101000203166002900490600052602060002090601f016020900481019282601f1061236057805160ff191683800117855561238e565b8280016001018555821561238e579182015b8281111561238d578251825591602001919060010190612372565b5b50905061239b9190612578565b5090565b828054600181600116156101000203166002900490600052602060002090601f016020900481019282601f106123e057805160ff191683800117855561240e565b8280016001018555821561240e579182015b8281111561240d5782518255916020019190600101906123f2565b5b50905061241b9190612578565b5090565b815481835581811115612446578183600052602060002091820191016124459190612578565b5b505050565b815481835581811115612472578183600052602060002091820191016124719190612578565b5b505050565b828054600181600116156101000203166002900490600052602060002090601f016020900481019282601f106124b057805485556124ed565b828001600101855582156124ed57600052602060002091601f016020900482015b828111156124ec5782548255916001019190600101906124d1565b5b5090506124fa9190612578565b5090565b50805460018160011615610100020316600290046000825580601f106125245750612543565b601f0160209004906000526020600020908101906125429190612578565b5b50565b81548183558181111561257357600702816007028360005260206000209182019101612572919061259d565b5b505050565b61259a91905b8082111561259657600081600090555060010161257e565b5090565b90565b61263491905b80821115612630576000808201600090556001820160006125c491906124fe565b6002820160006125d491906124fe565b6003820160006101000a81549073ffffffffffffffffffffffffffffffffffffffff02191690556003820160146101000a81549060ff0219169055600482016000905560058201600090556006820160009055506007016125a3565b5090565b90565b6000813590506126468161315c565b92915050565b60008135905061265b81613173565b92915050565b600082601f83011261267257600080fd5b813561268561268082612fba565b612f8d565b915080825260208301602083018583830111156126a157600080fd5b6126ac8382846130ff565b50505092915050565b6000813590506126c48161318a565b92915050565b600080600080600060a086880312156126e257600080fd5b600086013567ffffffffffffffff8111156126fc57600080fd5b61270888828901612661565b955050602086013567ffffffffffffffff81111561272557600080fd5b61273188828901612661565b94505060406127428882890161264c565b9350506060612753888289016126b5565b925050608086013567ffffffffffffffff81111561277057600080fd5b61277c88828901612661565b9150509295509295909350565b600080600080600060a086880312156127a157600080fd5b600086013567ffffffffffffffff8111156127bb57600080fd5b6127c788828901612661565b95505060206127d8888289016126b5565b945050604086013567ffffffffffffffff8111156127f557600080fd5b61280188828901612661565b935050606086013567ffffffffffffffff81111561281e57600080fd5b61282a88828901612661565b925050608086013567ffffffffffffffff81111561284757600080fd5b61285388828901612661565b9150509295509295909350565b60006020828403121561287257600080fd5b6000612880848285016126b5565b91505092915050565b6000806040838503121561289c57600080fd5b60006128aa858286016126b5565b92505060206128bb85828601612637565b9150509250929050565b600080604083850312156128d857600080fd5b60006128e6858286016126b5565b925050602083013567ffffffffffffffff81111561290357600080fd5b61290f85828601612661565b9150509250929050565b60008060008060008060c0878903121561293257600080fd5b600061294089828a016126b5565b965050602087013567ffffffffffffffff81111561295d57600080fd5b61296989828a01612661565b955050604087013567ffffffffffffffff81111561298657600080fd5b61299289828a01612661565b94505060606129a389828a0161264c565b93505060806129b489828a016126b5565b92505060a087013567ffffffffffffffff8111156129d157600080fd5b6129dd89828a01612661565b9150509295509295509295565b60006129f68383612c45565b905092915050565b6000612a0a8383612cfc565b60208301905092915050565b612a1f816130ad565b82525050565b612a2e8161309b565b82525050565b612a3d8161309b565b82525050565b6000612a4e82613006565b612a58818561304c565b935083602082028501612a6a85612fe6565b8060005b85811015612aa65784840389528151612a8785826129ea565b9450612a9283613032565b925060208a01995050600181019050612a6e565b50829750879550505050505092915050565b6000612ac382613011565b612acd818561305d565b9350612ad883612ff6565b8060005b83811015612b09578151612af088826129fe565b9750612afb8361303f565b925050600181019050612adc565b5085935050505092915050565b612b1f816130bf565b82525050565b612b2e816130bf565b82525050565b612b3d816130cb565b82525050565b612b4c816130cb565b82525050565b612b63612b5e826130cb565b613141565b82525050565b6000612b7482613027565b612b7e818561307f565b9350612b8e81856020860161310e565b612b978161314b565b840191505092915050565b6000612bad82613027565b612bb78185613090565b9350612bc781856020860161310e565b80840191505092915050565b6000612bde8261301c565b612be8818561306e565b9350612bf881856020860161310e565b612c018161314b565b840191505092915050565b6000612c178261301c565b612c21818561307f565b9350612c3181856020860161310e565b612c3a8161314b565b840191505092915050565b600061010083016000830151612c5e6000860182612cfc565b5060208301518482036020860152612c768282612bd3565b91505060408301518482036040860152612c908282612bd3565b9150506060830151612ca56060860182612a25565b506080830151612cb86080860182612b16565b5060a0830151612ccb60a0860182612cfc565b5060c0830151612cde60c0860182612b34565b5060e0830151612cf160e0860182612cfc565b508091505092915050565b612d05816130f5565b82525050565b612d14816130f5565b82525050565b6000612d268284612b52565b60208201915081905092915050565b6000612d418284612ba2565b915081905092915050565b60006020820190508181036000830152612d668184612a43565b905092915050565b60006020820190508181036000830152612d888184612ab8565b905092915050565b60006020820190508181036000830152612daa8184612c0c565b905092915050565b6000602082019050612dc76000830184612d0b565b92915050565b600061010082019050612de3600083018b612d0b565b8181036020830152612df5818a612b69565b9050612e046040830189612d0b565b8181036060830152612e168188612b69565b90508181036080830152612e2a8187612b69565b905081810360a0830152612e3e8186612b69565b9050612e4d60c0830185612d0b565b612e5a60e0830184612a16565b9998505050505050505050565b600061010082019050612e7d600083018b612d0b565b8181036020830152612e8f818a612c0c565b90508181036040830152612ea38189612c0c565b9050612eb26060830188612a34565b612ebf6080830187612b25565b612ecc60a0830186612d0b565b612ed960c0830185612b43565b612ee660e0830184612d0b565b9998505050505050505050565b600061010082019050612f09600083018b612d0b565b8181036020830152612f1b818a612c0c565b9050612f2a6040830189612d0b565b8181036060830152612f3c8188612c0c565b90508181036080830152612f508187612c0c565b905081810360a0830152612f648186612c0c565b9050612f7360c0830185612d0b565b612f8060e0830184612a16565b9998505050505050505050565b6000604051905081810181811067ffffffffffffffff82111715612fb057600080fd5b8060405250919050565b600067ffffffffffffffff821115612fd157600080fd5b601f19601f8301169050602081019050919050565b6000819050602082019050919050565b6000819050602082019050919050565b600081519050919050565b600081519050919050565b600081519050919050565b600081519050919050565b6000602082019050919050565b6000602082019050919050565b600082825260208201905092915050565b600082825260208201905092915050565b600082825260208201905092915050565b600082825260208201905092915050565b600081905092915050565b60006130a6826130d5565b9050919050565b60006130b8826130d5565b9050919050565b60008115159050919050565b6000819050919050565b600073ffffffffffffffffffffffffffffffffffffffff82169050919050565b6000819050919050565b82818337600083830152505050565b60005b8381101561312c578082015181840152602081019050613111565b8381111561313b576000848401525b50505050565b6000819050919050565b6000601f19601f8301169050919050565b6131658161309b565b811461317057600080fd5b50565b61317c816130bf565b811461318757600080fd5b50565b613193816130f5565b811461319e57600080fd5b5056fea365627a7a72315820b5b5b97a7a3674a1cf9b54dd3dcd15af539156af3f29c91ec735d455760cacbc6c6578706572696d656e74616cf564736f6c63430005100040",
  "source": "// SPDX-License-Identifier: UNLICENSED\npragma solidity ^0.5.0;\npragma experimental ABIEncoderV2;\n\nimport \"./DCStorage.sol\";\nimport \"./safemath.sol\";\nimport \"./Organization.sol\";\n\ncontract Membership is BuildOrganization{\n\n    function joinOrganization(uint id, string memory passcode) public {\n        if(organizations[id].Private == true && keccak256(abi.encodePacked(passcode)) != keccak256(abi.encodePacked(organizations[id].Passcode))){\n            return;\n        }\n\n        uint memberLimit = organizations[id].MemberLimit;\n        if(organizationToAddresses[id].length >= memberLimit){\n            return;\n        }\n\n        uint[] memory orgIds = addressToOrganizations[msg.sender];\n        for(uint i; i < orgIds.length; i++){\n            if(id == orgIds[i]){\n                return;\n            }\n        }\n        addressToOrganizations[msg.sender].push(id);\n        organizationToAddresses[id].push(msg.sender);\n    }\n\n    function exitOrganization(uint id) public {\n        uint orgIndex;\n        uint memberIndex;\n        bool isMember = false;\n        bool isMemberConfirm = false;\n        uint[] memory orgIds = addressToOrganizations[msg.sender];\n        address[] memory memberAddresses = organizationToAddresses[id];\n        for(uint i; i < orgIds.length; i++){\n            if(id == orgIds[i]){\n                orgIndex = i;\n                isMember = true;\n            }\n        }\n        for(uint i; i < memberAddresses.length; i++){\n            if(msg.sender == memberAddresses[i]){\n                memberIndex = i;\n                isMemberConfirm = true;\n            }\n        }\n        if(isMember && isMemberConfirm){\n            for(uint i = orgIndex; i < orgIds.length - 1; i++){\n                addressToOrganizations[msg.sender][i] = addressToOrganizations[msg.sender][i+1];\n            }\n            delete addressToOrganizations[msg.sender][addressToOrganizations[msg.sender].length - 1];\n            addressToOrganizations[msg.sender].length--;\n            for(uint i = memberIndex; i < memberAddresses.length - 1; i++){\n                organizationToAddresses[id][i] = organizationToAddresses[id][i+1]; \n            }\n            delete organizationToAddresses[id][organizationToAddresses[id].length - 1];\n            organizationToAddresses[id].length--;\n        }\n    }\n\n    function removeMembership(uint id, address userAddress) public {\n        require(msg.sender == organizations[id].Owner);\n        uint orgIndex;\n        uint memberIndex;\n        bool isMember = false;\n        bool isMemberConfirm = false;\n        uint[] memory orgIds = addressToOrganizations[userAddress];\n        address[] memory memberAddresses = organizationToAddresses[id];\n        for(uint i; i < orgIds.length; i++){\n            if(id == orgIds[i]){\n                orgIndex = i;\n                isMember = true;\n            }\n        }\n        for(uint i; i < memberAddresses.length; i++){\n            if(userAddress == memberAddresses[i]){\n                memberIndex = i;\n                isMemberConfirm = true;\n            }\n        }\n        if(isMember && isMemberConfirm){\n            for(uint i = orgIndex; i < orgIds.length - 1; i++){\n                addressToOrganizations[userAddress][i] = addressToOrganizations[userAddress][i+1];\n            }\n            delete addressToOrganizations[userAddress][addressToOrganizations[userAddress].length - 1];\n            addressToOrganizations[userAddress].length--;\n            for(uint i = memberIndex; i < memberAddresses.length - 1; i++){\n                organizationToAddresses[id][i] = organizationToAddresses[id][i+1]; \n            }\n            delete organizationToAddresses[id][organizationToAddresses[id].length - 1];\n            organizationToAddresses[id].length--;\n        }\n    }\n\n}\n\n\n\n\n",
  "sourcePath": "/Users/csuftitan/Desktop/Meet Turakhia/Advanced Blockchain (CPSC 559)/Projects/Final Project(4 Dec 2022)/src/contracts/Membership.sol",
  "compiler": {
    "name": "solc",
    "version": "0.5.16+commit.9c3226ce.Emscripten.clang"
  },
  "schemaVersion": "3.4.9",
  "updatedAt": "2022-12-05T05:46:21.487Z",
  "networkType": "ethereum",
  "devdoc": {
    "methods": {}
  },
  "userdoc": {
    "methods": {}
  }
}