{
  "contractName": "OrganizationUploads",
  "abi": [
    {
      "inputs": [],
      "payable": false,
      "stateMutability": "nonpayable",
      "type": "constructor"
    },
    {
      "anonymous": false,
      "inputs": [
        {
          "indexed": false,
          "internalType": "uint256",
          "name": "fileId",
          "type": "uint256"
        },
        {
          "indexed": false,
          "internalType": "string",
          "name": "fileHash",
          "type": "string"
        },
        {
          "indexed": false,
          "internalType": "uint256",
          "name": "fileSize",
          "type": "uint256"
        },
        {
          "indexed": false,
          "internalType": "string",
          "name": "fileType",
          "type": "string"
        },
        {
          "indexed": false,
          "internalType": "string",
          "name": "fileName",
          "type": "string"
        },
        {
          "indexed": false,
          "internalType": "string",
          "name": "fileDescription",
          "type": "string"
        },
        {
          "indexed": false,
          "internalType": "uint256",
          "name": "uploadTime",
          "type": "uint256"
        },
        {
          "indexed": false,
          "internalType": "address payable",
          "name": "uploader",
          "type": "address"
        },
        {
          "indexed": false,
          "internalType": "address",
          "name": "reciever",
          "type": "address"
        },
        {
          "indexed": false,
          "internalType": "bool",
          "name": "isOneTimeLink",
          "type": "bool"
        }
      ],
      "name": "DirectFileUploaded",
      "type": "event"
    },
    {
      "anonymous": false,
      "inputs": [
        {
          "indexed": false,
          "internalType": "uint256",
          "name": "fileId",
          "type": "uint256"
        },
        {
          "indexed": false,
          "internalType": "string",
          "name": "fileHash",
          "type": "string"
        },
        {
          "indexed": false,
          "internalType": "uint256",
          "name": "fileSize",
          "type": "uint256"
        },
        {
          "indexed": false,
          "internalType": "string",
          "name": "fileType",
          "type": "string"
        },
        {
          "indexed": false,
          "internalType": "string",
          "name": "fileName",
          "type": "string"
        },
        {
          "indexed": false,
          "internalType": "string",
          "name": "fileDescription",
          "type": "string"
        },
        {
          "indexed": false,
          "internalType": "uint256",
          "name": "uploadTime",
          "type": "uint256"
        },
        {
          "indexed": false,
          "internalType": "address payable",
          "name": "uploader",
          "type": "address"
        }
      ],
      "name": "FileUploaded",
      "type": "event"
    },
    {
      "anonymous": false,
      "inputs": [
        {
          "indexed": false,
          "internalType": "uint256",
          "name": "fileId",
          "type": "uint256"
        },
        {
          "indexed": false,
          "internalType": "string",
          "name": "fileHash",
          "type": "string"
        },
        {
          "indexed": false,
          "internalType": "uint256",
          "name": "fileSize",
          "type": "uint256"
        },
        {
          "indexed": false,
          "internalType": "string",
          "name": "fileType",
          "type": "string"
        },
        {
          "indexed": false,
          "internalType": "string",
          "name": "fileName",
          "type": "string"
        },
        {
          "indexed": false,
          "internalType": "string",
          "name": "fileDescription",
          "type": "string"
        },
        {
          "indexed": false,
          "internalType": "uint256",
          "name": "uploadTime",
          "type": "uint256"
        },
        {
          "indexed": false,
          "internalType": "address payable",
          "name": "uploader",
          "type": "address"
        },
        {
          "indexed": false,
          "internalType": "uint256",
          "name": "organizationId",
          "type": "uint256"
        },
        {
          "indexed": false,
          "internalType": "bool",
          "name": "isFlagged",
          "type": "bool"
        }
      ],
      "name": "OrganizationFileUploaded",
      "type": "event"
    },
    {
      "constant": true,
      "inputs": [
        {
          "internalType": "address",
          "name": "",
          "type": "address"
        },
        {
          "internalType": "uint256",
          "name": "",
          "type": "uint256"
        }
      ],
      "name": "addressToFileIds",
      "outputs": [
        {
          "internalType": "uint256",
          "name": "",
          "type": "uint256"
        }
      ],
      "payable": false,
      "stateMutability": "view",
      "type": "function"
    },
    {
      "constant": false,
      "inputs": [
        {
          "internalType": "string",
          "name": "name",
          "type": "string"
        },
        {
          "internalType": "string",
          "name": "description",
          "type": "string"
        },
        {
          "internalType": "bool",
          "name": "privateBool",
          "type": "bool"
        },
        {
          "internalType": "uint256",
          "name": "memberLimit",
          "type": "uint256"
        },
        {
          "internalType": "string",
          "name": "passcode",
          "type": "string"
        }
      ],
      "name": "createOrganization",
      "outputs": [],
      "payable": false,
      "stateMutability": "nonpayable",
      "type": "function"
    },
    {
      "constant": true,
      "inputs": [],
      "name": "currentUserFileIds",
      "outputs": [
        {
          "internalType": "uint256[]",
          "name": "",
          "type": "uint256[]"
        }
      ],
      "payable": false,
      "stateMutability": "view",
      "type": "function"
    },
    {
      "constant": false,
      "inputs": [
        {
          "internalType": "uint256",
          "name": "id",
          "type": "uint256"
        }
      ],
      "name": "deleteOrganization",
      "outputs": [],
      "payable": false,
      "stateMutability": "nonpayable",
      "type": "function"
    },
    {
      "constant": true,
      "inputs": [],
      "name": "directFileCount",
      "outputs": [
        {
          "internalType": "uint256",
          "name": "",
          "type": "uint256"
        }
      ],
      "payable": false,
      "stateMutability": "view",
      "type": "function"
    },
    {
      "constant": true,
      "inputs": [
        {
          "internalType": "uint256",
          "name": "",
          "type": "uint256"
        }
      ],
      "name": "directfiles",
      "outputs": [
        {
          "internalType": "uint256",
          "name": "fileId",
          "type": "uint256"
        },
        {
          "internalType": "string",
          "name": "fileHash",
          "type": "string"
        },
        {
          "internalType": "uint256",
          "name": "fileSize",
          "type": "uint256"
        },
        {
          "internalType": "string",
          "name": "fileType",
          "type": "string"
        },
        {
          "internalType": "string",
          "name": "fileName",
          "type": "string"
        },
        {
          "internalType": "string",
          "name": "fileDescription",
          "type": "string"
        },
        {
          "internalType": "uint256",
          "name": "uploadTime",
          "type": "uint256"
        },
        {
          "internalType": "address payable",
          "name": "uploader",
          "type": "address"
        },
        {
          "internalType": "address",
          "name": "reciever",
          "type": "address"
        },
        {
          "internalType": "bool",
          "name": "isOneTimeLink",
          "type": "bool"
        }
      ],
      "payable": false,
      "stateMutability": "view",
      "type": "function"
    },
    {
      "constant": false,
      "inputs": [
        {
          "internalType": "uint256",
          "name": "id",
          "type": "uint256"
        },
        {
          "internalType": "string",
          "name": "name",
          "type": "string"
        },
        {
          "internalType": "string",
          "name": "description",
          "type": "string"
        },
        {
          "internalType": "bool",
          "name": "privateBool",
          "type": "bool"
        },
        {
          "internalType": "uint256",
          "name": "memberLimit",
          "type": "uint256"
        },
        {
          "internalType": "string",
          "name": "passcode",
          "type": "string"
        }
      ],
      "name": "editOrganization",
      "outputs": [],
      "payable": false,
      "stateMutability": "nonpayable",
      "type": "function"
    },
    {
      "constant": false,
      "inputs": [
        {
          "internalType": "uint256",
          "name": "id",
          "type": "uint256"
        }
      ],
      "name": "exitOrganization",
      "outputs": [],
      "payable": false,
      "stateMutability": "nonpayable",
      "type": "function"
    },
    {
      "constant": true,
      "inputs": [],
      "name": "fileCount",
      "outputs": [
        {
          "internalType": "uint256",
          "name": "",
          "type": "uint256"
        }
      ],
      "payable": false,
      "stateMutability": "view",
      "type": "function"
    },
    {
      "constant": false,
      "inputs": [
        {
          "internalType": "uint256",
          "name": "id",
          "type": "uint256"
        }
      ],
      "name": "fileDelete",
      "outputs": [],
      "payable": false,
      "stateMutability": "nonpayable",
      "type": "function"
    },
    {
      "constant": true,
      "inputs": [
        {
          "internalType": "uint256",
          "name": "",
          "type": "uint256"
        }
      ],
      "name": "files",
      "outputs": [
        {
          "internalType": "uint256",
          "name": "fileId",
          "type": "uint256"
        },
        {
          "internalType": "string",
          "name": "fileHash",
          "type": "string"
        },
        {
          "internalType": "uint256",
          "name": "fileSize",
          "type": "uint256"
        },
        {
          "internalType": "string",
          "name": "fileType",
          "type": "string"
        },
        {
          "internalType": "string",
          "name": "fileName",
          "type": "string"
        },
        {
          "internalType": "string",
          "name": "fileDescription",
          "type": "string"
        },
        {
          "internalType": "uint256",
          "name": "uploadTime",
          "type": "uint256"
        },
        {
          "internalType": "address payable",
          "name": "uploader",
          "type": "address"
        }
      ],
      "payable": false,
      "stateMutability": "view",
      "type": "function"
    },
    {
      "constant": true,
      "inputs": [],
      "name": "getMemberships",
      "outputs": [
        {
          "internalType": "uint256[]",
          "name": "",
          "type": "uint256[]"
        }
      ],
      "payable": false,
      "stateMutability": "view",
      "type": "function"
    },
    {
      "constant": true,
      "inputs": [],
      "name": "getOrganizations",
      "outputs": [
        {
          "components": [
            {
              "internalType": "uint256",
              "name": "Id",
              "type": "uint256"
            },
            {
              "internalType": "string",
              "name": "Name",
              "type": "string"
            },
            {
              "internalType": "string",
              "name": "Description",
              "type": "string"
            },
            {
              "internalType": "address",
              "name": "Owner",
              "type": "address"
            },
            {
              "internalType": "bool",
              "name": "Private",
              "type": "bool"
            },
            {
              "internalType": "uint256",
              "name": "MemberLimit",
              "type": "uint256"
            },
            {
              "internalType": "bytes32",
              "name": "Passcode",
              "type": "bytes32"
            },
            {
              "internalType": "uint256",
              "name": "createdAt",
              "type": "uint256"
            }
          ],
          "internalType": "struct BuildOrganization.Organization[]",
          "name": "",
          "type": "tuple[]"
        }
      ],
      "payable": false,
      "stateMutability": "view",
      "type": "function"
    },
    {
      "constant": false,
      "inputs": [
        {
          "internalType": "uint256",
          "name": "id",
          "type": "uint256"
        },
        {
          "internalType": "string",
          "name": "passcode",
          "type": "string"
        }
      ],
      "name": "joinOrganization",
      "outputs": [],
      "payable": false,
      "stateMutability": "nonpayable",
      "type": "function"
    },
    {
      "constant": true,
      "inputs": [],
      "name": "name",
      "outputs": [
        {
          "internalType": "string",
          "name": "",
          "type": "string"
        }
      ],
      "payable": false,
      "stateMutability": "view",
      "type": "function"
    },
    {
      "constant": true,
      "inputs": [],
      "name": "organizationFileCount",
      "outputs": [
        {
          "internalType": "uint256",
          "name": "",
          "type": "uint256"
        }
      ],
      "payable": false,
      "stateMutability": "view",
      "type": "function"
    },
    {
      "constant": true,
      "inputs": [
        {
          "internalType": "uint256",
          "name": "",
          "type": "uint256"
        },
        {
          "internalType": "uint256",
          "name": "",
          "type": "uint256"
        }
      ],
      "name": "organizationToFileIds",
      "outputs": [
        {
          "internalType": "uint256",
          "name": "",
          "type": "uint256"
        }
      ],
      "payable": false,
      "stateMutability": "view",
      "type": "function"
    },
    {
      "constant": true,
      "inputs": [
        {
          "internalType": "uint256",
          "name": "",
          "type": "uint256"
        }
      ],
      "name": "organizationfiles",
      "outputs": [
        {
          "internalType": "uint256",
          "name": "fileId",
          "type": "uint256"
        },
        {
          "internalType": "string",
          "name": "fileHash",
          "type": "string"
        },
        {
          "internalType": "uint256",
          "name": "fileSize",
          "type": "uint256"
        },
        {
          "internalType": "string",
          "name": "fileType",
          "type": "string"
        },
        {
          "internalType": "string",
          "name": "fileName",
          "type": "string"
        },
        {
          "internalType": "string",
          "name": "fileDescription",
          "type": "string"
        },
        {
          "internalType": "uint256",
          "name": "uploadTime",
          "type": "uint256"
        },
        {
          "internalType": "address payable",
          "name": "uploader",
          "type": "address"
        },
        {
          "internalType": "uint256",
          "name": "organizationId",
          "type": "uint256"
        },
        {
          "internalType": "bool",
          "name": "isFlagged",
          "type": "bool"
        }
      ],
      "payable": false,
      "stateMutability": "view",
      "type": "function"
    },
    {
      "constant": true,
      "inputs": [
        {
          "internalType": "uint256",
          "name": "",
          "type": "uint256"
        }
      ],
      "name": "organizations",
      "outputs": [
        {
          "internalType": "uint256",
          "name": "Id",
          "type": "uint256"
        },
        {
          "internalType": "string",
          "name": "Name",
          "type": "string"
        },
        {
          "internalType": "string",
          "name": "Description",
          "type": "string"
        },
        {
          "internalType": "address",
          "name": "Owner",
          "type": "address"
        },
        {
          "internalType": "bool",
          "name": "Private",
          "type": "bool"
        },
        {
          "internalType": "uint256",
          "name": "MemberLimit",
          "type": "uint256"
        },
        {
          "internalType": "bytes32",
          "name": "Passcode",
          "type": "bytes32"
        },
        {
          "internalType": "uint256",
          "name": "createdAt",
          "type": "uint256"
        }
      ],
      "payable": false,
      "stateMutability": "view",
      "type": "function"
    },
    {
      "constant": false,
      "inputs": [
        {
          "internalType": "uint256",
          "name": "id",
          "type": "uint256"
        },
        {
          "internalType": "address",
          "name": "userAddress",
          "type": "address"
        }
      ],
      "name": "removeMembership",
      "outputs": [],
      "payable": false,
      "stateMutability": "nonpayable",
      "type": "function"
    },
    {
      "constant": false,
      "inputs": [
        {
          "internalType": "string",
          "name": "_fileHash",
          "type": "string"
        },
        {
          "internalType": "uint256",
          "name": "_fileSize",
          "type": "uint256"
        },
        {
          "internalType": "string",
          "name": "_fileType",
          "type": "string"
        },
        {
          "internalType": "string",
          "name": "_fileName",
          "type": "string"
        },
        {
          "internalType": "string",
          "name": "_fileDescription",
          "type": "string"
        },
        {
          "internalType": "address",
          "name": "_reciever",
          "type": "address"
        },
        {
          "internalType": "bool",
          "name": "_isOneTimeLink",
          "type": "bool"
        }
      ],
      "name": "uploadDirectFile",
      "outputs": [],
      "payable": false,
      "stateMutability": "nonpayable",
      "type": "function"
    },
    {
      "constant": false,
      "inputs": [
        {
          "internalType": "string",
          "name": "_fileHash",
          "type": "string"
        },
        {
          "internalType": "uint256",
          "name": "_fileSize",
          "type": "uint256"
        },
        {
          "internalType": "string",
          "name": "_fileType",
          "type": "string"
        },
        {
          "internalType": "string",
          "name": "_fileName",
          "type": "string"
        },
        {
          "internalType": "string",
          "name": "_fileDescription",
          "type": "string"
        }
      ],
      "name": "uploadFile",
      "outputs": [],
      "payable": false,
      "stateMutability": "nonpayable",
      "type": "function"
    },
    {
      "constant": true,
      "inputs": [],
      "name": "uploaderFileIds",
      "outputs": [
        {
          "internalType": "uint256[]",
          "name": "",
          "type": "uint256[]"
        }
      ],
      "payable": false,
      "stateMutability": "view",
      "type": "function"
    },
    {
      "constant": true,
      "inputs": [
        {
          "internalType": "address",
          "name": "",
          "type": "address"
        },
        {
          "internalType": "uint256",
          "name": "",
          "type": "uint256"
        }
      ],
      "name": "uploaderToFileIds",
      "outputs": [
        {
          "internalType": "uint256",
          "name": "",
          "type": "uint256"
        }
      ],
      "payable": false,
      "stateMutability": "view",
      "type": "function"
    },
    {
      "constant": false,
      "inputs": [
        {
          "internalType": "string",
          "name": "_fileHash",
          "type": "string"
        },
        {
          "internalType": "uint256",
          "name": "_fileSize",
          "type": "uint256"
        },
        {
          "internalType": "string",
          "name": "_fileType",
          "type": "string"
        },
        {
          "internalType": "string",
          "name": "_fileName",
          "type": "string"
        },
        {
          "internalType": "string",
          "name": "_fileDescription",
          "type": "string"
        },
        {
          "internalType": "uint256",
          "name": "_organizationId",
          "type": "uint256"
        },
        {
          "internalType": "bool",
          "name": "_isFlagged",
          "type": "bool"
        }
      ],
      "name": "uploadOrganizationFile",
      "outputs": [],
      "payable": false,
      "stateMutability": "nonpayable",
      "type": "function"
    },
    {
      "constant": true,
      "inputs": [
        {
          "internalType": "uint256",
          "name": "id",
          "type": "uint256"
        }
      ],
      "name": "currentOrganizationFileIds",
      "outputs": [
        {
          "internalType": "uint256[]",
          "name": "",
          "type": "uint256[]"
        }
      ],
      "payable": false,
      "stateMutability": "view",
      "type": "function"
    },
    {
      "constant": false,
      "inputs": [
        {
          "internalType": "uint256",
          "name": "fileId",
          "type": "uint256"
        },
        {
          "internalType": "uint256",
          "name": "organizationId",
          "type": "uint256"
        }
      ],
      "name": "organizationFileDelete",
      "outputs": [],
      "payable": false,
      "stateMutability": "nonpayable",
      "type": "function"
    },
    {
      "constant": false,
      "inputs": [
        {
          "internalType": "uint256",
          "name": "fileId",
          "type": "uint256"
        },
        {
          "internalType": "uint256",
          "name": "organizationId",
          "type": "uint256"
        }
      ],
      "name": "toggleFlag",
      "outputs": [],
      "payable": false,
      "stateMutability": "nonpayable",
      "type": "function"
    }
  ],
  "bytecode": "0x60806040526040518060400160405280600981526020017f444353746f726167650000000000000000000000000000000000000000000000815250600090805190602001906200005192919062000116565b50600060015560006003556040518060400160405280601181526020017f43727970746f20426f782044697265637400000000000000000000000000000081525060099080519060200190620000a992919062000116565b506000600a556040518060400160405280601e81526020017f43727970746f20426f78204f7267616e697a6174696f6e2055706c6f61640000815250600e9080519060200190620000fc92919062000116565b506000600f553480156200010f57600080fd5b50620001c5565b828054600181600116156101000203166002900490600052602060002090601f016020900481019282601f106200015957805160ff19168380011785556200018a565b828001600101855582156200018a579182015b82811115620001895782518255916020019190600101906200016c565b5b5090506200019991906200019d565b5090565b620001c291905b80821115620001be576000816000905550600101620001a4565b5090565b90565b614f2780620001d56000396000f3fe608060405234801561001057600080fd5b50600436106101c35760003560e01c80639754a3a8116100f9578063cc2cb94a11610097578063e792dd8a11610071578063e792dd8a146104e5578063e82d9d331461051c578063eca017f214610538578063f4c714b414610571576101c3565b8063cc2cb94a14610491578063cdc30353146104ad578063dc1301af146104c9576101c3565b8063a89b01a8116100d3578063a89b01a814610409578063adfa950914610427578063b8f871a114610445578063c07bdbf714610461576101c3565b80639754a3a81461039f57806398489bc7146103bd578063a1df63df146103d9576101c3565b806356a24c24116101665780636febc6c0116101405780636febc6c0146102fc5780637840c6a41461032c57806392515b281461034a578063942b7c7f14610366576101c3565b806356a24c24146102a65780635a594277146102c257806363336311146102e0576101c3565b8063339d4ad7116101a2578063339d4ad7146102205780634395351914610250578063481c10931461026e5780634db20ee91461028a576101c3565b8062d5f22b146101c857806306fdde03146101e657806329ab4bf314610204575b600080fd5b6101d06105a8565b6040516101dd919061481f565b60405180910390f35b6101ee6105ae565b6040516101fb91906147fd565b60405180910390f35b61021e6004803603610219919081019061437c565b61064c565b005b61023a60048036036102359190810190613ef5565b610829565b604051610247919061481f565b60405180910390f35b610258610857565b604051610265919061481f565b60405180910390f35b61028860048036036102839190810190613f31565b61085d565b005b6102a4600480360361029f91908101906140c7565b610c19565b005b6102c060048036036102bb919081019061444d565b610fdc565b005b6102ca611242565b6040516102d7919061481f565b60405180910390f35b6102fa60048036036102f591908101906142ec565b611248565b005b6103166004803603610311919081019061444d565b6117d6565b604051610323919061481f565b60405180910390f35b610334611804565b60405161034191906147db565b60405180910390f35b610364600480360361035f91908101906142c3565b611899565b005b610380600480360361037b91908101906142c3565b611db0565b6040516103969a99989796959493929190614b6a565b60405180910390f35b6103a76120b1565b6040516103b491906147b9565b60405180910390f35b6103d760048036036103d2919081019061444d565b6122ee565b005b6103f360048036036103ee9190810190613ef5565b6123fc565b604051610400919061481f565b60405180910390f35b61041161242a565b60405161041e91906147db565b60405180910390f35b61042f6124bf565b60405161043c91906147db565b60405180910390f35b61045f600480360361045a91908101906142c3565b612554565b005b61047b600480360361047691908101906142c3565b612896565b60405161048891906147db565b60405180910390f35b6104ab60048036036104a691908101906141c5565b612901565b005b6104c760048036036104c29190810190614328565b612ba2565b005b6104e360048036036104de91908101906142c3565b612e2b565b005b6104ff60048036036104fa91908101906142c3565b61319a565b604051610513989796959493929190614a44565b60405180910390f35b61053660048036036105319190810190613ff0565b61334c565b005b610552600480360361054d91908101906142c3565b61356e565b6040516105689a99989796959493929190614c22565b60405180910390f35b61058b600480360361058691908101906142c3565b61384f565b60405161059f989796959493929190614ad0565b60405180910390f35b600a5481565b600e8054600181600116156101000203166002900480601f0160208091040260200160405190810160405280929190818152602001828054600181600116156101000203166002900480156106445780601f1061061957610100808354040283529160200191610644565b820191906000526020600020905b81548152906001019060200180831161062757829003601f168201915b505050505081565b600085511161065a57600080fd5b600084511161066857600080fd5b6000821161067557600080fd5b600015158315151415610699576040518060200160405280600081525090506106a8565b60008151116106a757600080fd5b5b3373ffffffffffffffffffffffffffffffffffffffff166005600088815260200190815260200160002060009054906101000a900473ffffffffffffffffffffffffffffffffffffffff1673ffffffffffffffffffffffffffffffffffffffff161461071357600080fd5b60008160405160200161072691906147a2565b604051602081830303815290604052805190602001209050856004888154811061074c57fe5b90600052602060002090600702016001019080519060200190610770929190613b4a565b50846004888154811061077f57fe5b906000526020600020906007020160020190805190602001906107a3929190613b4a565b5083600488815481106107b257fe5b906000526020600020906007020160030160146101000a81548160ff02191690831515021790555082600488815481106107e857fe5b906000526020600020906007020160040181905550806004888154811061080b57fe5b90600052602060002090600702016005018190555050505050505050565b600c602052816000526040600020818154811061084257fe5b90600052602060002001600091509150505481565b60015481565b600085511161086b57600080fd5b600084511161087957600080fd5b6000821161088657600080fd5b6000151583151514156108aa576040518060200160405280600081525090506108b9565b60008151116108b857600080fd5b5b600060035490506000826040516020016108d391906147a2565b60405160208183030381529060405280519060200120905060046040518061010001604052808481526020018981526020018881526020013373ffffffffffffffffffffffffffffffffffffffff16815260200187151581526020018681526020018381526020014281525090806001815401808255809150509060018203906000526020600020906007020160009091929091909150600082015181600001556020820151816001019080519060200190610990929190613bca565b5060408201518160020190805190602001906109ad929190613bca565b5060608201518160030160006101000a81548173ffffffffffffffffffffffffffffffffffffffff021916908373ffffffffffffffffffffffffffffffffffffffff16021790555060808201518160030160146101000a81548160ff02191690831515021790555060a0820151816004015560c0820151816005015560e08201518160060155505050336005600084815260200190815260200160002060006101000a81548173ffffffffffffffffffffffffffffffffffffffff021916908373ffffffffffffffffffffffffffffffffffffffff160217905550610adb6001600660003373ffffffffffffffffffffffffffffffffffffffff1673ffffffffffffffffffffffffffffffffffffffff16815260200190815260200160002054613b1790919063ffffffff16565b600660003373ffffffffffffffffffffffffffffffffffffffff1673ffffffffffffffffffffffffffffffffffffffff16815260200190815260200160002081905550600760003373ffffffffffffffffffffffffffffffffffffffff1673ffffffffffffffffffffffffffffffffffffffff168152602001908152602001600020829080600181540180825580915050906001820390600052602060002001600090919290919091505550600860008381526020019081526020016000203390806001815401808255809150509060018203906000526020600020016000909192909190916101000a81548173ffffffffffffffffffffffffffffffffffffffff021916908373ffffffffffffffffffffffffffffffffffffffff1602179055505060036000815480929190600101919050555050505050505050565b6000875111610c2757600080fd5b6000855111610c3557600080fd5b6000845111610c4357600080fd5b6000835111610c5157600080fd5b600073ffffffffffffffffffffffffffffffffffffffff163373ffffffffffffffffffffffffffffffffffffffff161415610c8b57600080fd5b60008611610c9857600080fd5b8173ffffffffffffffffffffffffffffffffffffffff168273ffffffffffffffffffffffffffffffffffffffff1614610cd057600080fd5b604051806101400160405280600a5481526020018881526020018781526020018681526020018581526020018481526020014281526020013373ffffffffffffffffffffffffffffffffffffffff1681526020018373ffffffffffffffffffffffffffffffffffffffff168152602001821515815250600b6000600a548152602001908152602001600020600082015181600001556020820151816001019080519060200190610d81929190613bca565b50604082015181600201556060820151816003019080519060200190610da8929190613bca565b506080820151816004019080519060200190610dc5929190613bca565b5060a0820151816005019080519060200190610de2929190613bca565b5060c0820151816006015560e08201518160070160006101000a81548173ffffffffffffffffffffffffffffffffffffffff021916908373ffffffffffffffffffffffffffffffffffffffff1602179055506101008201518160080160006101000a81548173ffffffffffffffffffffffffffffffffffffffff021916908373ffffffffffffffffffffffffffffffffffffffff1602179055506101208201518160080160146101000a81548160ff021916908315150217905550905050600c60008373ffffffffffffffffffffffffffffffffffffffff1673ffffffffffffffffffffffffffffffffffffffff168152602001908152602001600020600a549080600181540180825580915050906001820390600052602060002001600090919290919091505550600d60003373ffffffffffffffffffffffffffffffffffffffff1673ffffffffffffffffffffffffffffffffffffffff168152602001908152602001600020600a549080600181540180825580915050906001820390600052602060002001600090919290919091505550600a600081548092919060010191905055507feeeed15c975fd3e736c550958913fd5541d9193b09fb3c3b98cadc46aed5533a600a54888888888842338a8a604051610fcb9a999897969594939291906148d4565b60405180910390a150505050505050565b60048181548110610fe957fe5b906000526020600020906007020160030160009054906101000a900473ffffffffffffffffffffffffffffffffffffffff1673ffffffffffffffffffffffffffffffffffffffff163373ffffffffffffffffffffffffffffffffffffffff161461105257600080fd5b600080905060008090505b600160116000858152602001908152602001600020805490500381101561111f578360116000858152602001908152602001600020828154811061109d57fe5b906000526020600020015414156110b357600191505b8115611112576011600084815260200190815260200160002060018201815481106110da57fe5b906000526020600020015460116000858152602001908152602001600020828154811061110357fe5b90600052602060002001819055505b808060010191505061105d565b506011600083815260200190815260200160002060016011600085815260200190815260200160002080549050038154811061115757fe5b90600052602060002001600090556011600083815260200190815260200160002080548091906001900361118b9190613c4a565b50601060008481526020019081526020016000206000808201600090556001820160006111b89190613c76565b60028201600090556003820160006111d09190613c76565b6004820160006111e09190613c76565b6005820160006111f09190613c76565b60068201600090556007820160006101000a81549073ffffffffffffffffffffffffffffffffffffffff021916905560088201600090556009820160006101000a81549060ff02191690555050505050565b600f5481565b6004828154811061125557fe5b906000526020600020906007020160030160009054906101000a900473ffffffffffffffffffffffffffffffffffffffff1673ffffffffffffffffffffffffffffffffffffffff163373ffffffffffffffffffffffffffffffffffffffff16146112be57600080fd5b600080600080905060008090506060600760008773ffffffffffffffffffffffffffffffffffffffff1673ffffffffffffffffffffffffffffffffffffffff16815260200190815260200160002080548060200260200160405190810160405280929190818152602001828054801561135657602002820191906000526020600020905b815481526020019060010190808311611342575b505050505090506060600860008981526020019081526020016000208054806020026020016040519081016040528092919081815260200182805480156113f257602002820191906000526020600020905b8160009054906101000a900473ffffffffffffffffffffffffffffffffffffffff1673ffffffffffffffffffffffffffffffffffffffff16815260200190600101908083116113a8575b5050505050905060005b82518110156114355782818151811061141157fe5b602002602001015189141561142857809650600194505b80806001019150506113fc565b5060005b815181101561149e5781818151811061144e57fe5b602002602001015173ffffffffffffffffffffffffffffffffffffffff168873ffffffffffffffffffffffffffffffffffffffff16141561149157809550600193505b8080600101915050611439565b508380156114a95750825b156117cc5760008690505b600183510381101561157d57600760008973ffffffffffffffffffffffffffffffffffffffff1673ffffffffffffffffffffffffffffffffffffffff168152602001908152602001600020600182018154811061150d57fe5b9060005260206000200154600760008a73ffffffffffffffffffffffffffffffffffffffff1673ffffffffffffffffffffffffffffffffffffffff168152602001908152602001600020828154811061156257fe5b906000526020600020018190555080806001019150506114b4565b50600760008873ffffffffffffffffffffffffffffffffffffffff1673ffffffffffffffffffffffffffffffffffffffff1681526020019081526020016000206001600760008a73ffffffffffffffffffffffffffffffffffffffff1673ffffffffffffffffffffffffffffffffffffffff16815260200190815260200160002080549050038154811061160d57fe5b9060005260206000200160009055600760008873ffffffffffffffffffffffffffffffffffffffff1673ffffffffffffffffffffffffffffffffffffffff16815260200190815260200160002080548091906001900361166d9190613c4a565b5060008590505b600182510381101561173f57600860008a815260200190815260200160002060018201815481106116a157fe5b9060005260206000200160009054906101000a900473ffffffffffffffffffffffffffffffffffffffff16600860008b815260200190815260200160002082815481106116ea57fe5b9060005260206000200160006101000a81548173ffffffffffffffffffffffffffffffffffffffff021916908373ffffffffffffffffffffffffffffffffffffffff1602179055508080600101915050611674565b50600860008981526020019081526020016000206001600860008b815260200190815260200160002080549050038154811061177757fe5b9060005260206000200160006101000a81549073ffffffffffffffffffffffffffffffffffffffff0219169055600860008981526020019081526020016000208054809190600190036117ca9190613cbe565b505b5050505050505050565b601160205281600052604060002081815481106117ef57fe5b90600052602060002001600091509150505481565b6060600760003373ffffffffffffffffffffffffffffffffffffffff1673ffffffffffffffffffffffffffffffffffffffff16815260200190815260200160002080548060200260200160405190810160405280929190818152602001828054801561188f57602002820191906000526020600020905b81548152602001906001019080831161187b575b5050505050905090565b600080600080905060008090506060600760003373ffffffffffffffffffffffffffffffffffffffff1673ffffffffffffffffffffffffffffffffffffffff16815260200190815260200160002080548060200260200160405190810160405280929190818152602001828054801561193157602002820191906000526020600020905b81548152602001906001019080831161191d575b505050505090506060600860008881526020019081526020016000208054806020026020016040519081016040528092919081815260200182805480156119cd57602002820191906000526020600020905b8160009054906101000a900473ffffffffffffffffffffffffffffffffffffffff1673ffffffffffffffffffffffffffffffffffffffff1681526020019060010190808311611983575b5050505050905060005b8251811015611a10578281815181106119ec57fe5b6020026020010151881415611a0357809650600194505b80806001019150506119d7565b5060005b8151811015611a7957818181518110611a2957fe5b602002602001015173ffffffffffffffffffffffffffffffffffffffff163373ffffffffffffffffffffffffffffffffffffffff161415611a6c57809550600193505b8080600101915050611a14565b50838015611a845750825b15611da75760008690505b6001835103811015611b5857600760003373ffffffffffffffffffffffffffffffffffffffff1673ffffffffffffffffffffffffffffffffffffffff1681526020019081526020016000206001820181548110611ae857fe5b9060005260206000200154600760003373ffffffffffffffffffffffffffffffffffffffff1673ffffffffffffffffffffffffffffffffffffffff1681526020019081526020016000208281548110611b3d57fe5b90600052602060002001819055508080600101915050611a8f565b50600760003373ffffffffffffffffffffffffffffffffffffffff1673ffffffffffffffffffffffffffffffffffffffff1681526020019081526020016000206001600760003373ffffffffffffffffffffffffffffffffffffffff1673ffffffffffffffffffffffffffffffffffffffff168152602001908152602001600020805490500381548110611be857fe5b9060005260206000200160009055600760003373ffffffffffffffffffffffffffffffffffffffff1673ffffffffffffffffffffffffffffffffffffffff168152602001908152602001600020805480919060019003611c489190613c4a565b5060008590505b6001825103811015611d1a57600860008981526020019081526020016000206001820181548110611c7c57fe5b9060005260206000200160009054906101000a900473ffffffffffffffffffffffffffffffffffffffff16600860008a81526020019081526020016000208281548110611cc557fe5b9060005260206000200160006101000a81548173ffffffffffffffffffffffffffffffffffffffff021916908373ffffffffffffffffffffffffffffffffffffffff1602179055508080600101915050611c4f565b50600860008881526020019081526020016000206001600860008a8152602001908152602001600020805490500381548110611d5257fe5b9060005260206000200160006101000a81549073ffffffffffffffffffffffffffffffffffffffff021916905560086000888152602001908152602001600020805480919060019003611da59190613cbe565b505b50505050505050565b600b602052806000526040600020600091509050806000015490806001018054600181600116156101000203166002900480601f016020809104026020016040519081016040528092919081815260200182805460018160011615610100020316600290048015611e625780601f10611e3757610100808354040283529160200191611e62565b820191906000526020600020905b815481529060010190602001808311611e4557829003601f168201915b505050505090806002015490806003018054600181600116156101000203166002900480601f016020809104026020016040519081016040528092919081815260200182805460018160011615610100020316600290048015611f065780601f10611edb57610100808354040283529160200191611f06565b820191906000526020600020905b815481529060010190602001808311611ee957829003601f168201915b505050505090806004018054600181600116156101000203166002900480601f016020809104026020016040519081016040528092919081815260200182805460018160011615610100020316600290048015611fa45780601f10611f7957610100808354040283529160200191611fa4565b820191906000526020600020905b815481529060010190602001808311611f8757829003601f168201915b505050505090806005018054600181600116156101000203166002900480601f0160208091040260200160405190810160405280929190818152602001828054600181600116156101000203166002900480156120425780601f1061201757610100808354040283529160200191612042565b820191906000526020600020905b81548152906001019060200180831161202557829003601f168201915b5050505050908060060154908060070160009054906101000a900473ffffffffffffffffffffffffffffffffffffffff16908060080160009054906101000a900473ffffffffffffffffffffffffffffffffffffffff16908060080160149054906101000a900460ff1690508a565b60606004805480602002602001604051908101604052809291908181526020016000905b828210156122e557838290600052602060002090600702016040518061010001604052908160008201548152602001600182018054600181600116156101000203166002900480601f01602080910402602001604051908101604052809291908181526020018280546001816001161561010002031660029004801561219c5780601f106121715761010080835404028352916020019161219c565b820191906000526020600020905b81548152906001019060200180831161217f57829003601f168201915b50505050508152602001600282018054600181600116156101000203166002900480601f01602080910402602001604051908101604052809291908181526020018280546001816001161561010002031660029004801561223e5780601f106122135761010080835404028352916020019161223e565b820191906000526020600020905b81548152906001019060200180831161222157829003601f168201915b505050505081526020016003820160009054906101000a900473ffffffffffffffffffffffffffffffffffffffff1673ffffffffffffffffffffffffffffffffffffffff1673ffffffffffffffffffffffffffffffffffffffff1681526020016003820160149054906101000a900460ff161515151581526020016004820154815260200160058201548152602001600682015481525050815260200190600101906120d5565b50505050905090565b600481815481106122fb57fe5b906000526020600020906007020160030160009054906101000a900473ffffffffffffffffffffffffffffffffffffffff1673ffffffffffffffffffffffffffffffffffffffff163373ffffffffffffffffffffffffffffffffffffffff161461236457600080fd5b600015156010600084815260200190815260200160002060090160009054906101000a900460ff16151514156123c85760016010600084815260200190815260200160002060090160006101000a81548160ff0219169083151502179055506123f8565b60006010600084815260200190815260200160002060090160006101000a81548160ff0219169083151502179055505b5050565b600d602052816000526040600020818154811061241557fe5b90600052602060002001600091509150505481565b6060600c60003373ffffffffffffffffffffffffffffffffffffffff1673ffffffffffffffffffffffffffffffffffffffff1681526020019081526020016000208054806020026020016040519081016040528092919081815260200182805480156124b557602002820191906000526020600020905b8154815260200190600101908083116124a1575b5050505050905090565b6060600d60003373ffffffffffffffffffffffffffffffffffffffff1673ffffffffffffffffffffffffffffffffffffffff16815260200190815260200160002080548060200260200160405190810160405280929190818152602001828054801561254a57602002820191906000526020600020905b815481526020019060010190808311612536575b5050505050905090565b600080905060008090505b6001600c60003373ffffffffffffffffffffffffffffffffffffffff1673ffffffffffffffffffffffffffffffffffffffff16815260200190815260200160002080549050038110156126d15782600c60003373ffffffffffffffffffffffffffffffffffffffff1673ffffffffffffffffffffffffffffffffffffffff16815260200190815260200160002082815481106125f757fe5b9060005260206000200154141561260d57600191505b81156126c457600c60003373ffffffffffffffffffffffffffffffffffffffff1673ffffffffffffffffffffffffffffffffffffffff168152602001908152602001600020600182018154811061266057fe5b9060005260206000200154600c60003373ffffffffffffffffffffffffffffffffffffffff1673ffffffffffffffffffffffffffffffffffffffff16815260200190815260200160002082815481106126b557fe5b90600052602060002001819055505b808060010191505061255f565b50600c60003373ffffffffffffffffffffffffffffffffffffffff1673ffffffffffffffffffffffffffffffffffffffff1681526020019081526020016000206001600c60003373ffffffffffffffffffffffffffffffffffffffff1673ffffffffffffffffffffffffffffffffffffffff16815260200190815260200160002080549050038154811061276157fe5b9060005260206000200160009055600c60003373ffffffffffffffffffffffffffffffffffffffff1673ffffffffffffffffffffffffffffffffffffffff1681526020019081526020016000208054809190600190036127c19190613c4a565b50600b60008381526020019081526020016000206000808201600090556001820160006127ee9190613c76565b60028201600090556003820160006128069190613c76565b6004820160006128169190613c76565b6005820160006128269190613c76565b60068201600090556007820160006101000a81549073ffffffffffffffffffffffffffffffffffffffff02191690556008820160006101000a81549073ffffffffffffffffffffffffffffffffffffffff02191690556008820160146101000a81549060ff021916905550505050565b6060601160008381526020019081526020016000208054806020026020016040519081016040528092919081815260200182805480156128f557602002820191906000526020600020905b8154815260200190600101908083116128e1575b50505050509050919050565b600087511161290f57600080fd5b600085511161291d57600080fd5b600084511161292b57600080fd5b600083511161293957600080fd5b600073ffffffffffffffffffffffffffffffffffffffff163373ffffffffffffffffffffffffffffffffffffffff16141561297357600080fd5b6000861161298057600080fd5b604051806101400160405280600f5481526020018881526020018781526020018681526020018581526020018481526020014281526020013373ffffffffffffffffffffffffffffffffffffffff16815260200183815260200182151581525060106000600f548152602001908152602001600020600082015181600001556020820151816001019080519060200190612a1b929190613bca565b50604082015181600201556060820151816003019080519060200190612a42929190613bca565b506080820151816004019080519060200190612a5f929190613bca565b5060a0820151816005019080519060200190612a7c929190613bca565b5060c0820151816006015560e08201518160070160006101000a81548173ffffffffffffffffffffffffffffffffffffffff021916908373ffffffffffffffffffffffffffffffffffffffff16021790555061010082015181600801556101208201518160090160006101000a81548160ff02191690831515021790555090505060116000838152602001908152602001600020600f549080600181540180825580915050906001820390600052602060002001600090919290919091505550600f600081548092919060010191905055507f9d9640b729b4d45d615421c2ddd8943a646cfe8cb357a66a6239020c637a3415600f54888888888842338a8a604051612b919a9998979695949392919061498c565b60405180910390a150505050505050565b6001151560048381548110612bb357fe5b906000526020600020906007020160030160149054906101000a900460ff161515148015612c25575060048281548110612be957fe5b90600052602060002090600702016005015481604051602001612c0c91906147a2565b6040516020818303038152906040528051906020012014155b15612c2f57612e27565b600060048381548110612c3e57fe5b906000526020600020906007020160040154905080600860008581526020019081526020016000208054905010612c755750612e27565b6060600760003373ffffffffffffffffffffffffffffffffffffffff1673ffffffffffffffffffffffffffffffffffffffff168152602001908152602001600020805480602002602001604051908101604052809291908181526020018280548015612d0057602002820191906000526020600020905b815481526020019060010190808311612cec575b5050505050905060005b8151811015612d4357818181518110612d1f57fe5b6020026020010151851415612d3657505050612e27565b8080600101915050612d0a565b50600760003373ffffffffffffffffffffffffffffffffffffffff1673ffffffffffffffffffffffffffffffffffffffff168152602001908152602001600020849080600181540180825580915050906001820390600052602060002001600090919290919091505550600860008581526020019081526020016000203390806001815401808255809150509060018203906000526020600020016000909192909190916101000a81548173ffffffffffffffffffffffffffffffffffffffff021916908373ffffffffffffffffffffffffffffffffffffffff1602179055505050505b5050565b3373ffffffffffffffffffffffffffffffffffffffff166005600083815260200190815260200160002060009054906101000a900473ffffffffffffffffffffffffffffffffffffffff1673ffffffffffffffffffffffffffffffffffffffff1614612e9657600080fd5b6004805490508110612ea757613197565b60008190505b6001600480549050038110156130125760046001820181548110612ecd57fe5b906000526020600020906007020160048281548110612ee857fe5b90600052602060002090600702016000820154816000015560018201816001019080546001816001161561010002031660029004612f27929190613cea565b5060028201816002019080546001816001161561010002031660029004612f4f929190613cea565b506003820160009054906101000a900473ffffffffffffffffffffffffffffffffffffffff168160030160006101000a81548173ffffffffffffffffffffffffffffffffffffffff021916908373ffffffffffffffffffffffffffffffffffffffff1602179055506003820160149054906101000a900460ff168160030160146101000a81548160ff0219169083151502179055506004820154816004015560058201548160050155600682015481600601559050508080600101915050612ead565b5060046001600480549050038154811061302857fe5b906000526020600020906007020160008082016000905560018201600061304f9190613c76565b60028201600061305f9190613c76565b6003820160006101000a81549073ffffffffffffffffffffffffffffffffffffffff02191690556003820160146101000a81549060ff0219169055600482016000905560058201600090556006820160009055505060048054809190600190036130c99190613d71565b506005600082815260200190815260200160002060006101000a81549073ffffffffffffffffffffffffffffffffffffffff02191690556131536001600660003373ffffffffffffffffffffffffffffffffffffffff1673ffffffffffffffffffffffffffffffffffffffff16815260200190815260200160002054613b3390919063ffffffff16565b600660003373ffffffffffffffffffffffffffffffffffffffff1673ffffffffffffffffffffffffffffffffffffffff168152602001908152602001600020819055505b50565b600481815481106131a757fe5b9060005260206000209060070201600091509050806000015490806001018054600181600116156101000203166002900480601f0160208091040260200160405190810160405280929190818152602001828054600181600116156101000203166002900480156132595780601f1061322e57610100808354040283529160200191613259565b820191906000526020600020905b81548152906001019060200180831161323c57829003601f168201915b505050505090806002018054600181600116156101000203166002900480601f0160208091040260200160405190810160405280929190818152602001828054600181600116156101000203166002900480156132f75780601f106132cc576101008083540402835291602001916132f7565b820191906000526020600020905b8154815290600101906020018083116132da57829003601f168201915b5050505050908060030160009054906101000a900473ffffffffffffffffffffffffffffffffffffffff16908060030160149054906101000a900460ff16908060040154908060050154908060060154905088565b600085511161335a57600080fd5b600083511161336857600080fd5b600082511161337657600080fd5b600081511161338457600080fd5b600073ffffffffffffffffffffffffffffffffffffffff163373ffffffffffffffffffffffffffffffffffffffff1614156133be57600080fd5b600084116133cb57600080fd5b60405180610100016040528060015481526020018681526020018581526020018481526020018381526020018281526020014281526020013373ffffffffffffffffffffffffffffffffffffffff16815250600260006001548152602001908152602001600020600082015181600001556020820151816001019080519060200190613458929190613bca565b5060408201518160020155606082015181600301908051906020019061347f929190613bca565b50608082015181600401908051906020019061349c929190613bca565b5060a08201518160050190805190602001906134b9929190613bca565b5060c0820151816006015560e08201518160070160006101000a81548173ffffffffffffffffffffffffffffffffffffffff021916908373ffffffffffffffffffffffffffffffffffffffff1602179055509050506001600081548092919060010191905055507f6e95bbaa37a5fdec42a312e049dea2fe6160ebe659214d3409b4f91f164c2f526001548686868686423360405161355f98979695949392919061483a565b60405180910390a15050505050565b6010602052806000526040600020600091509050806000015490806001018054600181600116156101000203166002900480601f0160208091040260200160405190810160405280929190818152602001828054600181600116156101000203166002900480156136205780601f106135f557610100808354040283529160200191613620565b820191906000526020600020905b81548152906001019060200180831161360357829003601f168201915b505050505090806002015490806003018054600181600116156101000203166002900480601f0160208091040260200160405190810160405280929190818152602001828054600181600116156101000203166002900480156136c45780601f10613699576101008083540402835291602001916136c4565b820191906000526020600020905b8154815290600101906020018083116136a757829003601f168201915b505050505090806004018054600181600116156101000203166002900480601f0160208091040260200160405190810160405280929190818152602001828054600181600116156101000203166002900480156137625780601f1061373757610100808354040283529160200191613762565b820191906000526020600020905b81548152906001019060200180831161374557829003601f168201915b505050505090806005018054600181600116156101000203166002900480601f0160208091040260200160405190810160405280929190818152602001828054600181600116156101000203166002900480156138005780601f106137d557610100808354040283529160200191613800565b820191906000526020600020905b8154815290600101906020018083116137e357829003601f168201915b5050505050908060060154908060070160009054906101000a900473ffffffffffffffffffffffffffffffffffffffff16908060080154908060090160009054906101000a900460ff1690508a565b6002602052806000526040600020600091509050806000015490806001018054600181600116156101000203166002900480601f0160208091040260200160405190810160405280929190818152602001828054600181600116156101000203166002900480156139015780601f106138d657610100808354040283529160200191613901565b820191906000526020600020905b8154815290600101906020018083116138e457829003601f168201915b505050505090806002015490806003018054600181600116156101000203166002900480601f0160208091040260200160405190810160405280929190818152602001828054600181600116156101000203166002900480156139a55780601f1061397a576101008083540402835291602001916139a5565b820191906000526020600020905b81548152906001019060200180831161398857829003601f168201915b505050505090806004018054600181600116156101000203166002900480601f016020809104026020016040519081016040528092919081815260200182805460018160011615610100020316600290048015613a435780601f10613a1857610100808354040283529160200191613a43565b820191906000526020600020905b815481529060010190602001808311613a2657829003601f168201915b505050505090806005018054600181600116156101000203166002900480601f016020809104026020016040519081016040528092919081815260200182805460018160011615610100020316600290048015613ae15780601f10613ab657610100808354040283529160200191613ae1565b820191906000526020600020905b815481529060010190602001808311613ac457829003601f168201915b5050505050908060060154908060070160009054906101000a900473ffffffffffffffffffffffffffffffffffffffff16905088565b600080828401905083811015613b2957fe5b8091505092915050565b600082821115613b3f57fe5b818303905092915050565b828054600181600116156101000203166002900490600052602060002090601f016020900481019282601f10613b8b57805160ff1916838001178555613bb9565b82800160010185558215613bb9579182015b82811115613bb8578251825591602001919060010190613b9d565b5b509050613bc69190613da3565b5090565b828054600181600116156101000203166002900490600052602060002090601f016020900481019282601f10613c0b57805160ff1916838001178555613c39565b82800160010185558215613c39579182015b82811115613c38578251825591602001919060010190613c1d565b5b509050613c469190613da3565b5090565b815481835581811115613c7157818360005260206000209182019101613c709190613da3565b5b505050565b50805460018160011615610100020316600290046000825580601f10613c9c5750613cbb565b601f016020900490600052602060002090810190613cba9190613da3565b5b50565b815481835581811115613ce557818360005260206000209182019101613ce49190613da3565b5b505050565b828054600181600116156101000203166002900490600052602060002090601f016020900481019282601f10613d235780548555613d60565b82800160010185558215613d6057600052602060002091601f016020900482015b82811115613d5f578254825591600101919060010190613d44565b5b509050613d6d9190613da3565b5090565b815481835581811115613d9e57600702816007028360005260206000209182019101613d9d9190613dc8565b5b505050565b613dc591905b80821115613dc1576000816000905550600101613da9565b5090565b90565b613e5f91905b80821115613e5b57600080820160009055600182016000613def9190613c76565b600282016000613dff9190613c76565b6003820160006101000a81549073ffffffffffffffffffffffffffffffffffffffff02191690556003820160146101000a81549060ff021916905560048201600090556005820160009055600682016000905550600701613dce565b5090565b90565b600081359050613e7181614e9f565b92915050565b600081359050613e8681614eb6565b92915050565b600082601f830112613e9d57600080fd5b8135613eb0613eab82614d07565b614cda565b91508082526020830160208301858383011115613ecc57600080fd5b613ed7838284614e4c565b50505092915050565b600081359050613eef81614ecd565b92915050565b60008060408385031215613f0857600080fd5b6000613f1685828601613e62565b9250506020613f2785828601613ee0565b9150509250929050565b600080600080600060a08688031215613f4957600080fd5b600086013567ffffffffffffffff811115613f6357600080fd5b613f6f88828901613e8c565b955050602086013567ffffffffffffffff811115613f8c57600080fd5b613f9888828901613e8c565b9450506040613fa988828901613e77565b9350506060613fba88828901613ee0565b925050608086013567ffffffffffffffff811115613fd757600080fd5b613fe388828901613e8c565b9150509295509295909350565b600080600080600060a0868803121561400857600080fd5b600086013567ffffffffffffffff81111561402257600080fd5b61402e88828901613e8c565b955050602061403f88828901613ee0565b945050604086013567ffffffffffffffff81111561405c57600080fd5b61406888828901613e8c565b935050606086013567ffffffffffffffff81111561408557600080fd5b61409188828901613e8c565b925050608086013567ffffffffffffffff8111156140ae57600080fd5b6140ba88828901613e8c565b9150509295509295909350565b600080600080600080600060e0888a0312156140e257600080fd5b600088013567ffffffffffffffff8111156140fc57600080fd5b6141088a828b01613e8c565b97505060206141198a828b01613ee0565b965050604088013567ffffffffffffffff81111561413657600080fd5b6141428a828b01613e8c565b955050606088013567ffffffffffffffff81111561415f57600080fd5b61416b8a828b01613e8c565b945050608088013567ffffffffffffffff81111561418857600080fd5b6141948a828b01613e8c565b93505060a06141a58a828b01613e62565b92505060c06141b68a828b01613e77565b91505092959891949750929550565b600080600080600080600060e0888a0312156141e057600080fd5b600088013567ffffffffffffffff8111156141fa57600080fd5b6142068a828b01613e8c565b97505060206142178a828b01613ee0565b965050604088013567ffffffffffffffff81111561423457600080fd5b6142408a828b01613e8c565b955050606088013567ffffffffffffffff81111561425d57600080fd5b6142698a828b01613e8c565b945050608088013567ffffffffffffffff81111561428657600080fd5b6142928a828b01613e8c565b93505060a06142a38a828b01613ee0565b92505060c06142b48a828b01613e77565b91505092959891949750929550565b6000602082840312156142d557600080fd5b60006142e384828501613ee0565b91505092915050565b600080604083850312156142ff57600080fd5b600061430d85828601613ee0565b925050602061431e85828601613e62565b9150509250929050565b6000806040838503121561433b57600080fd5b600061434985828601613ee0565b925050602083013567ffffffffffffffff81111561436657600080fd5b61437285828601613e8c565b9150509250929050565b60008060008060008060c0878903121561439557600080fd5b60006143a389828a01613ee0565b965050602087013567ffffffffffffffff8111156143c057600080fd5b6143cc89828a01613e8c565b955050604087013567ffffffffffffffff8111156143e957600080fd5b6143f589828a01613e8c565b945050606061440689828a01613e77565b935050608061441789828a01613ee0565b92505060a087013567ffffffffffffffff81111561443457600080fd5b61444089828a01613e8c565b9150509295509295509295565b6000806040838503121561446057600080fd5b600061446e85828601613ee0565b925050602061447f85828601613ee0565b9150509250929050565b600061449583836146cd565b905092915050565b60006144a98383614784565b60208301905092915050565b6144be81614dfa565b82525050565b6144cd81614de8565b82525050565b6144dc81614de8565b82525050565b60006144ed82614d53565b6144f78185614d99565b93508360208202850161450985614d33565b8060005b8581101561454557848403895281516145268582614489565b945061453183614d7f565b925060208a0199505060018101905061450d565b50829750879550505050505092915050565b600061456282614d5e565b61456c8185614daa565b935061457783614d43565b8060005b838110156145a857815161458f888261449d565b975061459a83614d8c565b92505060018101905061457b565b5085935050505092915050565b6145be81614e0c565b82525050565b6145cd81614e0c565b82525050565b6145dc81614e18565b82525050565b6145eb81614e18565b82525050565b60006145fc82614d74565b6146068185614dcc565b9350614616818560208601614e5b565b61461f81614e8e565b840191505092915050565b600061463582614d74565b61463f8185614ddd565b935061464f818560208601614e5b565b80840191505092915050565b600061466682614d69565b6146708185614dbb565b9350614680818560208601614e5b565b61468981614e8e565b840191505092915050565b600061469f82614d69565b6146a98185614dcc565b93506146b9818560208601614e5b565b6146c281614e8e565b840191505092915050565b6000610100830160008301516146e66000860182614784565b50602083015184820360208601526146fe828261465b565b91505060408301518482036040860152614718828261465b565b915050606083015161472d60608601826144c4565b50608083015161474060808601826145b5565b5060a083015161475360a0860182614784565b5060c083015161476660c08601826145d3565b5060e083015161477960e0860182614784565b508091505092915050565b61478d81614e42565b82525050565b61479c81614e42565b82525050565b60006147ae828461462a565b915081905092915050565b600060208201905081810360008301526147d381846144e2565b905092915050565b600060208201905081810360008301526147f58184614557565b905092915050565b600060208201905081810360008301526148178184614694565b905092915050565b60006020820190506148346000830184614793565b92915050565b600061010082019050614850600083018b614793565b8181036020830152614862818a6145f1565b90506148716040830189614793565b818103606083015261488381886145f1565b9050818103608083015261489781876145f1565b905081810360a08301526148ab81866145f1565b90506148ba60c0830185614793565b6148c760e08301846144b5565b9998505050505050505050565b6000610140820190506148ea600083018d614793565b81810360208301526148fc818c6145f1565b905061490b604083018b614793565b818103606083015261491d818a6145f1565b9050818103608083015261493181896145f1565b905081810360a083015261494581886145f1565b905061495460c0830187614793565b61496160e08301866144b5565b61496f6101008301856144d3565b61497d6101208301846145c4565b9b9a5050505050505050505050565b6000610140820190506149a2600083018d614793565b81810360208301526149b4818c6145f1565b90506149c3604083018b614793565b81810360608301526149d5818a6145f1565b905081810360808301526149e981896145f1565b905081810360a08301526149fd81886145f1565b9050614a0c60c0830187614793565b614a1960e08301866144b5565b614a27610100830185614793565b614a356101208301846145c4565b9b9a5050505050505050505050565b600061010082019050614a5a600083018b614793565b8181036020830152614a6c818a614694565b90508181036040830152614a808189614694565b9050614a8f60608301886144d3565b614a9c60808301876145c4565b614aa960a0830186614793565b614ab660c08301856145e2565b614ac360e0830184614793565b9998505050505050505050565b600061010082019050614ae6600083018b614793565b8181036020830152614af8818a614694565b9050614b076040830189614793565b8181036060830152614b198188614694565b90508181036080830152614b2d8187614694565b905081810360a0830152614b418186614694565b9050614b5060c0830185614793565b614b5d60e08301846144b5565b9998505050505050505050565b600061014082019050614b80600083018d614793565b8181036020830152614b92818c614694565b9050614ba1604083018b614793565b8181036060830152614bb3818a614694565b90508181036080830152614bc78189614694565b905081810360a0830152614bdb8188614694565b9050614bea60c0830187614793565b614bf760e08301866144b5565b614c056101008301856144d3565b614c136101208301846145c4565b9b9a5050505050505050505050565b600061014082019050614c38600083018d614793565b8181036020830152614c4a818c614694565b9050614c59604083018b614793565b8181036060830152614c6b818a614694565b90508181036080830152614c7f8189614694565b905081810360a0830152614c938188614694565b9050614ca260c0830187614793565b614caf60e08301866144b5565b614cbd610100830185614793565b614ccb6101208301846145c4565b9b9a5050505050505050505050565b6000604051905081810181811067ffffffffffffffff82111715614cfd57600080fd5b8060405250919050565b600067ffffffffffffffff821115614d1e57600080fd5b601f19601f8301169050602081019050919050565b6000819050602082019050919050565b6000819050602082019050919050565b600081519050919050565b600081519050919050565b600081519050919050565b600081519050919050565b6000602082019050919050565b6000602082019050919050565b600082825260208201905092915050565b600082825260208201905092915050565b600082825260208201905092915050565b600082825260208201905092915050565b600081905092915050565b6000614df382614e22565b9050919050565b6000614e0582614e22565b9050919050565b60008115159050919050565b6000819050919050565b600073ffffffffffffffffffffffffffffffffffffffff82169050919050565b6000819050919050565b82818337600083830152505050565b60005b83811015614e79578082015181840152602081019050614e5e565b83811115614e88576000848401525b50505050565b6000601f19601f8301169050919050565b614ea881614de8565b8114614eb357600080fd5b50565b614ebf81614e0c565b8114614eca57600080fd5b50565b614ed681614e42565b8114614ee157600080fd5b5056fea365627a7a72315820c2cfc2cf936ead7c24482a2d82306d7b11676bd3763c507a863c430131ee42fc6c6578706572696d656e74616cf564736f6c63430005100040",
  "source": "// SPDX-License-Identifier: UNLICENSED\npragma solidity ^0.5.0;\npragma experimental ABIEncoderV2;\n\nimport \"./DCStorage.sol\";\nimport \"./safemath.sol\";\nimport \"./Organization.sol\";\nimport \"./Membership.sol\";\nimport \"./Direct.sol\";\n\ncontract OrganizationUploads is Direct {\n\n  string public name = \"Crypto Box Organization Upload\";\n  uint public organizationFileCount = 0;\n\n  mapping(uint => OrganizationFile) public organizationfiles;\n\n  mapping(uint => uint[]) public organizationToFileIds;\n  \n  struct OrganizationFile{\n    uint fileId;\n    string fileHash;\n    uint fileSize;\n    string fileType;\n    string fileName;\n    string fileDescription;\n    uint uploadTime;\n    address payable uploader;\n    uint organizationId;\n    bool isFlagged;\n  }\n\n  event OrganizationFileUploaded(\n    uint fileId,\n    string fileHash,\n    uint fileSize,\n    string fileType,\n    string fileName,\n    string fileDescription,\n    uint uploadTime,\n    address payable uploader,\n    uint organizationId,\n    bool isFlagged\n  );\n\n  constructor() public {\n  }\n\n  function uploadOrganizationFile(string memory _fileHash, uint _fileSize, string memory _fileType, string memory _fileName, string memory _fileDescription, uint _organizationId, bool _isFlagged) public {\n    require(bytes(_fileHash).length > 0);\n    require(bytes(_fileType).length > 0);\n    require(bytes(_fileName).length > 0);\n    require(bytes(_fileDescription).length > 0);\n    require(msg.sender != address(0));\n    require(_fileSize > 0);\n    organizationfiles[organizationFileCount] = OrganizationFile(organizationFileCount, _fileHash, _fileSize, _fileType, _fileName, _fileDescription, now, msg.sender, _organizationId, _isFlagged);\n    organizationToFileIds[_organizationId].push(organizationFileCount);\n    organizationFileCount++;\n    emit OrganizationFileUploaded(organizationFileCount, _fileHash, _fileSize, _fileType, _fileName, _fileDescription, now, msg.sender, _organizationId, _isFlagged);\n  }\n\n  function currentOrganizationFileIds(uint id) external view returns(uint [] memory) {\n    return organizationToFileIds[id];\n  }\n\n  function organizationFileDelete(uint fileId, uint organizationId) public {\n    require(msg.sender == organizations[organizationId].Owner);\n    bool startDelete = false;\n    for(uint i = 0; i < organizationToFileIds[organizationId].length - 1; i++){\n        if(organizationToFileIds[organizationId][i] == fileId){\n            startDelete = true;\n        }\n        if(startDelete){\n            organizationToFileIds[organizationId][i] = organizationToFileIds[organizationId][i + 1];\n        }\n    }\n    delete organizationToFileIds[organizationId][organizationToFileIds[organizationId].length - 1];\n    organizationToFileIds[organizationId].length--;\n    delete organizationfiles[fileId];\n  }\n  \n  function toggleFlag(uint fileId, uint organizationId) public {\n    require(msg.sender == organizations[organizationId].Owner);\n    if(organizationfiles[fileId].isFlagged == false){\n        organizationfiles[fileId].isFlagged = true;\n    } else{\n        organizationfiles[fileId].isFlagged = false;\n    }\n  }\n\n}\n\n\n",
  "sourcePath": "/Users/csuftitan/Desktop/Meet Turakhia/Advanced Blockchain (CPSC 559)/Projects/Final Project(4 Dec 2022)/src/contracts/OrganizationUploads.sol",
  "compiler": {
    "name": "solc",
    "version": "0.5.16+commit.9c3226ce.Emscripten.clang"
  },
  "schemaVersion": "3.4.9",
  "updatedAt": "2022-12-07T08:35:40.590Z",
  "devdoc": {
    "methods": {}
  },
  "userdoc": {
    "methods": {}
  }
}