{
  "contractName": "OrganizationUpload",
  "abi": [
    {
      "inputs": [],
      "payable": false,
      "stateMutability": "nonpayable",
      "type": "constructor"
    },
    {
      "anonymous": false,
      "inputs": [
        {
          "indexed": false,
          "internalType": "uint256",
          "name": "fileId",
          "type": "uint256"
        },
        {
          "indexed": false,
          "internalType": "string",
          "name": "fileHash",
          "type": "string"
        },
        {
          "indexed": false,
          "internalType": "uint256",
          "name": "fileSize",
          "type": "uint256"
        },
        {
          "indexed": false,
          "internalType": "string",
          "name": "fileType",
          "type": "string"
        },
        {
          "indexed": false,
          "internalType": "string",
          "name": "fileName",
          "type": "string"
        },
        {
          "indexed": false,
          "internalType": "string",
          "name": "fileDescription",
          "type": "string"
        },
        {
          "indexed": false,
          "internalType": "uint256",
          "name": "uploadTime",
          "type": "uint256"
        },
        {
          "indexed": false,
          "internalType": "address payable",
          "name": "uploader",
          "type": "address"
        },
        {
          "indexed": false,
          "internalType": "address",
          "name": "reciever",
          "type": "address"
        },
        {
          "indexed": false,
          "internalType": "bool",
          "name": "isOneTimeLink",
          "type": "bool"
        }
      ],
      "name": "DirectFileUploaded",
      "type": "event"
    },
    {
      "anonymous": false,
      "inputs": [
        {
          "indexed": false,
          "internalType": "uint256",
          "name": "fileId",
          "type": "uint256"
        },
        {
          "indexed": false,
          "internalType": "string",
          "name": "fileHash",
          "type": "string"
        },
        {
          "indexed": false,
          "internalType": "uint256",
          "name": "fileSize",
          "type": "uint256"
        },
        {
          "indexed": false,
          "internalType": "string",
          "name": "fileType",
          "type": "string"
        },
        {
          "indexed": false,
          "internalType": "string",
          "name": "fileName",
          "type": "string"
        },
        {
          "indexed": false,
          "internalType": "string",
          "name": "fileDescription",
          "type": "string"
        },
        {
          "indexed": false,
          "internalType": "uint256",
          "name": "uploadTime",
          "type": "uint256"
        },
        {
          "indexed": false,
          "internalType": "address payable",
          "name": "uploader",
          "type": "address"
        }
      ],
      "name": "FileUploaded",
      "type": "event"
    },
    {
      "anonymous": false,
      "inputs": [
        {
          "indexed": false,
          "internalType": "uint256",
          "name": "fileId",
          "type": "uint256"
        },
        {
          "indexed": false,
          "internalType": "string",
          "name": "fileHash",
          "type": "string"
        },
        {
          "indexed": false,
          "internalType": "uint256",
          "name": "fileSize",
          "type": "uint256"
        },
        {
          "indexed": false,
          "internalType": "string",
          "name": "fileType",
          "type": "string"
        },
        {
          "indexed": false,
          "internalType": "string",
          "name": "fileName",
          "type": "string"
        },
        {
          "indexed": false,
          "internalType": "string",
          "name": "fileDescription",
          "type": "string"
        },
        {
          "indexed": false,
          "internalType": "uint256",
          "name": "uploadTime",
          "type": "uint256"
        },
        {
          "indexed": false,
          "internalType": "address payable",
          "name": "uploader",
          "type": "address"
        },
        {
          "indexed": false,
          "internalType": "uint256",
          "name": "organizationId",
          "type": "uint256"
        },
        {
          "indexed": false,
          "internalType": "bool",
          "name": "isFlagged",
          "type": "bool"
        }
      ],
      "name": "OrganizationFileUploaded",
      "type": "event"
    },
    {
      "constant": true,
      "inputs": [
        {
          "internalType": "address",
          "name": "",
          "type": "address"
        },
        {
          "internalType": "uint256",
          "name": "",
          "type": "uint256"
        }
      ],
      "name": "addressToFileIds",
      "outputs": [
        {
          "internalType": "uint256",
          "name": "",
          "type": "uint256"
        }
      ],
      "payable": false,
      "stateMutability": "view",
      "type": "function"
    },
    {
      "constant": false,
      "inputs": [
        {
          "internalType": "string",
          "name": "name",
          "type": "string"
        },
        {
          "internalType": "string",
          "name": "description",
          "type": "string"
        },
        {
          "internalType": "bool",
          "name": "privateBool",
          "type": "bool"
        },
        {
          "internalType": "uint256",
          "name": "memberLimit",
          "type": "uint256"
        },
        {
          "internalType": "string",
          "name": "passcode",
          "type": "string"
        }
      ],
      "name": "createOrganization",
      "outputs": [],
      "payable": false,
      "stateMutability": "nonpayable",
      "type": "function"
    },
    {
      "constant": true,
      "inputs": [],
      "name": "currentUserFileIds",
      "outputs": [
        {
          "internalType": "uint256[]",
          "name": "",
          "type": "uint256[]"
        }
      ],
      "payable": false,
      "stateMutability": "view",
      "type": "function"
    },
    {
      "constant": false,
      "inputs": [
        {
          "internalType": "uint256",
          "name": "id",
          "type": "uint256"
        }
      ],
      "name": "deleteOrganization",
      "outputs": [],
      "payable": false,
      "stateMutability": "nonpayable",
      "type": "function"
    },
    {
      "constant": true,
      "inputs": [],
      "name": "directFileCount",
      "outputs": [
        {
          "internalType": "uint256",
          "name": "",
          "type": "uint256"
        }
      ],
      "payable": false,
      "stateMutability": "view",
      "type": "function"
    },
    {
      "constant": true,
      "inputs": [
        {
          "internalType": "uint256",
          "name": "",
          "type": "uint256"
        }
      ],
      "name": "directfiles",
      "outputs": [
        {
          "internalType": "uint256",
          "name": "fileId",
          "type": "uint256"
        },
        {
          "internalType": "string",
          "name": "fileHash",
          "type": "string"
        },
        {
          "internalType": "uint256",
          "name": "fileSize",
          "type": "uint256"
        },
        {
          "internalType": "string",
          "name": "fileType",
          "type": "string"
        },
        {
          "internalType": "string",
          "name": "fileName",
          "type": "string"
        },
        {
          "internalType": "string",
          "name": "fileDescription",
          "type": "string"
        },
        {
          "internalType": "uint256",
          "name": "uploadTime",
          "type": "uint256"
        },
        {
          "internalType": "address payable",
          "name": "uploader",
          "type": "address"
        },
        {
          "internalType": "address",
          "name": "reciever",
          "type": "address"
        },
        {
          "internalType": "bool",
          "name": "isOneTimeLink",
          "type": "bool"
        }
      ],
      "payable": false,
      "stateMutability": "view",
      "type": "function"
    },
    {
      "constant": false,
      "inputs": [
        {
          "internalType": "uint256",
          "name": "id",
          "type": "uint256"
        },
        {
          "internalType": "string",
          "name": "name",
          "type": "string"
        },
        {
          "internalType": "string",
          "name": "description",
          "type": "string"
        },
        {
          "internalType": "bool",
          "name": "privateBool",
          "type": "bool"
        },
        {
          "internalType": "uint256",
          "name": "memberLimit",
          "type": "uint256"
        },
        {
          "internalType": "string",
          "name": "passcode",
          "type": "string"
        }
      ],
      "name": "editOrganization",
      "outputs": [],
      "payable": false,
      "stateMutability": "nonpayable",
      "type": "function"
    },
    {
      "constant": false,
      "inputs": [
        {
          "internalType": "uint256",
          "name": "id",
          "type": "uint256"
        }
      ],
      "name": "exitOrganization",
      "outputs": [],
      "payable": false,
      "stateMutability": "nonpayable",
      "type": "function"
    },
    {
      "constant": true,
      "inputs": [],
      "name": "fileCount",
      "outputs": [
        {
          "internalType": "uint256",
          "name": "",
          "type": "uint256"
        }
      ],
      "payable": false,
      "stateMutability": "view",
      "type": "function"
    },
    {
      "constant": false,
      "inputs": [
        {
          "internalType": "uint256",
          "name": "id",
          "type": "uint256"
        }
      ],
      "name": "fileDelete",
      "outputs": [],
      "payable": false,
      "stateMutability": "nonpayable",
      "type": "function"
    },
    {
      "constant": true,
      "inputs": [
        {
          "internalType": "uint256",
          "name": "",
          "type": "uint256"
        }
      ],
      "name": "files",
      "outputs": [
        {
          "internalType": "uint256",
          "name": "fileId",
          "type": "uint256"
        },
        {
          "internalType": "string",
          "name": "fileHash",
          "type": "string"
        },
        {
          "internalType": "uint256",
          "name": "fileSize",
          "type": "uint256"
        },
        {
          "internalType": "string",
          "name": "fileType",
          "type": "string"
        },
        {
          "internalType": "string",
          "name": "fileName",
          "type": "string"
        },
        {
          "internalType": "string",
          "name": "fileDescription",
          "type": "string"
        },
        {
          "internalType": "uint256",
          "name": "uploadTime",
          "type": "uint256"
        },
        {
          "internalType": "address payable",
          "name": "uploader",
          "type": "address"
        }
      ],
      "payable": false,
      "stateMutability": "view",
      "type": "function"
    },
    {
      "constant": true,
      "inputs": [],
      "name": "getMemberships",
      "outputs": [
        {
          "internalType": "uint256[]",
          "name": "",
          "type": "uint256[]"
        }
      ],
      "payable": false,
      "stateMutability": "view",
      "type": "function"
    },
    {
      "constant": true,
      "inputs": [],
      "name": "getOrganizations",
      "outputs": [
        {
          "components": [
            {
              "internalType": "uint256",
              "name": "Id",
              "type": "uint256"
            },
            {
              "internalType": "string",
              "name": "Name",
              "type": "string"
            },
            {
              "internalType": "string",
              "name": "Description",
              "type": "string"
            },
            {
              "internalType": "address",
              "name": "Owner",
              "type": "address"
            },
            {
              "internalType": "bool",
              "name": "Private",
              "type": "bool"
            },
            {
              "internalType": "uint256",
              "name": "MemberLimit",
              "type": "uint256"
            },
            {
              "internalType": "string",
              "name": "Passcode",
              "type": "string"
            },
            {
              "internalType": "uint256",
              "name": "createdAt",
              "type": "uint256"
            }
          ],
          "internalType": "struct BuildOrganization.Organization[]",
          "name": "",
          "type": "tuple[]"
        }
      ],
      "payable": false,
      "stateMutability": "view",
      "type": "function"
    },
    {
      "constant": false,
      "inputs": [
        {
          "internalType": "uint256",
          "name": "id",
          "type": "uint256"
        }
      ],
      "name": "joinOrganization",
      "outputs": [],
      "payable": false,
      "stateMutability": "nonpayable",
      "type": "function"
    },
    {
      "constant": true,
      "inputs": [],
      "name": "name",
      "outputs": [
        {
          "internalType": "string",
          "name": "",
          "type": "string"
        }
      ],
      "payable": false,
      "stateMutability": "view",
      "type": "function"
    },
    {
      "constant": true,
      "inputs": [],
      "name": "organizationFileCount",
      "outputs": [
        {
          "internalType": "uint256",
          "name": "",
          "type": "uint256"
        }
      ],
      "payable": false,
      "stateMutability": "view",
      "type": "function"
    },
    {
      "constant": true,
      "inputs": [
        {
          "internalType": "uint256",
          "name": "",
          "type": "uint256"
        },
        {
          "internalType": "uint256",
          "name": "",
          "type": "uint256"
        }
      ],
      "name": "organizationToFileIds",
      "outputs": [
        {
          "internalType": "uint256",
          "name": "",
          "type": "uint256"
        }
      ],
      "payable": false,
      "stateMutability": "view",
      "type": "function"
    },
    {
      "constant": true,
      "inputs": [
        {
          "internalType": "uint256",
          "name": "",
          "type": "uint256"
        }
      ],
      "name": "organizationfiles",
      "outputs": [
        {
          "internalType": "uint256",
          "name": "fileId",
          "type": "uint256"
        },
        {
          "internalType": "string",
          "name": "fileHash",
          "type": "string"
        },
        {
          "internalType": "uint256",
          "name": "fileSize",
          "type": "uint256"
        },
        {
          "internalType": "string",
          "name": "fileType",
          "type": "string"
        },
        {
          "internalType": "string",
          "name": "fileName",
          "type": "string"
        },
        {
          "internalType": "string",
          "name": "fileDescription",
          "type": "string"
        },
        {
          "internalType": "uint256",
          "name": "uploadTime",
          "type": "uint256"
        },
        {
          "internalType": "address payable",
          "name": "uploader",
          "type": "address"
        },
        {
          "internalType": "uint256",
          "name": "organizationId",
          "type": "uint256"
        },
        {
          "internalType": "bool",
          "name": "isFlagged",
          "type": "bool"
        }
      ],
      "payable": false,
      "stateMutability": "view",
      "type": "function"
    },
    {
      "constant": true,
      "inputs": [
        {
          "internalType": "uint256",
          "name": "",
          "type": "uint256"
        }
      ],
      "name": "organizations",
      "outputs": [
        {
          "internalType": "uint256",
          "name": "Id",
          "type": "uint256"
        },
        {
          "internalType": "string",
          "name": "Name",
          "type": "string"
        },
        {
          "internalType": "string",
          "name": "Description",
          "type": "string"
        },
        {
          "internalType": "address",
          "name": "Owner",
          "type": "address"
        },
        {
          "internalType": "bool",
          "name": "Private",
          "type": "bool"
        },
        {
          "internalType": "uint256",
          "name": "MemberLimit",
          "type": "uint256"
        },
        {
          "internalType": "string",
          "name": "Passcode",
          "type": "string"
        },
        {
          "internalType": "uint256",
          "name": "createdAt",
          "type": "uint256"
        }
      ],
      "payable": false,
      "stateMutability": "view",
      "type": "function"
    },
    {
      "constant": false,
      "inputs": [
        {
          "internalType": "string",
          "name": "_fileHash",
          "type": "string"
        },
        {
          "internalType": "uint256",
          "name": "_fileSize",
          "type": "uint256"
        },
        {
          "internalType": "string",
          "name": "_fileType",
          "type": "string"
        },
        {
          "internalType": "string",
          "name": "_fileName",
          "type": "string"
        },
        {
          "internalType": "string",
          "name": "_fileDescription",
          "type": "string"
        },
        {
          "internalType": "address",
          "name": "_reciever",
          "type": "address"
        },
        {
          "internalType": "bool",
          "name": "_isOneTimeLink",
          "type": "bool"
        }
      ],
      "name": "uploadDirectFile",
      "outputs": [],
      "payable": false,
      "stateMutability": "nonpayable",
      "type": "function"
    },
    {
      "constant": false,
      "inputs": [
        {
          "internalType": "string",
          "name": "_fileHash",
          "type": "string"
        },
        {
          "internalType": "uint256",
          "name": "_fileSize",
          "type": "uint256"
        },
        {
          "internalType": "string",
          "name": "_fileType",
          "type": "string"
        },
        {
          "internalType": "string",
          "name": "_fileName",
          "type": "string"
        },
        {
          "internalType": "string",
          "name": "_fileDescription",
          "type": "string"
        }
      ],
      "name": "uploadFile",
      "outputs": [],
      "payable": false,
      "stateMutability": "nonpayable",
      "type": "function"
    },
    {
      "constant": false,
      "inputs": [
        {
          "internalType": "string",
          "name": "_fileHash",
          "type": "string"
        },
        {
          "internalType": "uint256",
          "name": "_fileSize",
          "type": "uint256"
        },
        {
          "internalType": "string",
          "name": "_fileType",
          "type": "string"
        },
        {
          "internalType": "string",
          "name": "_fileName",
          "type": "string"
        },
        {
          "internalType": "string",
          "name": "_fileDescription",
          "type": "string"
        },
        {
          "internalType": "uint256",
          "name": "_organizationId",
          "type": "uint256"
        },
        {
          "internalType": "bool",
          "name": "_isFlagged",
          "type": "bool"
        }
      ],
      "name": "uploadOrganizationFile",
      "outputs": [],
      "payable": false,
      "stateMutability": "nonpayable",
      "type": "function"
    },
    {
      "constant": true,
      "inputs": [
        {
          "internalType": "uint256",
          "name": "id",
          "type": "uint256"
        }
      ],
      "name": "currentOrganizationFileIds",
      "outputs": [
        {
          "internalType": "uint256[]",
          "name": "",
          "type": "uint256[]"
        }
      ],
      "payable": false,
      "stateMutability": "view",
      "type": "function"
    },
    {
      "constant": false,
      "inputs": [
        {
          "internalType": "uint256",
          "name": "fileId",
          "type": "uint256"
        },
        {
          "internalType": "uint256",
          "name": "organizationId",
          "type": "uint256"
        }
      ],
      "name": "organizationFileDelete",
      "outputs": [],
      "payable": false,
      "stateMutability": "nonpayable",
      "type": "function"
    }
  ],
  "bytecode": "0x60806040526040518060400160405280600981526020017f444353746f726167650000000000000000000000000000000000000000000000815250600090805190602001906200005192919062000116565b50600060015560006003556040518060400160405280601181526020017f43727970746f20426f782044697265637400000000000000000000000000000081525060099080519060200190620000a992919062000116565b506000600a556040518060400160405280601e81526020017f43727970746f20426f78204f7267616e697a6174696f6e2055706c6f61640000815250600d9080519060200190620000fc92919062000116565b506000600e553480156200010f57600080fd5b50620001c5565b828054600181600116156101000203166002900490600052602060002090601f016020900481019282601f106200015957805160ff19168380011785556200018a565b828001600101855582156200018a579182015b82811115620001895782518255916020019190600101906200016c565b5b5090506200019991906200019d565b5090565b620001c291905b80821115620001be576000816000905550600101620001a4565b5090565b90565b61460980620001d56000396000f3fe608060405234801561001057600080fd5b50600436106101575760003560e01c806392515b28116100c3578063cc2cb94a1161007c578063cc2cb94a146103bb578063dc1301af146103d7578063e792dd8a146103f3578063e82d9d331461042a578063eca017f214610446578063f4c714b41461047f57610157565b806392515b28146102de578063942b7c7f146102fa5780639754a3a814610333578063a89b01a814610351578063b8f871a11461036f578063c07bdbf71461038b57610157565b8063481c109311610115578063481c10931461021e5780634db20ee91461023a57806356a24c24146102565780635a594277146102725780636febc6c0146102905780637840c6a4146102c057610157565b8062d5f22b1461015c57806306fdde031461017a5780630e20f01b1461019857806329ab4bf3146101b4578063339d4ad7146101d05780634395351914610200575b600080fd5b6101646104b6565b6040516101719190613f0f565b60405180910390f35b6101826104bc565b60405161018f9190613eed565b60405180910390f35b6101b260048036036101ad9190810190613aa2565b61055a565b005b6101ce60048036036101c99190810190613acb565b610755565b005b6101ea60048036036101e591908101906136d4565b610916565b6040516101f79190613f0f565b60405180910390f35b610208610944565b6040516102159190613f0f565b60405180910390f35b61023860048036036102339190810190613710565b61094a565b005b610254600480360361024f91908101906138a6565b610ced565b005b610270600480360361026b9190810190613b9c565b611045565b005b61027a6112ab565b6040516102879190613f0f565b60405180910390f35b6102aa60048036036102a59190810190613b9c565b6112b1565b6040516102b79190613f0f565b60405180910390f35b6102c86112df565b6040516102d59190613ecb565b60405180910390f35b6102f860048036036102f39190810190613aa2565b611374565b005b610314600480360361030f9190810190613aa2565b61188b565b60405161032a9a99989796959493929190614261565b60405180910390f35b61033b611b8c565b6040516103489190613ea9565b60405180910390f35b610359611e61565b6040516103669190613ecb565b60405180910390f35b61038960048036036103849190810190613aa2565b611ef6565b005b6103a560048036036103a09190810190613aa2565b612238565b6040516103b29190613ecb565b60405180910390f35b6103d560048036036103d091908101906139a4565b6122a3565b005b6103f160048036036103ec9190810190613aa2565b612544565b005b61040d60048036036104089190810190613aa2565b6128d9565b604051610421989796959493929190614134565b60405180910390f35b610444600480360361043f91908101906137cf565b612b23565b005b610460600480360361045b9190810190613aa2565b612d45565b6040516104769a99989796959493929190614319565b60405180910390f35b61049960048036036104949190810190613aa2565b613026565b6040516104ad9897969594939291906141c7565b60405180910390f35b600a5481565b600d8054600181600116156101000203166002900480601f0160208091040260200160405190810160405280929190818152602001828054600181600116156101000203166002900480156105525780601f1061052757610100808354040283529160200191610552565b820191906000526020600020905b81548152906001019060200180831161053557829003601f168201915b505050505081565b60006004828154811061056957fe5b9060005260206000209060070201600401549050806008600084815260200190815260200160002080549050106105a05750610752565b6060600760003373ffffffffffffffffffffffffffffffffffffffff1673ffffffffffffffffffffffffffffffffffffffff16815260200190815260200160002080548060200260200160405190810160405280929190818152602001828054801561062b57602002820191906000526020600020905b815481526020019060010190808311610617575b5050505050905060005b815181101561066e5781818151811061064a57fe5b602002602001015184141561066157505050610752565b8080600101915050610635565b50600760003373ffffffffffffffffffffffffffffffffffffffff1673ffffffffffffffffffffffffffffffffffffffff168152602001908152602001600020839080600181540180825580915050906001820390600052602060002001600090919290919091505550600860008481526020019081526020016000203390806001815401808255809150509060018203906000526020600020016000909192909190916101000a81548173ffffffffffffffffffffffffffffffffffffffff021916908373ffffffffffffffffffffffffffffffffffffffff1602179055505050505b50565b600085511161076357600080fd5b600084511161077157600080fd5b6000821161077e57600080fd5b6000151583151514156107a2576040518060200160405280600081525090506107b1565b60008151116107b057600080fd5b5b3373ffffffffffffffffffffffffffffffffffffffff166005600088815260200190815260200160002060009054906101000a900473ffffffffffffffffffffffffffffffffffffffff1673ffffffffffffffffffffffffffffffffffffffff161461081c57600080fd5b846004878154811061082a57fe5b9060005260206000209060070201600101908051906020019061084e929190613321565b50836004878154811061085d57fe5b90600052602060002090600702016002019080519060200190610881929190613321565b50826004878154811061089057fe5b906000526020600020906007020160030160146101000a81548160ff02191690831515021790555081600487815481106108c657fe5b90600052602060002090600702016004018190555080600487815481106108e957fe5b9060005260206000209060070201600501908051906020019061090d929190613321565b50505050505050565b600c602052816000526040600020818154811061092f57fe5b90600052602060002001600091509150505481565b60015481565b600085511161095857600080fd5b600084511161096657600080fd5b6000821161097357600080fd5b600015158315151415610997576040518060200160405280600081525090506109a6565b60008151116109a557600080fd5b5b6000600354905060046040518061010001604052808381526020018881526020018781526020013373ffffffffffffffffffffffffffffffffffffffff16815260200186151581526020018581526020018481526020014281525090806001815401808255809150509060018203906000526020600020906007020160009091929091909150600082015181600001556020820151816001019080519060200190610a529291906133a1565b506040820151816002019080519060200190610a6f9291906133a1565b5060608201518160030160006101000a81548173ffffffffffffffffffffffffffffffffffffffff021916908373ffffffffffffffffffffffffffffffffffffffff16021790555060808201518160030160146101000a81548160ff02191690831515021790555060a0820151816004015560c0820151816005019080519060200190610afd9291906133a1565b5060e08201518160060155505050336005600083815260200190815260200160002060006101000a81548173ffffffffffffffffffffffffffffffffffffffff021916908373ffffffffffffffffffffffffffffffffffffffff160217905550610bb06001600660003373ffffffffffffffffffffffffffffffffffffffff1673ffffffffffffffffffffffffffffffffffffffff168152602001908152602001600020546132ee90919063ffffffff16565b600660003373ffffffffffffffffffffffffffffffffffffffff1673ffffffffffffffffffffffffffffffffffffffff16815260200190815260200160002081905550600760003373ffffffffffffffffffffffffffffffffffffffff1673ffffffffffffffffffffffffffffffffffffffff168152602001908152602001600020819080600181540180825580915050906001820390600052602060002001600090919290919091505550600860008281526020019081526020016000203390806001815401808255809150509060018203906000526020600020016000909192909190916101000a81548173ffffffffffffffffffffffffffffffffffffffff021916908373ffffffffffffffffffffffffffffffffffffffff16021790555050600360008154809291906001019190505550505050505050565b6000875111610cfb57600080fd5b6000855111610d0957600080fd5b6000845111610d1757600080fd5b6000835111610d2557600080fd5b600073ffffffffffffffffffffffffffffffffffffffff163373ffffffffffffffffffffffffffffffffffffffff161415610d5f57600080fd5b60008611610d6c57600080fd5b8173ffffffffffffffffffffffffffffffffffffffff168273ffffffffffffffffffffffffffffffffffffffff1614610da457600080fd5b604051806101400160405280600a5481526020018881526020018781526020018681526020018581526020018481526020014281526020013373ffffffffffffffffffffffffffffffffffffffff1681526020018373ffffffffffffffffffffffffffffffffffffffff168152602001821515815250600b6000600a548152602001908152602001600020600082015181600001556020820151816001019080519060200190610e559291906133a1565b50604082015181600201556060820151816003019080519060200190610e7c9291906133a1565b506080820151816004019080519060200190610e999291906133a1565b5060a0820151816005019080519060200190610eb69291906133a1565b5060c0820151816006015560e08201518160070160006101000a81548173ffffffffffffffffffffffffffffffffffffffff021916908373ffffffffffffffffffffffffffffffffffffffff1602179055506101008201518160080160006101000a81548173ffffffffffffffffffffffffffffffffffffffff021916908373ffffffffffffffffffffffffffffffffffffffff1602179055506101208201518160080160146101000a81548160ff021916908315150217905550905050600c60008373ffffffffffffffffffffffffffffffffffffffff1673ffffffffffffffffffffffffffffffffffffffff168152602001908152602001600020600a549080600181540180825580915050906001820390600052602060002001600090919290919091505550600a600081548092919060010191905055507feeeed15c975fd3e736c550958913fd5541d9193b09fb3c3b98cadc46aed5533a600a54888888888842338a8a6040516110349a99989796959493929190613fc4565b60405180910390a150505050505050565b6004818154811061105257fe5b906000526020600020906007020160030160009054906101000a900473ffffffffffffffffffffffffffffffffffffffff1673ffffffffffffffffffffffffffffffffffffffff163373ffffffffffffffffffffffffffffffffffffffff16146110bb57600080fd5b600080905060008090505b6001601060008581526020019081526020016000208054905003811015611188578360106000858152602001908152602001600020828154811061110657fe5b9060005260206000200154141561111c57600191505b811561117b5760106000848152602001908152602001600020600182018154811061114357fe5b906000526020600020015460106000858152602001908152602001600020828154811061116c57fe5b90600052602060002001819055505b80806001019150506110c6565b50601060008381526020019081526020016000206001601060008581526020019081526020016000208054905003815481106111c057fe5b9060005260206000200160009055601060008381526020019081526020016000208054809190600190036111f49190613421565b50600f6000848152602001908152602001600020600080820160009055600182016000611221919061344d565b6002820160009055600382016000611239919061344d565b600482016000611249919061344d565b600582016000611259919061344d565b60068201600090556007820160006101000a81549073ffffffffffffffffffffffffffffffffffffffff021916905560088201600090556009820160006101000a81549060ff02191690555050505050565b600e5481565b601060205281600052604060002081815481106112ca57fe5b90600052602060002001600091509150505481565b6060600760003373ffffffffffffffffffffffffffffffffffffffff1673ffffffffffffffffffffffffffffffffffffffff16815260200190815260200160002080548060200260200160405190810160405280929190818152602001828054801561136a57602002820191906000526020600020905b815481526020019060010190808311611356575b5050505050905090565b600080600080905060008090506060600760003373ffffffffffffffffffffffffffffffffffffffff1673ffffffffffffffffffffffffffffffffffffffff16815260200190815260200160002080548060200260200160405190810160405280929190818152602001828054801561140c57602002820191906000526020600020905b8154815260200190600101908083116113f8575b505050505090506060600860008881526020019081526020016000208054806020026020016040519081016040528092919081815260200182805480156114a857602002820191906000526020600020905b8160009054906101000a900473ffffffffffffffffffffffffffffffffffffffff1673ffffffffffffffffffffffffffffffffffffffff168152602001906001019080831161145e575b5050505050905060005b82518110156114eb578281815181106114c757fe5b60200260200101518814156114de57809650600194505b80806001019150506114b2565b5060005b81518110156115545781818151811061150457fe5b602002602001015173ffffffffffffffffffffffffffffffffffffffff163373ffffffffffffffffffffffffffffffffffffffff16141561154757809550600193505b80806001019150506114ef565b5083801561155f5750825b156118825760008690505b600183510381101561163357600760003373ffffffffffffffffffffffffffffffffffffffff1673ffffffffffffffffffffffffffffffffffffffff16815260200190815260200160002060018201815481106115c357fe5b9060005260206000200154600760003373ffffffffffffffffffffffffffffffffffffffff1673ffffffffffffffffffffffffffffffffffffffff168152602001908152602001600020828154811061161857fe5b9060005260206000200181905550808060010191505061156a565b50600760003373ffffffffffffffffffffffffffffffffffffffff1673ffffffffffffffffffffffffffffffffffffffff1681526020019081526020016000206001600760003373ffffffffffffffffffffffffffffffffffffffff1673ffffffffffffffffffffffffffffffffffffffff1681526020019081526020016000208054905003815481106116c357fe5b9060005260206000200160009055600760003373ffffffffffffffffffffffffffffffffffffffff1673ffffffffffffffffffffffffffffffffffffffff1681526020019081526020016000208054809190600190036117239190613421565b5060008590505b60018251038110156117f55760086000898152602001908152602001600020600182018154811061175757fe5b9060005260206000200160009054906101000a900473ffffffffffffffffffffffffffffffffffffffff16600860008a815260200190815260200160002082815481106117a057fe5b9060005260206000200160006101000a81548173ffffffffffffffffffffffffffffffffffffffff021916908373ffffffffffffffffffffffffffffffffffffffff160217905550808060010191505061172a565b50600860008881526020019081526020016000206001600860008a815260200190815260200160002080549050038154811061182d57fe5b9060005260206000200160006101000a81549073ffffffffffffffffffffffffffffffffffffffff0219169055600860008881526020019081526020016000208054809190600190036118809190613495565b505b50505050505050565b600b602052806000526040600020600091509050806000015490806001018054600181600116156101000203166002900480601f01602080910402602001604051908101604052809291908181526020018280546001816001161561010002031660029004801561193d5780601f106119125761010080835404028352916020019161193d565b820191906000526020600020905b81548152906001019060200180831161192057829003601f168201915b505050505090806002015490806003018054600181600116156101000203166002900480601f0160208091040260200160405190810160405280929190818152602001828054600181600116156101000203166002900480156119e15780601f106119b6576101008083540402835291602001916119e1565b820191906000526020600020905b8154815290600101906020018083116119c457829003601f168201915b505050505090806004018054600181600116156101000203166002900480601f016020809104026020016040519081016040528092919081815260200182805460018160011615610100020316600290048015611a7f5780601f10611a5457610100808354040283529160200191611a7f565b820191906000526020600020905b815481529060010190602001808311611a6257829003601f168201915b505050505090806005018054600181600116156101000203166002900480601f016020809104026020016040519081016040528092919081815260200182805460018160011615610100020316600290048015611b1d5780601f10611af257610100808354040283529160200191611b1d565b820191906000526020600020905b815481529060010190602001808311611b0057829003601f168201915b5050505050908060060154908060070160009054906101000a900473ffffffffffffffffffffffffffffffffffffffff16908060080160009054906101000a900473ffffffffffffffffffffffffffffffffffffffff16908060080160149054906101000a900460ff1690508a565b60606004805480602002602001604051908101604052809291908181526020016000905b82821015611e5857838290600052602060002090600702016040518061010001604052908160008201548152602001600182018054600181600116156101000203166002900480601f016020809104026020016040519081016040528092919081815260200182805460018160011615610100020316600290048015611c775780601f10611c4c57610100808354040283529160200191611c77565b820191906000526020600020905b815481529060010190602001808311611c5a57829003601f168201915b50505050508152602001600282018054600181600116156101000203166002900480601f016020809104026020016040519081016040528092919081815260200182805460018160011615610100020316600290048015611d195780601f10611cee57610100808354040283529160200191611d19565b820191906000526020600020905b815481529060010190602001808311611cfc57829003601f168201915b505050505081526020016003820160009054906101000a900473ffffffffffffffffffffffffffffffffffffffff1673ffffffffffffffffffffffffffffffffffffffff1673ffffffffffffffffffffffffffffffffffffffff1681526020016003820160149054906101000a900460ff1615151515815260200160048201548152602001600582018054600181600116156101000203166002900480601f016020809104026020016040519081016040528092919081815260200182805460018160011615610100020316600290048015611e365780601f10611e0b57610100808354040283529160200191611e36565b820191906000526020600020905b815481529060010190602001808311611e1957829003601f168201915b5050505050815260200160068201548152505081526020019060010190611bb0565b50505050905090565b6060600c60003373ffffffffffffffffffffffffffffffffffffffff1673ffffffffffffffffffffffffffffffffffffffff168152602001908152602001600020805480602002602001604051908101604052809291908181526020018280548015611eec57602002820191906000526020600020905b815481526020019060010190808311611ed8575b5050505050905090565b600080905060008090505b6001600c60003373ffffffffffffffffffffffffffffffffffffffff1673ffffffffffffffffffffffffffffffffffffffff16815260200190815260200160002080549050038110156120735782600c60003373ffffffffffffffffffffffffffffffffffffffff1673ffffffffffffffffffffffffffffffffffffffff1681526020019081526020016000208281548110611f9957fe5b90600052602060002001541415611faf57600191505b811561206657600c60003373ffffffffffffffffffffffffffffffffffffffff1673ffffffffffffffffffffffffffffffffffffffff168152602001908152602001600020600182018154811061200257fe5b9060005260206000200154600c60003373ffffffffffffffffffffffffffffffffffffffff1673ffffffffffffffffffffffffffffffffffffffff168152602001908152602001600020828154811061205757fe5b90600052602060002001819055505b8080600101915050611f01565b50600c60003373ffffffffffffffffffffffffffffffffffffffff1673ffffffffffffffffffffffffffffffffffffffff1681526020019081526020016000206001600c60003373ffffffffffffffffffffffffffffffffffffffff1673ffffffffffffffffffffffffffffffffffffffff16815260200190815260200160002080549050038154811061210357fe5b9060005260206000200160009055600c60003373ffffffffffffffffffffffffffffffffffffffff1673ffffffffffffffffffffffffffffffffffffffff1681526020019081526020016000208054809190600190036121639190613421565b50600b6000838152602001908152602001600020600080820160009055600182016000612190919061344d565b60028201600090556003820160006121a8919061344d565b6004820160006121b8919061344d565b6005820160006121c8919061344d565b60068201600090556007820160006101000a81549073ffffffffffffffffffffffffffffffffffffffff02191690556008820160006101000a81549073ffffffffffffffffffffffffffffffffffffffff02191690556008820160146101000a81549060ff021916905550505050565b60606010600083815260200190815260200160002080548060200260200160405190810160405280929190818152602001828054801561229757602002820191906000526020600020905b815481526020019060010190808311612283575b50505050509050919050565b60008751116122b157600080fd5b60008551116122bf57600080fd5b60008451116122cd57600080fd5b60008351116122db57600080fd5b600073ffffffffffffffffffffffffffffffffffffffff163373ffffffffffffffffffffffffffffffffffffffff16141561231557600080fd5b6000861161232257600080fd5b604051806101400160405280600e5481526020018881526020018781526020018681526020018581526020018481526020014281526020013373ffffffffffffffffffffffffffffffffffffffff168152602001838152602001821515815250600f6000600e5481526020019081526020016000206000820151816000015560208201518160010190805190602001906123bd9291906133a1565b506040820151816002015560608201518160030190805190602001906123e49291906133a1565b5060808201518160040190805190602001906124019291906133a1565b5060a082015181600501908051906020019061241e9291906133a1565b5060c0820151816006015560e08201518160070160006101000a81548173ffffffffffffffffffffffffffffffffffffffff021916908373ffffffffffffffffffffffffffffffffffffffff16021790555061010082015181600801556101208201518160090160006101000a81548160ff02191690831515021790555090505060106000838152602001908152602001600020600e549080600181540180825580915050906001820390600052602060002001600090919290919091505550600e600081548092919060010191905055507f9d9640b729b4d45d615421c2ddd8943a646cfe8cb357a66a6239020c637a3415600e54888888888842338a8a6040516125339a9998979695949392919061407c565b60405180910390a150505050505050565b3373ffffffffffffffffffffffffffffffffffffffff166005600083815260200190815260200160002060009054906101000a900473ffffffffffffffffffffffffffffffffffffffff1673ffffffffffffffffffffffffffffffffffffffff16146125af57600080fd5b60048054905081106125c0576128d6565b60008190505b60016004805490500381101561274957600460018201815481106125e657fe5b90600052602060002090600702016004828154811061260157fe5b906000526020600020906007020160008201548160000155600182018160010190805460018160011615610100020316600290046126409291906134c1565b50600282018160020190805460018160011615610100020316600290046126689291906134c1565b506003820160009054906101000a900473ffffffffffffffffffffffffffffffffffffffff168160030160006101000a81548173ffffffffffffffffffffffffffffffffffffffff021916908373ffffffffffffffffffffffffffffffffffffffff1602179055506003820160149054906101000a900460ff168160030160146101000a81548160ff021916908315150217905550600482015481600401556005820181600501908054600181600116156101000203166002900461272e9291906134c1565b506006820154816006015590505080806001019150506125c6565b5060046001600480549050038154811061275f57fe5b9060005260206000209060070201600080820160009055600182016000612786919061344d565b600282016000612796919061344d565b6003820160006101000a81549073ffffffffffffffffffffffffffffffffffffffff02191690556003820160146101000a81549060ff021916905560048201600090556005820160006127e9919061344d565b6006820160009055505060048054809190600190036128089190613548565b506005600082815260200190815260200160002060006101000a81549073ffffffffffffffffffffffffffffffffffffffff02191690556128926001600660003373ffffffffffffffffffffffffffffffffffffffff1673ffffffffffffffffffffffffffffffffffffffff1681526020019081526020016000205461330a90919063ffffffff16565b600660003373ffffffffffffffffffffffffffffffffffffffff1673ffffffffffffffffffffffffffffffffffffffff168152602001908152602001600020819055505b50565b600481815481106128e657fe5b9060005260206000209060070201600091509050806000015490806001018054600181600116156101000203166002900480601f0160208091040260200160405190810160405280929190818152602001828054600181600116156101000203166002900480156129985780601f1061296d57610100808354040283529160200191612998565b820191906000526020600020905b81548152906001019060200180831161297b57829003601f168201915b505050505090806002018054600181600116156101000203166002900480601f016020809104026020016040519081016040528092919081815260200182805460018160011615610100020316600290048015612a365780601f10612a0b57610100808354040283529160200191612a36565b820191906000526020600020905b815481529060010190602001808311612a1957829003601f168201915b5050505050908060030160009054906101000a900473ffffffffffffffffffffffffffffffffffffffff16908060030160149054906101000a900460ff1690806004015490806005018054600181600116156101000203166002900480601f016020809104026020016040519081016040528092919081815260200182805460018160011615610100020316600290048015612b135780601f10612ae857610100808354040283529160200191612b13565b820191906000526020600020905b815481529060010190602001808311612af657829003601f168201915b5050505050908060060154905088565b6000855111612b3157600080fd5b6000835111612b3f57600080fd5b6000825111612b4d57600080fd5b6000815111612b5b57600080fd5b600073ffffffffffffffffffffffffffffffffffffffff163373ffffffffffffffffffffffffffffffffffffffff161415612b9557600080fd5b60008411612ba257600080fd5b60405180610100016040528060015481526020018681526020018581526020018481526020018381526020018281526020014281526020013373ffffffffffffffffffffffffffffffffffffffff16815250600260006001548152602001908152602001600020600082015181600001556020820151816001019080519060200190612c2f9291906133a1565b50604082015181600201556060820151816003019080519060200190612c569291906133a1565b506080820151816004019080519060200190612c739291906133a1565b5060a0820151816005019080519060200190612c909291906133a1565b5060c0820151816006015560e08201518160070160006101000a81548173ffffffffffffffffffffffffffffffffffffffff021916908373ffffffffffffffffffffffffffffffffffffffff1602179055509050506001600081548092919060010191905055507f6e95bbaa37a5fdec42a312e049dea2fe6160ebe659214d3409b4f91f164c2f5260015486868686864233604051612d36989796959493929190613f2a565b60405180910390a15050505050565b600f602052806000526040600020600091509050806000015490806001018054600181600116156101000203166002900480601f016020809104026020016040519081016040528092919081815260200182805460018160011615610100020316600290048015612df75780601f10612dcc57610100808354040283529160200191612df7565b820191906000526020600020905b815481529060010190602001808311612dda57829003601f168201915b505050505090806002015490806003018054600181600116156101000203166002900480601f016020809104026020016040519081016040528092919081815260200182805460018160011615610100020316600290048015612e9b5780601f10612e7057610100808354040283529160200191612e9b565b820191906000526020600020905b815481529060010190602001808311612e7e57829003601f168201915b505050505090806004018054600181600116156101000203166002900480601f016020809104026020016040519081016040528092919081815260200182805460018160011615610100020316600290048015612f395780601f10612f0e57610100808354040283529160200191612f39565b820191906000526020600020905b815481529060010190602001808311612f1c57829003601f168201915b505050505090806005018054600181600116156101000203166002900480601f016020809104026020016040519081016040528092919081815260200182805460018160011615610100020316600290048015612fd75780601f10612fac57610100808354040283529160200191612fd7565b820191906000526020600020905b815481529060010190602001808311612fba57829003601f168201915b5050505050908060060154908060070160009054906101000a900473ffffffffffffffffffffffffffffffffffffffff16908060080154908060090160009054906101000a900460ff1690508a565b6002602052806000526040600020600091509050806000015490806001018054600181600116156101000203166002900480601f0160208091040260200160405190810160405280929190818152602001828054600181600116156101000203166002900480156130d85780601f106130ad576101008083540402835291602001916130d8565b820191906000526020600020905b8154815290600101906020018083116130bb57829003601f168201915b505050505090806002015490806003018054600181600116156101000203166002900480601f01602080910402602001604051908101604052809291908181526020018280546001816001161561010002031660029004801561317c5780601f106131515761010080835404028352916020019161317c565b820191906000526020600020905b81548152906001019060200180831161315f57829003601f168201915b505050505090806004018054600181600116156101000203166002900480601f01602080910402602001604051908101604052809291908181526020018280546001816001161561010002031660029004801561321a5780601f106131ef5761010080835404028352916020019161321a565b820191906000526020600020905b8154815290600101906020018083116131fd57829003601f168201915b505050505090806005018054600181600116156101000203166002900480601f0160208091040260200160405190810160405280929190818152602001828054600181600116156101000203166002900480156132b85780601f1061328d576101008083540402835291602001916132b8565b820191906000526020600020905b81548152906001019060200180831161329b57829003601f168201915b5050505050908060060154908060070160009054906101000a900473ffffffffffffffffffffffffffffffffffffffff16905088565b60008082840190508381101561330057fe5b8091505092915050565b60008282111561331657fe5b818303905092915050565b828054600181600116156101000203166002900490600052602060002090601f016020900481019282601f1061336257805160ff1916838001178555613390565b82800160010185558215613390579182015b8281111561338f578251825591602001919060010190613374565b5b50905061339d919061357a565b5090565b828054600181600116156101000203166002900490600052602060002090601f016020900481019282601f106133e257805160ff1916838001178555613410565b82800160010185558215613410579182015b8281111561340f5782518255916020019190600101906133f4565b5b50905061341d919061357a565b5090565b81548183558181111561344857818360005260206000209182019101613447919061357a565b5b505050565b50805460018160011615610100020316600290046000825580601f106134735750613492565b601f016020900490600052602060002090810190613491919061357a565b5b50565b8154818355818111156134bc578183600052602060002091820191016134bb919061357a565b5b505050565b828054600181600116156101000203166002900490600052602060002090601f016020900481019282601f106134fa5780548555613537565b8280016001018555821561353757600052602060002091601f016020900482015b8281111561353657825482559160010191906001019061351b565b5b509050613544919061357a565b5090565b81548183558181111561357557600702816007028360005260206000209182019101613574919061359f565b5b505050565b61359c91905b80821115613598576000816000905550600101613580565b5090565b90565b61363e91905b8082111561363a576000808201600090556001820160006135c6919061344d565b6002820160006135d6919061344d565b6003820160006101000a81549073ffffffffffffffffffffffffffffffffffffffff02191690556003820160146101000a81549060ff02191690556004820160009055600582016000613629919061344d565b6006820160009055506007016135a5565b5090565b90565b60008135905061365081614581565b92915050565b60008135905061366581614598565b92915050565b600082601f83011261367c57600080fd5b813561368f61368a826143fe565b6143d1565b915080825260208301602083018583830111156136ab57600080fd5b6136b683828461452e565b50505092915050565b6000813590506136ce816145af565b92915050565b600080604083850312156136e757600080fd5b60006136f585828601613641565b9250506020613706858286016136bf565b9150509250929050565b600080600080600060a0868803121561372857600080fd5b600086013567ffffffffffffffff81111561374257600080fd5b61374e8882890161366b565b955050602086013567ffffffffffffffff81111561376b57600080fd5b6137778882890161366b565b945050604061378888828901613656565b9350506060613799888289016136bf565b925050608086013567ffffffffffffffff8111156137b657600080fd5b6137c28882890161366b565b9150509295509295909350565b600080600080600060a086880312156137e757600080fd5b600086013567ffffffffffffffff81111561380157600080fd5b61380d8882890161366b565b955050602061381e888289016136bf565b945050604086013567ffffffffffffffff81111561383b57600080fd5b6138478882890161366b565b935050606086013567ffffffffffffffff81111561386457600080fd5b6138708882890161366b565b925050608086013567ffffffffffffffff81111561388d57600080fd5b6138998882890161366b565b9150509295509295909350565b600080600080600080600060e0888a0312156138c157600080fd5b600088013567ffffffffffffffff8111156138db57600080fd5b6138e78a828b0161366b565b97505060206138f88a828b016136bf565b965050604088013567ffffffffffffffff81111561391557600080fd5b6139218a828b0161366b565b955050606088013567ffffffffffffffff81111561393e57600080fd5b61394a8a828b0161366b565b945050608088013567ffffffffffffffff81111561396757600080fd5b6139738a828b0161366b565b93505060a06139848a828b01613641565b92505060c06139958a828b01613656565b91505092959891949750929550565b600080600080600080600060e0888a0312156139bf57600080fd5b600088013567ffffffffffffffff8111156139d957600080fd5b6139e58a828b0161366b565b97505060206139f68a828b016136bf565b965050604088013567ffffffffffffffff811115613a1357600080fd5b613a1f8a828b0161366b565b955050606088013567ffffffffffffffff811115613a3c57600080fd5b613a488a828b0161366b565b945050608088013567ffffffffffffffff811115613a6557600080fd5b613a718a828b0161366b565b93505060a0613a828a828b016136bf565b92505060c0613a938a828b01613656565b91505092959891949750929550565b600060208284031215613ab457600080fd5b6000613ac2848285016136bf565b91505092915050565b60008060008060008060c08789031215613ae457600080fd5b6000613af289828a016136bf565b965050602087013567ffffffffffffffff811115613b0f57600080fd5b613b1b89828a0161366b565b955050604087013567ffffffffffffffff811115613b3857600080fd5b613b4489828a0161366b565b9450506060613b5589828a01613656565b9350506080613b6689828a016136bf565b92505060a087013567ffffffffffffffff811115613b8357600080fd5b613b8f89828a0161366b565b9150509295509295509295565b60008060408385031215613baf57600080fd5b6000613bbd858286016136bf565b9250506020613bce858286016136bf565b9150509250929050565b6000613be48383613dcd565b905092915050565b6000613bf88383613e8b565b60208301905092915050565b613c0d816144e6565b82525050565b613c1c816144d4565b82525050565b613c2b816144d4565b82525050565b6000613c3c8261444a565b613c468185614490565b935083602082028501613c588561442a565b8060005b85811015613c945784840389528151613c758582613bd8565b9450613c8083614476565b925060208a01995050600181019050613c5c565b50829750879550505050505092915050565b6000613cb182614455565b613cbb81856144a1565b9350613cc68361443a565b8060005b83811015613cf7578151613cde8882613bec565b9750613ce983614483565b925050600181019050613cca565b5085935050505092915050565b613d0d816144f8565b82525050565b613d1c816144f8565b82525050565b6000613d2d8261446b565b613d3781856144c3565b9350613d4781856020860161453d565b613d5081614570565b840191505092915050565b6000613d6682614460565b613d7081856144b2565b9350613d8081856020860161453d565b613d8981614570565b840191505092915050565b6000613d9f82614460565b613da981856144c3565b9350613db981856020860161453d565b613dc281614570565b840191505092915050565b600061010083016000830151613de66000860182613e8b565b5060208301518482036020860152613dfe8282613d5b565b91505060408301518482036040860152613e188282613d5b565b9150506060830151613e2d6060860182613c13565b506080830151613e406080860182613d04565b5060a0830151613e5360a0860182613e8b565b5060c083015184820360c0860152613e6b8282613d5b565b91505060e0830151613e8060e0860182613e8b565b508091505092915050565b613e9481614524565b82525050565b613ea381614524565b82525050565b60006020820190508181036000830152613ec38184613c31565b905092915050565b60006020820190508181036000830152613ee58184613ca6565b905092915050565b60006020820190508181036000830152613f078184613d94565b905092915050565b6000602082019050613f246000830184613e9a565b92915050565b600061010082019050613f40600083018b613e9a565b8181036020830152613f52818a613d22565b9050613f616040830189613e9a565b8181036060830152613f738188613d22565b90508181036080830152613f878187613d22565b905081810360a0830152613f9b8186613d22565b9050613faa60c0830185613e9a565b613fb760e0830184613c04565b9998505050505050505050565b600061014082019050613fda600083018d613e9a565b8181036020830152613fec818c613d22565b9050613ffb604083018b613e9a565b818103606083015261400d818a613d22565b905081810360808301526140218189613d22565b905081810360a08301526140358188613d22565b905061404460c0830187613e9a565b61405160e0830186613c04565b61405f610100830185613c22565b61406d610120830184613d13565b9b9a5050505050505050505050565b600061014082019050614092600083018d613e9a565b81810360208301526140a4818c613d22565b90506140b3604083018b613e9a565b81810360608301526140c5818a613d22565b905081810360808301526140d98189613d22565b905081810360a08301526140ed8188613d22565b90506140fc60c0830187613e9a565b61410960e0830186613c04565b614117610100830185613e9a565b614125610120830184613d13565b9b9a5050505050505050505050565b60006101008201905061414a600083018b613e9a565b818103602083015261415c818a613d94565b905081810360408301526141708189613d94565b905061417f6060830188613c22565b61418c6080830187613d13565b61419960a0830186613e9a565b81810360c08301526141ab8185613d94565b90506141ba60e0830184613e9a565b9998505050505050505050565b6000610100820190506141dd600083018b613e9a565b81810360208301526141ef818a613d94565b90506141fe6040830189613e9a565b81810360608301526142108188613d94565b905081810360808301526142248187613d94565b905081810360a08301526142388186613d94565b905061424760c0830185613e9a565b61425460e0830184613c04565b9998505050505050505050565b600061014082019050614277600083018d613e9a565b8181036020830152614289818c613d94565b9050614298604083018b613e9a565b81810360608301526142aa818a613d94565b905081810360808301526142be8189613d94565b905081810360a08301526142d28188613d94565b90506142e160c0830187613e9a565b6142ee60e0830186613c04565b6142fc610100830185613c22565b61430a610120830184613d13565b9b9a5050505050505050505050565b60006101408201905061432f600083018d613e9a565b8181036020830152614341818c613d94565b9050614350604083018b613e9a565b8181036060830152614362818a613d94565b905081810360808301526143768189613d94565b905081810360a083015261438a8188613d94565b905061439960c0830187613e9a565b6143a660e0830186613c04565b6143b4610100830185613e9a565b6143c2610120830184613d13565b9b9a5050505050505050505050565b6000604051905081810181811067ffffffffffffffff821117156143f457600080fd5b8060405250919050565b600067ffffffffffffffff82111561441557600080fd5b601f19601f8301169050602081019050919050565b6000819050602082019050919050565b6000819050602082019050919050565b600081519050919050565b600081519050919050565b600081519050919050565b600081519050919050565b6000602082019050919050565b6000602082019050919050565b600082825260208201905092915050565b600082825260208201905092915050565b600082825260208201905092915050565b600082825260208201905092915050565b60006144df82614504565b9050919050565b60006144f182614504565b9050919050565b60008115159050919050565b600073ffffffffffffffffffffffffffffffffffffffff82169050919050565b6000819050919050565b82818337600083830152505050565b60005b8381101561455b578082015181840152602081019050614540565b8381111561456a576000848401525b50505050565b6000601f19601f8301169050919050565b61458a816144d4565b811461459557600080fd5b50565b6145a1816144f8565b81146145ac57600080fd5b50565b6145b881614524565b81146145c357600080fd5b5056fea365627a7a72315820dd6bc1df0b92960bede2058a9bcacc836d3014611ae3ac7c8be72c2fceb176366c6578706572696d656e74616cf564736f6c63430005100040",
  "source": "// SPDX-License-Identifier: UNLICENSED\npragma solidity ^0.5.0;\npragma experimental ABIEncoderV2;\n\nimport \"./DCStorage.sol\";\nimport \"./safemath.sol\";\nimport \"./Organization.sol\";\nimport \"./Membership.sol\";\nimport \"./Direct.sol\";\n\ncontract OrganizationUpload is Direct {\n\n  string public name = \"Crypto Box Organization Upload\";\n  uint public organizationFileCount = 0;\n\n  mapping(uint => OrganizationFile) public organizationfiles;\n\n  mapping(uint => uint[]) public organizationToFileIds;\n  \n  struct OrganizationFile{\n    uint fileId;\n    string fileHash;\n    uint fileSize;\n    string fileType;\n    string fileName;\n    string fileDescription;\n    uint uploadTime;\n    address payable uploader;\n    uint organizationId;\n    bool isFlagged;\n  }\n\n  event OrganizationFileUploaded(\n    uint fileId,\n    string fileHash,\n    uint fileSize,\n    string fileType,\n    string fileName,\n    string fileDescription,\n    uint uploadTime,\n    address payable uploader,\n    uint organizationId,\n    bool isFlagged\n  );\n\n  constructor() public {\n  }\n\n  function uploadOrganizationFile(string memory _fileHash, uint _fileSize, string memory _fileType, string memory _fileName, string memory _fileDescription, uint _organizationId, bool _isFlagged) public {\n    require(bytes(_fileHash).length > 0);\n    require(bytes(_fileType).length > 0);\n    require(bytes(_fileName).length > 0);\n    require(bytes(_fileDescription).length > 0);\n    require(msg.sender != address(0));\n    require(_fileSize > 0);\n    organizationfiles[organizationFileCount] = OrganizationFile(organizationFileCount, _fileHash, _fileSize, _fileType, _fileName, _fileDescription, now, msg.sender, _organizationId, _isFlagged);\n    organizationToFileIds[_organizationId].push(organizationFileCount);\n    organizationFileCount++;\n    emit OrganizationFileUploaded(organizationFileCount, _fileHash, _fileSize, _fileType, _fileName, _fileDescription, now, msg.sender, _organizationId, _isFlagged);\n  }\n\n  function currentOrganizationFileIds(uint id) external view returns(uint [] memory) {\n    return organizationToFileIds[id];\n  }\n\n  function organizationFileDelete(uint fileId, uint organizationId) public {\n    require(msg.sender == organizations[organizationId].Owner);\n    bool startDelete = false;\n    for(uint i = 0; i < organizationToFileIds[organizationId].length - 1; i++){\n        if(organizationToFileIds[organizationId][i] == fileId){\n            startDelete = true;\n        }\n        if(startDelete){\n            organizationToFileIds[organizationId][i] = organizationToFileIds[organizationId][i + 1];\n        }\n    }\n    delete organizationToFileIds[organizationId][organizationToFileIds[organizationId].length - 1];\n    organizationToFileIds[organizationId].length--;\n    delete organizationfiles[fileId];\n  }\n  \n}\n\n\n",
  "sourcePath": "/Users/csuftitan/Desktop/Meet Turakhia/Advanced Blockchain (CPSC 559)/Projects/Final Project(4 Dec 2022)/src/contracts/OrganizationUploads.sol",
  "compiler": {
    "name": "solc",
    "version": "0.5.16+commit.9c3226ce.Emscripten.clang"
  },
  "schemaVersion": "3.4.9",
  "updatedAt": "2022-12-04T23:47:21.342Z",
  "devdoc": {
    "methods": {}
  },
  "userdoc": {
    "methods": {}
  }
}