{
  "contractName": "OrganizationUploads",
  "abi": [
    {
      "inputs": [],
      "payable": false,
      "stateMutability": "nonpayable",
      "type": "constructor"
    },
    {
      "anonymous": false,
      "inputs": [
        {
          "indexed": false,
          "internalType": "uint256",
          "name": "fileId",
          "type": "uint256"
        },
        {
          "indexed": false,
          "internalType": "string",
          "name": "fileHash",
          "type": "string"
        },
        {
          "indexed": false,
          "internalType": "uint256",
          "name": "fileSize",
          "type": "uint256"
        },
        {
          "indexed": false,
          "internalType": "string",
          "name": "fileType",
          "type": "string"
        },
        {
          "indexed": false,
          "internalType": "string",
          "name": "fileName",
          "type": "string"
        },
        {
          "indexed": false,
          "internalType": "string",
          "name": "fileDescription",
          "type": "string"
        },
        {
          "indexed": false,
          "internalType": "uint256",
          "name": "uploadTime",
          "type": "uint256"
        },
        {
          "indexed": false,
          "internalType": "address payable",
          "name": "uploader",
          "type": "address"
        },
        {
          "indexed": false,
          "internalType": "address",
          "name": "reciever",
          "type": "address"
        },
        {
          "indexed": false,
          "internalType": "bool",
          "name": "isOneTimeLink",
          "type": "bool"
        }
      ],
      "name": "DirectFileUploaded",
      "type": "event"
    },
    {
      "anonymous": false,
      "inputs": [
        {
          "indexed": false,
          "internalType": "uint256",
          "name": "fileId",
          "type": "uint256"
        },
        {
          "indexed": false,
          "internalType": "string",
          "name": "fileHash",
          "type": "string"
        },
        {
          "indexed": false,
          "internalType": "uint256",
          "name": "fileSize",
          "type": "uint256"
        },
        {
          "indexed": false,
          "internalType": "string",
          "name": "fileType",
          "type": "string"
        },
        {
          "indexed": false,
          "internalType": "string",
          "name": "fileName",
          "type": "string"
        },
        {
          "indexed": false,
          "internalType": "string",
          "name": "fileDescription",
          "type": "string"
        },
        {
          "indexed": false,
          "internalType": "uint256",
          "name": "uploadTime",
          "type": "uint256"
        },
        {
          "indexed": false,
          "internalType": "address payable",
          "name": "uploader",
          "type": "address"
        }
      ],
      "name": "FileUploaded",
      "type": "event"
    },
    {
      "anonymous": false,
      "inputs": [
        {
          "indexed": false,
          "internalType": "uint256",
          "name": "fileId",
          "type": "uint256"
        },
        {
          "indexed": false,
          "internalType": "string",
          "name": "fileHash",
          "type": "string"
        },
        {
          "indexed": false,
          "internalType": "uint256",
          "name": "fileSize",
          "type": "uint256"
        },
        {
          "indexed": false,
          "internalType": "string",
          "name": "fileType",
          "type": "string"
        },
        {
          "indexed": false,
          "internalType": "string",
          "name": "fileName",
          "type": "string"
        },
        {
          "indexed": false,
          "internalType": "string",
          "name": "fileDescription",
          "type": "string"
        },
        {
          "indexed": false,
          "internalType": "uint256",
          "name": "uploadTime",
          "type": "uint256"
        },
        {
          "indexed": false,
          "internalType": "address payable",
          "name": "uploader",
          "type": "address"
        },
        {
          "indexed": false,
          "internalType": "uint256",
          "name": "organizationId",
          "type": "uint256"
        },
        {
          "indexed": false,
          "internalType": "bool",
          "name": "isFlagged",
          "type": "bool"
        }
      ],
      "name": "OrganizationFileUploaded",
      "type": "event"
    },
    {
      "constant": true,
      "inputs": [
        {
          "internalType": "address",
          "name": "",
          "type": "address"
        },
        {
          "internalType": "uint256",
          "name": "",
          "type": "uint256"
        }
      ],
      "name": "addressToFileIds",
      "outputs": [
        {
          "internalType": "uint256",
          "name": "",
          "type": "uint256"
        }
      ],
      "payable": false,
      "stateMutability": "view",
      "type": "function"
    },
    {
      "constant": false,
      "inputs": [
        {
          "internalType": "string",
          "name": "name",
          "type": "string"
        },
        {
          "internalType": "string",
          "name": "description",
          "type": "string"
        },
        {
          "internalType": "bool",
          "name": "privateBool",
          "type": "bool"
        },
        {
          "internalType": "uint256",
          "name": "memberLimit",
          "type": "uint256"
        },
        {
          "internalType": "string",
          "name": "passcode",
          "type": "string"
        }
      ],
      "name": "createOrganization",
      "outputs": [],
      "payable": false,
      "stateMutability": "nonpayable",
      "type": "function"
    },
    {
      "constant": true,
      "inputs": [],
      "name": "currentUserFileIds",
      "outputs": [
        {
          "internalType": "uint256[]",
          "name": "",
          "type": "uint256[]"
        }
      ],
      "payable": false,
      "stateMutability": "view",
      "type": "function"
    },
    {
      "constant": false,
      "inputs": [
        {
          "internalType": "uint256",
          "name": "id",
          "type": "uint256"
        }
      ],
      "name": "deleteOrganization",
      "outputs": [],
      "payable": false,
      "stateMutability": "nonpayable",
      "type": "function"
    },
    {
      "constant": true,
      "inputs": [],
      "name": "directFileCount",
      "outputs": [
        {
          "internalType": "uint256",
          "name": "",
          "type": "uint256"
        }
      ],
      "payable": false,
      "stateMutability": "view",
      "type": "function"
    },
    {
      "constant": true,
      "inputs": [
        {
          "internalType": "uint256",
          "name": "",
          "type": "uint256"
        }
      ],
      "name": "directfiles",
      "outputs": [
        {
          "internalType": "uint256",
          "name": "fileId",
          "type": "uint256"
        },
        {
          "internalType": "string",
          "name": "fileHash",
          "type": "string"
        },
        {
          "internalType": "uint256",
          "name": "fileSize",
          "type": "uint256"
        },
        {
          "internalType": "string",
          "name": "fileType",
          "type": "string"
        },
        {
          "internalType": "string",
          "name": "fileName",
          "type": "string"
        },
        {
          "internalType": "string",
          "name": "fileDescription",
          "type": "string"
        },
        {
          "internalType": "uint256",
          "name": "uploadTime",
          "type": "uint256"
        },
        {
          "internalType": "address payable",
          "name": "uploader",
          "type": "address"
        },
        {
          "internalType": "address",
          "name": "reciever",
          "type": "address"
        },
        {
          "internalType": "bool",
          "name": "isOneTimeLink",
          "type": "bool"
        }
      ],
      "payable": false,
      "stateMutability": "view",
      "type": "function"
    },
    {
      "constant": false,
      "inputs": [
        {
          "internalType": "uint256",
          "name": "id",
          "type": "uint256"
        },
        {
          "internalType": "string",
          "name": "name",
          "type": "string"
        },
        {
          "internalType": "string",
          "name": "description",
          "type": "string"
        },
        {
          "internalType": "bool",
          "name": "privateBool",
          "type": "bool"
        },
        {
          "internalType": "uint256",
          "name": "memberLimit",
          "type": "uint256"
        },
        {
          "internalType": "string",
          "name": "passcode",
          "type": "string"
        }
      ],
      "name": "editOrganization",
      "outputs": [],
      "payable": false,
      "stateMutability": "nonpayable",
      "type": "function"
    },
    {
      "constant": false,
      "inputs": [
        {
          "internalType": "uint256",
          "name": "id",
          "type": "uint256"
        }
      ],
      "name": "exitOrganization",
      "outputs": [],
      "payable": false,
      "stateMutability": "nonpayable",
      "type": "function"
    },
    {
      "constant": true,
      "inputs": [],
      "name": "fileCount",
      "outputs": [
        {
          "internalType": "uint256",
          "name": "",
          "type": "uint256"
        }
      ],
      "payable": false,
      "stateMutability": "view",
      "type": "function"
    },
    {
      "constant": false,
      "inputs": [
        {
          "internalType": "uint256",
          "name": "id",
          "type": "uint256"
        }
      ],
      "name": "fileDelete",
      "outputs": [],
      "payable": false,
      "stateMutability": "nonpayable",
      "type": "function"
    },
    {
      "constant": true,
      "inputs": [
        {
          "internalType": "uint256",
          "name": "",
          "type": "uint256"
        }
      ],
      "name": "files",
      "outputs": [
        {
          "internalType": "uint256",
          "name": "fileId",
          "type": "uint256"
        },
        {
          "internalType": "string",
          "name": "fileHash",
          "type": "string"
        },
        {
          "internalType": "uint256",
          "name": "fileSize",
          "type": "uint256"
        },
        {
          "internalType": "string",
          "name": "fileType",
          "type": "string"
        },
        {
          "internalType": "string",
          "name": "fileName",
          "type": "string"
        },
        {
          "internalType": "string",
          "name": "fileDescription",
          "type": "string"
        },
        {
          "internalType": "uint256",
          "name": "uploadTime",
          "type": "uint256"
        },
        {
          "internalType": "address payable",
          "name": "uploader",
          "type": "address"
        }
      ],
      "payable": false,
      "stateMutability": "view",
      "type": "function"
    },
    {
      "constant": true,
      "inputs": [],
      "name": "getMemberships",
      "outputs": [
        {
          "internalType": "uint256[]",
          "name": "",
          "type": "uint256[]"
        }
      ],
      "payable": false,
      "stateMutability": "view",
      "type": "function"
    },
    {
      "constant": true,
      "inputs": [],
      "name": "getOrganizations",
      "outputs": [
        {
          "components": [
            {
              "internalType": "uint256",
              "name": "Id",
              "type": "uint256"
            },
            {
              "internalType": "string",
              "name": "Name",
              "type": "string"
            },
            {
              "internalType": "string",
              "name": "Description",
              "type": "string"
            },
            {
              "internalType": "address",
              "name": "Owner",
              "type": "address"
            },
            {
              "internalType": "bool",
              "name": "Private",
              "type": "bool"
            },
            {
              "internalType": "uint256",
              "name": "MemberLimit",
              "type": "uint256"
            },
            {
              "internalType": "bytes32",
              "name": "Passcode",
              "type": "bytes32"
            },
            {
              "internalType": "uint256",
              "name": "createdAt",
              "type": "uint256"
            }
          ],
          "internalType": "struct BuildOrganization.Organization[]",
          "name": "",
          "type": "tuple[]"
        }
      ],
      "payable": false,
      "stateMutability": "view",
      "type": "function"
    },
    {
      "constant": false,
      "inputs": [
        {
          "internalType": "uint256",
          "name": "id",
          "type": "uint256"
        },
        {
          "internalType": "string",
          "name": "passcode",
          "type": "string"
        }
      ],
      "name": "joinOrganization",
      "outputs": [],
      "payable": false,
      "stateMutability": "nonpayable",
      "type": "function"
    },
    {
      "constant": true,
      "inputs": [],
      "name": "name",
      "outputs": [
        {
          "internalType": "string",
          "name": "",
          "type": "string"
        }
      ],
      "payable": false,
      "stateMutability": "view",
      "type": "function"
    },
    {
      "constant": true,
      "inputs": [],
      "name": "organizationFileCount",
      "outputs": [
        {
          "internalType": "uint256",
          "name": "",
          "type": "uint256"
        }
      ],
      "payable": false,
      "stateMutability": "view",
      "type": "function"
    },
    {
      "constant": true,
      "inputs": [
        {
          "internalType": "uint256",
          "name": "",
          "type": "uint256"
        },
        {
          "internalType": "uint256",
          "name": "",
          "type": "uint256"
        }
      ],
      "name": "organizationToFileIds",
      "outputs": [
        {
          "internalType": "uint256",
          "name": "",
          "type": "uint256"
        }
      ],
      "payable": false,
      "stateMutability": "view",
      "type": "function"
    },
    {
      "constant": true,
      "inputs": [
        {
          "internalType": "uint256",
          "name": "",
          "type": "uint256"
        }
      ],
      "name": "organizationfiles",
      "outputs": [
        {
          "internalType": "uint256",
          "name": "fileId",
          "type": "uint256"
        },
        {
          "internalType": "string",
          "name": "fileHash",
          "type": "string"
        },
        {
          "internalType": "uint256",
          "name": "fileSize",
          "type": "uint256"
        },
        {
          "internalType": "string",
          "name": "fileType",
          "type": "string"
        },
        {
          "internalType": "string",
          "name": "fileName",
          "type": "string"
        },
        {
          "internalType": "string",
          "name": "fileDescription",
          "type": "string"
        },
        {
          "internalType": "uint256",
          "name": "uploadTime",
          "type": "uint256"
        },
        {
          "internalType": "address payable",
          "name": "uploader",
          "type": "address"
        },
        {
          "internalType": "uint256",
          "name": "organizationId",
          "type": "uint256"
        },
        {
          "internalType": "bool",
          "name": "isFlagged",
          "type": "bool"
        }
      ],
      "payable": false,
      "stateMutability": "view",
      "type": "function"
    },
    {
      "constant": true,
      "inputs": [
        {
          "internalType": "uint256",
          "name": "",
          "type": "uint256"
        }
      ],
      "name": "organizations",
      "outputs": [
        {
          "internalType": "uint256",
          "name": "Id",
          "type": "uint256"
        },
        {
          "internalType": "string",
          "name": "Name",
          "type": "string"
        },
        {
          "internalType": "string",
          "name": "Description",
          "type": "string"
        },
        {
          "internalType": "address",
          "name": "Owner",
          "type": "address"
        },
        {
          "internalType": "bool",
          "name": "Private",
          "type": "bool"
        },
        {
          "internalType": "uint256",
          "name": "MemberLimit",
          "type": "uint256"
        },
        {
          "internalType": "bytes32",
          "name": "Passcode",
          "type": "bytes32"
        },
        {
          "internalType": "uint256",
          "name": "createdAt",
          "type": "uint256"
        }
      ],
      "payable": false,
      "stateMutability": "view",
      "type": "function"
    },
    {
      "constant": false,
      "inputs": [
        {
          "internalType": "uint256",
          "name": "id",
          "type": "uint256"
        },
        {
          "internalType": "address",
          "name": "userAddress",
          "type": "address"
        }
      ],
      "name": "removeMembership",
      "outputs": [],
      "payable": false,
      "stateMutability": "nonpayable",
      "type": "function"
    },
    {
      "constant": false,
      "inputs": [
        {
          "internalType": "string",
          "name": "_fileHash",
          "type": "string"
        },
        {
          "internalType": "uint256",
          "name": "_fileSize",
          "type": "uint256"
        },
        {
          "internalType": "string",
          "name": "_fileType",
          "type": "string"
        },
        {
          "internalType": "string",
          "name": "_fileName",
          "type": "string"
        },
        {
          "internalType": "string",
          "name": "_fileDescription",
          "type": "string"
        },
        {
          "internalType": "address",
          "name": "_reciever",
          "type": "address"
        },
        {
          "internalType": "bool",
          "name": "_isOneTimeLink",
          "type": "bool"
        }
      ],
      "name": "uploadDirectFile",
      "outputs": [],
      "payable": false,
      "stateMutability": "nonpayable",
      "type": "function"
    },
    {
      "constant": false,
      "inputs": [
        {
          "internalType": "string",
          "name": "_fileHash",
          "type": "string"
        },
        {
          "internalType": "uint256",
          "name": "_fileSize",
          "type": "uint256"
        },
        {
          "internalType": "string",
          "name": "_fileType",
          "type": "string"
        },
        {
          "internalType": "string",
          "name": "_fileName",
          "type": "string"
        },
        {
          "internalType": "string",
          "name": "_fileDescription",
          "type": "string"
        }
      ],
      "name": "uploadFile",
      "outputs": [],
      "payable": false,
      "stateMutability": "nonpayable",
      "type": "function"
    },
    {
      "constant": false,
      "inputs": [
        {
          "internalType": "string",
          "name": "_fileHash",
          "type": "string"
        },
        {
          "internalType": "uint256",
          "name": "_fileSize",
          "type": "uint256"
        },
        {
          "internalType": "string",
          "name": "_fileType",
          "type": "string"
        },
        {
          "internalType": "string",
          "name": "_fileName",
          "type": "string"
        },
        {
          "internalType": "string",
          "name": "_fileDescription",
          "type": "string"
        },
        {
          "internalType": "uint256",
          "name": "_organizationId",
          "type": "uint256"
        },
        {
          "internalType": "bool",
          "name": "_isFlagged",
          "type": "bool"
        }
      ],
      "name": "uploadOrganizationFile",
      "outputs": [],
      "payable": false,
      "stateMutability": "nonpayable",
      "type": "function"
    },
    {
      "constant": true,
      "inputs": [
        {
          "internalType": "uint256",
          "name": "id",
          "type": "uint256"
        }
      ],
      "name": "currentOrganizationFileIds",
      "outputs": [
        {
          "internalType": "uint256[]",
          "name": "",
          "type": "uint256[]"
        }
      ],
      "payable": false,
      "stateMutability": "view",
      "type": "function"
    },
    {
      "constant": false,
      "inputs": [
        {
          "internalType": "uint256",
          "name": "fileId",
          "type": "uint256"
        },
        {
          "internalType": "uint256",
          "name": "organizationId",
          "type": "uint256"
        }
      ],
      "name": "organizationFileDelete",
      "outputs": [],
      "payable": false,
      "stateMutability": "nonpayable",
      "type": "function"
    },
    {
      "constant": false,
      "inputs": [
        {
          "internalType": "uint256",
          "name": "fileId",
          "type": "uint256"
        },
        {
          "internalType": "uint256",
          "name": "organizationId",
          "type": "uint256"
        }
      ],
      "name": "toggleFlag",
      "outputs": [],
      "payable": false,
      "stateMutability": "nonpayable",
      "type": "function"
    }
  ],
  "bytecode": "0x60806040526040518060400160405280600981526020017f444353746f726167650000000000000000000000000000000000000000000000815250600090805190602001906200005192919062000116565b50600060015560006003556040518060400160405280601181526020017f43727970746f20426f782044697265637400000000000000000000000000000081525060099080519060200190620000a992919062000116565b506000600a556040518060400160405280601e81526020017f43727970746f20426f78204f7267616e697a6174696f6e2055706c6f61640000815250600d9080519060200190620000fc92919062000116565b506000600e553480156200010f57600080fd5b50620001c5565b828054600181600116156101000203166002900490600052602060002090601f016020900481019282601f106200015957805160ff19168380011785556200018a565b828001600101855582156200018a579182015b82811115620001895782518255916020019190600101906200016c565b5b5090506200019991906200019d565b5090565b620001c291905b80821115620001be576000816000905550600101620001a4565b5090565b90565b614d7580620001d56000396000f3fe608060405234801561001057600080fd5b506004361061018d5760003560e01c8063942b7c7f116100de578063cc2cb94a11610097578063e792dd8a11610071578063e792dd8a14610461578063e82d9d3314610498578063eca017f2146104b4578063f4c714b4146104ed5761018d565b8063cc2cb94a1461040d578063cdc3035314610429578063dc1301af146104455761018d565b8063942b7c7f146103305780639754a3a81461036957806398489bc714610387578063a89b01a8146103a3578063b8f871a1146103c1578063c07bdbf7146103dd5761018d565b80634db20ee91161014b578063633363111161012557806363336311146102aa5780636febc6c0146102c65780637840c6a4146102f657806392515b28146103145761018d565b80634db20ee91461025457806356a24c24146102705780635a5942771461028c5761018d565b8062d5f22b1461019257806306fdde03146101b057806329ab4bf3146101ce578063339d4ad7146101ea578063439535191461021a578063481c109314610238575b600080fd5b61019a610524565b6040516101a7919061466d565b60405180910390f35b6101b861052a565b6040516101c5919061464b565b60405180910390f35b6101e860048036036101e391908101906141ca565b6105c8565b005b61020460048036036101ff9190810190613d43565b6107a5565b604051610211919061466d565b60405180910390f35b6102226107d3565b60405161022f919061466d565b60405180910390f35b610252600480360361024d9190810190613d7f565b6107d9565b005b61026e60048036036102699190810190613f15565b610b95565b005b61028a6004803603610285919081019061429b565b610eed565b005b610294611153565b6040516102a1919061466d565b60405180910390f35b6102c460048036036102bf919081019061413a565b611159565b005b6102e060048036036102db919081019061429b565b6116e7565b6040516102ed919061466d565b60405180910390f35b6102fe611715565b60405161030b9190614629565b60405180910390f35b61032e60048036036103299190810190614111565b6117aa565b005b61034a60048036036103459190810190614111565b611cc1565b6040516103609a999897969594939291906149b8565b60405180910390f35b610371611fc2565b60405161037e9190614607565b60405180910390f35b6103a1600480360361039c919081019061429b565b6121ff565b005b6103ab61230d565b6040516103b89190614629565b60405180910390f35b6103db60048036036103d69190810190614111565b6123a2565b005b6103f760048036036103f29190810190614111565b6126e4565b6040516104049190614629565b60405180910390f35b61042760048036036104229190810190614013565b61274f565b005b610443600480360361043e9190810190614176565b6129f0565b005b61045f600480360361045a9190810190614111565b612c79565b005b61047b60048036036104769190810190614111565b612fe8565b60405161048f989796959493929190614892565b60405180910390f35b6104b260048036036104ad9190810190613e3e565b61319a565b005b6104ce60048036036104c99190810190614111565b6133bc565b6040516104e49a99989796959493929190614a70565b60405180910390f35b61050760048036036105029190810190614111565b61369d565b60405161051b98979695949392919061491e565b60405180910390f35b600a5481565b600d8054600181600116156101000203166002900480601f0160208091040260200160405190810160405280929190818152602001828054600181600116156101000203166002900480156105c05780601f10610595576101008083540402835291602001916105c0565b820191906000526020600020905b8154815290600101906020018083116105a357829003601f168201915b505050505081565b60008551116105d657600080fd5b60008451116105e457600080fd5b600082116105f157600080fd5b60001515831515141561061557604051806020016040528060008152509050610624565b600081511161062357600080fd5b5b3373ffffffffffffffffffffffffffffffffffffffff166005600088815260200190815260200160002060009054906101000a900473ffffffffffffffffffffffffffffffffffffffff1673ffffffffffffffffffffffffffffffffffffffff161461068f57600080fd5b6000816040516020016106a291906145f0565b60405160208183030381529060405280519060200120905085600488815481106106c857fe5b906000526020600020906007020160010190805190602001906106ec929190613998565b5084600488815481106106fb57fe5b9060005260206000209060070201600201908051906020019061071f929190613998565b50836004888154811061072e57fe5b906000526020600020906007020160030160146101000a81548160ff021916908315150217905550826004888154811061076457fe5b906000526020600020906007020160040181905550806004888154811061078757fe5b90600052602060002090600702016005018190555050505050505050565b600c60205281600052604060002081815481106107be57fe5b90600052602060002001600091509150505481565b60015481565b60008551116107e757600080fd5b60008451116107f557600080fd5b6000821161080257600080fd5b60001515831515141561082657604051806020016040528060008152509050610835565b600081511161083457600080fd5b5b6000600354905060008260405160200161084f91906145f0565b60405160208183030381529060405280519060200120905060046040518061010001604052808481526020018981526020018881526020013373ffffffffffffffffffffffffffffffffffffffff1681526020018715158152602001868152602001838152602001428152509080600181540180825580915050906001820390600052602060002090600702016000909192909190915060008201518160000155602082015181600101908051906020019061090c929190613a18565b506040820151816002019080519060200190610929929190613a18565b5060608201518160030160006101000a81548173ffffffffffffffffffffffffffffffffffffffff021916908373ffffffffffffffffffffffffffffffffffffffff16021790555060808201518160030160146101000a81548160ff02191690831515021790555060a0820151816004015560c0820151816005015560e08201518160060155505050336005600084815260200190815260200160002060006101000a81548173ffffffffffffffffffffffffffffffffffffffff021916908373ffffffffffffffffffffffffffffffffffffffff160217905550610a576001600660003373ffffffffffffffffffffffffffffffffffffffff1673ffffffffffffffffffffffffffffffffffffffff1681526020019081526020016000205461396590919063ffffffff16565b600660003373ffffffffffffffffffffffffffffffffffffffff1673ffffffffffffffffffffffffffffffffffffffff16815260200190815260200160002081905550600760003373ffffffffffffffffffffffffffffffffffffffff1673ffffffffffffffffffffffffffffffffffffffff168152602001908152602001600020829080600181540180825580915050906001820390600052602060002001600090919290919091505550600860008381526020019081526020016000203390806001815401808255809150509060018203906000526020600020016000909192909190916101000a81548173ffffffffffffffffffffffffffffffffffffffff021916908373ffffffffffffffffffffffffffffffffffffffff1602179055505060036000815480929190600101919050555050505050505050565b6000875111610ba357600080fd5b6000855111610bb157600080fd5b6000845111610bbf57600080fd5b6000835111610bcd57600080fd5b600073ffffffffffffffffffffffffffffffffffffffff163373ffffffffffffffffffffffffffffffffffffffff161415610c0757600080fd5b60008611610c1457600080fd5b8173ffffffffffffffffffffffffffffffffffffffff168273ffffffffffffffffffffffffffffffffffffffff1614610c4c57600080fd5b604051806101400160405280600a5481526020018881526020018781526020018681526020018581526020018481526020014281526020013373ffffffffffffffffffffffffffffffffffffffff1681526020018373ffffffffffffffffffffffffffffffffffffffff168152602001821515815250600b6000600a548152602001908152602001600020600082015181600001556020820151816001019080519060200190610cfd929190613a18565b50604082015181600201556060820151816003019080519060200190610d24929190613a18565b506080820151816004019080519060200190610d41929190613a18565b5060a0820151816005019080519060200190610d5e929190613a18565b5060c0820151816006015560e08201518160070160006101000a81548173ffffffffffffffffffffffffffffffffffffffff021916908373ffffffffffffffffffffffffffffffffffffffff1602179055506101008201518160080160006101000a81548173ffffffffffffffffffffffffffffffffffffffff021916908373ffffffffffffffffffffffffffffffffffffffff1602179055506101208201518160080160146101000a81548160ff021916908315150217905550905050600c60008373ffffffffffffffffffffffffffffffffffffffff1673ffffffffffffffffffffffffffffffffffffffff168152602001908152602001600020600a549080600181540180825580915050906001820390600052602060002001600090919290919091505550600a600081548092919060010191905055507feeeed15c975fd3e736c550958913fd5541d9193b09fb3c3b98cadc46aed5533a600a54888888888842338a8a604051610edc9a99989796959493929190614722565b60405180910390a150505050505050565b60048181548110610efa57fe5b906000526020600020906007020160030160009054906101000a900473ffffffffffffffffffffffffffffffffffffffff1673ffffffffffffffffffffffffffffffffffffffff163373ffffffffffffffffffffffffffffffffffffffff1614610f6357600080fd5b600080905060008090505b60016010600085815260200190815260200160002080549050038110156110305783601060008581526020019081526020016000208281548110610fae57fe5b90600052602060002001541415610fc457600191505b811561102357601060008481526020019081526020016000206001820181548110610feb57fe5b906000526020600020015460106000858152602001908152602001600020828154811061101457fe5b90600052602060002001819055505b8080600101915050610f6e565b506010600083815260200190815260200160002060016010600085815260200190815260200160002080549050038154811061106857fe5b90600052602060002001600090556010600083815260200190815260200160002080548091906001900361109c9190613a98565b50600f60008481526020019081526020016000206000808201600090556001820160006110c99190613ac4565b60028201600090556003820160006110e19190613ac4565b6004820160006110f19190613ac4565b6005820160006111019190613ac4565b60068201600090556007820160006101000a81549073ffffffffffffffffffffffffffffffffffffffff021916905560088201600090556009820160006101000a81549060ff02191690555050505050565b600e5481565b6004828154811061116657fe5b906000526020600020906007020160030160009054906101000a900473ffffffffffffffffffffffffffffffffffffffff1673ffffffffffffffffffffffffffffffffffffffff163373ffffffffffffffffffffffffffffffffffffffff16146111cf57600080fd5b600080600080905060008090506060600760008773ffffffffffffffffffffffffffffffffffffffff1673ffffffffffffffffffffffffffffffffffffffff16815260200190815260200160002080548060200260200160405190810160405280929190818152602001828054801561126757602002820191906000526020600020905b815481526020019060010190808311611253575b5050505050905060606008600089815260200190815260200160002080548060200260200160405190810160405280929190818152602001828054801561130357602002820191906000526020600020905b8160009054906101000a900473ffffffffffffffffffffffffffffffffffffffff1673ffffffffffffffffffffffffffffffffffffffff16815260200190600101908083116112b9575b5050505050905060005b82518110156113465782818151811061132257fe5b602002602001015189141561133957809650600194505b808060010191505061130d565b5060005b81518110156113af5781818151811061135f57fe5b602002602001015173ffffffffffffffffffffffffffffffffffffffff168873ffffffffffffffffffffffffffffffffffffffff1614156113a257809550600193505b808060010191505061134a565b508380156113ba5750825b156116dd5760008690505b600183510381101561148e57600760008973ffffffffffffffffffffffffffffffffffffffff1673ffffffffffffffffffffffffffffffffffffffff168152602001908152602001600020600182018154811061141e57fe5b9060005260206000200154600760008a73ffffffffffffffffffffffffffffffffffffffff1673ffffffffffffffffffffffffffffffffffffffff168152602001908152602001600020828154811061147357fe5b906000526020600020018190555080806001019150506113c5565b50600760008873ffffffffffffffffffffffffffffffffffffffff1673ffffffffffffffffffffffffffffffffffffffff1681526020019081526020016000206001600760008a73ffffffffffffffffffffffffffffffffffffffff1673ffffffffffffffffffffffffffffffffffffffff16815260200190815260200160002080549050038154811061151e57fe5b9060005260206000200160009055600760008873ffffffffffffffffffffffffffffffffffffffff1673ffffffffffffffffffffffffffffffffffffffff16815260200190815260200160002080548091906001900361157e9190613a98565b5060008590505b600182510381101561165057600860008a815260200190815260200160002060018201815481106115b257fe5b9060005260206000200160009054906101000a900473ffffffffffffffffffffffffffffffffffffffff16600860008b815260200190815260200160002082815481106115fb57fe5b9060005260206000200160006101000a81548173ffffffffffffffffffffffffffffffffffffffff021916908373ffffffffffffffffffffffffffffffffffffffff1602179055508080600101915050611585565b50600860008981526020019081526020016000206001600860008b815260200190815260200160002080549050038154811061168857fe5b9060005260206000200160006101000a81549073ffffffffffffffffffffffffffffffffffffffff0219169055600860008981526020019081526020016000208054809190600190036116db9190613b0c565b505b5050505050505050565b6010602052816000526040600020818154811061170057fe5b90600052602060002001600091509150505481565b6060600760003373ffffffffffffffffffffffffffffffffffffffff1673ffffffffffffffffffffffffffffffffffffffff1681526020019081526020016000208054806020026020016040519081016040528092919081815260200182805480156117a057602002820191906000526020600020905b81548152602001906001019080831161178c575b5050505050905090565b600080600080905060008090506060600760003373ffffffffffffffffffffffffffffffffffffffff1673ffffffffffffffffffffffffffffffffffffffff16815260200190815260200160002080548060200260200160405190810160405280929190818152602001828054801561184257602002820191906000526020600020905b81548152602001906001019080831161182e575b505050505090506060600860008881526020019081526020016000208054806020026020016040519081016040528092919081815260200182805480156118de57602002820191906000526020600020905b8160009054906101000a900473ffffffffffffffffffffffffffffffffffffffff1673ffffffffffffffffffffffffffffffffffffffff1681526020019060010190808311611894575b5050505050905060005b8251811015611921578281815181106118fd57fe5b602002602001015188141561191457809650600194505b80806001019150506118e8565b5060005b815181101561198a5781818151811061193a57fe5b602002602001015173ffffffffffffffffffffffffffffffffffffffff163373ffffffffffffffffffffffffffffffffffffffff16141561197d57809550600193505b8080600101915050611925565b508380156119955750825b15611cb85760008690505b6001835103811015611a6957600760003373ffffffffffffffffffffffffffffffffffffffff1673ffffffffffffffffffffffffffffffffffffffff16815260200190815260200160002060018201815481106119f957fe5b9060005260206000200154600760003373ffffffffffffffffffffffffffffffffffffffff1673ffffffffffffffffffffffffffffffffffffffff1681526020019081526020016000208281548110611a4e57fe5b906000526020600020018190555080806001019150506119a0565b50600760003373ffffffffffffffffffffffffffffffffffffffff1673ffffffffffffffffffffffffffffffffffffffff1681526020019081526020016000206001600760003373ffffffffffffffffffffffffffffffffffffffff1673ffffffffffffffffffffffffffffffffffffffff168152602001908152602001600020805490500381548110611af957fe5b9060005260206000200160009055600760003373ffffffffffffffffffffffffffffffffffffffff1673ffffffffffffffffffffffffffffffffffffffff168152602001908152602001600020805480919060019003611b599190613a98565b5060008590505b6001825103811015611c2b57600860008981526020019081526020016000206001820181548110611b8d57fe5b9060005260206000200160009054906101000a900473ffffffffffffffffffffffffffffffffffffffff16600860008a81526020019081526020016000208281548110611bd657fe5b9060005260206000200160006101000a81548173ffffffffffffffffffffffffffffffffffffffff021916908373ffffffffffffffffffffffffffffffffffffffff1602179055508080600101915050611b60565b50600860008881526020019081526020016000206001600860008a8152602001908152602001600020805490500381548110611c6357fe5b9060005260206000200160006101000a81549073ffffffffffffffffffffffffffffffffffffffff021916905560086000888152602001908152602001600020805480919060019003611cb69190613b0c565b505b50505050505050565b600b602052806000526040600020600091509050806000015490806001018054600181600116156101000203166002900480601f016020809104026020016040519081016040528092919081815260200182805460018160011615610100020316600290048015611d735780601f10611d4857610100808354040283529160200191611d73565b820191906000526020600020905b815481529060010190602001808311611d5657829003601f168201915b505050505090806002015490806003018054600181600116156101000203166002900480601f016020809104026020016040519081016040528092919081815260200182805460018160011615610100020316600290048015611e175780601f10611dec57610100808354040283529160200191611e17565b820191906000526020600020905b815481529060010190602001808311611dfa57829003601f168201915b505050505090806004018054600181600116156101000203166002900480601f016020809104026020016040519081016040528092919081815260200182805460018160011615610100020316600290048015611eb55780601f10611e8a57610100808354040283529160200191611eb5565b820191906000526020600020905b815481529060010190602001808311611e9857829003601f168201915b505050505090806005018054600181600116156101000203166002900480601f016020809104026020016040519081016040528092919081815260200182805460018160011615610100020316600290048015611f535780601f10611f2857610100808354040283529160200191611f53565b820191906000526020600020905b815481529060010190602001808311611f3657829003601f168201915b5050505050908060060154908060070160009054906101000a900473ffffffffffffffffffffffffffffffffffffffff16908060080160009054906101000a900473ffffffffffffffffffffffffffffffffffffffff16908060080160149054906101000a900460ff1690508a565b60606004805480602002602001604051908101604052809291908181526020016000905b828210156121f657838290600052602060002090600702016040518061010001604052908160008201548152602001600182018054600181600116156101000203166002900480601f0160208091040260200160405190810160405280929190818152602001828054600181600116156101000203166002900480156120ad5780601f10612082576101008083540402835291602001916120ad565b820191906000526020600020905b81548152906001019060200180831161209057829003601f168201915b50505050508152602001600282018054600181600116156101000203166002900480601f01602080910402602001604051908101604052809291908181526020018280546001816001161561010002031660029004801561214f5780601f106121245761010080835404028352916020019161214f565b820191906000526020600020905b81548152906001019060200180831161213257829003601f168201915b505050505081526020016003820160009054906101000a900473ffffffffffffffffffffffffffffffffffffffff1673ffffffffffffffffffffffffffffffffffffffff1673ffffffffffffffffffffffffffffffffffffffff1681526020016003820160149054906101000a900460ff16151515158152602001600482015481526020016005820154815260200160068201548152505081526020019060010190611fe6565b50505050905090565b6004818154811061220c57fe5b906000526020600020906007020160030160009054906101000a900473ffffffffffffffffffffffffffffffffffffffff1673ffffffffffffffffffffffffffffffffffffffff163373ffffffffffffffffffffffffffffffffffffffff161461227557600080fd5b60001515600f600084815260200190815260200160002060090160009054906101000a900460ff16151514156122d9576001600f600084815260200190815260200160002060090160006101000a81548160ff021916908315150217905550612309565b6000600f600084815260200190815260200160002060090160006101000a81548160ff0219169083151502179055505b5050565b6060600c60003373ffffffffffffffffffffffffffffffffffffffff1673ffffffffffffffffffffffffffffffffffffffff16815260200190815260200160002080548060200260200160405190810160405280929190818152602001828054801561239857602002820191906000526020600020905b815481526020019060010190808311612384575b5050505050905090565b600080905060008090505b6001600c60003373ffffffffffffffffffffffffffffffffffffffff1673ffffffffffffffffffffffffffffffffffffffff168152602001908152602001600020805490500381101561251f5782600c60003373ffffffffffffffffffffffffffffffffffffffff1673ffffffffffffffffffffffffffffffffffffffff168152602001908152602001600020828154811061244557fe5b9060005260206000200154141561245b57600191505b811561251257600c60003373ffffffffffffffffffffffffffffffffffffffff1673ffffffffffffffffffffffffffffffffffffffff16815260200190815260200160002060018201815481106124ae57fe5b9060005260206000200154600c60003373ffffffffffffffffffffffffffffffffffffffff1673ffffffffffffffffffffffffffffffffffffffff168152602001908152602001600020828154811061250357fe5b90600052602060002001819055505b80806001019150506123ad565b50600c60003373ffffffffffffffffffffffffffffffffffffffff1673ffffffffffffffffffffffffffffffffffffffff1681526020019081526020016000206001600c60003373ffffffffffffffffffffffffffffffffffffffff1673ffffffffffffffffffffffffffffffffffffffff1681526020019081526020016000208054905003815481106125af57fe5b9060005260206000200160009055600c60003373ffffffffffffffffffffffffffffffffffffffff1673ffffffffffffffffffffffffffffffffffffffff16815260200190815260200160002080548091906001900361260f9190613a98565b50600b600083815260200190815260200160002060008082016000905560018201600061263c9190613ac4565b60028201600090556003820160006126549190613ac4565b6004820160006126649190613ac4565b6005820160006126749190613ac4565b60068201600090556007820160006101000a81549073ffffffffffffffffffffffffffffffffffffffff02191690556008820160006101000a81549073ffffffffffffffffffffffffffffffffffffffff02191690556008820160146101000a81549060ff021916905550505050565b60606010600083815260200190815260200160002080548060200260200160405190810160405280929190818152602001828054801561274357602002820191906000526020600020905b81548152602001906001019080831161272f575b50505050509050919050565b600087511161275d57600080fd5b600085511161276b57600080fd5b600084511161277957600080fd5b600083511161278757600080fd5b600073ffffffffffffffffffffffffffffffffffffffff163373ffffffffffffffffffffffffffffffffffffffff1614156127c157600080fd5b600086116127ce57600080fd5b604051806101400160405280600e5481526020018881526020018781526020018681526020018581526020018481526020014281526020013373ffffffffffffffffffffffffffffffffffffffff168152602001838152602001821515815250600f6000600e548152602001908152602001600020600082015181600001556020820151816001019080519060200190612869929190613a18565b50604082015181600201556060820151816003019080519060200190612890929190613a18565b5060808201518160040190805190602001906128ad929190613a18565b5060a08201518160050190805190602001906128ca929190613a18565b5060c0820151816006015560e08201518160070160006101000a81548173ffffffffffffffffffffffffffffffffffffffff021916908373ffffffffffffffffffffffffffffffffffffffff16021790555061010082015181600801556101208201518160090160006101000a81548160ff02191690831515021790555090505060106000838152602001908152602001600020600e549080600181540180825580915050906001820390600052602060002001600090919290919091505550600e600081548092919060010191905055507f9d9640b729b4d45d615421c2ddd8943a646cfe8cb357a66a6239020c637a3415600e54888888888842338a8a6040516129df9a999897969594939291906147da565b60405180910390a150505050505050565b6001151560048381548110612a0157fe5b906000526020600020906007020160030160149054906101000a900460ff161515148015612a73575060048281548110612a3757fe5b90600052602060002090600702016005015481604051602001612a5a91906145f0565b6040516020818303038152906040528051906020012014155b15612a7d57612c75565b600060048381548110612a8c57fe5b906000526020600020906007020160040154905080600860008581526020019081526020016000208054905010612ac35750612c75565b6060600760003373ffffffffffffffffffffffffffffffffffffffff1673ffffffffffffffffffffffffffffffffffffffff168152602001908152602001600020805480602002602001604051908101604052809291908181526020018280548015612b4e57602002820191906000526020600020905b815481526020019060010190808311612b3a575b5050505050905060005b8151811015612b9157818181518110612b6d57fe5b6020026020010151851415612b8457505050612c75565b8080600101915050612b58565b50600760003373ffffffffffffffffffffffffffffffffffffffff1673ffffffffffffffffffffffffffffffffffffffff168152602001908152602001600020849080600181540180825580915050906001820390600052602060002001600090919290919091505550600860008581526020019081526020016000203390806001815401808255809150509060018203906000526020600020016000909192909190916101000a81548173ffffffffffffffffffffffffffffffffffffffff021916908373ffffffffffffffffffffffffffffffffffffffff1602179055505050505b5050565b3373ffffffffffffffffffffffffffffffffffffffff166005600083815260200190815260200160002060009054906101000a900473ffffffffffffffffffffffffffffffffffffffff1673ffffffffffffffffffffffffffffffffffffffff1614612ce457600080fd5b6004805490508110612cf557612fe5565b60008190505b600160048054905003811015612e605760046001820181548110612d1b57fe5b906000526020600020906007020160048281548110612d3657fe5b90600052602060002090600702016000820154816000015560018201816001019080546001816001161561010002031660029004612d75929190613b38565b5060028201816002019080546001816001161561010002031660029004612d9d929190613b38565b506003820160009054906101000a900473ffffffffffffffffffffffffffffffffffffffff168160030160006101000a81548173ffffffffffffffffffffffffffffffffffffffff021916908373ffffffffffffffffffffffffffffffffffffffff1602179055506003820160149054906101000a900460ff168160030160146101000a81548160ff0219169083151502179055506004820154816004015560058201548160050155600682015481600601559050508080600101915050612cfb565b50600460016004805490500381548110612e7657fe5b9060005260206000209060070201600080820160009055600182016000612e9d9190613ac4565b600282016000612ead9190613ac4565b6003820160006101000a81549073ffffffffffffffffffffffffffffffffffffffff02191690556003820160146101000a81549060ff021916905560048201600090556005820160009055600682016000905550506004805480919060019003612f179190613bbf565b506005600082815260200190815260200160002060006101000a81549073ffffffffffffffffffffffffffffffffffffffff0219169055612fa16001600660003373ffffffffffffffffffffffffffffffffffffffff1673ffffffffffffffffffffffffffffffffffffffff1681526020019081526020016000205461398190919063ffffffff16565b600660003373ffffffffffffffffffffffffffffffffffffffff1673ffffffffffffffffffffffffffffffffffffffff168152602001908152602001600020819055505b50565b60048181548110612ff557fe5b9060005260206000209060070201600091509050806000015490806001018054600181600116156101000203166002900480601f0160208091040260200160405190810160405280929190818152602001828054600181600116156101000203166002900480156130a75780601f1061307c576101008083540402835291602001916130a7565b820191906000526020600020905b81548152906001019060200180831161308a57829003601f168201915b505050505090806002018054600181600116156101000203166002900480601f0160208091040260200160405190810160405280929190818152602001828054600181600116156101000203166002900480156131455780601f1061311a57610100808354040283529160200191613145565b820191906000526020600020905b81548152906001019060200180831161312857829003601f168201915b5050505050908060030160009054906101000a900473ffffffffffffffffffffffffffffffffffffffff16908060030160149054906101000a900460ff16908060040154908060050154908060060154905088565b60008551116131a857600080fd5b60008351116131b657600080fd5b60008251116131c457600080fd5b60008151116131d257600080fd5b600073ffffffffffffffffffffffffffffffffffffffff163373ffffffffffffffffffffffffffffffffffffffff16141561320c57600080fd5b6000841161321957600080fd5b60405180610100016040528060015481526020018681526020018581526020018481526020018381526020018281526020014281526020013373ffffffffffffffffffffffffffffffffffffffff168152506002600060015481526020019081526020016000206000820151816000015560208201518160010190805190602001906132a6929190613a18565b506040820151816002015560608201518160030190805190602001906132cd929190613a18565b5060808201518160040190805190602001906132ea929190613a18565b5060a0820151816005019080519060200190613307929190613a18565b5060c0820151816006015560e08201518160070160006101000a81548173ffffffffffffffffffffffffffffffffffffffff021916908373ffffffffffffffffffffffffffffffffffffffff1602179055509050506001600081548092919060010191905055507f6e95bbaa37a5fdec42a312e049dea2fe6160ebe659214d3409b4f91f164c2f52600154868686868642336040516133ad989796959493929190614688565b60405180910390a15050505050565b600f602052806000526040600020600091509050806000015490806001018054600181600116156101000203166002900480601f01602080910402602001604051908101604052809291908181526020018280546001816001161561010002031660029004801561346e5780601f106134435761010080835404028352916020019161346e565b820191906000526020600020905b81548152906001019060200180831161345157829003601f168201915b505050505090806002015490806003018054600181600116156101000203166002900480601f0160208091040260200160405190810160405280929190818152602001828054600181600116156101000203166002900480156135125780601f106134e757610100808354040283529160200191613512565b820191906000526020600020905b8154815290600101906020018083116134f557829003601f168201915b505050505090806004018054600181600116156101000203166002900480601f0160208091040260200160405190810160405280929190818152602001828054600181600116156101000203166002900480156135b05780601f10613585576101008083540402835291602001916135b0565b820191906000526020600020905b81548152906001019060200180831161359357829003601f168201915b505050505090806005018054600181600116156101000203166002900480601f01602080910402602001604051908101604052809291908181526020018280546001816001161561010002031660029004801561364e5780601f106136235761010080835404028352916020019161364e565b820191906000526020600020905b81548152906001019060200180831161363157829003601f168201915b5050505050908060060154908060070160009054906101000a900473ffffffffffffffffffffffffffffffffffffffff16908060080154908060090160009054906101000a900460ff1690508a565b6002602052806000526040600020600091509050806000015490806001018054600181600116156101000203166002900480601f01602080910402602001604051908101604052809291908181526020018280546001816001161561010002031660029004801561374f5780601f106137245761010080835404028352916020019161374f565b820191906000526020600020905b81548152906001019060200180831161373257829003601f168201915b505050505090806002015490806003018054600181600116156101000203166002900480601f0160208091040260200160405190810160405280929190818152602001828054600181600116156101000203166002900480156137f35780601f106137c8576101008083540402835291602001916137f3565b820191906000526020600020905b8154815290600101906020018083116137d657829003601f168201915b505050505090806004018054600181600116156101000203166002900480601f0160208091040260200160405190810160405280929190818152602001828054600181600116156101000203166002900480156138915780601f1061386657610100808354040283529160200191613891565b820191906000526020600020905b81548152906001019060200180831161387457829003601f168201915b505050505090806005018054600181600116156101000203166002900480601f01602080910402602001604051908101604052809291908181526020018280546001816001161561010002031660029004801561392f5780601f106139045761010080835404028352916020019161392f565b820191906000526020600020905b81548152906001019060200180831161391257829003601f168201915b5050505050908060060154908060070160009054906101000a900473ffffffffffffffffffffffffffffffffffffffff16905088565b60008082840190508381101561397757fe5b8091505092915050565b60008282111561398d57fe5b818303905092915050565b828054600181600116156101000203166002900490600052602060002090601f016020900481019282601f106139d957805160ff1916838001178555613a07565b82800160010185558215613a07579182015b82811115613a065782518255916020019190600101906139eb565b5b509050613a149190613bf1565b5090565b828054600181600116156101000203166002900490600052602060002090601f016020900481019282601f10613a5957805160ff1916838001178555613a87565b82800160010185558215613a87579182015b82811115613a86578251825591602001919060010190613a6b565b5b509050613a949190613bf1565b5090565b815481835581811115613abf57818360005260206000209182019101613abe9190613bf1565b5b505050565b50805460018160011615610100020316600290046000825580601f10613aea5750613b09565b601f016020900490600052602060002090810190613b089190613bf1565b5b50565b815481835581811115613b3357818360005260206000209182019101613b329190613bf1565b5b505050565b828054600181600116156101000203166002900490600052602060002090601f016020900481019282601f10613b715780548555613bae565b82800160010185558215613bae57600052602060002091601f016020900482015b82811115613bad578254825591600101919060010190613b92565b5b509050613bbb9190613bf1565b5090565b815481835581811115613bec57600702816007028360005260206000209182019101613beb9190613c16565b5b505050565b613c1391905b80821115613c0f576000816000905550600101613bf7565b5090565b90565b613cad91905b80821115613ca957600080820160009055600182016000613c3d9190613ac4565b600282016000613c4d9190613ac4565b6003820160006101000a81549073ffffffffffffffffffffffffffffffffffffffff02191690556003820160146101000a81549060ff021916905560048201600090556005820160009055600682016000905550600701613c1c565b5090565b90565b600081359050613cbf81614ced565b92915050565b600081359050613cd481614d04565b92915050565b600082601f830112613ceb57600080fd5b8135613cfe613cf982614b55565b614b28565b91508082526020830160208301858383011115613d1a57600080fd5b613d25838284614c9a565b50505092915050565b600081359050613d3d81614d1b565b92915050565b60008060408385031215613d5657600080fd5b6000613d6485828601613cb0565b9250506020613d7585828601613d2e565b9150509250929050565b600080600080600060a08688031215613d9757600080fd5b600086013567ffffffffffffffff811115613db157600080fd5b613dbd88828901613cda565b955050602086013567ffffffffffffffff811115613dda57600080fd5b613de688828901613cda565b9450506040613df788828901613cc5565b9350506060613e0888828901613d2e565b925050608086013567ffffffffffffffff811115613e2557600080fd5b613e3188828901613cda565b9150509295509295909350565b600080600080600060a08688031215613e5657600080fd5b600086013567ffffffffffffffff811115613e7057600080fd5b613e7c88828901613cda565b9550506020613e8d88828901613d2e565b945050604086013567ffffffffffffffff811115613eaa57600080fd5b613eb688828901613cda565b935050606086013567ffffffffffffffff811115613ed357600080fd5b613edf88828901613cda565b925050608086013567ffffffffffffffff811115613efc57600080fd5b613f0888828901613cda565b9150509295509295909350565b600080600080600080600060e0888a031215613f3057600080fd5b600088013567ffffffffffffffff811115613f4a57600080fd5b613f568a828b01613cda565b9750506020613f678a828b01613d2e565b965050604088013567ffffffffffffffff811115613f8457600080fd5b613f908a828b01613cda565b955050606088013567ffffffffffffffff811115613fad57600080fd5b613fb98a828b01613cda565b945050608088013567ffffffffffffffff811115613fd657600080fd5b613fe28a828b01613cda565b93505060a0613ff38a828b01613cb0565b92505060c06140048a828b01613cc5565b91505092959891949750929550565b600080600080600080600060e0888a03121561402e57600080fd5b600088013567ffffffffffffffff81111561404857600080fd5b6140548a828b01613cda565b97505060206140658a828b01613d2e565b965050604088013567ffffffffffffffff81111561408257600080fd5b61408e8a828b01613cda565b955050606088013567ffffffffffffffff8111156140ab57600080fd5b6140b78a828b01613cda565b945050608088013567ffffffffffffffff8111156140d457600080fd5b6140e08a828b01613cda565b93505060a06140f18a828b01613d2e565b92505060c06141028a828b01613cc5565b91505092959891949750929550565b60006020828403121561412357600080fd5b600061413184828501613d2e565b91505092915050565b6000806040838503121561414d57600080fd5b600061415b85828601613d2e565b925050602061416c85828601613cb0565b9150509250929050565b6000806040838503121561418957600080fd5b600061419785828601613d2e565b925050602083013567ffffffffffffffff8111156141b457600080fd5b6141c085828601613cda565b9150509250929050565b60008060008060008060c087890312156141e357600080fd5b60006141f189828a01613d2e565b965050602087013567ffffffffffffffff81111561420e57600080fd5b61421a89828a01613cda565b955050604087013567ffffffffffffffff81111561423757600080fd5b61424389828a01613cda565b945050606061425489828a01613cc5565b935050608061426589828a01613d2e565b92505060a087013567ffffffffffffffff81111561428257600080fd5b61428e89828a01613cda565b9150509295509295509295565b600080604083850312156142ae57600080fd5b60006142bc85828601613d2e565b92505060206142cd85828601613d2e565b9150509250929050565b60006142e3838361451b565b905092915050565b60006142f783836145d2565b60208301905092915050565b61430c81614c48565b82525050565b61431b81614c36565b82525050565b61432a81614c36565b82525050565b600061433b82614ba1565b6143458185614be7565b93508360208202850161435785614b81565b8060005b85811015614393578484038952815161437485826142d7565b945061437f83614bcd565b925060208a0199505060018101905061435b565b50829750879550505050505092915050565b60006143b082614bac565b6143ba8185614bf8565b93506143c583614b91565b8060005b838110156143f65781516143dd88826142eb565b97506143e883614bda565b9250506001810190506143c9565b5085935050505092915050565b61440c81614c5a565b82525050565b61441b81614c5a565b82525050565b61442a81614c66565b82525050565b61443981614c66565b82525050565b600061444a82614bc2565b6144548185614c1a565b9350614464818560208601614ca9565b61446d81614cdc565b840191505092915050565b600061448382614bc2565b61448d8185614c2b565b935061449d818560208601614ca9565b80840191505092915050565b60006144b482614bb7565b6144be8185614c09565b93506144ce818560208601614ca9565b6144d781614cdc565b840191505092915050565b60006144ed82614bb7565b6144f78185614c1a565b9350614507818560208601614ca9565b61451081614cdc565b840191505092915050565b60006101008301600083015161453460008601826145d2565b506020830151848203602086015261454c82826144a9565b9150506040830151848203604086015261456682826144a9565b915050606083015161457b6060860182614312565b50608083015161458e6080860182614403565b5060a08301516145a160a08601826145d2565b5060c08301516145b460c0860182614421565b5060e08301516145c760e08601826145d2565b508091505092915050565b6145db81614c90565b82525050565b6145ea81614c90565b82525050565b60006145fc8284614478565b915081905092915050565b600060208201905081810360008301526146218184614330565b905092915050565b6000602082019050818103600083015261464381846143a5565b905092915050565b6000602082019050818103600083015261466581846144e2565b905092915050565b600060208201905061468260008301846145e1565b92915050565b60006101008201905061469e600083018b6145e1565b81810360208301526146b0818a61443f565b90506146bf60408301896145e1565b81810360608301526146d1818861443f565b905081810360808301526146e5818761443f565b905081810360a08301526146f9818661443f565b905061470860c08301856145e1565b61471560e0830184614303565b9998505050505050505050565b600061014082019050614738600083018d6145e1565b818103602083015261474a818c61443f565b9050614759604083018b6145e1565b818103606083015261476b818a61443f565b9050818103608083015261477f818961443f565b905081810360a0830152614793818861443f565b90506147a260c08301876145e1565b6147af60e0830186614303565b6147bd610100830185614321565b6147cb610120830184614412565b9b9a5050505050505050505050565b6000610140820190506147f0600083018d6145e1565b8181036020830152614802818c61443f565b9050614811604083018b6145e1565b8181036060830152614823818a61443f565b90508181036080830152614837818961443f565b905081810360a083015261484b818861443f565b905061485a60c08301876145e1565b61486760e0830186614303565b6148756101008301856145e1565b614883610120830184614412565b9b9a5050505050505050505050565b6000610100820190506148a8600083018b6145e1565b81810360208301526148ba818a6144e2565b905081810360408301526148ce81896144e2565b90506148dd6060830188614321565b6148ea6080830187614412565b6148f760a08301866145e1565b61490460c0830185614430565b61491160e08301846145e1565b9998505050505050505050565b600061010082019050614934600083018b6145e1565b8181036020830152614946818a6144e2565b905061495560408301896145e1565b818103606083015261496781886144e2565b9050818103608083015261497b81876144e2565b905081810360a083015261498f81866144e2565b905061499e60c08301856145e1565b6149ab60e0830184614303565b9998505050505050505050565b6000610140820190506149ce600083018d6145e1565b81810360208301526149e0818c6144e2565b90506149ef604083018b6145e1565b8181036060830152614a01818a6144e2565b90508181036080830152614a1581896144e2565b905081810360a0830152614a2981886144e2565b9050614a3860c08301876145e1565b614a4560e0830186614303565b614a53610100830185614321565b614a61610120830184614412565b9b9a5050505050505050505050565b600061014082019050614a86600083018d6145e1565b8181036020830152614a98818c6144e2565b9050614aa7604083018b6145e1565b8181036060830152614ab9818a6144e2565b90508181036080830152614acd81896144e2565b905081810360a0830152614ae181886144e2565b9050614af060c08301876145e1565b614afd60e0830186614303565b614b0b6101008301856145e1565b614b19610120830184614412565b9b9a5050505050505050505050565b6000604051905081810181811067ffffffffffffffff82111715614b4b57600080fd5b8060405250919050565b600067ffffffffffffffff821115614b6c57600080fd5b601f19601f8301169050602081019050919050565b6000819050602082019050919050565b6000819050602082019050919050565b600081519050919050565b600081519050919050565b600081519050919050565b600081519050919050565b6000602082019050919050565b6000602082019050919050565b600082825260208201905092915050565b600082825260208201905092915050565b600082825260208201905092915050565b600082825260208201905092915050565b600081905092915050565b6000614c4182614c70565b9050919050565b6000614c5382614c70565b9050919050565b60008115159050919050565b6000819050919050565b600073ffffffffffffffffffffffffffffffffffffffff82169050919050565b6000819050919050565b82818337600083830152505050565b60005b83811015614cc7578082015181840152602081019050614cac565b83811115614cd6576000848401525b50505050565b6000601f19601f8301169050919050565b614cf681614c36565b8114614d0157600080fd5b50565b614d0d81614c5a565b8114614d1857600080fd5b50565b614d2481614c90565b8114614d2f57600080fd5b5056fea365627a7a723158208233d8e3cc94f594951642763069b6cf6de03756c3db547e211e2ff40d9740976c6578706572696d656e74616cf564736f6c63430005100040",
  "source": "// SPDX-License-Identifier: UNLICENSED\npragma solidity ^0.5.0;\npragma experimental ABIEncoderV2;\n\nimport \"./DCStorage.sol\";\nimport \"./safemath.sol\";\nimport \"./Organization.sol\";\nimport \"./Membership.sol\";\nimport \"./Direct.sol\";\n\ncontract OrganizationUploads is Direct {\n\n  string public name = \"Crypto Box Organization Upload\";\n  uint public organizationFileCount = 0;\n\n  mapping(uint => OrganizationFile) public organizationfiles;\n\n  mapping(uint => uint[]) public organizationToFileIds;\n  \n  struct OrganizationFile{\n    uint fileId;\n    string fileHash;\n    uint fileSize;\n    string fileType;\n    string fileName;\n    string fileDescription;\n    uint uploadTime;\n    address payable uploader;\n    uint organizationId;\n    bool isFlagged;\n  }\n\n  event OrganizationFileUploaded(\n    uint fileId,\n    string fileHash,\n    uint fileSize,\n    string fileType,\n    string fileName,\n    string fileDescription,\n    uint uploadTime,\n    address payable uploader,\n    uint organizationId,\n    bool isFlagged\n  );\n\n  constructor() public {\n  }\n\n  function uploadOrganizationFile(string memory _fileHash, uint _fileSize, string memory _fileType, string memory _fileName, string memory _fileDescription, uint _organizationId, bool _isFlagged) public {\n    require(bytes(_fileHash).length > 0);\n    require(bytes(_fileType).length > 0);\n    require(bytes(_fileName).length > 0);\n    require(bytes(_fileDescription).length > 0);\n    require(msg.sender != address(0));\n    require(_fileSize > 0);\n    organizationfiles[organizationFileCount] = OrganizationFile(organizationFileCount, _fileHash, _fileSize, _fileType, _fileName, _fileDescription, now, msg.sender, _organizationId, _isFlagged);\n    organizationToFileIds[_organizationId].push(organizationFileCount);\n    organizationFileCount++;\n    emit OrganizationFileUploaded(organizationFileCount, _fileHash, _fileSize, _fileType, _fileName, _fileDescription, now, msg.sender, _organizationId, _isFlagged);\n  }\n\n  function currentOrganizationFileIds(uint id) external view returns(uint [] memory) {\n    return organizationToFileIds[id];\n  }\n\n  function organizationFileDelete(uint fileId, uint organizationId) public {\n    require(msg.sender == organizations[organizationId].Owner);\n    bool startDelete = false;\n    for(uint i = 0; i < organizationToFileIds[organizationId].length - 1; i++){\n        if(organizationToFileIds[organizationId][i] == fileId){\n            startDelete = true;\n        }\n        if(startDelete){\n            organizationToFileIds[organizationId][i] = organizationToFileIds[organizationId][i + 1];\n        }\n    }\n    delete organizationToFileIds[organizationId][organizationToFileIds[organizationId].length - 1];\n    organizationToFileIds[organizationId].length--;\n    delete organizationfiles[fileId];\n  }\n  \n  function toggleFlag(uint fileId, uint organizationId) public {\n    require(msg.sender == organizations[organizationId].Owner);\n    if(organizationfiles[fileId].isFlagged == false){\n        organizationfiles[fileId].isFlagged = true;\n    } else{\n        organizationfiles[fileId].isFlagged = false;\n    }\n  }\n\n}\n\n\n",
  "sourcePath": "/Users/csuftitan/Desktop/Meet Turakhia/Advanced Blockchain (CPSC 559)/Projects/Final Project(4 Dec 2022)/src/contracts/OrganizationUploads.sol",
  "compiler": {
    "name": "solc",
    "version": "0.5.16+commit.9c3226ce.Emscripten.clang"
  },
  "schemaVersion": "3.4.9",
  "updatedAt": "2022-12-06T02:17:48.903Z",
  "devdoc": {
    "methods": {}
  },
  "userdoc": {
    "methods": {}
  }
}